{
  "transactions": [
    {
      "hash": "0x46cbf4cd4212b0be90ecde7d1cc9695d1924c6c07f345e7fc05ca758b8dfb94a",
      "transactionType": "CALL",
      "contractName": null,
      "contractAddress": "0xc52d3f65ad9b25ce99bc9992f262aeaad10bccc8",
      "function": "approve(address,uint256)",
      "arguments": [
        "0x23012511708B9448CBA03C69E5B6daafC684c213",
        "1000000000000000000000"
      ],
      "transaction": {
        "from": "0xb47cfcf8181d36117142b83d31bbbf63b1b250fe",
        "to": "0xc52d3f65ad9b25ce99bc9992f262aeaad10bccc8",
        "gas": "0x108f4",
        "value": "0x0",
        "input": "0x095ea7b300000000000000000000000023012511708b9448cba03c69e5b6daafc684c21300000000000000000000000000000000000000000000003635c9adc5dea00000",
        "nonce": "0x56",
        "chainId": "0x14a34"
      },
      "additionalContracts": [],
      "isFixedGasLimit": false
    },
    {
      "hash": "0xc770f1f527c5c8b63fa3ee020e899445c03a668ae828b1a7806e91e493f9aba9",
      "transactionType": "CALL",
      "contractName": null,
      "contractAddress": "0xc52d3f65ad9b25ce99bc9992f262aeaad10bccc8",
      "function": "approve(address,uint256)",
      "arguments": [
        "0x23012511708B9448CBA03C69E5B6daafC684c213",
        "1000000000000000000000"
      ],
      "transaction": {
        "from": "0xb1afd5179ac5d755c2da5bd2f961f5520647aeb2",
        "to": "0xc52d3f65ad9b25ce99bc9992f262aeaad10bccc8",
        "gas": "0x108f4",
        "value": "0x0",
        "input": "0x095ea7b300000000000000000000000023012511708b9448cba03c69e5b6daafc684c21300000000000000000000000000000000000000000000003635c9adc5dea00000",
        "nonce": "0x2",
        "chainId": "0x14a34"
      },
      "additionalContracts": [],
      "isFixedGasLimit": false
    },
    {
      "hash": "0x18f390e1966ebc42234578f32e2ca99def2a3c5dfbd237810fc0e3f7669c5105",
      "transactionType": "CALL",
      "contractName": null,
      "contractAddress": "0xc52d3f65ad9b25ce99bc9992f262aeaad10bccc8",
      "function": "approve(address,uint256)",
      "arguments": [
        "0x23012511708B9448CBA03C69E5B6daafC684c213",
        "1000000000000000000000"
      ],
      "transaction": {
        "from": "0xbd4114d7521f80c4bad67f5ece1c843627078791",
        "to": "0xc52d3f65ad9b25ce99bc9992f262aeaad10bccc8",
        "gas": "0x108f4",
        "value": "0x0",
        "input": "0x095ea7b300000000000000000000000023012511708b9448cba03c69e5b6daafc684c21300000000000000000000000000000000000000000000003635c9adc5dea00000",
        "nonce": "0x4",
        "chainId": "0x14a34"
      },
      "additionalContracts": [],
      "isFixedGasLimit": false
    }
  ],
  "receipts": [
    {
      "status": "0x1",
      "cumulativeGasUsed": "0x4e098f",
      "logs": [
        {
          "address": "0xc52d3f65ad9b25ce99bc9992f262aeaad10bccc8",
          "topics": [
            "0x8c5be1e5ebec7d5bd14f71427d1e84f3dd0314c0f7b2291e5b200ac8c7c3b925",
            "0x000000000000000000000000b47cfcf8181d36117142b83d31bbbf63b1b250fe",
            "0x00000000000000000000000023012511708b9448cba03c69e5b6daafc684c213"
          ],
          "data": "0x00000000000000000000000000000000000000000000003635c9adc5dea00000",
          "blockHash": "0x72c5496b5133d492101b2ecc8e5da34a79d67ea0f6992e56a847d4525e06c4c3",
          "blockNumber": "0x14700cc",
          "transactionHash": "0x46cbf4cd4212b0be90ecde7d1cc9695d1924c6c07f345e7fc05ca758b8dfb94a",
          "transactionIndex": "0x2d",
          "logIndex": "0x71",
          "removed": false
        }
      ],
      "logsBloom": "0x00000000000000000000000000000000000000000000000000000000000000000000000000000000080000000000000000080000000000000000000000200000000000000000000000000000000000000000000000800000000000000000000000000000000000000000000000000000000000000000008000000000000000000000000000000000000000000000002000000000000000000000000000000000020000000000000000000000000000000000000000000000000000000000000040000000000000000040000000000000000000000000000000000000000000000010000000000000000000000000400000000000000001000000000000000000",
      "type": "0x2",
      "transactionHash": "0x46cbf4cd4212b0be90ecde7d1cc9695d1924c6c07f345e7fc05ca758b8dfb94a",
      "transactionIndex": "0x2d",
      "blockHash": "0x72c5496b5133d492101b2ecc8e5da34a79d67ea0f6992e56a847d4525e06c4c3",
      "blockNumber": "0x14700cc",
      "gasUsed": "0xb52b",
      "effectiveGasPrice": "0xcb8c",
      "from": "0xb47cfcf8181d36117142b83d31bbbf63b1b250fe",
      "to": "0xc52d3f65ad9b25ce99bc9992f262aeaad10bccc8",
      "contractAddress": null,
      "l1BaseFeeScalar": "0x44d",
      "l1BlobBaseFee": "0x1",
      "l1BlobBaseFeeScalar": "0xa118b",
      "l1Fee": "0x677490a8",
      "l1GasPrice": "0x3aba6151",
      "l1GasUsed": "0x640"
    },
    {
      "status": "0x1",
      "cumulativeGasUsed": "0x1cd62d",
      "logs": [
        {
          "address": "0xc52d3f65ad9b25ce99bc9992f262aeaad10bccc8",
          "topics": [
            "0x8c5be1e5ebec7d5bd14f71427d1e84f3dd0314c0f7b2291e5b200ac8c7c3b925",
            "0x000000000000000000000000b1afd5179ac5d755c2da5bd2f961f5520647aeb2",
            "0x00000000000000000000000023012511708b9448cba03c69e5b6daafc684c213"
          ],
          "data": "0x00000000000000000000000000000000000000000000003635c9adc5dea00000",
          "blockHash": "0xdd6b5a6cd7bf2e9e218eb7910e7c3861ab2521c106138f1a1013f56951d1e990",
          "blockNumber": "0x14700ce",
          "transactionHash": "0xc770f1f527c5c8b63fa3ee020e899445c03a668ae828b1a7806e91e493f9aba9",
          "transactionIndex": "0x12",
          "logIndex": "0x2c",
          "removed": false
        }
      ],
      "logsBloom": "0x00000100000000000000000000000000000000000000000000000000000000000000000000000000000000000000000000080000000000000000000000200000000000000000000000000000000000000000000000000000000000000000000000000000000000000000000000000000000000000000008000000000000000000000000000000000000000000000002000000000000000000000000000000000020000000000000000000000000200000040000000000000000000000000000040000000000000000040000000000000000000000000000000000000000000000010000000000000000000000000400000000000000000000000000000000000",
      "type": "0x2",
      "transactionHash": "0xc770f1f527c5c8b63fa3ee020e899445c03a668ae828b1a7806e91e493f9aba9",
      "transactionIndex": "0x12",
      "blockHash": "0xdd6b5a6cd7bf2e9e218eb7910e7c3861ab2521c106138f1a1013f56951d1e990",
      "blockNumber": "0x14700ce",
      "gasUsed": "0xb52b",
      "effectiveGasPrice": "0xcb8c",
      "from": "0xb1afd5179ac5d755c2da5bd2f961f5520647aeb2",
      "to": "0xc52d3f65ad9b25ce99bc9992f262aeaad10bccc8",
      "contractAddress": null,
      "l1BaseFeeScalar": "0x44d",
      "l1BlobBaseFee": "0x1",
      "l1BlobBaseFeeScalar": "0xa118b",
      "l1Fee": "0x677490a8",
      "l1GasPrice": "0x3aba6151",
      "l1GasUsed": "0x640"
    },
    {
      "status": "0x1",
      "cumulativeGasUsed": "0x562241",
      "logs": [
        {
          "address": "0xc52d3f65ad9b25ce99bc9992f262aeaad10bccc8",
          "topics": [
            "0x8c5be1e5ebec7d5bd14f71427d1e84f3dd0314c0f7b2291e5b200ac8c7c3b925",
            "0x000000000000000000000000bd4114d7521f80c4bad67f5ece1c843627078791",
            "0x00000000000000000000000023012511708b9448cba03c69e5b6daafc684c213"
          ],
          "data": "0x00000000000000000000000000000000000000000000003635c9adc5dea00000",
          "blockHash": "0x6290576e73b16dde69d44fec824a731d1199f9feceaa7579ab736d8120d3429d",
          "blockNumber": "0x14700d0",
          "transactionHash": "0x18f390e1966ebc42234578f32e2ca99def2a3c5dfbd237810fc0e3f7669c5105",
          "transactionIndex": "0x29",
          "logIndex": "0x8b",
          "removed": false
        }
      ],
      "logsBloom": "0x00000800000000000000000000000000000000000000000000000000000000000000000000000000000000000000000000080000000000000000000000200000000400000000000000000000000000000000000000000000000000000000000000000000000000000000000000000000000000000000008000000002000000000000000000000000000000000000002000000000000000000000000000000000020000000000000000000000000000000000000000000000000000000000000040000000000000000040000000000000000000000000000000000000000000000010000000000000000000000000400000000000000000000000000000000000",
      "type": "0x2",
      "transactionHash": "0x18f390e1966ebc42234578f32e2ca99def2a3c5dfbd237810fc0e3f7669c5105",
      "transactionIndex": "0x29",
      "blockHash": "0x6290576e73b16dde69d44fec824a731d1199f9feceaa7579ab736d8120d3429d",
      "blockNumber": "0x14700d0",
      "gasUsed": "0xb52b",
      "effectiveGasPrice": "0xcb8b",
      "from": "0xbd4114d7521f80c4bad67f5ece1c843627078791",
      "to": "0xc52d3f65ad9b25ce99bc9992f262aeaad10bccc8",
      "contractAddress": null,
      "l1BaseFeeScalar": "0x44d",
      "l1BlobBaseFee": "0x1",
      "l1BlobBaseFeeScalar": "0xa118b",
      "l1Fee": "0x677490a8",
      "l1GasPrice": "0x3aba6151",
      "l1GasUsed": "0x640"
    }
  ],
  "libraries": [],
  "pending": [],
  "returns": {},
  "timestamp": 1738629248,
  "chain": 84532,
  "commit": "179dd92"
}