{
  "transactions": [
    {
      "hash": "0xb4f1977eef05f400b1446a96e55e92d88a4ad8e47ccec602178c897e91c4145b",
      "transactionType": "CALL",
      "contractName": null,
      "contractAddress": "0x7f310442e1ddfa18a5f98410195d381d1cb8db1b",
      "function": "approve(address,uint256)",
      "arguments": [
        "0x94435a3A14A4cF73c55CD884A5DbbfAe41198cF6",
        "100000000000000000000000"
      ],
      "transaction": {
        "from": "0xbb02a9d6a71a847d587ce4dbb92f32f79c2efb2a",
        "to": "0x7f310442e1ddfa18a5f98410195d381d1cb8db1b",
        "gas": "0xfa4d",
        "value": "0x0",
        "input": "0x095ea7b300000000000000000000000094435a3a14a4cf73c55cd884a5dbbfae41198cf600000000000000000000000000000000000000000000152d02c7e14af6800000",
        "nonce": "0x1a",
        "chainId": "0x14a34"
      },
      "additionalContracts": [],
      "isFixedGasLimit": false
    },
    {
      "hash": "0xbdc97df89f9edc94473aa74da0fa8ea2a74c8a6a8b363fac6273c1bd9ed65927",
      "transactionType": "CALL",
      "contractName": null,
      "contractAddress": "0x7f310442e1ddfa18a5f98410195d381d1cb8db1b",
      "function": "approve(address,uint256)",
      "arguments": [
        "0x94435a3A14A4cF73c55CD884A5DbbfAe41198cF6",
        "100000000000000000000000"
      ],
      "transaction": {
        "from": "0xb47cfcf8181d36117142b83d31bbbf63b1b250fe",
        "to": "0x7f310442e1ddfa18a5f98410195d381d1cb8db1b",
        "gas": "0xfa4d",
        "value": "0x0",
        "input": "0x095ea7b300000000000000000000000094435a3a14a4cf73c55cd884a5dbbfae41198cf600000000000000000000000000000000000000000000152d02c7e14af6800000",
        "nonce": "0x72",
        "chainId": "0x14a34"
      },
      "additionalContracts": [],
      "isFixedGasLimit": false
    },
    {
      "hash": "0xcb58f212f2d7708bf6be92ec8bf1d66f56aa05fb12c31b683e33feddc12997a2",
      "transactionType": "CALL",
      "contractName": null,
      "contractAddress": "0x7f310442e1ddfa18a5f98410195d381d1cb8db1b",
      "function": "approve(address,uint256)",
      "arguments": [
        "0x94435a3A14A4cF73c55CD884A5DbbfAe41198cF6",
        "100000000000000000000000"
      ],
      "transaction": {
        "from": "0xb1afd5179ac5d755c2da5bd2f961f5520647aeb2",
        "to": "0x7f310442e1ddfa18a5f98410195d381d1cb8db1b",
        "gas": "0xfa4d",
        "value": "0x0",
        "input": "0x095ea7b300000000000000000000000094435a3a14a4cf73c55cd884a5dbbfae41198cf600000000000000000000000000000000000000000000152d02c7e14af6800000",
        "nonce": "0x10",
        "chainId": "0x14a34"
      },
      "additionalContracts": [],
      "isFixedGasLimit": false
    },
    {
      "hash": "0x377e4284915573178bee06a8410e089813f9dc47092b9bf3f66bf679f61c12dc",
      "transactionType": "CALL",
      "contractName": null,
      "contractAddress": "0x7f310442e1ddfa18a5f98410195d381d1cb8db1b",
      "function": "approve(address,uint256)",
      "arguments": [
        "0x94435a3A14A4cF73c55CD884A5DbbfAe41198cF6",
        "100000000000000000000000"
      ],
      "transaction": {
        "from": "0xbd4114d7521f80c4bad67f5ece1c843627078791",
        "to": "0x7f310442e1ddfa18a5f98410195d381d1cb8db1b",
        "gas": "0xfa4d",
        "value": "0x0",
        "input": "0x095ea7b300000000000000000000000094435a3a14a4cf73c55cd884a5dbbfae41198cf600000000000000000000000000000000000000000000152d02c7e14af6800000",
        "nonce": "0xf",
        "chainId": "0x14a34"
      },
      "additionalContracts": [],
      "isFixedGasLimit": false
    }
  ],
  "receipts": [
    {
      "status": "0x1",
      "cumulativeGasUsed": "0x3fc702",
      "logs": [
        {
          "address": "0x7f310442e1ddfa18a5f98410195d381d1cb8db1b",
          "topics": [
            "0x8c5be1e5ebec7d5bd14f71427d1e84f3dd0314c0f7b2291e5b200ac8c7c3b925",
            "0x000000000000000000000000bb02a9d6a71a847d587ce4dbb92f32f79c2efb2a",
            "0x00000000000000000000000094435a3a14a4cf73c55cd884a5dbbfae41198cf6"
          ],
          "data": "0x00000000000000000000000000000000000000000000152d02c7e14af6800000",
          "blockHash": "0xefc2dc8b4c74cf3b3acd9ee9f72f19d8a163ac3d55cc167285195a076f37ea97",
          "blockNumber": "0x14878a3",
          "transactionHash": "0xb4f1977eef05f400b1446a96e55e92d88a4ad8e47ccec602178c897e91c4145b",
          "transactionIndex": "0x1f",
          "logIndex": "0x5e",
          "removed": false
        }
      ],
      "logsBloom": "0x00000000000000000000000000000000000000000000000000000000000000000000000000000000000000800000000000000000000000008000000000200000000000000000000000000000000000000000000000000004200000000000000000000000000000000000000000000000000000000000000000000000000000000000000000000010000000000000080000000000000000000000000000000000020000000000000000000000000000000000000000000000000000000000200000008000000000020000000000000000000000000000000000000000000000000010000000000000000000000000000000000000000000000000000000000000",
      "type": "0x2",
      "transactionHash": "0xb4f1977eef05f400b1446a96e55e92d88a4ad8e47ccec602178c897e91c4145b",
      "transactionIndex": "0x1f",
      "blockHash": "0xefc2dc8b4c74cf3b3acd9ee9f72f19d8a163ac3d55cc167285195a076f37ea97",
      "blockNumber": "0x14878a3",
      "gasUsed": "0xb537",
      "effectiveGasPrice": "0x18888",
      "from": "0xbb02a9d6a71a847d587ce4dbb92f32f79c2efb2a",
      "to": "0x7f310442e1ddfa18a5f98410195d381d1cb8db1b",
      "contractAddress": null,
      "l1BaseFeeScalar": "0x44d",
      "l1BlobBaseFee": "0x3925f50e6e",
      "l1BlobBaseFeeScalar": "0xa118b",
      "l1Fee": "0xec134a243ec",
      "l1GasPrice": "0x38f5aaf0b",
      "l1GasUsed": "0x640"
    },
    {
      "status": "0x1",
      "cumulativeGasUsed": "0x4b9f54",
      "logs": [
        {
          "address": "0x7f310442e1ddfa18a5f98410195d381d1cb8db1b",
          "topics": [
            "0x8c5be1e5ebec7d5bd14f71427d1e84f3dd0314c0f7b2291e5b200ac8c7c3b925",
            "0x000000000000000000000000b47cfcf8181d36117142b83d31bbbf63b1b250fe",
            "0x00000000000000000000000094435a3a14a4cf73c55cd884a5dbbfae41198cf6"
          ],
          "data": "0x00000000000000000000000000000000000000000000152d02c7e14af6800000",
          "blockHash": "0xd99f30b91f96ad5d12e973f8e97e988554599772a784684acc00abc109a982c0",
          "blockNumber": "0x14878a5",
          "transactionHash": "0xbdc97df89f9edc94473aa74da0fa8ea2a74c8a6a8b363fac6273c1bd9ed65927",
          "transactionIndex": "0x30",
          "logIndex": "0x73",
          "removed": false
        }
      ],
      "logsBloom": "0x00000000000000000000000000000000000000000000000000000000000000000000000000000000080000800000000000000000000000000000000000200000000000000000000000000000000000000000000000800004200000000000000000000000000000000000000000000000000000000000000000000000000000000000000000000010000000000000080000000000000000000000000000000000020000000000000000000000000000000000000000000000000000000000200000000000000000000000000000000000000000000000000000000000000000000010000000000000000000000000000000000000000001000000000000000000",
      "type": "0x2",
      "transactionHash": "0xbdc97df89f9edc94473aa74da0fa8ea2a74c8a6a8b363fac6273c1bd9ed65927",
      "transactionIndex": "0x30",
      "blockHash": "0xd99f30b91f96ad5d12e973f8e97e988554599772a784684acc00abc109a982c0",
      "blockNumber": "0x14878a5",
      "gasUsed": "0xb537",
      "effectiveGasPrice": "0x18888",
      "from": "0xb47cfcf8181d36117142b83d31bbbf63b1b250fe",
      "to": "0x7f310442e1ddfa18a5f98410195d381d1cb8db1b",
      "contractAddress": null,
      "l1BaseFeeScalar": "0x44d",
      "l1BlobBaseFee": "0x3925f50e6e",
      "l1BlobBaseFeeScalar": "0xa118b",
      "l1Fee": "0xec134a243ec",
      "l1GasPrice": "0x38f5aaf0b",
      "l1GasUsed": "0x640"
    },
    {
      "status": "0x1",
      "cumulativeGasUsed": "0xc846aa",
      "logs": [
        {
          "address": "0x7f310442e1ddfa18a5f98410195d381d1cb8db1b",
          "topics": [
            "0x8c5be1e5ebec7d5bd14f71427d1e84f3dd0314c0f7b2291e5b200ac8c7c3b925",
            "0x000000000000000000000000b1afd5179ac5d755c2da5bd2f961f5520647aeb2",
            "0x00000000000000000000000094435a3a14a4cf73c55cd884a5dbbfae41198cf6"
          ],
          "data": "0x00000000000000000000000000000000000000000000152d02c7e14af6800000",
          "blockHash": "0xfab3723a998dad3a870f842b05ea6550ff29f063528eef3a374f6e31cdeec150",
          "blockNumber": "0x14878a6",
          "transactionHash": "0xcb58f212f2d7708bf6be92ec8bf1d66f56aa05fb12c31b683e33feddc12997a2",
          "transactionIndex": "0x2b",
          "logIndex": "0x80",
          "removed": false
        }
      ],
      "logsBloom": "0x00000100000000000000000000000000000000000000000000000000000000000000000000000000000000800000000000000000000000000000000000200000000000000000000000000000000000000000000000000004200000000000000000000000000000000000000000000000000000000000000000000000000000000000000000000010000000000000080000000000000000000000000000000000020000000000000000000000000200000040000000000000000000000000200000000000000000000000000000000000000000000000000000000000000000000010000000000000000000000000000000000000000000000000000000000000",
      "type": "0x2",
      "transactionHash": "0xcb58f212f2d7708bf6be92ec8bf1d66f56aa05fb12c31b683e33feddc12997a2",
      "transactionIndex": "0x2b",
      "blockHash": "0xfab3723a998dad3a870f842b05ea6550ff29f063528eef3a374f6e31cdeec150",
      "blockNumber": "0x14878a6",
      "gasUsed": "0xb537",
      "effectiveGasPrice": "0x18888",
      "from": "0xb1afd5179ac5d755c2da5bd2f961f5520647aeb2",
      "to": "0x7f310442e1ddfa18a5f98410195d381d1cb8db1b",
      "contractAddress": null,
      "l1BaseFeeScalar": "0x44d",
      "l1BlobBaseFee": "0x3925f50e6e",
      "l1BlobBaseFeeScalar": "0xa118b",
      "l1Fee": "0xec134a243ec",
      "l1GasPrice": "0x38f5aaf0b",
      "l1GasUsed": "0x640"
    },
    {
      "status": "0x1",
      "cumulativeGasUsed": "0x10aa3d2",
      "logs": [
        {
          "address": "0x7f310442e1ddfa18a5f98410195d381d1cb8db1b",
          "topics": [
            "0x8c5be1e5ebec7d5bd14f71427d1e84f3dd0314c0f7b2291e5b200ac8c7c3b925",
            "0x000000000000000000000000bd4114d7521f80c4bad67f5ece1c843627078791",
            "0x00000000000000000000000094435a3a14a4cf73c55cd884a5dbbfae41198cf6"
          ],
          "data": "0x00000000000000000000000000000000000000000000152d02c7e14af6800000",
          "blockHash": "0x80d74f4b08ccdfa802b98b0cc971b6539ca31aecdfd592466e78281ea786f26b",
          "blockNumber": "0x14878a8",
          "transactionHash": "0x377e4284915573178bee06a8410e089813f9dc47092b9bf3f66bf679f61c12dc",
          "transactionIndex": "0x41",
          "logIndex": "0xc2",
          "removed": false
        }
      ],
      "logsBloom": "0x00000800000000000000000000000000000000000000000000000000000000000000000000000000000000800000000000000000000000000000000000200000000400000000000000000000000000000000000000000004200000000000000000000000000000000000000000000000000000000000000000000002000000000000000000000010000000000000080000000000000000000000000000000000020000000000000000000000000000000000000000000000000000000000200000000000000000000000000000000000000000000000000000000000000000000010000000000000000000000000000000000000000000000000000000000000",
      "type": "0x2",
      "transactionHash": "0x377e4284915573178bee06a8410e089813f9dc47092b9bf3f66bf679f61c12dc",
      "transactionIndex": "0x41",
      "blockHash": "0x80d74f4b08ccdfa802b98b0cc971b6539ca31aecdfd592466e78281ea786f26b",
      "blockNumber": "0x14878a8",
      "gasUsed": "0xb537",
      "effectiveGasPrice": "0x18888",
      "from": "0xbd4114d7521f80c4bad67f5ece1c843627078791",
      "to": "0x7f310442e1ddfa18a5f98410195d381d1cb8db1b",
      "contractAddress": null,
      "l1BaseFeeScalar": "0x44d",
      "l1BlobBaseFee": "0x3925f50e6e",
      "l1BlobBaseFeeScalar": "0xa118b",
      "l1Fee": "0xec134a243ec",
      "l1GasPrice": "0x38f5aaf0b",
      "l1GasUsed": "0x640"
    }
  ],
  "libraries": [],
  "pending": [],
  "returns": {},
  "timestamp": 1738821681,
  "chain": 84532,
  "commit": "e3ad21d"
}