{
  "transactions": [
    {
      "hash": "0x08f6b3fdd7541a205cffe232cb91940964986fec21a583e23bc8b478d744e54c",
      "transactionType": "CALL",
      "contractName": "PlaceholderStableCoin",
      "contractAddress": "0xcfe2f7254692bbd99b67a4d7d429f46b7b5e6c92",
      "function": "approve(address,uint256)",
      "arguments": [
        "0x0765e09c95E7D3F43c5EC2DcCeFA46B2e4a12CA3",
        "100000000000000000000000"
      ],
      "transaction": {
        "from": "0xbb02a9d6a71a847d587ce4dbb92f32f79c2efb2a",
        "to": "0xcfe2f7254692bbd99b67a4d7d429f46b7b5e6c92",
        "gas": "0xa755",
        "value": "0x0",
        "input": "0x095ea7b30000000000000000000000000765e09c95e7d3f43c5ec2dccefa46b2e4a12ca300000000000000000000000000000000000000000000152d02c7e14af6800000",
        "nonce": "0x48",
        "chainId": "0x14a34"
      },
      "additionalContracts": [],
      "isFixedGasLimit": false
    },
    {
      "hash": "0xd1f4091221776272ebeb2bb934c7024c7d6f042258af0c2a743b50ecb7750399",
      "transactionType": "CALL",
      "contractName": "PlaceholderStableCoin",
      "contractAddress": "0xcfe2f7254692bbd99b67a4d7d429f46b7b5e6c92",
      "function": "approve(address,uint256)",
      "arguments": [
        "0x0765e09c95E7D3F43c5EC2DcCeFA46B2e4a12CA3",
        "100000000000000000000000"
      ],
      "transaction": {
        "from": "0xb47cfcf8181d36117142b83d31bbbf63b1b250fe",
        "to": "0xcfe2f7254692bbd99b67a4d7d429f46b7b5e6c92",
        "gas": "0x9756",
        "value": "0x0",
        "input": "0x095ea7b30000000000000000000000000765e09c95e7d3f43c5ec2dccefa46b2e4a12ca300000000000000000000000000000000000000000000152d02c7e14af6800000",
        "nonce": "0x89",
        "chainId": "0x14a34"
      },
      "additionalContracts": [],
      "isFixedGasLimit": false
    },
    {
      "hash": "0x58350c83566be1550ab18c4dd7f79d8094fa64e4273b5e2f407e2675b753c99e",
      "transactionType": "CALL",
      "contractName": "PlaceholderStableCoin",
      "contractAddress": "0xcfe2f7254692bbd99b67a4d7d429f46b7b5e6c92",
      "function": "approve(address,uint256)",
      "arguments": [
        "0x0765e09c95E7D3F43c5EC2DcCeFA46B2e4a12CA3",
        "100000000000000000000000"
      ],
      "transaction": {
        "from": "0xb1afd5179ac5d755c2da5bd2f961f5520647aeb2",
        "to": "0xcfe2f7254692bbd99b67a4d7d429f46b7b5e6c92",
        "gas": "0x9756",
        "value": "0x0",
        "input": "0x095ea7b30000000000000000000000000765e09c95e7d3f43c5ec2dccefa46b2e4a12ca300000000000000000000000000000000000000000000152d02c7e14af6800000",
        "nonce": "0x17",
        "chainId": "0x14a34"
      },
      "additionalContracts": [],
      "isFixedGasLimit": false
    },
    {
      "hash": "0xf6e30cf076b99a4df5d121d746927972b066c9af37d553a40c0d75ca78fe098b",
      "transactionType": "CALL",
      "contractName": "PlaceholderStableCoin",
      "contractAddress": "0xcfe2f7254692bbd99b67a4d7d429f46b7b5e6c92",
      "function": "approve(address,uint256)",
      "arguments": [
        "0x0765e09c95E7D3F43c5EC2DcCeFA46B2e4a12CA3",
        "100000000000000000000000"
      ],
      "transaction": {
        "from": "0xbd4114d7521f80c4bad67f5ece1c843627078791",
        "to": "0xcfe2f7254692bbd99b67a4d7d429f46b7b5e6c92",
        "gas": "0x9756",
        "value": "0x0",
        "input": "0x095ea7b30000000000000000000000000765e09c95e7d3f43c5ec2dccefa46b2e4a12ca300000000000000000000000000000000000000000000152d02c7e14af6800000",
        "nonce": "0x15",
        "chainId": "0x14a34"
      },
      "additionalContracts": [],
      "isFixedGasLimit": false
    }
  ],
  "receipts": [
    {
      "status": "0x1",
      "cumulativeGasUsed": "0xe5061f",
      "logs": [
        {
          "address": "0xcfe2f7254692bbd99b67a4d7d429f46b7b5e6c92",
          "topics": [
            "0x8c5be1e5ebec7d5bd14f71427d1e84f3dd0314c0f7b2291e5b200ac8c7c3b925",
            "0x000000000000000000000000bb02a9d6a71a847d587ce4dbb92f32f79c2efb2a",
            "0x0000000000000000000000000765e09c95e7d3f43c5ec2dccefa46b2e4a12ca3"
          ],
          "data": "0x00000000000000000000000000000000000000000000152d02c7e14af6800000",
          "blockHash": "0xebd9c3fe69942ef70b895ed70e2c093ff025c991800522313dde98e9d42d2289",
          "blockNumber": "0x14962b9",
          "transactionHash": "0x08f6b3fdd7541a205cffe232cb91940964986fec21a583e23bc8b478d744e54c",
          "transactionIndex": "0x5e",
          "logIndex": "0x12f",
          "removed": false
        }
      ],
      "logsBloom": "0x00000000000000000000000000000000000000000000080000000000000000000000000000000000000000000000000000000000000000008000000000200000000000000000000000000000000000000000000000000000000000000000000000000000004000000000000000000000000000000000000000000000000000000000000000000000000000000000000000000000000000000000000000000000020000000000010000000000000000000000000000000000000020000000000000008000000000020000000000000000000000000000000000000000000000000010080000000000000000000020000000000000000000000000000000000000",
      "type": "0x2",
      "transactionHash": "0x08f6b3fdd7541a205cffe232cb91940964986fec21a583e23bc8b478d744e54c",
      "transactionIndex": "0x5e",
      "blockHash": "0xebd9c3fe69942ef70b895ed70e2c093ff025c991800522313dde98e9d42d2289",
      "blockNumber": "0x14962b9",
      "gasUsed": "0x726b",
      "effectiveGasPrice": "0x290d",
      "from": "0xbb02a9d6a71a847d587ce4dbb92f32f79c2efb2a",
      "to": "0xcfe2f7254692bbd99b67a4d7d429f46b7b5e6c92",
      "contractAddress": null,
      "l1BaseFeeScalar": "0x44d",
      "l1BlobBaseFee": "0x2",
      "l1BlobBaseFeeScalar": "0xa118b",
      "l1Fee": "0x12a5831b0f",
      "l1GasPrice": "0xa95c266ba",
      "l1GasUsed": "0x640"
    },
    {
      "status": "0x1",
      "cumulativeGasUsed": "0x8fc143",
      "logs": [
        {
          "address": "0xcfe2f7254692bbd99b67a4d7d429f46b7b5e6c92",
          "topics": [
            "0x8c5be1e5ebec7d5bd14f71427d1e84f3dd0314c0f7b2291e5b200ac8c7c3b925",
            "0x000000000000000000000000b47cfcf8181d36117142b83d31bbbf63b1b250fe",
            "0x0000000000000000000000000765e09c95e7d3f43c5ec2dccefa46b2e4a12ca3"
          ],
          "data": "0x00000000000000000000000000000000000000000000152d02c7e14af6800000",
          "blockHash": "0x58c4b8ced976968b066e45c18a181dcad44f60d60db31662867eb22aaf35c250",
          "blockNumber": "0x14962bb",
          "transactionHash": "0xd1f4091221776272ebeb2bb934c7024c7d6f042258af0c2a743b50ecb7750399",
          "transactionIndex": "0x3e",
          "logIndex": "0xad",
          "removed": false
        }
      ],
      "logsBloom": "0x00000000000000000000000000000000000000000000080000000000000000000000000000000000080000000000000000000000000000000000000000200000000000000000000000000000000000000000000000800000000000000000000000000000004000000000000000000000000000000000000000000000000000000000000000000000000000000000000000000000000000000000000000000000020000000000010000000000000000000000000000000000000020000000000000000000000000000000000000000000000000000000000000000000000000000010080000000000000000000020000000000000000001000000000000000000",
      "type": "0x2",
      "transactionHash": "0xd1f4091221776272ebeb2bb934c7024c7d6f042258af0c2a743b50ecb7750399",
      "transactionIndex": "0x3e",
      "blockHash": "0x58c4b8ced976968b066e45c18a181dcad44f60d60db31662867eb22aaf35c250",
      "blockNumber": "0x14962bb",
      "gasUsed": "0x677b",
      "effectiveGasPrice": "0x290e",
      "from": "0xb47cfcf8181d36117142b83d31bbbf63b1b250fe",
      "to": "0xcfe2f7254692bbd99b67a4d7d429f46b7b5e6c92",
      "contractAddress": null,
      "l1BaseFeeScalar": "0x44d",
      "l1BlobBaseFee": "0x2",
      "l1BlobBaseFeeScalar": "0xa118b",
      "l1Fee": "0x12a5831b0f",
      "l1GasPrice": "0xa95c266ba",
      "l1GasUsed": "0x640"
    },
    {
      "status": "0x1",
      "cumulativeGasUsed": "0xd524d7",
      "logs": [
        {
          "address": "0xcfe2f7254692bbd99b67a4d7d429f46b7b5e6c92",
          "topics": [
            "0x8c5be1e5ebec7d5bd14f71427d1e84f3dd0314c0f7b2291e5b200ac8c7c3b925",
            "0x000000000000000000000000b1afd5179ac5d755c2da5bd2f961f5520647aeb2",
            "0x0000000000000000000000000765e09c95e7d3f43c5ec2dccefa46b2e4a12ca3"
          ],
          "data": "0x00000000000000000000000000000000000000000000152d02c7e14af6800000",
          "blockHash": "0x2543fd6769659d93538a2a4dab6b0405eb2f17abd2dff30d454718a3bf558347",
          "blockNumber": "0x14962bc",
          "transactionHash": "0x58350c83566be1550ab18c4dd7f79d8094fa64e4273b5e2f407e2675b753c99e",
          "transactionIndex": "0x5d",
          "logIndex": "0x110",
          "removed": false
        }
      ],
      "logsBloom": "0x00000100000000000000000000000000000000000000080000000000000000000000000000000000000000000000000000000000000000000000000000200000000000000000000000000000000000000000000000000000000000000000000000000000004000000000000000000000000000000000000000000000000000000000000000000000000000000000000000000000000000000000000000000000020000000000010000000000000200000040000000000000000020000000000000000000000000000000000000000000000000000000000000000000000000000010080000000000000000000020000000000000000000000000000000000000",
      "type": "0x2",
      "transactionHash": "0x58350c83566be1550ab18c4dd7f79d8094fa64e4273b5e2f407e2675b753c99e",
      "transactionIndex": "0x5d",
      "blockHash": "0x2543fd6769659d93538a2a4dab6b0405eb2f17abd2dff30d454718a3bf558347",
      "blockNumber": "0x14962bc",
      "gasUsed": "0x677b",
      "effectiveGasPrice": "0x290f",
      "from": "0xb1afd5179ac5d755c2da5bd2f961f5520647aeb2",
      "to": "0xcfe2f7254692bbd99b67a4d7d429f46b7b5e6c92",
      "contractAddress": null,
      "l1BaseFeeScalar": "0x44d",
      "l1BlobBaseFee": "0x2",
      "l1BlobBaseFeeScalar": "0xa118b",
      "l1Fee": "0x12a5831b0f",
      "l1GasPrice": "0xa95c266ba",
      "l1GasUsed": "0x640"
    },
    {
      "status": "0x1",
      "cumulativeGasUsed": "0xb8d365",
      "logs": [
        {
          "address": "0xcfe2f7254692bbd99b67a4d7d429f46b7b5e6c92",
          "topics": [
            "0x8c5be1e5ebec7d5bd14f71427d1e84f3dd0314c0f7b2291e5b200ac8c7c3b925",
            "0x000000000000000000000000bd4114d7521f80c4bad67f5ece1c843627078791",
            "0x0000000000000000000000000765e09c95e7d3f43c5ec2dccefa46b2e4a12ca3"
          ],
          "data": "0x00000000000000000000000000000000000000000000152d02c7e14af6800000",
          "blockHash": "0x92d0728ce9fffb045c566c356b87b30f58eb90c5f64ef25f7f86291dc80d66eb",
          "blockNumber": "0x14962be",
          "transactionHash": "0xf6e30cf076b99a4df5d121d746927972b066c9af37d553a40c0d75ca78fe098b",
          "transactionIndex": "0x4e",
          "logIndex": "0xe8",
          "removed": false
        }
      ],
      "logsBloom": "0x00000800000000000000000000000000000000000000080000000000000000000000000000000000000000000000000000000000000000000000000000200000000400000000000000000000000000000000000000000000000000000000000000000000004000000000000000000000000000000000000000000002000000000000000000000000000000000000000000000000000000000000000000000000020000000000010000000000000000000000000000000000000020000000000000000000000000000000000000000000000000000000000000000000000000000010080000000000000000000020000000000000000000000000000000000000",
      "type": "0x2",
      "transactionHash": "0xf6e30cf076b99a4df5d121d746927972b066c9af37d553a40c0d75ca78fe098b",
      "transactionIndex": "0x4e",
      "blockHash": "0x92d0728ce9fffb045c566c356b87b30f58eb90c5f64ef25f7f86291dc80d66eb",
      "blockNumber": "0x14962be",
      "gasUsed": "0x677b",
      "effectiveGasPrice": "0x2911",
      "from": "0xbd4114d7521f80c4bad67f5ece1c843627078791",
      "to": "0xcfe2f7254692bbd99b67a4d7d429f46b7b5e6c92",
      "contractAddress": null,
      "l1BaseFeeScalar": "0x44d",
      "l1BlobBaseFee": "0x2",
      "l1BlobBaseFeeScalar": "0xa118b",
      "l1Fee": "0x12a5831b0f",
      "l1GasPrice": "0xa95c266ba",
      "l1GasUsed": "0x640"
    }
  ],
  "libraries": [],
  "pending": [],
  "returns": {},
  "timestamp": 1738941533,
  "chain": 84532,
  "commit": "270a582"
}