{
  "transactions": [
    {
      "hash": "0x16a978e9d0e4c254cf3274ea8644ef1a9b219fb013adc205ede7fba02fd9072d",
      "transactionType": "CALL",
      "contractName": "PlaceholderStableCoin",
      "contractAddress": "0xcfe2f7254692bbd99b67a4d7d429f46b7b5e6c92",
      "function": "approve(address,uint256)",
      "arguments": [
        "0x0765e09c95E7D3F43c5EC2DcCeFA46B2e4a12CA3",
        "100000000000000000000000"
      ],
      "transaction": {
        "from": "0xbb02a9d6a71a847d587ce4dbb92f32f79c2efb2a",
        "to": "0xcfe2f7254692bbd99b67a4d7d429f46b7b5e6c92",
        "gas": "0xfa4d",
        "value": "0x0",
        "input": "0x095ea7b30000000000000000000000000765e09c95e7d3f43c5ec2dccefa46b2e4a12ca300000000000000000000000000000000000000000000152d02c7e14af6800000",
        "nonce": "0x37",
        "chainId": "0x14a34"
      },
      "additionalContracts": [],
      "isFixedGasLimit": false
    },
    {
      "hash": "0xfcf8c2f0442360a4531d132a07af58fe2f356d6930cc110bcd821833dc56b9bc",
      "transactionType": "CALL",
      "contractName": "PlaceholderStableCoin",
      "contractAddress": "0xcfe2f7254692bbd99b67a4d7d429f46b7b5e6c92",
      "function": "approve(address,uint256)",
      "arguments": [
        "0x0765e09c95E7D3F43c5EC2DcCeFA46B2e4a12CA3",
        "100000000000000000000000"
      ],
      "transaction": {
        "from": "0xb47cfcf8181d36117142b83d31bbbf63b1b250fe",
        "to": "0xcfe2f7254692bbd99b67a4d7d429f46b7b5e6c92",
        "gas": "0x9756",
        "value": "0x0",
        "input": "0x095ea7b30000000000000000000000000765e09c95e7d3f43c5ec2dccefa46b2e4a12ca300000000000000000000000000000000000000000000152d02c7e14af6800000",
        "nonce": "0x87",
        "chainId": "0x14a34"
      },
      "additionalContracts": [],
      "isFixedGasLimit": false
    },
    {
      "hash": "0x9c9f6eef742dc6ed5e7b45c40463aac700c3661a05ebcb88103b7e0f9ace7951",
      "transactionType": "CALL",
      "contractName": "PlaceholderStableCoin",
      "contractAddress": "0xcfe2f7254692bbd99b67a4d7d429f46b7b5e6c92",
      "function": "approve(address,uint256)",
      "arguments": [
        "0x0765e09c95E7D3F43c5EC2DcCeFA46B2e4a12CA3",
        "100000000000000000000000"
      ],
      "transaction": {
        "from": "0xb1afd5179ac5d755c2da5bd2f961f5520647aeb2",
        "to": "0xcfe2f7254692bbd99b67a4d7d429f46b7b5e6c92",
        "gas": "0x9756",
        "value": "0x0",
        "input": "0x095ea7b30000000000000000000000000765e09c95e7d3f43c5ec2dccefa46b2e4a12ca300000000000000000000000000000000000000000000152d02c7e14af6800000",
        "nonce": "0x15",
        "chainId": "0x14a34"
      },
      "additionalContracts": [],
      "isFixedGasLimit": false
    },
    {
      "hash": "0x2bc2fc233ff4cdd019af13972c5261895284cf0c3110aa4e63a5f78675518b2b",
      "transactionType": "CALL",
      "contractName": "PlaceholderStableCoin",
      "contractAddress": "0xcfe2f7254692bbd99b67a4d7d429f46b7b5e6c92",
      "function": "approve(address,uint256)",
      "arguments": [
        "0x0765e09c95E7D3F43c5EC2DcCeFA46B2e4a12CA3",
        "100000000000000000000000"
      ],
      "transaction": {
        "from": "0xbd4114d7521f80c4bad67f5ece1c843627078791",
        "to": "0xcfe2f7254692bbd99b67a4d7d429f46b7b5e6c92",
        "gas": "0x9756",
        "value": "0x0",
        "input": "0x095ea7b30000000000000000000000000765e09c95e7d3f43c5ec2dccefa46b2e4a12ca300000000000000000000000000000000000000000000152d02c7e14af6800000",
        "nonce": "0x13",
        "chainId": "0x14a34"
      },
      "additionalContracts": [],
      "isFixedGasLimit": false
    }
  ],
  "receipts": [
    {
      "status": "0x1",
      "cumulativeGasUsed": "0x503b24",
      "logs": [
        {
          "address": "0xcfe2f7254692bbd99b67a4d7d429f46b7b5e6c92",
          "topics": [
            "0x8c5be1e5ebec7d5bd14f71427d1e84f3dd0314c0f7b2291e5b200ac8c7c3b925",
            "0x000000000000000000000000bb02a9d6a71a847d587ce4dbb92f32f79c2efb2a",
            "0x0000000000000000000000000765e09c95e7d3f43c5ec2dccefa46b2e4a12ca3"
          ],
          "data": "0x00000000000000000000000000000000000000000000152d02c7e14af6800000",
          "blockHash": "0x40abec9a385ef1c7fb455ec12014416bb318357729289dc0397b18d25df2521c",
          "blockNumber": "0x1495d1a",
          "transactionHash": "0x16a978e9d0e4c254cf3274ea8644ef1a9b219fb013adc205ede7fba02fd9072d",
          "transactionIndex": "0x29",
          "logIndex": "0x73",
          "removed": false
        }
      ],
      "logsBloom": "0x00000000000000000000000000000000000000000000080000000000000000000000000000000000000000000000000000000000000000008000000000200000000000000000000000000000000000000000000000000000000000000000000000000000004000000000000000000000000000000000000000000000000000000000000000000000000000000000000000000000000000000000000000000000020000000000010000000000000000000000000000000000000020000000000000008000000000020000000000000000000000000000000000000000000000000010080000000000000000000020000000000000000000000000000000000000",
      "type": "0x2",
      "transactionHash": "0x16a978e9d0e4c254cf3274ea8644ef1a9b219fb013adc205ede7fba02fd9072d",
      "transactionIndex": "0x29",
      "blockHash": "0x40abec9a385ef1c7fb455ec12014416bb318357729289dc0397b18d25df2521c",
      "blockNumber": "0x1495d1a",
      "gasUsed": "0xb537",
      "effectiveGasPrice": "0x18846",
      "from": "0xbb02a9d6a71a847d587ce4dbb92f32f79c2efb2a",
      "to": "0xcfe2f7254692bbd99b67a4d7d429f46b7b5e6c92",
      "contractAddress": null,
      "l1BaseFeeScalar": "0x44d",
      "l1BlobBaseFee": "0x242",
      "l1BlobBaseFeeScalar": "0xa118b",
      "l1Fee": "0x2a64f15b94",
      "l1GasPrice": "0x1810d7bc4e",
      "l1GasUsed": "0x640"
    },
    {
      "status": "0x1",
      "cumulativeGasUsed": "0x5c5e2b",
      "logs": [
        {
          "address": "0xcfe2f7254692bbd99b67a4d7d429f46b7b5e6c92",
          "topics": [
            "0x8c5be1e5ebec7d5bd14f71427d1e84f3dd0314c0f7b2291e5b200ac8c7c3b925",
            "0x000000000000000000000000b47cfcf8181d36117142b83d31bbbf63b1b250fe",
            "0x0000000000000000000000000765e09c95e7d3f43c5ec2dccefa46b2e4a12ca3"
          ],
          "data": "0x00000000000000000000000000000000000000000000152d02c7e14af6800000",
          "blockHash": "0xede38c82c7b398802b6603cd997063deb5a780581bc7cfbc0d56b3f6578476c4",
          "blockNumber": "0x1495d1c",
          "transactionHash": "0xfcf8c2f0442360a4531d132a07af58fe2f356d6930cc110bcd821833dc56b9bc",
          "transactionIndex": "0x2b",
          "logIndex": "0x7c",
          "removed": false
        }
      ],
      "logsBloom": "0x00000000000000000000000000000000000000000000080000000000000000000000000000000000080000000000000000000000000000000000000000200000000000000000000000000000000000000000000000800000000000000000000000000000004000000000000000000000000000000000000000000000000000000000000000000000000000000000000000000000000000000000000000000000020000000000010000000000000000000000000000000000000020000000000000000000000000000000000000000000000000000000000000000000000000000010080000000000000000000020000000000000000001000000000000000000",
      "type": "0x2",
      "transactionHash": "0xfcf8c2f0442360a4531d132a07af58fe2f356d6930cc110bcd821833dc56b9bc",
      "transactionIndex": "0x2b",
      "blockHash": "0xede38c82c7b398802b6603cd997063deb5a780581bc7cfbc0d56b3f6578476c4",
      "blockNumber": "0x1495d1c",
      "gasUsed": "0x677b",
      "effectiveGasPrice": "0x18845",
      "from": "0xb47cfcf8181d36117142b83d31bbbf63b1b250fe",
      "to": "0xcfe2f7254692bbd99b67a4d7d429f46b7b5e6c92",
      "contractAddress": null,
      "l1BaseFeeScalar": "0x44d",
      "l1BlobBaseFee": "0x271",
      "l1BlobBaseFeeScalar": "0xa118b",
      "l1Fee": "0x2b1adda643",
      "l1GasPrice": "0x18781d343a",
      "l1GasUsed": "0x640"
    },
    {
      "status": "0x1",
      "cumulativeGasUsed": "0x52e03e",
      "logs": [
        {
          "address": "0xcfe2f7254692bbd99b67a4d7d429f46b7b5e6c92",
          "topics": [
            "0x8c5be1e5ebec7d5bd14f71427d1e84f3dd0314c0f7b2291e5b200ac8c7c3b925",
            "0x000000000000000000000000b1afd5179ac5d755c2da5bd2f961f5520647aeb2",
            "0x0000000000000000000000000765e09c95e7d3f43c5ec2dccefa46b2e4a12ca3"
          ],
          "data": "0x00000000000000000000000000000000000000000000152d02c7e14af6800000",
          "blockHash": "0x57ca6073a1d3fc4d96e928ba81873da8e8de47faec0f3ad3bb520386b33386b5",
          "blockNumber": "0x1495d1e",
          "transactionHash": "0x9c9f6eef742dc6ed5e7b45c40463aac700c3661a05ebcb88103b7e0f9ace7951",
          "transactionIndex": "0x2b",
          "logIndex": "0x7f",
          "removed": false
        }
      ],
      "logsBloom": "0x00000100000000000000000000000000000000000000080000000000000000000000000000000000000000000000000000000000000000000000000000200000000000000000000000000000000000000000000000000000000000000000000000000000004000000000000000000000000000000000000000000000000000000000000000000000000000000000000000000000000000000000000000000000020000000000010000000000000200000040000000000000000020000000000000000000000000000000000000000000000000000000000000000000000000000010080000000000000000000020000000000000000000000000000000000000",
      "type": "0x2",
      "transactionHash": "0x9c9f6eef742dc6ed5e7b45c40463aac700c3661a05ebcb88103b7e0f9ace7951",
      "transactionIndex": "0x2b",
      "blockHash": "0x57ca6073a1d3fc4d96e928ba81873da8e8de47faec0f3ad3bb520386b33386b5",
      "blockNumber": "0x1495d1e",
      "gasUsed": "0x677b",
      "effectiveGasPrice": "0x18845",
      "from": "0xb1afd5179ac5d755c2da5bd2f961f5520647aeb2",
      "to": "0xcfe2f7254692bbd99b67a4d7d429f46b7b5e6c92",
      "contractAddress": null,
      "l1BaseFeeScalar": "0x44d",
      "l1BlobBaseFee": "0x271",
      "l1BlobBaseFeeScalar": "0xa118b",
      "l1Fee": "0x2b1adda643",
      "l1GasPrice": "0x18781d343a",
      "l1GasUsed": "0x640"
    },
    {
      "status": "0x1",
      "cumulativeGasUsed": "0x5cd459",
      "logs": [
        {
          "address": "0xcfe2f7254692bbd99b67a4d7d429f46b7b5e6c92",
          "topics": [
            "0x8c5be1e5ebec7d5bd14f71427d1e84f3dd0314c0f7b2291e5b200ac8c7c3b925",
            "0x000000000000000000000000bd4114d7521f80c4bad67f5ece1c843627078791",
            "0x0000000000000000000000000765e09c95e7d3f43c5ec2dccefa46b2e4a12ca3"
          ],
          "data": "0x00000000000000000000000000000000000000000000152d02c7e14af6800000",
          "blockHash": "0x73e1d766f17d08d9d2c0907ee729d6f8ae1b6ef4fe3f27fff994169ea31f3bff",
          "blockNumber": "0x1495d1f",
          "transactionHash": "0x2bc2fc233ff4cdd019af13972c5261895284cf0c3110aa4e63a5f78675518b2b",
          "transactionIndex": "0x28",
          "logIndex": "0x7d",
          "removed": false
        }
      ],
      "logsBloom": "0x00000800000000000000000000000000000000000000080000000000000000000000000000000000000000000000000000000000000000000000000000200000000400000000000000000000000000000000000000000000000000000000000000000000004000000000000000000000000000000000000000000002000000000000000000000000000000000000000000000000000000000000000000000000020000000000010000000000000000000000000000000000000020000000000000000000000000000000000000000000000000000000000000000000000000000010080000000000000000000020000000000000000000000000000000000000",
      "type": "0x2",
      "transactionHash": "0x2bc2fc233ff4cdd019af13972c5261895284cf0c3110aa4e63a5f78675518b2b",
      "transactionIndex": "0x28",
      "blockHash": "0x73e1d766f17d08d9d2c0907ee729d6f8ae1b6ef4fe3f27fff994169ea31f3bff",
      "blockNumber": "0x1495d1f",
      "gasUsed": "0x677b",
      "effectiveGasPrice": "0x18845",
      "from": "0xbd4114d7521f80c4bad67f5ece1c843627078791",
      "to": "0xcfe2f7254692bbd99b67a4d7d429f46b7b5e6c92",
      "contractAddress": null,
      "l1BaseFeeScalar": "0x44d",
      "l1BlobBaseFee": "0x271",
      "l1BlobBaseFeeScalar": "0xa118b",
      "l1Fee": "0x2b1adda643",
      "l1GasPrice": "0x18781d343a",
      "l1GasUsed": "0x640"
    }
  ],
  "libraries": [],
  "pending": [],
  "returns": {},
  "timestamp": 1738938656,
  "chain": 84532,
  "commit": "270a582"
}