{
  "transactions": [
    {
      "hash": "0x7d0b575538b745a102d0b83d181941e992ff4f1e727d2a38b9e0217297a6d6e5",
      "transactionType": "CALL",
      "contractName": null,
      "contractAddress": "0xf806916058553b33c87d23b9e9698b4df32cb5b9",
      "function": "approve(address,uint256)",
      "arguments": [
        "0x06f8DA200F0128cFE455B4a1482B1E8949F0174F",
        "100000000000000000000000"
      ],
      "transaction": {
        "from": "0xbb02a9d6a71a847d587ce4dbb92f32f79c2efb2a",
        "to": "0xf806916058553b33c87d23b9e9698b4df32cb5b9",
        "gas": "0xfa4d",
        "value": "0x0",
        "input": "0x095ea7b300000000000000000000000006f8da200f0128cfe455b4a1482b1e8949f0174f00000000000000000000000000000000000000000000152d02c7e14af6800000",
        "nonce": "0x4f",
        "chainId": "0x14a34"
      },
      "additionalContracts": [],
      "isFixedGasLimit": false
    },
    {
      "hash": "0xbb1c8a09eb69c44d12772917efab14e5483b66bd0874a064027ba540ade9a329",
      "transactionType": "CALL",
      "contractName": null,
      "contractAddress": "0xf806916058553b33c87d23b9e9698b4df32cb5b9",
      "function": "approve(address,uint256)",
      "arguments": [
        "0x06f8DA200F0128cFE455B4a1482B1E8949F0174F",
        "100000000000000000000000"
      ],
      "transaction": {
        "from": "0xb47cfcf8181d36117142b83d31bbbf63b1b250fe",
        "to": "0xf806916058553b33c87d23b9e9698b4df32cb5b9",
        "gas": "0xfa4d",
        "value": "0x0",
        "input": "0x095ea7b300000000000000000000000006f8da200f0128cfe455b4a1482b1e8949f0174f00000000000000000000000000000000000000000000152d02c7e14af6800000",
        "nonce": "0x8a",
        "chainId": "0x14a34"
      },
      "additionalContracts": [],
      "isFixedGasLimit": false
    },
    {
      "hash": "0xc9f2406569b9053d5461c2502235ee3596c062fc5eab269af85d2781fa9e4b46",
      "transactionType": "CALL",
      "contractName": null,
      "contractAddress": "0xf806916058553b33c87d23b9e9698b4df32cb5b9",
      "function": "approve(address,uint256)",
      "arguments": [
        "0x06f8DA200F0128cFE455B4a1482B1E8949F0174F",
        "100000000000000000000000"
      ],
      "transaction": {
        "from": "0xb1afd5179ac5d755c2da5bd2f961f5520647aeb2",
        "to": "0xf806916058553b33c87d23b9e9698b4df32cb5b9",
        "gas": "0xfa4d",
        "value": "0x0",
        "input": "0x095ea7b300000000000000000000000006f8da200f0128cfe455b4a1482b1e8949f0174f00000000000000000000000000000000000000000000152d02c7e14af6800000",
        "nonce": "0x18",
        "chainId": "0x14a34"
      },
      "additionalContracts": [],
      "isFixedGasLimit": false
    },
    {
      "hash": "0xd42347b5dedb3f84a12c51699ef994143c7b9057e8c0e3b4927ea146e7fe7bff",
      "transactionType": "CALL",
      "contractName": null,
      "contractAddress": "0xf806916058553b33c87d23b9e9698b4df32cb5b9",
      "function": "approve(address,uint256)",
      "arguments": [
        "0x06f8DA200F0128cFE455B4a1482B1E8949F0174F",
        "100000000000000000000000"
      ],
      "transaction": {
        "from": "0xbd4114d7521f80c4bad67f5ece1c843627078791",
        "to": "0xf806916058553b33c87d23b9e9698b4df32cb5b9",
        "gas": "0xfa4d",
        "value": "0x0",
        "input": "0x095ea7b300000000000000000000000006f8da200f0128cfe455b4a1482b1e8949f0174f00000000000000000000000000000000000000000000152d02c7e14af6800000",
        "nonce": "0x16",
        "chainId": "0x14a34"
      },
      "additionalContracts": [],
      "isFixedGasLimit": false
    }
  ],
  "receipts": [
    {
      "status": "0x1",
      "cumulativeGasUsed": "0x2b38e7",
      "logs": [
        {
          "address": "0xf806916058553b33c87d23b9e9698b4df32cb5b9",
          "topics": [
            "0x8c5be1e5ebec7d5bd14f71427d1e84f3dd0314c0f7b2291e5b200ac8c7c3b925",
            "0x000000000000000000000000bb02a9d6a71a847d587ce4dbb92f32f79c2efb2a",
            "0x00000000000000000000000006f8da200f0128cfe455b4a1482b1e8949f0174f"
          ],
          "data": "0x00000000000000000000000000000000000000000000152d02c7e14af6800000",
          "blockHash": "0xc111a5067cb5f3663141ebae91771976d98f13af9951cd732f90fc6b98c83815",
          "blockNumber": "0x1497dc8",
          "transactionHash": "0x7d0b575538b745a102d0b83d181941e992ff4f1e727d2a38b9e0217297a6d6e5",
          "transactionIndex": "0x1c",
          "logIndex": "0x4d",
          "removed": false
        }
      ],
      "logsBloom": "0x00000000000000000000000000000000800000000000000000000000000000000000000000000000000000040000000000000000000000008002000000200000000000000000000000000000000000000000002000000000000000000000000000000000000000000000000100000000000000000000000000000000000000000000000000000400000000000000000000000000000000000000000000000000020000000000000000000000000000000000000000000000000000000000000000008000000000020000000000000000000000000000000000000000000000000010000000000000000000000000000000000000000000000000000000000000",
      "type": "0x2",
      "transactionHash": "0x7d0b575538b745a102d0b83d181941e992ff4f1e727d2a38b9e0217297a6d6e5",
      "transactionIndex": "0x1c",
      "blockHash": "0xc111a5067cb5f3663141ebae91771976d98f13af9951cd732f90fc6b98c83815",
      "blockNumber": "0x1497dc8",
      "gasUsed": "0xb537",
      "effectiveGasPrice": "0x187f8",
      "from": "0xbb02a9d6a71a847d587ce4dbb92f32f79c2efb2a",
      "to": "0xf806916058553b33c87d23b9e9698b4df32cb5b9",
      "contractAddress": null,
      "l1BaseFeeScalar": "0x44d",
      "l1BlobBaseFee": "0x1",
      "l1BlobBaseFeeScalar": "0xa118b",
      "l1Fee": "0x2d79bb45d",
      "l1GasPrice": "0x19d09cc15",
      "l1GasUsed": "0x640"
    },
    {
      "status": "0x1",
      "cumulativeGasUsed": "0x3889e9",
      "logs": [
        {
          "address": "0xf806916058553b33c87d23b9e9698b4df32cb5b9",
          "topics": [
            "0x8c5be1e5ebec7d5bd14f71427d1e84f3dd0314c0f7b2291e5b200ac8c7c3b925",
            "0x000000000000000000000000b47cfcf8181d36117142b83d31bbbf63b1b250fe",
            "0x00000000000000000000000006f8da200f0128cfe455b4a1482b1e8949f0174f"
          ],
          "data": "0x00000000000000000000000000000000000000000000152d02c7e14af6800000",
          "blockHash": "0x670904cbae4e9756662d9f358b6b5c6dc3f2cb875da9667fd115f33c25485b96",
          "blockNumber": "0x1497dca",
          "transactionHash": "0xbb1c8a09eb69c44d12772917efab14e5483b66bd0874a064027ba540ade9a329",
          "transactionIndex": "0x17",
          "logIndex": "0x46",
          "removed": false
        }
      ],
      "logsBloom": "0x00000000000000000000000000000000800000000000000000000000000000000000000000000000080000040000000000000000000000000002000000200000000000000000000000000000000000000000002000800000000000000000000000000000000000000000000100000000000000000000000000000000000000000000000000000400000000000000000000000000000000000000000000000000020000000000000000000000000000000000000000000000000000000000000000000000000000000000000000000000000000000000000000000000000000000010000000000000000000000000000000000000000001000000000000000000",
      "type": "0x2",
      "transactionHash": "0xbb1c8a09eb69c44d12772917efab14e5483b66bd0874a064027ba540ade9a329",
      "transactionIndex": "0x17",
      "blockHash": "0x670904cbae4e9756662d9f358b6b5c6dc3f2cb875da9667fd115f33c25485b96",
      "blockNumber": "0x1497dca",
      "gasUsed": "0xb537",
      "effectiveGasPrice": "0x187f8",
      "from": "0xb47cfcf8181d36117142b83d31bbbf63b1b250fe",
      "to": "0xf806916058553b33c87d23b9e9698b4df32cb5b9",
      "contractAddress": null,
      "l1BaseFeeScalar": "0x44d",
      "l1BlobBaseFee": "0x1",
      "l1BlobBaseFeeScalar": "0xa118b",
      "l1Fee": "0x2d79bb45d",
      "l1GasPrice": "0x19d09cc15",
      "l1GasUsed": "0x640"
    },
    {
      "status": "0x1",
      "cumulativeGasUsed": "0x424bc3",
      "logs": [
        {
          "address": "0xf806916058553b33c87d23b9e9698b4df32cb5b9",
          "topics": [
            "0x8c5be1e5ebec7d5bd14f71427d1e84f3dd0314c0f7b2291e5b200ac8c7c3b925",
            "0x000000000000000000000000b1afd5179ac5d755c2da5bd2f961f5520647aeb2",
            "0x00000000000000000000000006f8da200f0128cfe455b4a1482b1e8949f0174f"
          ],
          "data": "0x00000000000000000000000000000000000000000000152d02c7e14af6800000",
          "blockHash": "0xe721f7095c05393a454c17993e7bdb711382be850cbca459b3f9147f43f29b14",
          "blockNumber": "0x1497dcc",
          "transactionHash": "0xc9f2406569b9053d5461c2502235ee3596c062fc5eab269af85d2781fa9e4b46",
          "transactionIndex": "0x1b",
          "logIndex": "0x93",
          "removed": false
        }
      ],
      "logsBloom": "0x00000100000000000000000000000000800000000000000000000000000000000000000000000000000000040000000000000000000000000002000000200000000000000000000000000000000000000000002000000000000000000000000000000000000000000000000100000000000000000000000000000000000000000000000000000400000000000000000000000000000000000000000000000000020000000000000000000000000200000040000000000000000000000000000000000000000000000000000000000000000000000000000000000000000000000010000000000000000000000000000000000000000000000000000000000000",
      "type": "0x2",
      "transactionHash": "0xc9f2406569b9053d5461c2502235ee3596c062fc5eab269af85d2781fa9e4b46",
      "transactionIndex": "0x1b",
      "blockHash": "0xe721f7095c05393a454c17993e7bdb711382be850cbca459b3f9147f43f29b14",
      "blockNumber": "0x1497dcc",
      "gasUsed": "0xb537",
      "effectiveGasPrice": "0x187f7",
      "from": "0xb1afd5179ac5d755c2da5bd2f961f5520647aeb2",
      "to": "0xf806916058553b33c87d23b9e9698b4df32cb5b9",
      "contractAddress": null,
      "l1BaseFeeScalar": "0x44d",
      "l1BlobBaseFee": "0x1",
      "l1BlobBaseFeeScalar": "0xa118b",
      "l1Fee": "0x2d79bb45d",
      "l1GasPrice": "0x19d09cc15",
      "l1GasUsed": "0x640"
    },
    {
      "status": "0x1",
      "cumulativeGasUsed": "0x2d98a9",
      "logs": [
        {
          "address": "0xf806916058553b33c87d23b9e9698b4df32cb5b9",
          "topics": [
            "0x8c5be1e5ebec7d5bd14f71427d1e84f3dd0314c0f7b2291e5b200ac8c7c3b925",
            "0x000000000000000000000000bd4114d7521f80c4bad67f5ece1c843627078791",
            "0x00000000000000000000000006f8da200f0128cfe455b4a1482b1e8949f0174f"
          ],
          "data": "0x00000000000000000000000000000000000000000000152d02c7e14af6800000",
          "blockHash": "0x466b85fa2b6cb574811d72c5c6dde9bbef9c6e8d1f6a362a98684c8c570ef83f",
          "blockNumber": "0x1497dce",
          "transactionHash": "0xd42347b5dedb3f84a12c51699ef994143c7b9057e8c0e3b4927ea146e7fe7bff",
          "transactionIndex": "0x1c",
          "logIndex": "0x4a",
          "removed": false
        }
      ],
      "logsBloom": "0x00000800000000000000000000000000800000000000000000000000000000000000000000000000000000040000000000000000000000000002000000200000000400000000000000000000000000000000002000000000000000000000000000000000000000000000000100000000000000000000000000000002000000000000000000000400000000000000000000000000000000000000000000000000020000000000000000000000000000000000000000000000000000000000000000000000000000000000000000000000000000000000000000000000000000000010000000000000000000000000000000000000000000000000000000000000",
      "type": "0x2",
      "transactionHash": "0xd42347b5dedb3f84a12c51699ef994143c7b9057e8c0e3b4927ea146e7fe7bff",
      "transactionIndex": "0x1c",
      "blockHash": "0x466b85fa2b6cb574811d72c5c6dde9bbef9c6e8d1f6a362a98684c8c570ef83f",
      "blockNumber": "0x1497dce",
      "gasUsed": "0xb537",
      "effectiveGasPrice": "0x187f8",
      "from": "0xbd4114d7521f80c4bad67f5ece1c843627078791",
      "to": "0xf806916058553b33c87d23b9e9698b4df32cb5b9",
      "contractAddress": null,
      "l1BaseFeeScalar": "0x44d",
      "l1BlobBaseFee": "0x1",
      "l1BlobBaseFeeScalar": "0xa118b",
      "l1Fee": "0x2e4749a32",
      "l1GasPrice": "0x1a454cab7",
      "l1GasUsed": "0x640"
    }
  ],
  "libraries": [],
  "pending": [],
  "returns": {},
  "timestamp": 1738955388,
  "chain": 84532,
  "commit": "744412f"
}