{
  "transactions": [
    {
      "hash": "0xb5395ff8bb8294c2bc349a550b6fa8cc6f6093d942c2f280e6bcfb03c5e396b5",
      "transactionType": "CALL",
      "contractName": null,
      "contractAddress": "0x728a61c50bd3d63f864b370aeb1b2dc90e381181",
      "function": "approve(address,uint256)",
      "arguments": [
        "0xd0382d4B654474b531ef648E2303F87Ecbbd1187",
        "100000000000000000000000"
      ],
      "transaction": {
        "from": "0xbb02a9d6a71a847d587ce4dbb92f32f79c2efb2a",
        "to": "0x728a61c50bd3d63f864b370aeb1b2dc90e381181",
        "gas": "0xfa4d",
        "value": "0x0",
        "input": "0x095ea7b3000000000000000000000000d0382d4b654474b531ef648e2303f87ecbbd118700000000000000000000000000000000000000000000152d02c7e14af6800000",
        "nonce": "0x17",
        "chainId": "0x14a34"
      },
      "additionalContracts": [],
      "isFixedGasLimit": false
    },
    {
      "hash": "0x2a69301d75d1fd736caca4b56d89516798c9491db7e192ca979dcc844ed523fc",
      "transactionType": "CALL",
      "contractName": null,
      "contractAddress": "0x728a61c50bd3d63f864b370aeb1b2dc90e381181",
      "function": "approve(address,uint256)",
      "arguments": [
        "0xd0382d4B654474b531ef648E2303F87Ecbbd1187",
        "100000000000000000000000"
      ],
      "transaction": {
        "from": "0xb47cfcf8181d36117142b83d31bbbf63b1b250fe",
        "to": "0x728a61c50bd3d63f864b370aeb1b2dc90e381181",
        "gas": "0xfa4d",
        "value": "0x0",
        "input": "0x095ea7b3000000000000000000000000d0382d4b654474b531ef648e2303f87ecbbd118700000000000000000000000000000000000000000000152d02c7e14af6800000",
        "nonce": "0x67",
        "chainId": "0x14a34"
      },
      "additionalContracts": [],
      "isFixedGasLimit": false
    },
    {
      "hash": "0xe04ad7eb38941a1474ab876c13b418382a4a340e424b9eaa8e429ac6e66b3854",
      "transactionType": "CALL",
      "contractName": null,
      "contractAddress": "0x728a61c50bd3d63f864b370aeb1b2dc90e381181",
      "function": "approve(address,uint256)",
      "arguments": [
        "0xd0382d4B654474b531ef648E2303F87Ecbbd1187",
        "100000000000000000000000"
      ],
      "transaction": {
        "from": "0xb1afd5179ac5d755c2da5bd2f961f5520647aeb2",
        "to": "0x728a61c50bd3d63f864b370aeb1b2dc90e381181",
        "gas": "0xfa4d",
        "value": "0x0",
        "input": "0x095ea7b3000000000000000000000000d0382d4b654474b531ef648e2303f87ecbbd118700000000000000000000000000000000000000000000152d02c7e14af6800000",
        "nonce": "0xf",
        "chainId": "0x14a34"
      },
      "additionalContracts": [],
      "isFixedGasLimit": false
    },
    {
      "hash": "0x7026fd583b63c9235b76bd0c673de37e06f8d89226209646b9de7c675cf642a7",
      "transactionType": "CALL",
      "contractName": null,
      "contractAddress": "0x728a61c50bd3d63f864b370aeb1b2dc90e381181",
      "function": "approve(address,uint256)",
      "arguments": [
        "0xd0382d4B654474b531ef648E2303F87Ecbbd1187",
        "100000000000000000000000"
      ],
      "transaction": {
        "from": "0xbd4114d7521f80c4bad67f5ece1c843627078791",
        "to": "0x728a61c50bd3d63f864b370aeb1b2dc90e381181",
        "gas": "0xfa4d",
        "value": "0x0",
        "input": "0x095ea7b3000000000000000000000000d0382d4b654474b531ef648e2303f87ecbbd118700000000000000000000000000000000000000000000152d02c7e14af6800000",
        "nonce": "0xe",
        "chainId": "0x14a34"
      },
      "additionalContracts": [],
      "isFixedGasLimit": false
    }
  ],
  "receipts": [
    {
      "status": "0x1",
      "cumulativeGasUsed": "0x5ce137",
      "logs": [
        {
          "address": "0x728a61c50bd3d63f864b370aeb1b2dc90e381181",
          "topics": [
            "0x8c5be1e5ebec7d5bd14f71427d1e84f3dd0314c0f7b2291e5b200ac8c7c3b925",
            "0x000000000000000000000000bb02a9d6a71a847d587ce4dbb92f32f79c2efb2a",
            "0x000000000000000000000000d0382d4b654474b531ef648e2303f87ecbbd1187"
          ],
          "data": "0x00000000000000000000000000000000000000000000152d02c7e14af6800000",
          "blockHash": "0x95bae05ea20ebab9eed5d8348f62986ae58603dec66036b99c9c8bcb2f8fedbd",
          "blockNumber": "0x14869e0",
          "transactionHash": "0xb5395ff8bb8294c2bc349a550b6fa8cc6f6093d942c2f280e6bcfb03c5e396b5",
          "transactionIndex": "0x37",
          "logIndex": "0x85",
          "removed": false
        }
      ],
      "logsBloom": "0x00000000000000000000000000000000000000000000000000000000000000000000000000000000000000000000000000000020000000008000000000200200000000000000000000000000000000000002000000000000000000000000000000000000000000000000000100000000000000000000000000000000400000000000000000000000000000000000000000000000000000000000000000000000020000000000000000000000000000000000000000000000000000000000000000008000000000020000000000000000100000000000000000000000000000000010000000000000000000000000000000000000000000000000000000000000",
      "type": "0x2",
      "transactionHash": "0xb5395ff8bb8294c2bc349a550b6fa8cc6f6093d942c2f280e6bcfb03c5e396b5",
      "transactionIndex": "0x37",
      "blockHash": "0x95bae05ea20ebab9eed5d8348f62986ae58603dec66036b99c9c8bcb2f8fedbd",
      "blockNumber": "0x14869e0",
      "gasUsed": "0xb537",
      "effectiveGasPrice": "0x188b5",
      "from": "0xbb02a9d6a71a847d587ce4dbb92f32f79c2efb2a",
      "to": "0x728a61c50bd3d63f864b370aeb1b2dc90e381181",
      "contractAddress": null,
      "l1BaseFeeScalar": "0x44d",
      "l1BlobBaseFee": "0x52e8c4",
      "l1BlobBaseFeeScalar": "0xa118b",
      "l1Fee": "0xa4d6f1aa",
      "l1GasPrice": "0x517152fd",
      "l1GasUsed": "0x640"
    },
    {
      "status": "0x1",
      "cumulativeGasUsed": "0x451926",
      "logs": [
        {
          "address": "0x728a61c50bd3d63f864b370aeb1b2dc90e381181",
          "topics": [
            "0x8c5be1e5ebec7d5bd14f71427d1e84f3dd0314c0f7b2291e5b200ac8c7c3b925",
            "0x000000000000000000000000b47cfcf8181d36117142b83d31bbbf63b1b250fe",
            "0x000000000000000000000000d0382d4b654474b531ef648e2303f87ecbbd1187"
          ],
          "data": "0x00000000000000000000000000000000000000000000152d02c7e14af6800000",
          "blockHash": "0x540be4cd6f26863286fd1c85281c454839ef7b34ef3f72707411221e8d10fa9c",
          "blockNumber": "0x14869e1",
          "transactionHash": "0x2a69301d75d1fd736caca4b56d89516798c9491db7e192ca979dcc844ed523fc",
          "transactionIndex": "0x27",
          "logIndex": "0x66",
          "removed": false
        }
      ],
      "logsBloom": "0x00000000000000000000000000000000000000000000000000000000000000000000000000000000080000000000000000000020000000000000000000200200000000000000000000000000000000000002000000800000000000000000000000000000000000000000000100000000000000000000000000000000400000000000000000000000000000000000000000000000000000000000000000000000020000000000000000000000000000000000000000000000000000000000000000000000000000000000000000000000100000000000000000000000000000000010000000000000000000000000000000000000000001000000000000000000",
      "type": "0x2",
      "transactionHash": "0x2a69301d75d1fd736caca4b56d89516798c9491db7e192ca979dcc844ed523fc",
      "transactionIndex": "0x27",
      "blockHash": "0x540be4cd6f26863286fd1c85281c454839ef7b34ef3f72707411221e8d10fa9c",
      "blockNumber": "0x14869e1",
      "gasUsed": "0xb537",
      "effectiveGasPrice": "0x188b4",
      "from": "0xb47cfcf8181d36117142b83d31bbbf63b1b250fe",
      "to": "0x728a61c50bd3d63f864b370aeb1b2dc90e381181",
      "contractAddress": null,
      "l1BaseFeeScalar": "0x44d",
      "l1BlobBaseFee": "0x52e8c4",
      "l1BlobBaseFeeScalar": "0xa118b",
      "l1Fee": "0xa4d6f1aa",
      "l1GasPrice": "0x517152fd",
      "l1GasUsed": "0x640"
    },
    {
      "status": "0x1",
      "cumulativeGasUsed": "0x409fbb",
      "logs": [
        {
          "address": "0x728a61c50bd3d63f864b370aeb1b2dc90e381181",
          "topics": [
            "0x8c5be1e5ebec7d5bd14f71427d1e84f3dd0314c0f7b2291e5b200ac8c7c3b925",
            "0x000000000000000000000000b1afd5179ac5d755c2da5bd2f961f5520647aeb2",
            "0x000000000000000000000000d0382d4b654474b531ef648e2303f87ecbbd1187"
          ],
          "data": "0x00000000000000000000000000000000000000000000152d02c7e14af6800000",
          "blockHash": "0xfcec09cee3fca400c2e716f7ecaa6fa0d1dea501838f0019921e19201e206a15",
          "blockNumber": "0x14869e3",
          "transactionHash": "0xe04ad7eb38941a1474ab876c13b418382a4a340e424b9eaa8e429ac6e66b3854",
          "transactionIndex": "0x26",
          "logIndex": "0x5e",
          "removed": false
        }
      ],
      "logsBloom": "0x00000100000000000000000000000000000000000000000000000000000000000000000000000000000000000000000000000020000000000000000000200200000000000000000000000000000000000002000000000000000000000000000000000000000000000000000100000000000000000000000000000000400000000000000000000000000000000000000000000000000000000000000000000000020000000000000000000000000200000040000000000000000000000000000000000000000000000000000000000000100000000000000000000000000000000010000000000000000000000000000000000000000000000000000000000000",
      "type": "0x2",
      "transactionHash": "0xe04ad7eb38941a1474ab876c13b418382a4a340e424b9eaa8e429ac6e66b3854",
      "transactionIndex": "0x26",
      "blockHash": "0xfcec09cee3fca400c2e716f7ecaa6fa0d1dea501838f0019921e19201e206a15",
      "blockNumber": "0x14869e3",
      "gasUsed": "0xb537",
      "effectiveGasPrice": "0x188b5",
      "from": "0xb1afd5179ac5d755c2da5bd2f961f5520647aeb2",
      "to": "0x728a61c50bd3d63f864b370aeb1b2dc90e381181",
      "contractAddress": null,
      "l1BaseFeeScalar": "0x44d",
      "l1BlobBaseFee": "0x52e8c4",
      "l1BlobBaseFeeScalar": "0xa118b",
      "l1Fee": "0xa4d6f1aa",
      "l1GasPrice": "0x517152fd",
      "l1GasUsed": "0x640"
    },
    {
      "status": "0x1",
      "cumulativeGasUsed": "0x8e787f",
      "logs": [
        {
          "address": "0x728a61c50bd3d63f864b370aeb1b2dc90e381181",
          "topics": [
            "0x8c5be1e5ebec7d5bd14f71427d1e84f3dd0314c0f7b2291e5b200ac8c7c3b925",
            "0x000000000000000000000000bd4114d7521f80c4bad67f5ece1c843627078791",
            "0x000000000000000000000000d0382d4b654474b531ef648e2303f87ecbbd1187"
          ],
          "data": "0x00000000000000000000000000000000000000000000152d02c7e14af6800000",
          "blockHash": "0x79bcf9514ac3b4c184ff706741859ddbafc376868832516cb4cac76f8c5f520c",
          "blockNumber": "0x14869e4",
          "transactionHash": "0x7026fd583b63c9235b76bd0c673de37e06f8d89226209646b9de7c675cf642a7",
          "transactionIndex": "0x3f",
          "logIndex": "0xc8",
          "removed": false
        }
      ],
      "logsBloom": "0x00000800000000000000000000000000000000000000000000000000000000000000000000000000000000000000000000000020000000000000000000200200000400000000000000000000000000000002000000000000000000000000000000000000000000000000000100000000000000000000000000000002400000000000000000000000000000000000000000000000000000000000000000000000020000000000000000000000000000000000000000000000000000000000000000000000000000000000000000000000100000000000000000000000000000000010000000000000000000000000000000000000000000000000000000000000",
      "type": "0x2",
      "transactionHash": "0x7026fd583b63c9235b76bd0c673de37e06f8d89226209646b9de7c675cf642a7",
      "transactionIndex": "0x3f",
      "blockHash": "0x79bcf9514ac3b4c184ff706741859ddbafc376868832516cb4cac76f8c5f520c",
      "blockNumber": "0x14869e4",
      "gasUsed": "0xb537",
      "effectiveGasPrice": "0x188b4",
      "from": "0xbd4114d7521f80c4bad67f5ece1c843627078791",
      "to": "0x728a61c50bd3d63f864b370aeb1b2dc90e381181",
      "contractAddress": null,
      "l1BaseFeeScalar": "0x44d",
      "l1BlobBaseFee": "0x52e8c4",
      "l1BlobBaseFeeScalar": "0xa118b",
      "l1Fee": "0xa4d6f1aa",
      "l1GasPrice": "0x517152fd",
      "l1GasUsed": "0x640"
    }
  ],
  "libraries": [],
  "pending": [],
  "returns": {},
  "timestamp": 1738814121,
  "chain": 84532,
  "commit": "e3ad21d"
}