{
  "transactions": [
    {
      "hash": "0xef91db314af84873700bc09145d8048acf2b989e6d804d5b6745e619f5f89405",
      "transactionType": "CALL",
      "contractName": "PlaceholderStableCoin",
      "contractAddress": "0xc52d3f65ad9b25ce99bc9992f262aeaad10bccc8",
      "function": "approve(address,uint256)",
      "arguments": [
        "0x23012511708B9448CBA03C69E5B6daafC684c213",
        "1000000000000000000000"
      ],
      "transaction": {
        "from": "0xbb02a9d6a71a847d587ce4dbb92f32f79c2efb2a",
        "to": "0xc52d3f65ad9b25ce99bc9992f262aeaad10bccc8",
        "gas": "0x8edc",
        "value": "0x0",
        "input": "0x095ea7b300000000000000000000000023012511708b9448cba03c69e5b6daafc684c21300000000000000000000000000000000000000000000003635c9adc5dea00000",
        "nonce": "0x6",
        "chainId": "0x14a34"
      },
      "additionalContracts": [],
      "isFixedGasLimit": false
    },
    {
      "hash": "0xa8153308647c78155297d5cfee1c3894f118efd28e52725b60fe1566369fc85d",
      "transactionType": "CALL",
      "contractName": "PlaceholderStableCoin",
      "contractAddress": "0xc52d3f65ad9b25ce99bc9992f262aeaad10bccc8",
      "function": "approve(address,uint256)",
      "arguments": [
        "0x23012511708B9448CBA03C69E5B6daafC684c213",
        "1000000000000000000000"
      ],
      "transaction": {
        "from": "0xb47cfcf8181d36117142b83d31bbbf63b1b250fe",
        "to": "0xc52d3f65ad9b25ce99bc9992f262aeaad10bccc8",
        "gas": "0x8edc",
        "value": "0x0",
        "input": "0x095ea7b300000000000000000000000023012511708b9448cba03c69e5b6daafc684c21300000000000000000000000000000000000000000000003635c9adc5dea00000",
        "nonce": "0x5c",
        "chainId": "0x14a34"
      },
      "additionalContracts": [],
      "isFixedGasLimit": false
    },
    {
      "hash": "0x6a1f67e1abdbfaa057713c6eaafc25d59e508462dee00e8203ddb417f2f541fd",
      "transactionType": "CALL",
      "contractName": "PlaceholderStableCoin",
      "contractAddress": "0xc52d3f65ad9b25ce99bc9992f262aeaad10bccc8",
      "function": "approve(address,uint256)",
      "arguments": [
        "0x23012511708B9448CBA03C69E5B6daafC684c213",
        "1000000000000000000000"
      ],
      "transaction": {
        "from": "0xb1afd5179ac5d755c2da5bd2f961f5520647aeb2",
        "to": "0xc52d3f65ad9b25ce99bc9992f262aeaad10bccc8",
        "gas": "0x8edc",
        "value": "0x0",
        "input": "0x095ea7b300000000000000000000000023012511708b9448cba03c69e5b6daafc684c21300000000000000000000000000000000000000000000003635c9adc5dea00000",
        "nonce": "0x6",
        "chainId": "0x14a34"
      },
      "additionalContracts": [],
      "isFixedGasLimit": false
    },
    {
      "hash": "0x62b38d9869a68eb3c1afe0d146c91a77fab3a515e7b5510dfc55668e733a0aab",
      "transactionType": "CALL",
      "contractName": "PlaceholderStableCoin",
      "contractAddress": "0xc52d3f65ad9b25ce99bc9992f262aeaad10bccc8",
      "function": "approve(address,uint256)",
      "arguments": [
        "0x23012511708B9448CBA03C69E5B6daafC684c213",
        "1000000000000000000000"
      ],
      "transaction": {
        "from": "0xbd4114d7521f80c4bad67f5ece1c843627078791",
        "to": "0xc52d3f65ad9b25ce99bc9992f262aeaad10bccc8",
        "gas": "0x8edc",
        "value": "0x0",
        "input": "0x095ea7b300000000000000000000000023012511708b9448cba03c69e5b6daafc684c21300000000000000000000000000000000000000000000003635c9adc5dea00000",
        "nonce": "0x7",
        "chainId": "0x14a34"
      },
      "additionalContracts": [],
      "isFixedGasLimit": false
    }
  ],
  "receipts": [
    {
      "status": "0x1",
      "cumulativeGasUsed": "0x77acd7",
      "logs": [
        {
          "address": "0xc52d3f65ad9b25ce99bc9992f262aeaad10bccc8",
          "topics": [
            "0x8c5be1e5ebec7d5bd14f71427d1e84f3dd0314c0f7b2291e5b200ac8c7c3b925",
            "0x000000000000000000000000bb02a9d6a71a847d587ce4dbb92f32f79c2efb2a",
            "0x00000000000000000000000023012511708b9448cba03c69e5b6daafc684c213"
          ],
          "data": "0x00000000000000000000000000000000000000000000003635c9adc5dea00000",
          "blockHash": "0x189cc80fed1829e43689dc4205a145199475f539720e78b13f6ab153dc4557db",
          "blockNumber": "0x14853aa",
          "transactionHash": "0xef91db314af84873700bc09145d8048acf2b989e6d804d5b6745e619f5f89405",
          "transactionIndex": "0x20",
          "logIndex": "0x57",
          "removed": false
        }
      ],
      "logsBloom": "0x00000000000000000000000000000000000000000000000000000000000000000000000000000000000000000000000000080000000000008000000000200000000000000000000000000000000000000000000000000000000000000000000000000000000000000000000000000000000000000000008000000000000000000000000000000000000000000000002000000000000000000000000000000000020000000000000000000000000000000000000000000000000000000000000040008000000000020040000000000000000000000000000000000000000000000010000000000000000000000000400000000000000000000000000000000000",
      "type": "0x2",
      "transactionHash": "0xef91db314af84873700bc09145d8048acf2b989e6d804d5b6745e619f5f89405",
      "transactionIndex": "0x20",
      "blockHash": "0x189cc80fed1829e43689dc4205a145199475f539720e78b13f6ab153dc4557db",
      "blockNumber": "0x14853aa",
      "gasUsed": "0x676f",
      "effectiveGasPrice": "0x18838",
      "from": "0xbb02a9d6a71a847d587ce4dbb92f32f79c2efb2a",
      "to": "0xc52d3f65ad9b25ce99bc9992f262aeaad10bccc8",
      "contractAddress": null,
      "l1BaseFeeScalar": "0x44d",
      "l1BlobBaseFee": "0x1",
      "l1BlobBaseFeeScalar": "0xa118b",
      "l1Fee": "0x6625b802",
      "l1GasPrice": "0x39fc4ca4",
      "l1GasUsed": "0x640"
    },
    {
      "status": "0x1",
      "cumulativeGasUsed": "0x41745c",
      "logs": [
        {
          "address": "0xc52d3f65ad9b25ce99bc9992f262aeaad10bccc8",
          "topics": [
            "0x8c5be1e5ebec7d5bd14f71427d1e84f3dd0314c0f7b2291e5b200ac8c7c3b925",
            "0x000000000000000000000000b47cfcf8181d36117142b83d31bbbf63b1b250fe",
            "0x00000000000000000000000023012511708b9448cba03c69e5b6daafc684c213"
          ],
          "data": "0x00000000000000000000000000000000000000000000003635c9adc5dea00000",
          "blockHash": "0xdb52e6b9487bc10756609ee45b26ce903bc09225febf2fe803a62d5d2cec7a99",
          "blockNumber": "0x14853ac",
          "transactionHash": "0xa8153308647c78155297d5cfee1c3894f118efd28e52725b60fe1566369fc85d",
          "transactionIndex": "0x1d",
          "logIndex": "0x56",
          "removed": false
        }
      ],
      "logsBloom": "0x00000000000000000000000000000000000000000000000000000000000000000000000000000000080000000000000000080000000000000000000000200000000000000000000000000000000000000000000000800000000000000000000000000000000000000000000000000000000000000000008000000000000000000000000000000000000000000000002000000000000000000000000000000000020000000000000000000000000000000000000000000000000000000000000040000000000000000040000000000000000000000000000000000000000000000010000000000000000000000000400000000000000001000000000000000000",
      "type": "0x2",
      "transactionHash": "0xa8153308647c78155297d5cfee1c3894f118efd28e52725b60fe1566369fc85d",
      "transactionIndex": "0x1d",
      "blockHash": "0xdb52e6b9487bc10756609ee45b26ce903bc09225febf2fe803a62d5d2cec7a99",
      "blockNumber": "0x14853ac",
      "gasUsed": "0x676f",
      "effectiveGasPrice": "0x18839",
      "from": "0xb47cfcf8181d36117142b83d31bbbf63b1b250fe",
      "to": "0xc52d3f65ad9b25ce99bc9992f262aeaad10bccc8",
      "contractAddress": null,
      "l1BaseFeeScalar": "0x44d",
      "l1BlobBaseFee": "0x1",
      "l1BlobBaseFeeScalar": "0xa118b",
      "l1Fee": "0x6625b802",
      "l1GasPrice": "0x39fc4ca4",
      "l1GasUsed": "0x640"
    },
    {
      "status": "0x1",
      "cumulativeGasUsed": "0x4d5fca",
      "logs": [
        {
          "address": "0xc52d3f65ad9b25ce99bc9992f262aeaad10bccc8",
          "topics": [
            "0x8c5be1e5ebec7d5bd14f71427d1e84f3dd0314c0f7b2291e5b200ac8c7c3b925",
            "0x000000000000000000000000b1afd5179ac5d755c2da5bd2f961f5520647aeb2",
            "0x00000000000000000000000023012511708b9448cba03c69e5b6daafc684c213"
          ],
          "data": "0x00000000000000000000000000000000000000000000003635c9adc5dea00000",
          "blockHash": "0x143a8628473d3dc293c35ccd9f267e69ddbc2ab21f4fe48fc73481a817347871",
          "blockNumber": "0x14853ae",
          "transactionHash": "0x6a1f67e1abdbfaa057713c6eaafc25d59e508462dee00e8203ddb417f2f541fd",
          "transactionIndex": "0x23",
          "logIndex": "0x57",
          "removed": false
        }
      ],
      "logsBloom": "0x00000100000000000000000000000000000000000000000000000000000000000000000000000000000000000000000000080000000000000000000000200000000000000000000000000000000000000000000000000000000000000000000000000000000000000000000000000000000000000000008000000000000000000000000000000000000000000000002000000000000000000000000000000000020000000000000000000000000200000040000000000000000000000000000040000000000000000040000000000000000000000000000000000000000000000010000000000000000000000000400000000000000000000000000000000000",
      "type": "0x2",
      "transactionHash": "0x6a1f67e1abdbfaa057713c6eaafc25d59e508462dee00e8203ddb417f2f541fd",
      "transactionIndex": "0x23",
      "blockHash": "0x143a8628473d3dc293c35ccd9f267e69ddbc2ab21f4fe48fc73481a817347871",
      "blockNumber": "0x14853ae",
      "gasUsed": "0x676f",
      "effectiveGasPrice": "0x18838",
      "from": "0xb1afd5179ac5d755c2da5bd2f961f5520647aeb2",
      "to": "0xc52d3f65ad9b25ce99bc9992f262aeaad10bccc8",
      "contractAddress": null,
      "l1BaseFeeScalar": "0x44d",
      "l1BlobBaseFee": "0x1",
      "l1BlobBaseFeeScalar": "0xa118b",
      "l1Fee": "0x72e9dffa",
      "l1GasPrice": "0x413b850b",
      "l1GasUsed": "0x640"
    },
    {
      "status": "0x1",
      "cumulativeGasUsed": "0x50014f",
      "logs": [
        {
          "address": "0xc52d3f65ad9b25ce99bc9992f262aeaad10bccc8",
          "topics": [
            "0x8c5be1e5ebec7d5bd14f71427d1e84f3dd0314c0f7b2291e5b200ac8c7c3b925",
            "0x000000000000000000000000bd4114d7521f80c4bad67f5ece1c843627078791",
            "0x00000000000000000000000023012511708b9448cba03c69e5b6daafc684c213"
          ],
          "data": "0x00000000000000000000000000000000000000000000003635c9adc5dea00000",
          "blockHash": "0xfc5cd76d66991e1726922eca25a9d3882c2ddbde9f831695e97c1dcba6ffcdf0",
          "blockNumber": "0x14853af",
          "transactionHash": "0x62b38d9869a68eb3c1afe0d146c91a77fab3a515e7b5510dfc55668e733a0aab",
          "transactionIndex": "0x26",
          "logIndex": "0x75",
          "removed": false
        }
      ],
      "logsBloom": "0x00000800000000000000000000000000000000000000000000000000000000000000000000000000000000000000000000080000000000000000000000200000000400000000000000000000000000000000000000000000000000000000000000000000000000000000000000000000000000000000008000000002000000000000000000000000000000000000002000000000000000000000000000000000020000000000000000000000000000000000000000000000000000000000000040000000000000000040000000000000000000000000000000000000000000000010000000000000000000000000400000000000000000000000000000000000",
      "type": "0x2",
      "transactionHash": "0x62b38d9869a68eb3c1afe0d146c91a77fab3a515e7b5510dfc55668e733a0aab",
      "transactionIndex": "0x26",
      "blockHash": "0xfc5cd76d66991e1726922eca25a9d3882c2ddbde9f831695e97c1dcba6ffcdf0",
      "blockNumber": "0x14853af",
      "gasUsed": "0x676f",
      "effectiveGasPrice": "0x18838",
      "from": "0xbd4114d7521f80c4bad67f5ece1c843627078791",
      "to": "0xc52d3f65ad9b25ce99bc9992f262aeaad10bccc8",
      "contractAddress": null,
      "l1BaseFeeScalar": "0x44d",
      "l1BlobBaseFee": "0x1",
      "l1BlobBaseFeeScalar": "0xa118b",
      "l1Fee": "0x72e9dffa",
      "l1GasPrice": "0x413b850b",
      "l1GasUsed": "0x640"
    }
  ],
  "libraries": [],
  "pending": [],
  "returns": {},
  "timestamp": 1738802752,
  "chain": 84532,
  "commit": "01c5c73"
}