{
  "transactions": [
    {
      "hash": "0x3105a8fa371aa815664700a10a3c10f6fef6cae28fd9a1cd3bb7e3f96df2b175",
      "transactionType": "CALL",
      "contractName": null,
      "contractAddress": "0x6120fe707cc065d85452e44abc971f3beafcde20",
      "function": "approve(address,uint256)",
      "arguments": [
        "0x4F2d12a9b328Ba6D5bB3578dC3F0197249a0428C",
        "10000000000000000000000"
      ],
      "transaction": {
        "from": "0xbb02a9d6a71a847d587ce4dbb92f32f79c2efb2a",
        "to": "0x6120fe707cc065d85452e44abc971f3beafcde20",
        "gas": "0xa755",
        "value": "0x0",
        "input": "0x095ea7b30000000000000000000000004f2d12a9b328ba6d5bb3578dc3f0197249a0428c00000000000000000000000000000000000000000000021e19e0c9bab2400000",
        "nonce": "0x9",
        "chainId": "0x14a34"
      },
      "additionalContracts": [],
      "isFixedGasLimit": false
    },
    {
      "hash": "0x4a86cab30c994899fc3238b8ba4a187fdc00b026ff7fd2f56650bf7f6935ed95",
      "transactionType": "CALL",
      "contractName": null,
      "contractAddress": "0x6120fe707cc065d85452e44abc971f3beafcde20",
      "function": "approve(address,uint256)",
      "arguments": [
        "0x4F2d12a9b328Ba6D5bB3578dC3F0197249a0428C",
        "10000000000000000000000"
      ],
      "transaction": {
        "from": "0xb47cfcf8181d36117142b83d31bbbf63b1b250fe",
        "to": "0x6120fe707cc065d85452e44abc971f3beafcde20",
        "gas": "0xa755",
        "value": "0x0",
        "input": "0x095ea7b30000000000000000000000004f2d12a9b328ba6d5bb3578dc3f0197249a0428c00000000000000000000000000000000000000000000021e19e0c9bab2400000",
        "nonce": "0x5e",
        "chainId": "0x14a34"
      },
      "additionalContracts": [],
      "isFixedGasLimit": false
    },
    {
      "hash": "0x3ca0dce45c1017a052c2c521f8730a231ee6f1f14c03d1e7ab22d1481126257a",
      "transactionType": "CALL",
      "contractName": null,
      "contractAddress": "0x6120fe707cc065d85452e44abc971f3beafcde20",
      "function": "approve(address,uint256)",
      "arguments": [
        "0x4F2d12a9b328Ba6D5bB3578dC3F0197249a0428C",
        "10000000000000000000000"
      ],
      "transaction": {
        "from": "0xb1afd5179ac5d755c2da5bd2f961f5520647aeb2",
        "to": "0x6120fe707cc065d85452e44abc971f3beafcde20",
        "gas": "0xa755",
        "value": "0x0",
        "input": "0x095ea7b30000000000000000000000004f2d12a9b328ba6d5bb3578dc3f0197249a0428c00000000000000000000000000000000000000000000021e19e0c9bab2400000",
        "nonce": "0x8",
        "chainId": "0x14a34"
      },
      "additionalContracts": [],
      "isFixedGasLimit": false
    },
    {
      "hash": "0x4db4abdc2ee8cc9958ba3104630f25ec91366b3a0fc3ea5354affc5a90f7142c",
      "transactionType": "CALL",
      "contractName": null,
      "contractAddress": "0x6120fe707cc065d85452e44abc971f3beafcde20",
      "function": "approve(address,uint256)",
      "arguments": [
        "0x4F2d12a9b328Ba6D5bB3578dC3F0197249a0428C",
        "10000000000000000000000"
      ],
      "transaction": {
        "from": "0xbd4114d7521f80c4bad67f5ece1c843627078791",
        "to": "0x6120fe707cc065d85452e44abc971f3beafcde20",
        "gas": "0xa755",
        "value": "0x0",
        "input": "0x095ea7b30000000000000000000000004f2d12a9b328ba6d5bb3578dc3f0197249a0428c00000000000000000000000000000000000000000000021e19e0c9bab2400000",
        "nonce": "0x9",
        "chainId": "0x14a34"
      },
      "additionalContracts": [],
      "isFixedGasLimit": false
    }
  ],
  "receipts": [
    {
      "status": "0x1",
      "cumulativeGasUsed": "0x6886ef",
      "logs": [
        {
          "address": "0x6120fe707cc065d85452e44abc971f3beafcde20",
          "topics": [
            "0x8c5be1e5ebec7d5bd14f71427d1e84f3dd0314c0f7b2291e5b200ac8c7c3b925",
            "0x000000000000000000000000bb02a9d6a71a847d587ce4dbb92f32f79c2efb2a",
            "0x0000000000000000000000004f2d12a9b328ba6d5bb3578dc3f0197249a0428c"
          ],
          "data": "0x00000000000000000000000000000000000000000000021e19e0c9bab2400000",
          "blockHash": "0x3750b5aabcfe3f144c7129caa045fb93905df5a2057286f421c36b4365e3f1c0",
          "blockNumber": "0x14858f6",
          "transactionHash": "0x3105a8fa371aa815664700a10a3c10f6fef6cae28fd9a1cd3bb7e3f96df2b175",
          "transactionIndex": "0x32",
          "logIndex": "0xa2",
          "removed": false
        }
      ],
      "logsBloom": "0x00000000000000000002000000000000000000000000000000000000000000000000000000000000020000000000000000000000000000008000000000200000000000000000000000000001000000000000000000000000000000000000000000000000000000000000000000000000000000010000000000000000000000000000000000000000000000000000000000000000000000000000000000020000020000000000000000000000000000000000000000000000000000000000000000008000008000020000000000000000000000000000000000000000000000000010000000000000000000000000000000000000000000000000000000000000",
      "type": "0x2",
      "transactionHash": "0x3105a8fa371aa815664700a10a3c10f6fef6cae28fd9a1cd3bb7e3f96df2b175",
      "transactionIndex": "0x32",
      "blockHash": "0x3750b5aabcfe3f144c7129caa045fb93905df5a2057286f421c36b4365e3f1c0",
      "blockNumber": "0x14858f6",
      "gasUsed": "0x726b",
      "effectiveGasPrice": "0x18851",
      "from": "0xbb02a9d6a71a847d587ce4dbb92f32f79c2efb2a",
      "to": "0x6120fe707cc065d85452e44abc971f3beafcde20",
      "contractAddress": null,
      "l1BaseFeeScalar": "0x44d",
      "l1BlobBaseFee": "0x1",
      "l1BlobBaseFeeScalar": "0xa118b",
      "l1Fee": "0x758c562c",
      "l1GasPrice": "0x42ba6376",
      "l1GasUsed": "0x640"
    },
    {
      "status": "0x1",
      "cumulativeGasUsed": "0x48a33c",
      "logs": [
        {
          "address": "0x6120fe707cc065d85452e44abc971f3beafcde20",
          "topics": [
            "0x8c5be1e5ebec7d5bd14f71427d1e84f3dd0314c0f7b2291e5b200ac8c7c3b925",
            "0x000000000000000000000000b47cfcf8181d36117142b83d31bbbf63b1b250fe",
            "0x0000000000000000000000004f2d12a9b328ba6d5bb3578dc3f0197249a0428c"
          ],
          "data": "0x00000000000000000000000000000000000000000000021e19e0c9bab2400000",
          "blockHash": "0xb71cb7c99510cfecf0a504dc79c6ddfb5f2ef0acae75f374845508e165343b3f",
          "blockNumber": "0x14858f8",
          "transactionHash": "0x4a86cab30c994899fc3238b8ba4a187fdc00b026ff7fd2f56650bf7f6935ed95",
          "transactionIndex": "0x25",
          "logIndex": "0x66",
          "removed": false
        }
      ],
      "logsBloom": "0x000000000000000000020000000000000000000000000000000000000000000000000000000000000a0000000000000000000000000000000000000000200000000000000000000000000001000000000000000000800000000000000000000000000000000000000000000000000000000000010000000000000000000000000000000000000000000000000000000000000000000000000000000000020000020000000000000000000000000000000000000000000000000000000000000000000000008000000000000000000000000000000000000000000000000000000010000000000000000000000000000000000000000001000000000000000000",
      "type": "0x2",
      "transactionHash": "0x4a86cab30c994899fc3238b8ba4a187fdc00b026ff7fd2f56650bf7f6935ed95",
      "transactionIndex": "0x25",
      "blockHash": "0xb71cb7c99510cfecf0a504dc79c6ddfb5f2ef0acae75f374845508e165343b3f",
      "blockNumber": "0x14858f8",
      "gasUsed": "0x726b",
      "effectiveGasPrice": "0x18851",
      "from": "0xb47cfcf8181d36117142b83d31bbbf63b1b250fe",
      "to": "0x6120fe707cc065d85452e44abc971f3beafcde20",
      "contractAddress": null,
      "l1BaseFeeScalar": "0x44d",
      "l1BlobBaseFee": "0x1",
      "l1BlobBaseFeeScalar": "0xa118b",
      "l1Fee": "0x65fce467",
      "l1GasPrice": "0x39e51f9f",
      "l1GasUsed": "0x640"
    },
    {
      "status": "0x1",
      "cumulativeGasUsed": "0x66b816",
      "logs": [
        {
          "address": "0x6120fe707cc065d85452e44abc971f3beafcde20",
          "topics": [
            "0x8c5be1e5ebec7d5bd14f71427d1e84f3dd0314c0f7b2291e5b200ac8c7c3b925",
            "0x000000000000000000000000b1afd5179ac5d755c2da5bd2f961f5520647aeb2",
            "0x0000000000000000000000004f2d12a9b328ba6d5bb3578dc3f0197249a0428c"
          ],
          "data": "0x00000000000000000000000000000000000000000000021e19e0c9bab2400000",
          "blockHash": "0x157e319e2221c87f4f2d4520ab27142ca67c1bc6a9c94320581a7aaa8109cedc",
          "blockNumber": "0x14858fa",
          "transactionHash": "0x3ca0dce45c1017a052c2c521f8730a231ee6f1f14c03d1e7ab22d1481126257a",
          "transactionIndex": "0x31",
          "logIndex": "0x9a",
          "removed": false
        }
      ],
      "logsBloom": "0x00000100000000000002000000000000000000000000000000000000000000000000000000000000020000000000000000000000000000000000000000200000000000000000000000000001000000000000000000000000000000000000000000000000000000000000000000000000000000010000000000000000000000000000000000000000000000000000000000000000000000000000000000020000020000000000000000000000000200000040000000000000000000000000000000000000008000000000000000000000000000000000000000000000000000000010000000000000000000000000000000000000000000000000000000000000",
      "type": "0x2",
      "transactionHash": "0x3ca0dce45c1017a052c2c521f8730a231ee6f1f14c03d1e7ab22d1481126257a",
      "transactionIndex": "0x31",
      "blockHash": "0x157e319e2221c87f4f2d4520ab27142ca67c1bc6a9c94320581a7aaa8109cedc",
      "blockNumber": "0x14858fa",
      "gasUsed": "0x726b",
      "effectiveGasPrice": "0x18851",
      "from": "0xb1afd5179ac5d755c2da5bd2f961f5520647aeb2",
      "to": "0x6120fe707cc065d85452e44abc971f3beafcde20",
      "contractAddress": null,
      "l1BaseFeeScalar": "0x44d",
      "l1BlobBaseFee": "0x1",
      "l1BlobBaseFeeScalar": "0xa118b",
      "l1Fee": "0x65fce467",
      "l1GasPrice": "0x39e51f9f",
      "l1GasUsed": "0x640"
    },
    {
      "status": "0x1",
      "cumulativeGasUsed": "0x610c23",
      "logs": [
        {
          "address": "0x6120fe707cc065d85452e44abc971f3beafcde20",
          "topics": [
            "0x8c5be1e5ebec7d5bd14f71427d1e84f3dd0314c0f7b2291e5b200ac8c7c3b925",
            "0x000000000000000000000000bd4114d7521f80c4bad67f5ece1c843627078791",
            "0x0000000000000000000000004f2d12a9b328ba6d5bb3578dc3f0197249a0428c"
          ],
          "data": "0x00000000000000000000000000000000000000000000021e19e0c9bab2400000",
          "blockHash": "0x3e141072b9f18be364cdd651576f4258ba24ea540c4a8e4d100f35b8858092c5",
          "blockNumber": "0x14858fb",
          "transactionHash": "0x4db4abdc2ee8cc9958ba3104630f25ec91366b3a0fc3ea5354affc5a90f7142c",
          "transactionIndex": "0x2d",
          "logIndex": "0xa8",
          "removed": false
        }
      ],
      "logsBloom": "0x00000800000000000002000000000000000000000000000000000000000000000000000000000000020000000000000000000000000000000000000000200000000400000000000000000001000000000000000000000000000000000000000000000000000000000000000000000000000000010000000000000002000000000000000000000000000000000000000000000000000000000000000000020000020000000000000000000000000000000000000000000000000000000000000000000000008000000000000000000000000000000000000000000000000000000010000000000000000000000000000000000000000000000000000000000000",
      "type": "0x2",
      "transactionHash": "0x4db4abdc2ee8cc9958ba3104630f25ec91366b3a0fc3ea5354affc5a90f7142c",
      "transactionIndex": "0x2d",
      "blockHash": "0x3e141072b9f18be364cdd651576f4258ba24ea540c4a8e4d100f35b8858092c5",
      "blockNumber": "0x14858fb",
      "gasUsed": "0x726b",
      "effectiveGasPrice": "0x18852",
      "from": "0xbd4114d7521f80c4bad67f5ece1c843627078791",
      "to": "0x6120fe707cc065d85452e44abc971f3beafcde20",
      "contractAddress": null,
      "l1BaseFeeScalar": "0x44d",
      "l1BlobBaseFee": "0x1",
      "l1BlobBaseFeeScalar": "0xa118b",
      "l1Fee": "0x65fce467",
      "l1GasPrice": "0x39e51f9f",
      "l1GasUsed": "0x640"
    }
  ],
  "libraries": [],
  "pending": [],
  "returns": {},
  "timestamp": 1738805464,
  "chain": 84532,
  "commit": "e3ad21d"
}