{
  "transactions": [
    {
      "hash": "0xf3a4e82e8dfe34afa9d7c07085013c2c3b55a085c7e05db86eeebac199300d28",
      "transactionType": "CALL",
      "contractName": null,
      "contractAddress": "0x67cb1114b0e1adb17fe03612f2b79f307ba4cf11",
      "function": "approve(address,uint256)",
      "arguments": [
        "0x57384C961445fb8951E27bd6d315FC80815B7d53",
        "100000000000000000000000"
      ],
      "transaction": {
        "from": "0xbb02a9d6a71a847d587ce4dbb92f32f79c2efb2a",
        "to": "0x67cb1114b0e1adb17fe03612f2b79f307ba4cf11",
        "gas": "0xfa4d",
        "value": "0x0",
        "input": "0x095ea7b300000000000000000000000057384c961445fb8951e27bd6d315fc80815b7d5300000000000000000000000000000000000000000000152d02c7e14af6800000",
        "nonce": "0x26",
        "chainId": "0x14a34"
      },
      "additionalContracts": [],
      "isFixedGasLimit": false
    },
    {
      "hash": "0x7c8fb68ede0599dc7f9a5d210f10594563b070b491ed7a182dd4ddcfd209536e",
      "transactionType": "CALL",
      "contractName": null,
      "contractAddress": "0x67cb1114b0e1adb17fe03612f2b79f307ba4cf11",
      "function": "approve(address,uint256)",
      "arguments": [
        "0x57384C961445fb8951E27bd6d315FC80815B7d53",
        "100000000000000000000000"
      ],
      "transaction": {
        "from": "0xb47cfcf8181d36117142b83d31bbbf63b1b250fe",
        "to": "0x67cb1114b0e1adb17fe03612f2b79f307ba4cf11",
        "gas": "0xfa4d",
        "value": "0x0",
        "input": "0x095ea7b300000000000000000000000057384c961445fb8951e27bd6d315fc80815b7d5300000000000000000000000000000000000000000000152d02c7e14af6800000",
        "nonce": "0x84",
        "chainId": "0x14a34"
      },
      "additionalContracts": [],
      "isFixedGasLimit": false
    },
    {
      "hash": "0xd76cdfe4f1eabac0f2dc24980f6ecc4d18bdf0e8faa2d3d0d8117873e9b8e7d6",
      "transactionType": "CALL",
      "contractName": null,
      "contractAddress": "0x67cb1114b0e1adb17fe03612f2b79f307ba4cf11",
      "function": "approve(address,uint256)",
      "arguments": [
        "0x57384C961445fb8951E27bd6d315FC80815B7d53",
        "100000000000000000000000"
      ],
      "transaction": {
        "from": "0xb1afd5179ac5d755c2da5bd2f961f5520647aeb2",
        "to": "0x67cb1114b0e1adb17fe03612f2b79f307ba4cf11",
        "gas": "0xfa4d",
        "value": "0x0",
        "input": "0x095ea7b300000000000000000000000057384c961445fb8951e27bd6d315fc80815b7d5300000000000000000000000000000000000000000000152d02c7e14af6800000",
        "nonce": "0x13",
        "chainId": "0x14a34"
      },
      "additionalContracts": [],
      "isFixedGasLimit": false
    },
    {
      "hash": "0x83c661f8529e26d4b97c3006cd3e3f2065f1cd674be3faaa5e6a430ef8a9a0ad",
      "transactionType": "CALL",
      "contractName": null,
      "contractAddress": "0x67cb1114b0e1adb17fe03612f2b79f307ba4cf11",
      "function": "approve(address,uint256)",
      "arguments": [
        "0x57384C961445fb8951E27bd6d315FC80815B7d53",
        "100000000000000000000000"
      ],
      "transaction": {
        "from": "0xbd4114d7521f80c4bad67f5ece1c843627078791",
        "to": "0x67cb1114b0e1adb17fe03612f2b79f307ba4cf11",
        "gas": "0xfa4d",
        "value": "0x0",
        "input": "0x095ea7b300000000000000000000000057384c961445fb8951e27bd6d315fc80815b7d5300000000000000000000000000000000000000000000152d02c7e14af6800000",
        "nonce": "0x11",
        "chainId": "0x14a34"
      },
      "additionalContracts": [],
      "isFixedGasLimit": false
    }
  ],
  "receipts": [
    {
      "status": "0x1",
      "cumulativeGasUsed": "0x60f739",
      "logs": [
        {
          "address": "0x67cb1114b0e1adb17fe03612f2b79f307ba4cf11",
          "topics": [
            "0x8c5be1e5ebec7d5bd14f71427d1e84f3dd0314c0f7b2291e5b200ac8c7c3b925",
            "0x000000000000000000000000bb02a9d6a71a847d587ce4dbb92f32f79c2efb2a",
            "0x00000000000000000000000057384c961445fb8951e27bd6d315fc80815b7d53"
          ],
          "data": "0x00000000000000000000000000000000000000000000152d02c7e14af6800000",
          "blockHash": "0xac9fa127d987b74a8aa85584ba8ab924f278465dc183147f2e282b4f4494bd5f",
          "blockNumber": "0x148a8c6",
          "transactionHash": "0xf3a4e82e8dfe34afa9d7c07085013c2c3b55a085c7e05db86eeebac199300d28",
          "transactionIndex": "0x2e",
          "logIndex": "0x8b",
          "removed": false
        }
      ],
      "logsBloom": "0x00000000000000000000000000000000000000000000000000000000000000000000000000000000000000000000000000000000000000008000000004200000000000000000000000000000000000000000000000000000000000000000000000000000000000000000000000000020000000000000000000000001000000000000000000000000000000000000000000000000000000000000000000000000020000000000000000000000000000000000000000000080000000000000000000008000000000020000020000000000000000000000000000000000000000000010000000000080000000000000000000000000000000000000000000000000",
      "type": "0x2",
      "transactionHash": "0xf3a4e82e8dfe34afa9d7c07085013c2c3b55a085c7e05db86eeebac199300d28",
      "transactionIndex": "0x2e",
      "blockHash": "0xac9fa127d987b74a8aa85584ba8ab924f278465dc183147f2e282b4f4494bd5f",
      "blockNumber": "0x148a8c6",
      "gasUsed": "0xb537",
      "effectiveGasPrice": "0x98b1e",
      "from": "0xbb02a9d6a71a847d587ce4dbb92f32f79c2efb2a",
      "to": "0x67cb1114b0e1adb17fe03612f2b79f307ba4cf11",
      "contractAddress": null,
      "l1BaseFeeScalar": "0x44d",
      "l1BlobBaseFee": "0x1083b7a2674",
      "l1BlobBaseFeeScalar": "0xa118b",
      "l1Fee": "0x443bbc866512",
      "l1GasPrice": "0x125ba8f167",
      "l1GasUsed": "0x640"
    },
    {
      "status": "0x1",
      "cumulativeGasUsed": "0x5ad6d1",
      "logs": [
        {
          "address": "0x67cb1114b0e1adb17fe03612f2b79f307ba4cf11",
          "topics": [
            "0x8c5be1e5ebec7d5bd14f71427d1e84f3dd0314c0f7b2291e5b200ac8c7c3b925",
            "0x000000000000000000000000b47cfcf8181d36117142b83d31bbbf63b1b250fe",
            "0x00000000000000000000000057384c961445fb8951e27bd6d315fc80815b7d53"
          ],
          "data": "0x00000000000000000000000000000000000000000000152d02c7e14af6800000",
          "blockHash": "0xc790a5e4e72c8785675ff74d37a4fd419fa2390468a4b82aa0fd076c386f7ba4",
          "blockNumber": "0x148a8c7",
          "transactionHash": "0x7c8fb68ede0599dc7f9a5d210f10594563b070b491ed7a182dd4ddcfd209536e",
          "transactionIndex": "0x30",
          "logIndex": "0x88",
          "removed": false
        }
      ],
      "logsBloom": "0x00000000000000000000000000000000000000000000000000000000000000000000000000000000080000000000000000000000000000000000000004200000000000000000000000000000000000000000000000800000000000000000000000000000000000000000000000000020000000000000000000000001000000000000000000000000000000000000000000000000000000000000000000000000020000000000000000000000000000000000000000000080000000000000000000000000000000000000020000000000000000000000000000000000000000000010000000000080000000000000000000000000000001000000000000000000",
      "type": "0x2",
      "transactionHash": "0x7c8fb68ede0599dc7f9a5d210f10594563b070b491ed7a182dd4ddcfd209536e",
      "transactionIndex": "0x30",
      "blockHash": "0xc790a5e4e72c8785675ff74d37a4fd419fa2390468a4b82aa0fd076c386f7ba4",
      "blockNumber": "0x148a8c7",
      "gasUsed": "0xb537",
      "effectiveGasPrice": "0x98b1e",
      "from": "0xb47cfcf8181d36117142b83d31bbbf63b1b250fe",
      "to": "0x67cb1114b0e1adb17fe03612f2b79f307ba4cf11",
      "contractAddress": null,
      "l1BaseFeeScalar": "0x44d",
      "l1BlobBaseFee": "0x1083b7a2674",
      "l1BlobBaseFeeScalar": "0xa118b",
      "l1Fee": "0x443bbc866512",
      "l1GasPrice": "0x125ba8f167",
      "l1GasUsed": "0x640"
    },
    {
      "status": "0x1",
      "cumulativeGasUsed": "0x623634",
      "logs": [
        {
          "address": "0x67cb1114b0e1adb17fe03612f2b79f307ba4cf11",
          "topics": [
            "0x8c5be1e5ebec7d5bd14f71427d1e84f3dd0314c0f7b2291e5b200ac8c7c3b925",
            "0x000000000000000000000000b1afd5179ac5d755c2da5bd2f961f5520647aeb2",
            "0x00000000000000000000000057384c961445fb8951e27bd6d315fc80815b7d53"
          ],
          "data": "0x00000000000000000000000000000000000000000000152d02c7e14af6800000",
          "blockHash": "0x01f96d523eadc03feb87170cee75da6f04133b6c003b2ef2136516055c5ad18a",
          "blockNumber": "0x148a8c8",
          "transactionHash": "0xd76cdfe4f1eabac0f2dc24980f6ecc4d18bdf0e8faa2d3d0d8117873e9b8e7d6",
          "transactionIndex": "0x22",
          "logIndex": "0x74",
          "removed": false
        }
      ],
      "logsBloom": "0x00000100000000000000000000000000000000000000000000000000000000000000000000000000000000000000000000000000000000000000000004200000000000000000000000000000000000000000000000000000000000000000000000000000000000000000000000000020000000000000000000000001000000000000000000000000000000000000000000000000000000000000000000000000020000000000000000000000000200000040000000000080000000000000000000000000000000000000020000000000000000000000000000000000000000000010000000000080000000000000000000000000000000000000000000000000",
      "type": "0x2",
      "transactionHash": "0xd76cdfe4f1eabac0f2dc24980f6ecc4d18bdf0e8faa2d3d0d8117873e9b8e7d6",
      "transactionIndex": "0x22",
      "blockHash": "0x01f96d523eadc03feb87170cee75da6f04133b6c003b2ef2136516055c5ad18a",
      "blockNumber": "0x148a8c8",
      "gasUsed": "0xb537",
      "effectiveGasPrice": "0x98b1e",
      "from": "0xb1afd5179ac5d755c2da5bd2f961f5520647aeb2",
      "to": "0x67cb1114b0e1adb17fe03612f2b79f307ba4cf11",
      "contractAddress": null,
      "l1BaseFeeScalar": "0x44d",
      "l1BlobBaseFee": "0x1083b7a2674",
      "l1BlobBaseFeeScalar": "0xa118b",
      "l1Fee": "0x443bbc866512",
      "l1GasPrice": "0x125ba8f167",
      "l1GasUsed": "0x640"
    },
    {
      "status": "0x1",
      "cumulativeGasUsed": "0x71609d",
      "logs": [
        {
          "address": "0x67cb1114b0e1adb17fe03612f2b79f307ba4cf11",
          "topics": [
            "0x8c5be1e5ebec7d5bd14f71427d1e84f3dd0314c0f7b2291e5b200ac8c7c3b925",
            "0x000000000000000000000000bd4114d7521f80c4bad67f5ece1c843627078791",
            "0x00000000000000000000000057384c961445fb8951e27bd6d315fc80815b7d53"
          ],
          "data": "0x00000000000000000000000000000000000000000000152d02c7e14af6800000",
          "blockHash": "0xa8067a68ebe48e1c6cef799ffd9a1c525d76cd32fce360859e6a87283cc56bcb",
          "blockNumber": "0x148a8ca",
          "transactionHash": "0x83c661f8529e26d4b97c3006cd3e3f2065f1cd674be3faaa5e6a430ef8a9a0ad",
          "transactionIndex": "0x37",
          "logIndex": "0xb4",
          "removed": false
        }
      ],
      "logsBloom": "0x00000800000000000000000000000000000000000000000000000000000000000000000000000000000000000000000000000000000000000000000004200000000400000000000000000000000000000000000000000000000000000000000000000000000000000000000000000020000000000000000000000003000000000000000000000000000000000000000000000000000000000000000000000000020000000000000000000000000000000000000000000080000000000000000000000000000000000000020000000000000000000000000000000000000000000010000000000080000000000000000000000000000000000000000000000000",
      "type": "0x2",
      "transactionHash": "0x83c661f8529e26d4b97c3006cd3e3f2065f1cd674be3faaa5e6a430ef8a9a0ad",
      "transactionIndex": "0x37",
      "blockHash": "0xa8067a68ebe48e1c6cef799ffd9a1c525d76cd32fce360859e6a87283cc56bcb",
      "blockNumber": "0x148a8ca",
      "gasUsed": "0xb537",
      "effectiveGasPrice": "0x98b1e",
      "from": "0xbd4114d7521f80c4bad67f5ece1c843627078791",
      "to": "0x67cb1114b0e1adb17fe03612f2b79f307ba4cf11",
      "contractAddress": null,
      "l1BaseFeeScalar": "0x44d",
      "l1BlobBaseFee": "0x12942e9ac9b",
      "l1BlobBaseFeeScalar": "0xa118b",
      "l1Fee": "0x4cbfe8e04bff",
      "l1GasPrice": "0x12c86a8637",
      "l1GasUsed": "0x640"
    }
  ],
  "libraries": [],
  "pending": [],
  "returns": {},
  "timestamp": 1738846325,
  "chain": 84532,
  "commit": "270a582"
}