{
  "transactions": [
    {
      "hash": "0xa1c4267331911421cb3db63475fda4e757aa9e22ad8562a73a192e355ccff1cc",
      "transactionType": "CALL",
      "contractName": null,
      "contractAddress": "0x010f80d930a5bc6d9a37f4fa0a965740c9825f95",
      "function": "approve(address,uint256)",
      "arguments": [
        "0x011e22FAdB08eE41c0664F3995b8390Da3D5d584",
        "100000000000000000000000"
      ],
      "transaction": {
        "from": "0xbb02a9d6a71a847d587ce4dbb92f32f79c2efb2a",
        "to": "0x010f80d930a5bc6d9a37f4fa0a965740c9825f95",
        "gas": "0xfa4d",
        "value": "0x0",
        "input": "0x095ea7b3000000000000000000000000011e22fadb08ee41c0664f3995b8390da3d5d58400000000000000000000000000000000000000000000152d02c7e14af6800000",
        "nonce": "0x1f",
        "chainId": "0x14a34"
      },
      "additionalContracts": [],
      "isFixedGasLimit": false
    },
    {
      "hash": "0xfb6792005734088857b19ac56bab2e156ca33e769985e970e7dc0aa87fdc2ec7",
      "transactionType": "CALL",
      "contractName": null,
      "contractAddress": "0x010f80d930a5bc6d9a37f4fa0a965740c9825f95",
      "function": "approve(address,uint256)",
      "arguments": [
        "0x011e22FAdB08eE41c0664F3995b8390Da3D5d584",
        "100000000000000000000000"
      ],
      "transaction": {
        "from": "0xb47cfcf8181d36117142b83d31bbbf63b1b250fe",
        "to": "0x010f80d930a5bc6d9a37f4fa0a965740c9825f95",
        "gas": "0xfa4d",
        "value": "0x0",
        "input": "0x095ea7b3000000000000000000000000011e22fadb08ee41c0664f3995b8390da3d5d58400000000000000000000000000000000000000000000152d02c7e14af6800000",
        "nonce": "0x7f",
        "chainId": "0x14a34"
      },
      "additionalContracts": [],
      "isFixedGasLimit": false
    },
    {
      "hash": "0xa392492bbe6fced4f63c46dcc1ff527bbe824095dc1a7c70214b169a41b0538e",
      "transactionType": "CALL",
      "contractName": null,
      "contractAddress": "0x010f80d930a5bc6d9a37f4fa0a965740c9825f95",
      "function": "approve(address,uint256)",
      "arguments": [
        "0x011e22FAdB08eE41c0664F3995b8390Da3D5d584",
        "100000000000000000000000"
      ],
      "transaction": {
        "from": "0xb1afd5179ac5d755c2da5bd2f961f5520647aeb2",
        "to": "0x010f80d930a5bc6d9a37f4fa0a965740c9825f95",
        "gas": "0xfa4d",
        "value": "0x0",
        "input": "0x095ea7b3000000000000000000000000011e22fadb08ee41c0664f3995b8390da3d5d58400000000000000000000000000000000000000000000152d02c7e14af6800000",
        "nonce": "0x11",
        "chainId": "0x14a34"
      },
      "additionalContracts": [],
      "isFixedGasLimit": false
    },
    {
      "hash": "0x2ea61336ebf27b70c198d7ee93bed4d40e884097421c191564848e347cdcd560",
      "transactionType": "CALL",
      "contractName": null,
      "contractAddress": "0x010f80d930a5bc6d9a37f4fa0a965740c9825f95",
      "function": "approve(address,uint256)",
      "arguments": [
        "0x011e22FAdB08eE41c0664F3995b8390Da3D5d584",
        "100000000000000000000000"
      ],
      "transaction": {
        "from": "0xbd4114d7521f80c4bad67f5ece1c843627078791",
        "to": "0x010f80d930a5bc6d9a37f4fa0a965740c9825f95",
        "gas": "0xfa4d",
        "value": "0x0",
        "input": "0x095ea7b3000000000000000000000000011e22fadb08ee41c0664f3995b8390da3d5d58400000000000000000000000000000000000000000000152d02c7e14af6800000",
        "nonce": "0x10",
        "chainId": "0x14a34"
      },
      "additionalContracts": [],
      "isFixedGasLimit": false
    }
  ],
  "receipts": [
    {
      "status": "0x1",
      "cumulativeGasUsed": "0x6d8e5b",
      "logs": [
        {
          "address": "0x010f80d930a5bc6d9a37f4fa0a965740c9825f95",
          "topics": [
            "0x8c5be1e5ebec7d5bd14f71427d1e84f3dd0314c0f7b2291e5b200ac8c7c3b925",
            "0x000000000000000000000000bb02a9d6a71a847d587ce4dbb92f32f79c2efb2a",
            "0x000000000000000000000000011e22fadb08ee41c0664f3995b8390da3d5d584"
          ],
          "data": "0x00000000000000000000000000000000000000000000152d02c7e14af6800000",
          "blockHash": "0x2559c39fd24309dd0618893d0b47029f31ec582488b0512f4c11cdf365173667",
          "blockNumber": "0x1488e0c",
          "transactionHash": "0xa1c4267331911421cb3db63475fda4e757aa9e22ad8562a73a192e355ccff1cc",
          "transactionIndex": "0x34",
          "logIndex": "0xac",
          "removed": false
        }
      ],
      "logsBloom": "0x00000000000000000000000000000000000000000000000000000000000000000000000000000000000000000000000000000000000000008000000000200000000000000000000000000000000000000000000000000000000000000800002000000000000000000000002000000000000000000000000000000000000000000000000000000400000000000000000000000000000000000000000000000000020000000000000000000000000000000000000000000000000000000000000000008000000000020000000000000100000000000000000000000000000000000010008000000000000000000000000000000000000000000000000000000000",
      "type": "0x2",
      "transactionHash": "0xa1c4267331911421cb3db63475fda4e757aa9e22ad8562a73a192e355ccff1cc",
      "transactionIndex": "0x34",
      "blockHash": "0x2559c39fd24309dd0618893d0b47029f31ec582488b0512f4c11cdf365173667",
      "blockNumber": "0x1488e0c",
      "gasUsed": "0xb537",
      "effectiveGasPrice": "0x28ca",
      "from": "0xbb02a9d6a71a847d587ce4dbb92f32f79c2efb2a",
      "to": "0x010f80d930a5bc6d9a37f4fa0a965740c9825f95",
      "contractAddress": null,
      "l1BaseFeeScalar": "0x44d",
      "l1BlobBaseFee": "0x8cfc1fba87",
      "l1BlobBaseFeeScalar": "0xa118b",
      "l1Fee": "0x2480dceef37f",
      "l1GasPrice": "0x17d22a0781",
      "l1GasUsed": "0x640"
    },
    {
      "status": "0x1",
      "cumulativeGasUsed": "0x75cf66",
      "logs": [
        {
          "address": "0x010f80d930a5bc6d9a37f4fa0a965740c9825f95",
          "topics": [
            "0x8c5be1e5ebec7d5bd14f71427d1e84f3dd0314c0f7b2291e5b200ac8c7c3b925",
            "0x000000000000000000000000b47cfcf8181d36117142b83d31bbbf63b1b250fe",
            "0x000000000000000000000000011e22fadb08ee41c0664f3995b8390da3d5d584"
          ],
          "data": "0x00000000000000000000000000000000000000000000152d02c7e14af6800000",
          "blockHash": "0x6d0e4d9f498df8ea9d1b378cc2389e85b2c87c2ed505850dc8c9aa7bf46d0d5b",
          "blockNumber": "0x1488e0e",
          "transactionHash": "0xfb6792005734088857b19ac56bab2e156ca33e769985e970e7dc0aa87fdc2ec7",
          "transactionIndex": "0x37",
          "logIndex": "0xaa",
          "removed": false
        }
      ],
      "logsBloom": "0x00000000000000000000000000000000000000000000000000000000000000000000000000000000080000000000000000000000000000000000000000200000000000000000000000000000000000000000000000800000000000000800002000000000000000000000002000000000000000000000000000000000000000000000000000000400000000000000000000000000000000000000000000000000020000000000000000000000000000000000000000000000000000000000000000000000000000000000000000000100000000000000000000000000000000000010008000000000000000000000000000000000000001000000000000000000",
      "type": "0x2",
      "transactionHash": "0xfb6792005734088857b19ac56bab2e156ca33e769985e970e7dc0aa87fdc2ec7",
      "transactionIndex": "0x37",
      "blockHash": "0x6d0e4d9f498df8ea9d1b378cc2389e85b2c87c2ed505850dc8c9aa7bf46d0d5b",
      "blockNumber": "0x1488e0e",
      "gasUsed": "0xb537",
      "effectiveGasPrice": "0x28ca",
      "from": "0xb47cfcf8181d36117142b83d31bbbf63b1b250fe",
      "to": "0x010f80d930a5bc6d9a37f4fa0a965740c9825f95",
      "contractAddress": null,
      "l1BaseFeeScalar": "0x44d",
      "l1BlobBaseFee": "0x8cfc1fba87",
      "l1BlobBaseFeeScalar": "0xa118b",
      "l1Fee": "0x2480dceef37f",
      "l1GasPrice": "0x17d22a0781",
      "l1GasUsed": "0x640"
    },
    {
      "status": "0x1",
      "cumulativeGasUsed": "0x7ca28e",
      "logs": [
        {
          "address": "0x010f80d930a5bc6d9a37f4fa0a965740c9825f95",
          "topics": [
            "0x8c5be1e5ebec7d5bd14f71427d1e84f3dd0314c0f7b2291e5b200ac8c7c3b925",
            "0x000000000000000000000000b1afd5179ac5d755c2da5bd2f961f5520647aeb2",
            "0x000000000000000000000000011e22fadb08ee41c0664f3995b8390da3d5d584"
          ],
          "data": "0x00000000000000000000000000000000000000000000152d02c7e14af6800000",
          "blockHash": "0xf2d57ee3616a93a32e49c133b4476912029b7c90d5a1e074d187ab6667cab38a",
          "blockNumber": "0x1488e10",
          "transactionHash": "0xa392492bbe6fced4f63c46dcc1ff527bbe824095dc1a7c70214b169a41b0538e",
          "transactionIndex": "0x3b",
          "logIndex": "0xba",
          "removed": false
        }
      ],
      "logsBloom": "0x00000100000000000000000000000000000000000000000000000000000000000000000000000000000000000000000000000000000000000000000000200000000000000000000000000000000000000000000000000000000000000800002000000000000000000000002000000000000000000000000000000000000000000000000000000400000000000000000000000000000000000000000000000000020000000000000000000000000200000040000000000000000000000000000000000000000000000000000000000100000000000000000000000000000000000010008000000000000000000000000000000000000000000000000000000000",
      "type": "0x2",
      "transactionHash": "0xa392492bbe6fced4f63c46dcc1ff527bbe824095dc1a7c70214b169a41b0538e",
      "transactionIndex": "0x3b",
      "blockHash": "0xf2d57ee3616a93a32e49c133b4476912029b7c90d5a1e074d187ab6667cab38a",
      "blockNumber": "0x1488e10",
      "gasUsed": "0xb537",
      "effectiveGasPrice": "0x28cc",
      "from": "0xb1afd5179ac5d755c2da5bd2f961f5520647aeb2",
      "to": "0x010f80d930a5bc6d9a37f4fa0a965740c9825f95",
      "contractAddress": null,
      "l1BaseFeeScalar": "0x44d",
      "l1BlobBaseFee": "0x878e91113d",
      "l1BlobBaseFeeScalar": "0xa118b",
      "l1Fee": "0x231ea960adad",
      "l1GasPrice": "0x1a121280a7",
      "l1GasUsed": "0x640"
    },
    {
      "status": "0x1",
      "cumulativeGasUsed": "0xab27df",
      "logs": [
        {
          "address": "0x010f80d930a5bc6d9a37f4fa0a965740c9825f95",
          "topics": [
            "0x8c5be1e5ebec7d5bd14f71427d1e84f3dd0314c0f7b2291e5b200ac8c7c3b925",
            "0x000000000000000000000000bd4114d7521f80c4bad67f5ece1c843627078791",
            "0x000000000000000000000000011e22fadb08ee41c0664f3995b8390da3d5d584"
          ],
          "data": "0x00000000000000000000000000000000000000000000152d02c7e14af6800000",
          "blockHash": "0xb321444720eec33a9dc113b47cf38858fc7a96b552adef1d91610c736bedad3c",
          "blockNumber": "0x1488e11",
          "transactionHash": "0x2ea61336ebf27b70c198d7ee93bed4d40e884097421c191564848e347cdcd560",
          "transactionIndex": "0x44",
          "logIndex": "0xbd",
          "removed": false
        }
      ],
      "logsBloom": "0x00000800000000000000000000000000000000000000000000000000000000000000000000000000000000000000000000000000000000000000000000200000000400000000000000000000000000000000000000000000000000000800002000000000000000000000002000000000000000000000000000000002000000000000000000000400000000000000000000000000000000000000000000000000020000000000000000000000000000000000000000000000000000000000000000000000000000000000000000000100000000000000000000000000000000000010008000000000000000000000000000000000000000000000000000000000",
      "type": "0x2",
      "transactionHash": "0x2ea61336ebf27b70c198d7ee93bed4d40e884097421c191564848e347cdcd560",
      "transactionIndex": "0x44",
      "blockHash": "0xb321444720eec33a9dc113b47cf38858fc7a96b552adef1d91610c736bedad3c",
      "blockNumber": "0x1488e11",
      "gasUsed": "0xb537",
      "effectiveGasPrice": "0x28cc",
      "from": "0xbd4114d7521f80c4bad67f5ece1c843627078791",
      "to": "0x010f80d930a5bc6d9a37f4fa0a965740c9825f95",
      "contractAddress": null,
      "l1BaseFeeScalar": "0x44d",
      "l1BlobBaseFee": "0x878e91113d",
      "l1BlobBaseFeeScalar": "0xa118b",
      "l1Fee": "0x231ea960adad",
      "l1GasPrice": "0x1a121280a7",
      "l1GasUsed": "0x640"
    }
  ],
  "libraries": [],
  "pending": [],
  "returns": {},
  "timestamp": 1738832643,
  "chain": 84532,
  "commit": "270a582"
}