{
  "transactions": [
    {
      "hash": "0x793c6a6e4631cc886af3be61ef020a65045e663c6e29c8bfc28c0c9c904b2fb3",
      "transactionType": "CALL",
      "contractName": "PlaceholderStableCoin",
      "contractAddress": "0xcfe2f7254692bbd99b67a4d7d429f46b7b5e6c92",
      "function": "approve(address,uint256)",
      "arguments": [
        "0x0765e09c95E7D3F43c5EC2DcCeFA46B2e4a12CA3",
        "100000000000000000000000"
      ],
      "transaction": {
        "from": "0xbb02a9d6a71a847d587ce4dbb92f32f79c2efb2a",
        "to": "0xcfe2f7254692bbd99b67a4d7d429f46b7b5e6c92",
        "gas": "0xfa4d",
        "value": "0x0",
        "input": "0x095ea7b30000000000000000000000000765e09c95e7d3f43c5ec2dccefa46b2e4a12ca300000000000000000000000000000000000000000000152d02c7e14af6800000",
        "nonce": "0x31",
        "chainId": "0x14a34"
      },
      "additionalContracts": [],
      "isFixedGasLimit": false
    },
    {
      "hash": "0x8382a9aac440dd694d300eaab43fe2a55c22d26cf92fd5759861f00bf857cae2",
      "transactionType": "CALL",
      "contractName": "PlaceholderStableCoin",
      "contractAddress": "0xcfe2f7254692bbd99b67a4d7d429f46b7b5e6c92",
      "function": "approve(address,uint256)",
      "arguments": [
        "0x0765e09c95E7D3F43c5EC2DcCeFA46B2e4a12CA3",
        "100000000000000000000000"
      ],
      "transaction": {
        "from": "0xb47cfcf8181d36117142b83d31bbbf63b1b250fe",
        "to": "0xcfe2f7254692bbd99b67a4d7d429f46b7b5e6c92",
        "gas": "0xfa4d",
        "value": "0x0",
        "input": "0x095ea7b30000000000000000000000000765e09c95e7d3f43c5ec2dccefa46b2e4a12ca300000000000000000000000000000000000000000000152d02c7e14af6800000",
        "nonce": "0x86",
        "chainId": "0x14a34"
      },
      "additionalContracts": [],
      "isFixedGasLimit": false
    },
    {
      "hash": "0x260787dbdbfff5fd9d05ce871b228693d456c265c6347855afd743db722325d7",
      "transactionType": "CALL",
      "contractName": "PlaceholderStableCoin",
      "contractAddress": "0xcfe2f7254692bbd99b67a4d7d429f46b7b5e6c92",
      "function": "approve(address,uint256)",
      "arguments": [
        "0x0765e09c95E7D3F43c5EC2DcCeFA46B2e4a12CA3",
        "100000000000000000000000"
      ],
      "transaction": {
        "from": "0xb1afd5179ac5d755c2da5bd2f961f5520647aeb2",
        "to": "0xcfe2f7254692bbd99b67a4d7d429f46b7b5e6c92",
        "gas": "0xfa4d",
        "value": "0x0",
        "input": "0x095ea7b30000000000000000000000000765e09c95e7d3f43c5ec2dccefa46b2e4a12ca300000000000000000000000000000000000000000000152d02c7e14af6800000",
        "nonce": "0x14",
        "chainId": "0x14a34"
      },
      "additionalContracts": [],
      "isFixedGasLimit": false
    },
    {
      "hash": "0x44cb7e87805ee8a6faee67985a863b631cdae704f56fb2f18b69879809501a38",
      "transactionType": "CALL",
      "contractName": "PlaceholderStableCoin",
      "contractAddress": "0xcfe2f7254692bbd99b67a4d7d429f46b7b5e6c92",
      "function": "approve(address,uint256)",
      "arguments": [
        "0x0765e09c95E7D3F43c5EC2DcCeFA46B2e4a12CA3",
        "100000000000000000000000"
      ],
      "transaction": {
        "from": "0xbd4114d7521f80c4bad67f5ece1c843627078791",
        "to": "0xcfe2f7254692bbd99b67a4d7d429f46b7b5e6c92",
        "gas": "0xfa4d",
        "value": "0x0",
        "input": "0x095ea7b30000000000000000000000000765e09c95e7d3f43c5ec2dccefa46b2e4a12ca300000000000000000000000000000000000000000000152d02c7e14af6800000",
        "nonce": "0x12",
        "chainId": "0x14a34"
      },
      "additionalContracts": [],
      "isFixedGasLimit": false
    }
  ],
  "receipts": [
    {
      "status": "0x1",
      "cumulativeGasUsed": "0x9bc306",
      "logs": [
        {
          "address": "0xcfe2f7254692bbd99b67a4d7d429f46b7b5e6c92",
          "topics": [
            "0x8c5be1e5ebec7d5bd14f71427d1e84f3dd0314c0f7b2291e5b200ac8c7c3b925",
            "0x000000000000000000000000bb02a9d6a71a847d587ce4dbb92f32f79c2efb2a",
            "0x0000000000000000000000000765e09c95e7d3f43c5ec2dccefa46b2e4a12ca3"
          ],
          "data": "0x00000000000000000000000000000000000000000000152d02c7e14af6800000",
          "blockHash": "0xbc91d7ec273c214c361a88c2b7fc6a30c49bb77d90a06e64fcae32f785f29c83",
          "blockNumber": "0x1495b90",
          "transactionHash": "0x793c6a6e4631cc886af3be61ef020a65045e663c6e29c8bfc28c0c9c904b2fb3",
          "transactionIndex": "0x3e",
          "logIndex": "0xc3",
          "removed": false
        }
      ],
      "logsBloom": "0x00000000000000000000000000000000000000000000080000000000000000000000000000000000000000000000000000000000000000008000000000200000000000000000000000000000000000000000000000000000000000000000000000000000004000000000000000000000000000000000000000000000000000000000000000000000000000000000000000000000000000000000000000000000020000000000010000000000000000000000000000000000000020000000000000008000000000020000000000000000000000000000000000000000000000000010080000000000000000000020000000000000000000000000000000000000",
      "type": "0x2",
      "transactionHash": "0x793c6a6e4631cc886af3be61ef020a65045e663c6e29c8bfc28c0c9c904b2fb3",
      "transactionIndex": "0x3e",
      "blockHash": "0xbc91d7ec273c214c361a88c2b7fc6a30c49bb77d90a06e64fcae32f785f29c83",
      "blockNumber": "0x1495b90",
      "gasUsed": "0xb537",
      "effectiveGasPrice": "0x18823",
      "from": "0xbb02a9d6a71a847d587ce4dbb92f32f79c2efb2a",
      "to": "0xcfe2f7254692bbd99b67a4d7d429f46b7b5e6c92",
      "contractAddress": null,
      "l1BaseFeeScalar": "0x44d",
      "l1BlobBaseFee": "0x3c3",
      "l1BlobBaseFeeScalar": "0xa118b",
      "l1Fee": "0x1d17aa27f3",
      "l1GasPrice": "0x1083c8355f",
      "l1GasUsed": "0x640"
    },
    {
      "status": "0x1",
      "cumulativeGasUsed": "0x462aa9",
      "logs": [
        {
          "address": "0xcfe2f7254692bbd99b67a4d7d429f46b7b5e6c92",
          "topics": [
            "0x8c5be1e5ebec7d5bd14f71427d1e84f3dd0314c0f7b2291e5b200ac8c7c3b925",
            "0x000000000000000000000000b47cfcf8181d36117142b83d31bbbf63b1b250fe",
            "0x0000000000000000000000000765e09c95e7d3f43c5ec2dccefa46b2e4a12ca3"
          ],
          "data": "0x00000000000000000000000000000000000000000000152d02c7e14af6800000",
          "blockHash": "0x5bc5726996503e0ed8e90c290e735a510dc4f86e61f04ff22088c67cea982dd2",
          "blockNumber": "0x1495b92",
          "transactionHash": "0x8382a9aac440dd694d300eaab43fe2a55c22d26cf92fd5759861f00bf857cae2",
          "transactionIndex": "0x29",
          "logIndex": "0x6b",
          "removed": false
        }
      ],
      "logsBloom": "0x00000000000000000000000000000000000000000000080000000000000000000000000000000000080000000000000000000000000000000000000000200000000000000000000000000000000000000000000000800000000000000000000000000000004000000000000000000000000000000000000000000000000000000000000000000000000000000000000000000000000000000000000000000000020000000000010000000000000000000000000000000000000020000000000000000000000000000000000000000000000000000000000000000000000000000010080000000000000000000020000000000000000001000000000000000000",
      "type": "0x2",
      "transactionHash": "0x8382a9aac440dd694d300eaab43fe2a55c22d26cf92fd5759861f00bf857cae2",
      "transactionIndex": "0x29",
      "blockHash": "0x5bc5726996503e0ed8e90c290e735a510dc4f86e61f04ff22088c67cea982dd2",
      "blockNumber": "0x1495b92",
      "gasUsed": "0xb537",
      "effectiveGasPrice": "0x18823",
      "from": "0xb47cfcf8181d36117142b83d31bbbf63b1b250fe",
      "to": "0xcfe2f7254692bbd99b67a4d7d429f46b7b5e6c92",
      "contractAddress": null,
      "l1BaseFeeScalar": "0x44d",
      "l1BlobBaseFee": "0x3c3",
      "l1BlobBaseFeeScalar": "0xa118b",
      "l1Fee": "0x1d17aa27f3",
      "l1GasPrice": "0x1083c8355f",
      "l1GasUsed": "0x640"
    },
    {
      "status": "0x1",
      "cumulativeGasUsed": "0x89a5de",
      "logs": [
        {
          "address": "0xcfe2f7254692bbd99b67a4d7d429f46b7b5e6c92",
          "topics": [
            "0x8c5be1e5ebec7d5bd14f71427d1e84f3dd0314c0f7b2291e5b200ac8c7c3b925",
            "0x000000000000000000000000b1afd5179ac5d755c2da5bd2f961f5520647aeb2",
            "0x0000000000000000000000000765e09c95e7d3f43c5ec2dccefa46b2e4a12ca3"
          ],
          "data": "0x00000000000000000000000000000000000000000000152d02c7e14af6800000",
          "blockHash": "0x36e9c69fe4a7200ab90334e9c097f1d22b1ee6e6312433560530ae43fda851ac",
          "blockNumber": "0x1495b94",
          "transactionHash": "0x260787dbdbfff5fd9d05ce871b228693d456c265c6347855afd743db722325d7",
          "transactionIndex": "0x34",
          "logIndex": "0x183",
          "removed": false
        }
      ],
      "logsBloom": "0x00000100000000000000000000000000000000000000080000000000000000000000000000000000000000000000000000000000000000000000000000200000000000000000000000000000000000000000000000000000000000000000000000000000004000000000000000000000000000000000000000000000000000000000000000000000000000000000000000000000000000000000000000000000020000000000010000000000000200000040000000000000000020000000000000000000000000000000000000000000000000000000000000000000000000000010080000000000000000000020000000000000000000000000000000000000",
      "type": "0x2",
      "transactionHash": "0x260787dbdbfff5fd9d05ce871b228693d456c265c6347855afd743db722325d7",
      "transactionIndex": "0x34",
      "blockHash": "0x36e9c69fe4a7200ab90334e9c097f1d22b1ee6e6312433560530ae43fda851ac",
      "blockNumber": "0x1495b94",
      "gasUsed": "0xb537",
      "effectiveGasPrice": "0x18823",
      "from": "0xb1afd5179ac5d755c2da5bd2f961f5520647aeb2",
      "to": "0xcfe2f7254692bbd99b67a4d7d429f46b7b5e6c92",
      "contractAddress": null,
      "l1BaseFeeScalar": "0x44d",
      "l1BlobBaseFee": "0x43c",
      "l1BlobBaseFeeScalar": "0xa118b",
      "l1Fee": "0x1d2b4b870c",
      "l1GasPrice": "0x108eecdee2",
      "l1GasUsed": "0x640"
    },
    {
      "status": "0x1",
      "cumulativeGasUsed": "0xe5057b",
      "logs": [
        {
          "address": "0xcfe2f7254692bbd99b67a4d7d429f46b7b5e6c92",
          "topics": [
            "0x8c5be1e5ebec7d5bd14f71427d1e84f3dd0314c0f7b2291e5b200ac8c7c3b925",
            "0x000000000000000000000000bd4114d7521f80c4bad67f5ece1c843627078791",
            "0x0000000000000000000000000765e09c95e7d3f43c5ec2dccefa46b2e4a12ca3"
          ],
          "data": "0x00000000000000000000000000000000000000000000152d02c7e14af6800000",
          "blockHash": "0x2df68c19ca95d0c7a9b61ccf9b90956da4ec8a3812b19828dd3c5cc5ec4f9ec7",
          "blockNumber": "0x1495b96",
          "transactionHash": "0x44cb7e87805ee8a6faee67985a863b631cdae704f56fb2f18b69879809501a38",
          "transactionIndex": "0x34",
          "logIndex": "0xa3",
          "removed": false
        }
      ],
      "logsBloom": "0x00000800000000000000000000000000000000000000080000000000000000000000000000000000000000000000000000000000000000000000000000200000000400000000000000000000000000000000000000000000000000000000000000000000004000000000000000000000000000000000000000000002000000000000000000000000000000000000000000000000000000000000000000000000020000000000010000000000000000000000000000000000000020000000000000000000000000000000000000000000000000000000000000000000000000000010080000000000000000000020000000000000000000000000000000000000",
      "type": "0x2",
      "transactionHash": "0x44cb7e87805ee8a6faee67985a863b631cdae704f56fb2f18b69879809501a38",
      "transactionIndex": "0x34",
      "blockHash": "0x2df68c19ca95d0c7a9b61ccf9b90956da4ec8a3812b19828dd3c5cc5ec4f9ec7",
      "blockNumber": "0x1495b96",
      "gasUsed": "0xb537",
      "effectiveGasPrice": "0x18823",
      "from": "0xbd4114d7521f80c4bad67f5ece1c843627078791",
      "to": "0xcfe2f7254692bbd99b67a4d7d429f46b7b5e6c92",
      "contractAddress": null,
      "l1BaseFeeScalar": "0x44d",
      "l1BlobBaseFee": "0x43c",
      "l1BlobBaseFeeScalar": "0xa118b",
      "l1Fee": "0x1d2b4b870c",
      "l1GasPrice": "0x108eecdee2",
      "l1GasUsed": "0x640"
    }
  ],
  "libraries": [],
  "pending": [],
  "returns": {},
  "timestamp": 1738937870,
  "chain": 84532,
  "commit": "270a582"
}