{
  "transactions": [
    {
      "hash": "0x79ace9544b7bf5351464822b3e72364502cd5cbefa9d9f8cd4f94e8f2d14267b",
      "transactionType": "CALL",
      "contractName": null,
      "contractAddress": "0x6120fe707cc065d85452e44abc971f3beafcde20",
      "function": "approve(address,uint256)",
      "arguments": [
        "0x4F2d12a9b328Ba6D5bB3578dC3F0197249a0428C",
        "100000000000000000000000"
      ],
      "transaction": {
        "from": "0xbb02a9d6a71a847d587ce4dbb92f32f79c2efb2a",
        "to": "0x6120fe707cc065d85452e44abc971f3beafcde20",
        "gas": "0xa755",
        "value": "0x0",
        "input": "0x095ea7b30000000000000000000000004f2d12a9b328ba6d5bb3578dc3f0197249a0428c00000000000000000000000000000000000000000000152d02c7e14af6800000",
        "nonce": "0xa",
        "chainId": "0x14a34"
      },
      "additionalContracts": [],
      "isFixedGasLimit": false
    },
    {
      "hash": "0x97200acd70e7d167a5c9c3b8b2cf383ec3a85fa8f207b4d32106897b72ec286f",
      "transactionType": "CALL",
      "contractName": null,
      "contractAddress": "0x6120fe707cc065d85452e44abc971f3beafcde20",
      "function": "approve(address,uint256)",
      "arguments": [
        "0x4F2d12a9b328Ba6D5bB3578dC3F0197249a0428C",
        "100000000000000000000000"
      ],
      "transaction": {
        "from": "0xb47cfcf8181d36117142b83d31bbbf63b1b250fe",
        "to": "0x6120fe707cc065d85452e44abc971f3beafcde20",
        "gas": "0xa755",
        "value": "0x0",
        "input": "0x095ea7b30000000000000000000000004f2d12a9b328ba6d5bb3578dc3f0197249a0428c00000000000000000000000000000000000000000000152d02c7e14af6800000",
        "nonce": "0x5f",
        "chainId": "0x14a34"
      },
      "additionalContracts": [],
      "isFixedGasLimit": false
    },
    {
      "hash": "0xf1007349cccf464f58413991f30779b865a512493fb055d478d6fe45ffb80e31",
      "transactionType": "CALL",
      "contractName": null,
      "contractAddress": "0x6120fe707cc065d85452e44abc971f3beafcde20",
      "function": "approve(address,uint256)",
      "arguments": [
        "0x4F2d12a9b328Ba6D5bB3578dC3F0197249a0428C",
        "100000000000000000000000"
      ],
      "transaction": {
        "from": "0xb1afd5179ac5d755c2da5bd2f961f5520647aeb2",
        "to": "0x6120fe707cc065d85452e44abc971f3beafcde20",
        "gas": "0xa755",
        "value": "0x0",
        "input": "0x095ea7b30000000000000000000000004f2d12a9b328ba6d5bb3578dc3f0197249a0428c00000000000000000000000000000000000000000000152d02c7e14af6800000",
        "nonce": "0x9",
        "chainId": "0x14a34"
      },
      "additionalContracts": [],
      "isFixedGasLimit": false
    },
    {
      "hash": "0x5700de57f8e95f0c8ec2256408c178da0641bd72d24c72621889a6d51bd57fb9",
      "transactionType": "CALL",
      "contractName": null,
      "contractAddress": "0x6120fe707cc065d85452e44abc971f3beafcde20",
      "function": "approve(address,uint256)",
      "arguments": [
        "0x4F2d12a9b328Ba6D5bB3578dC3F0197249a0428C",
        "100000000000000000000000"
      ],
      "transaction": {
        "from": "0xbd4114d7521f80c4bad67f5ece1c843627078791",
        "to": "0x6120fe707cc065d85452e44abc971f3beafcde20",
        "gas": "0xa755",
        "value": "0x0",
        "input": "0x095ea7b30000000000000000000000004f2d12a9b328ba6d5bb3578dc3f0197249a0428c00000000000000000000000000000000000000000000152d02c7e14af6800000",
        "nonce": "0xa",
        "chainId": "0x14a34"
      },
      "additionalContracts": [],
      "isFixedGasLimit": false
    }
  ],
  "receipts": [
    {
      "status": "0x1",
      "cumulativeGasUsed": "0x113e0c7",
      "logs": [
        {
          "address": "0x6120fe707cc065d85452e44abc971f3beafcde20",
          "topics": [
            "0x8c5be1e5ebec7d5bd14f71427d1e84f3dd0314c0f7b2291e5b200ac8c7c3b925",
            "0x000000000000000000000000bb02a9d6a71a847d587ce4dbb92f32f79c2efb2a",
            "0x0000000000000000000000004f2d12a9b328ba6d5bb3578dc3f0197249a0428c"
          ],
          "data": "0x00000000000000000000000000000000000000000000152d02c7e14af6800000",
          "blockHash": "0x657b6cd6bcbdebac3dd723ceab57d4f3e4e125ac3d059263218024ea0843d2d1",
          "blockNumber": "0x1485953",
          "transactionHash": "0x79ace9544b7bf5351464822b3e72364502cd5cbefa9d9f8cd4f94e8f2d14267b",
          "transactionIndex": "0x2d",
          "logIndex": "0x96",
          "removed": false
        }
      ],
      "logsBloom": "0x00000000000000000002000000000000000000000000000000000000000000000000000000000000020000000000000000000000000000008000000000200000000000000000000000000001000000000000000000000000000000000000000000000000000000000000000000000000000000010000000000000000000000000000000000000000000000000000000000000000000000000000000000020000020000000000000000000000000000000000000000000000000000000000000000008000008000020000000000000000000000000000000000000000000000000010000000000000000000000000000000000000000000000000000000000000",
      "type": "0x2",
      "transactionHash": "0x79ace9544b7bf5351464822b3e72364502cd5cbefa9d9f8cd4f94e8f2d14267b",
      "transactionIndex": "0x2d",
      "blockHash": "0x657b6cd6bcbdebac3dd723ceab57d4f3e4e125ac3d059263218024ea0843d2d1",
      "blockNumber": "0x1485953",
      "gasUsed": "0x726b",
      "effectiveGasPrice": "0x1884d",
      "from": "0xbb02a9d6a71a847d587ce4dbb92f32f79c2efb2a",
      "to": "0x6120fe707cc065d85452e44abc971f3beafcde20",
      "contractAddress": null,
      "l1BaseFeeScalar": "0x44d",
      "l1BlobBaseFee": "0x1",
      "l1BlobBaseFeeScalar": "0xa118b",
      "l1Fee": "0x7ce0e181",
      "l1GasPrice": "0x46e3a371",
      "l1GasUsed": "0x640"
    },
    {
      "status": "0x1",
      "cumulativeGasUsed": "0x16f76fa",
      "logs": [
        {
          "address": "0x6120fe707cc065d85452e44abc971f3beafcde20",
          "topics": [
            "0x8c5be1e5ebec7d5bd14f71427d1e84f3dd0314c0f7b2291e5b200ac8c7c3b925",
            "0x000000000000000000000000b47cfcf8181d36117142b83d31bbbf63b1b250fe",
            "0x0000000000000000000000004f2d12a9b328ba6d5bb3578dc3f0197249a0428c"
          ],
          "data": "0x00000000000000000000000000000000000000000000152d02c7e14af6800000",
          "blockHash": "0x38ea9d8630b6d1683611184f46ab5bf760e6afbf3224600c791c34bc1bd436bd",
          "blockNumber": "0x1485954",
          "transactionHash": "0x97200acd70e7d167a5c9c3b8b2cf383ec3a85fa8f207b4d32106897b72ec286f",
          "transactionIndex": "0x32",
          "logIndex": "0x8c",
          "removed": false
        }
      ],
      "logsBloom": "0x000000000000000000020000000000000000000000000000000000000000000000000000000000000a0000000000000000000000000000000000000000200000000000000000000000000001000000000000000000800000000000000000000000000000000000000000000000000000000000010000000000000000000000000000000000000000000000000000000000000000000000000000000000020000020000000000000000000000000000000000000000000000000000000000000000000000008000000000000000000000000000000000000000000000000000000010000000000000000000000000000000000000000001000000000000000000",
      "type": "0x2",
      "transactionHash": "0x97200acd70e7d167a5c9c3b8b2cf383ec3a85fa8f207b4d32106897b72ec286f",
      "transactionIndex": "0x32",
      "blockHash": "0x38ea9d8630b6d1683611184f46ab5bf760e6afbf3224600c791c34bc1bd436bd",
      "blockNumber": "0x1485954",
      "gasUsed": "0x726b",
      "effectiveGasPrice": "0x1884e",
      "from": "0xb47cfcf8181d36117142b83d31bbbf63b1b250fe",
      "to": "0x6120fe707cc065d85452e44abc971f3beafcde20",
      "contractAddress": null,
      "l1BaseFeeScalar": "0x44d",
      "l1BlobBaseFee": "0x1",
      "l1BlobBaseFeeScalar": "0xa118b",
      "l1Fee": "0x7ce0e181",
      "l1GasPrice": "0x46e3a371",
      "l1GasUsed": "0x640"
    },
    {
      "status": "0x1",
      "cumulativeGasUsed": "0x5b692e",
      "logs": [
        {
          "address": "0x6120fe707cc065d85452e44abc971f3beafcde20",
          "topics": [
            "0x8c5be1e5ebec7d5bd14f71427d1e84f3dd0314c0f7b2291e5b200ac8c7c3b925",
            "0x000000000000000000000000b1afd5179ac5d755c2da5bd2f961f5520647aeb2",
            "0x0000000000000000000000004f2d12a9b328ba6d5bb3578dc3f0197249a0428c"
          ],
          "data": "0x00000000000000000000000000000000000000000000152d02c7e14af6800000",
          "blockHash": "0x8012b0dd03ae5b0c9140766de87947855c02c8eb6041ae9a1530ef75ced5b652",
          "blockNumber": "0x1485956",
          "transactionHash": "0xf1007349cccf464f58413991f30779b865a512493fb055d478d6fe45ffb80e31",
          "transactionIndex": "0x2a",
          "logIndex": "0x8a",
          "removed": false
        }
      ],
      "logsBloom": "0x00000100000000000002000000000000000000000000000000000000000000000000000000000000020000000000000000000000000000000000000000200000000000000000000000000001000000000000000000000000000000000000000000000000000000000000000000000000000000010000000000000000000000000000000000000000000000000000000000000000000000000000000000020000020000000000000000000000000200000040000000000000000000000000000000000000008000000000000000000000000000000000000000000000000000000010000000000000000000000000000000000000000000000000000000000000",
      "type": "0x2",
      "transactionHash": "0xf1007349cccf464f58413991f30779b865a512493fb055d478d6fe45ffb80e31",
      "transactionIndex": "0x2a",
      "blockHash": "0x8012b0dd03ae5b0c9140766de87947855c02c8eb6041ae9a1530ef75ced5b652",
      "blockNumber": "0x1485956",
      "gasUsed": "0x726b",
      "effectiveGasPrice": "0x1884f",
      "from": "0xb1afd5179ac5d755c2da5bd2f961f5520647aeb2",
      "to": "0x6120fe707cc065d85452e44abc971f3beafcde20",
      "contractAddress": null,
      "l1BaseFeeScalar": "0x44d",
      "l1BlobBaseFee": "0x1",
      "l1BlobBaseFeeScalar": "0xa118b",
      "l1Fee": "0x7ce0e181",
      "l1GasPrice": "0x46e3a371",
      "l1GasUsed": "0x640"
    },
    {
      "status": "0x1",
      "cumulativeGasUsed": "0x600800",
      "logs": [
        {
          "address": "0x6120fe707cc065d85452e44abc971f3beafcde20",
          "topics": [
            "0x8c5be1e5ebec7d5bd14f71427d1e84f3dd0314c0f7b2291e5b200ac8c7c3b925",
            "0x000000000000000000000000bd4114d7521f80c4bad67f5ece1c843627078791",
            "0x0000000000000000000000004f2d12a9b328ba6d5bb3578dc3f0197249a0428c"
          ],
          "data": "0x00000000000000000000000000000000000000000000152d02c7e14af6800000",
          "blockHash": "0xa4ae2b5be4ce1c593311fc2fcea81b2eb29db6a92019786123f7d95ca06f4780",
          "blockNumber": "0x1485958",
          "transactionHash": "0x5700de57f8e95f0c8ec2256408c178da0641bd72d24c72621889a6d51bd57fb9",
          "transactionIndex": "0x29",
          "logIndex": "0x76",
          "removed": false
        }
      ],
      "logsBloom": "0x00000800000000000002000000000000000000000000000000000000000000000000000000000000020000000000000000000000000000000000000000200000000400000000000000000001000000000000000000000000000000000000000000000000000000000000000000000000000000010000000000000002000000000000000000000000000000000000000000000000000000000000000000020000020000000000000000000000000000000000000000000000000000000000000000000000008000000000000000000000000000000000000000000000000000000010000000000000000000000000000000000000000000000000000000000000",
      "type": "0x2",
      "transactionHash": "0x5700de57f8e95f0c8ec2256408c178da0641bd72d24c72621889a6d51bd57fb9",
      "transactionIndex": "0x29",
      "blockHash": "0xa4ae2b5be4ce1c593311fc2fcea81b2eb29db6a92019786123f7d95ca06f4780",
      "blockNumber": "0x1485958",
      "gasUsed": "0x726b",
      "effectiveGasPrice": "0x18850",
      "from": "0xbd4114d7521f80c4bad67f5ece1c843627078791",
      "to": "0x6120fe707cc065d85452e44abc971f3beafcde20",
      "contractAddress": null,
      "l1BaseFeeScalar": "0x44d",
      "l1BlobBaseFee": "0x1",
      "l1BlobBaseFeeScalar": "0xa118b",
      "l1Fee": "0x72fd9fb1",
      "l1GasPrice": "0x4146bb00",
      "l1GasUsed": "0x640"
    }
  ],
  "libraries": [],
  "pending": [],
  "returns": {},
  "timestamp": 1738805649,
  "chain": 84532,
  "commit": "e3ad21d"
}