{
  "transactions": [
    {
      "hash": "0xfe3b53517c09f94b013f860d5bf61b12fda0f8a63c6c268b101a3abeddfc6ee8",
      "transactionType": "CALL",
      "contractName": "PlaceholderStableCoin",
      "contractAddress": "0xcfe2f7254692bbd99b67a4d7d429f46b7b5e6c92",
      "function": "approve(address,uint256)",
      "arguments": [
        "0x0765e09c95E7D3F43c5EC2DcCeFA46B2e4a12CA3",
        "100000000000000000000000"
      ],
      "transaction": {
        "from": "0xbb02a9d6a71a847d587ce4dbb92f32f79c2efb2a",
        "to": "0xcfe2f7254692bbd99b67a4d7d429f46b7b5e6c92",
        "gas": "0xfa4d",
        "value": "0x0",
        "input": "0x095ea7b30000000000000000000000000765e09c95e7d3f43c5ec2dccefa46b2e4a12ca300000000000000000000000000000000000000000000152d02c7e14af6800000",
        "nonce": "0x46",
        "chainId": "0x14a34"
      },
      "additionalContracts": [],
      "isFixedGasLimit": false
    },
    {
      "hash": "0xe098afb002228cd0610ea6a7d9d5f7a00fe5880d9437dd5a2248bb4ceaf81cea",
      "transactionType": "CALL",
      "contractName": "PlaceholderStableCoin",
      "contractAddress": "0xcfe2f7254692bbd99b67a4d7d429f46b7b5e6c92",
      "function": "approve(address,uint256)",
      "arguments": [
        "0x0765e09c95E7D3F43c5EC2DcCeFA46B2e4a12CA3",
        "100000000000000000000000"
      ],
      "transaction": {
        "from": "0xb47cfcf8181d36117142b83d31bbbf63b1b250fe",
        "to": "0xcfe2f7254692bbd99b67a4d7d429f46b7b5e6c92",
        "gas": "0x9756",
        "value": "0x0",
        "input": "0x095ea7b30000000000000000000000000765e09c95e7d3f43c5ec2dccefa46b2e4a12ca300000000000000000000000000000000000000000000152d02c7e14af6800000",
        "nonce": "0x88",
        "chainId": "0x14a34"
      },
      "additionalContracts": [],
      "isFixedGasLimit": false
    },
    {
      "hash": "0x26b3324bafcaf708bdfc9acd28924edf9dae44fbb4c375f1296d3498628ae63a",
      "transactionType": "CALL",
      "contractName": "PlaceholderStableCoin",
      "contractAddress": "0xcfe2f7254692bbd99b67a4d7d429f46b7b5e6c92",
      "function": "approve(address,uint256)",
      "arguments": [
        "0x0765e09c95E7D3F43c5EC2DcCeFA46B2e4a12CA3",
        "100000000000000000000000"
      ],
      "transaction": {
        "from": "0xb1afd5179ac5d755c2da5bd2f961f5520647aeb2",
        "to": "0xcfe2f7254692bbd99b67a4d7d429f46b7b5e6c92",
        "gas": "0x9756",
        "value": "0x0",
        "input": "0x095ea7b30000000000000000000000000765e09c95e7d3f43c5ec2dccefa46b2e4a12ca300000000000000000000000000000000000000000000152d02c7e14af6800000",
        "nonce": "0x16",
        "chainId": "0x14a34"
      },
      "additionalContracts": [],
      "isFixedGasLimit": false
    },
    {
      "hash": "0xa4111a0961f06db9c478398c30fe2af9247e56101e305c53cec1b597f784e5d7",
      "transactionType": "CALL",
      "contractName": "PlaceholderStableCoin",
      "contractAddress": "0xcfe2f7254692bbd99b67a4d7d429f46b7b5e6c92",
      "function": "approve(address,uint256)",
      "arguments": [
        "0x0765e09c95E7D3F43c5EC2DcCeFA46B2e4a12CA3",
        "100000000000000000000000"
      ],
      "transaction": {
        "from": "0xbd4114d7521f80c4bad67f5ece1c843627078791",
        "to": "0xcfe2f7254692bbd99b67a4d7d429f46b7b5e6c92",
        "gas": "0x9756",
        "value": "0x0",
        "input": "0x095ea7b30000000000000000000000000765e09c95e7d3f43c5ec2dccefa46b2e4a12ca300000000000000000000000000000000000000000000152d02c7e14af6800000",
        "nonce": "0x14",
        "chainId": "0x14a34"
      },
      "additionalContracts": [],
      "isFixedGasLimit": false
    }
  ],
  "receipts": [
    {
      "status": "0x1",
      "cumulativeGasUsed": "0x5693bc",
      "logs": [
        {
          "address": "0xcfe2f7254692bbd99b67a4d7d429f46b7b5e6c92",
          "topics": [
            "0x8c5be1e5ebec7d5bd14f71427d1e84f3dd0314c0f7b2291e5b200ac8c7c3b925",
            "0x000000000000000000000000bb02a9d6a71a847d587ce4dbb92f32f79c2efb2a",
            "0x0000000000000000000000000765e09c95e7d3f43c5ec2dccefa46b2e4a12ca3"
          ],
          "data": "0x00000000000000000000000000000000000000000000152d02c7e14af6800000",
          "blockHash": "0x002591d94dd08f4e3d672cef073ce9fed176f857b34700fdea101e9183bcf28b",
          "blockNumber": "0x1496195",
          "transactionHash": "0xfe3b53517c09f94b013f860d5bf61b12fda0f8a63c6c268b101a3abeddfc6ee8",
          "transactionIndex": "0x28",
          "logIndex": "0x86",
          "removed": false
        }
      ],
      "logsBloom": "0x00000000000000000000000000000000000000000000080000000000000000000000000000000000000000000000000000000000000000008000000000200000000000000000000000000000000000000000000000000000000000000000000000000000004000000000000000000000000000000000000000000000000000000000000000000000000000000000000000000000000000000000000000000000020000000000010000000000000000000000000000000000000020000000000000008000000000020000000000000000000000000000000000000000000000000010080000000000000000000020000000000000000000000000000000000000",
      "type": "0x2",
      "transactionHash": "0xfe3b53517c09f94b013f860d5bf61b12fda0f8a63c6c268b101a3abeddfc6ee8",
      "transactionIndex": "0x28",
      "blockHash": "0x002591d94dd08f4e3d672cef073ce9fed176f857b34700fdea101e9183bcf28b",
      "blockNumber": "0x1496195",
      "gasUsed": "0xb537",
      "effectiveGasPrice": "0xe45bc",
      "from": "0xbb02a9d6a71a847d587ce4dbb92f32f79c2efb2a",
      "to": "0xcfe2f7254692bbd99b67a4d7d429f46b7b5e6c92",
      "contractAddress": null,
      "l1BaseFeeScalar": "0x44d",
      "l1BlobBaseFee": "0x7",
      "l1BlobBaseFeeScalar": "0xa118b",
      "l1Fee": "0x1c5dc7f1b0",
      "l1GasPrice": "0x101a43b119",
      "l1GasUsed": "0x640"
    },
    {
      "status": "0x1",
      "cumulativeGasUsed": "0x746729",
      "logs": [
        {
          "address": "0xcfe2f7254692bbd99b67a4d7d429f46b7b5e6c92",
          "topics": [
            "0x8c5be1e5ebec7d5bd14f71427d1e84f3dd0314c0f7b2291e5b200ac8c7c3b925",
            "0x000000000000000000000000b47cfcf8181d36117142b83d31bbbf63b1b250fe",
            "0x0000000000000000000000000765e09c95e7d3f43c5ec2dccefa46b2e4a12ca3"
          ],
          "data": "0x00000000000000000000000000000000000000000000152d02c7e14af6800000",
          "blockHash": "0x2d0e9cc86ab99f4ab5c0834ee8616d15122c227e49b3d8baafe4f6bd46d19fe5",
          "blockNumber": "0x1496197",
          "transactionHash": "0xe098afb002228cd0610ea6a7d9d5f7a00fe5880d9437dd5a2248bb4ceaf81cea",
          "transactionIndex": "0x38",
          "logIndex": "0xb2",
          "removed": false
        }
      ],
      "logsBloom": "0x00000000000000000000000000000000000000000000080000000000000000000000000000000000080000000000000000000000000000000000000000200000000000000000000000000000000000000000000000800000000000000000000000000000004000000000000000000000000000000000000000000000000000000000000000000000000000000000000000000000000000000000000000000000020000000000010000000000000000000000000000000000000020000000000000000000000000000000000000000000000000000000000000000000000000000010080000000000000000000020000000000000000001000000000000000000",
      "type": "0x2",
      "transactionHash": "0xe098afb002228cd0610ea6a7d9d5f7a00fe5880d9437dd5a2248bb4ceaf81cea",
      "transactionIndex": "0x38",
      "blockHash": "0x2d0e9cc86ab99f4ab5c0834ee8616d15122c227e49b3d8baafe4f6bd46d19fe5",
      "blockNumber": "0x1496197",
      "gasUsed": "0x677b",
      "effectiveGasPrice": "0xe45bb",
      "from": "0xb47cfcf8181d36117142b83d31bbbf63b1b250fe",
      "to": "0xcfe2f7254692bbd99b67a4d7d429f46b7b5e6c92",
      "contractAddress": null,
      "l1BaseFeeScalar": "0x44d",
      "l1BlobBaseFee": "0x7",
      "l1BlobBaseFeeScalar": "0xa118b",
      "l1Fee": "0x1addd15fb8",
      "l1GasPrice": "0xf404d3ae5",
      "l1GasUsed": "0x640"
    },
    {
      "status": "0x1",
      "cumulativeGasUsed": "0x7133ce",
      "logs": [
        {
          "address": "0xcfe2f7254692bbd99b67a4d7d429f46b7b5e6c92",
          "topics": [
            "0x8c5be1e5ebec7d5bd14f71427d1e84f3dd0314c0f7b2291e5b200ac8c7c3b925",
            "0x000000000000000000000000b1afd5179ac5d755c2da5bd2f961f5520647aeb2",
            "0x0000000000000000000000000765e09c95e7d3f43c5ec2dccefa46b2e4a12ca3"
          ],
          "data": "0x00000000000000000000000000000000000000000000152d02c7e14af6800000",
          "blockHash": "0x48d9444550e7bf742a46f999154f53c174f11a36af392ba273bc27b7c9db899b",
          "blockNumber": "0x1496199",
          "transactionHash": "0x26b3324bafcaf708bdfc9acd28924edf9dae44fbb4c375f1296d3498628ae63a",
          "transactionIndex": "0x34",
          "logIndex": "0xa6",
          "removed": false
        }
      ],
      "logsBloom": "0x00000100000000000000000000000000000000000000080000000000000000000000000000000000000000000000000000000000000000000000000000200000000000000000000000000000000000000000000000000000000000000000000000000000004000000000000000000000000000000000000000000000000000000000000000000000000000000000000000000000000000000000000000000000020000000000010000000000000200000040000000000000000020000000000000000000000000000000000000000000000000000000000000000000000000000010080000000000000000000020000000000000000000000000000000000000",
      "type": "0x2",
      "transactionHash": "0x26b3324bafcaf708bdfc9acd28924edf9dae44fbb4c375f1296d3498628ae63a",
      "transactionIndex": "0x34",
      "blockHash": "0x48d9444550e7bf742a46f999154f53c174f11a36af392ba273bc27b7c9db899b",
      "blockNumber": "0x1496199",
      "gasUsed": "0x677b",
      "effectiveGasPrice": "0xe45bb",
      "from": "0xb1afd5179ac5d755c2da5bd2f961f5520647aeb2",
      "to": "0xcfe2f7254692bbd99b67a4d7d429f46b7b5e6c92",
      "contractAddress": null,
      "l1BaseFeeScalar": "0x44d",
      "l1BlobBaseFee": "0x7",
      "l1BlobBaseFeeScalar": "0xa118b",
      "l1Fee": "0x1addd15fb8",
      "l1GasPrice": "0xf404d3ae5",
      "l1GasUsed": "0x640"
    },
    {
      "status": "0x1",
      "cumulativeGasUsed": "0xad2e86",
      "logs": [
        {
          "address": "0xcfe2f7254692bbd99b67a4d7d429f46b7b5e6c92",
          "topics": [
            "0x8c5be1e5ebec7d5bd14f71427d1e84f3dd0314c0f7b2291e5b200ac8c7c3b925",
            "0x000000000000000000000000bd4114d7521f80c4bad67f5ece1c843627078791",
            "0x0000000000000000000000000765e09c95e7d3f43c5ec2dccefa46b2e4a12ca3"
          ],
          "data": "0x00000000000000000000000000000000000000000000152d02c7e14af6800000",
          "blockHash": "0x6935df3847bf6994b0a0428cb9904a33582caede5727e28090287cd76039be27",
          "blockNumber": "0x149619b",
          "transactionHash": "0xa4111a0961f06db9c478398c30fe2af9247e56101e305c53cec1b597f784e5d7",
          "transactionIndex": "0x33",
          "logIndex": "0xb8",
          "removed": false
        }
      ],
      "logsBloom": "0x00000800000000000000000000000000000000000000080000000000000000000000000000000000000000000000000000000000000000000000000000200000000400000000000000000000000000000000000000000000000000000000000000000000004000000000000000000000000000000000000000000002000000000000000000000000000000000000000000000000000000000000000000000000020000000000010000000000000000000000000000000000000020000000000000000000000000000000000000000000000000000000000000000000000000000010080000000000000000000020000000000000000000000000000000000000",
      "type": "0x2",
      "transactionHash": "0xa4111a0961f06db9c478398c30fe2af9247e56101e305c53cec1b597f784e5d7",
      "transactionIndex": "0x33",
      "blockHash": "0x6935df3847bf6994b0a0428cb9904a33582caede5727e28090287cd76039be27",
      "blockNumber": "0x149619b",
      "gasUsed": "0x677b",
      "effectiveGasPrice": "0xe45bb",
      "from": "0xbd4114d7521f80c4bad67f5ece1c843627078791",
      "to": "0xcfe2f7254692bbd99b67a4d7d429f46b7b5e6c92",
      "contractAddress": null,
      "l1BaseFeeScalar": "0x44d",
      "l1BlobBaseFee": "0x7",
      "l1BlobBaseFeeScalar": "0xa118b",
      "l1Fee": "0x1addd15fb8",
      "l1GasPrice": "0xf404d3ae5",
      "l1GasUsed": "0x640"
    }
  ],
  "libraries": [],
  "pending": [],
  "returns": {},
  "timestamp": 1738940951,
  "chain": 84532,
  "commit": "270a582"
}