{
  "transactions": [
    {
      "hash": "0x225b924a2f22935c5cf37348f9d31eeb31617212d167b3fc54f995d5ca4617f4",
      "transactionType": "CALL",
      "contractName": null,
      "contractAddress": "0x50a016fb02f25fbb2c0143d1e49637bf1e1dd9ac",
      "function": "approve(address,uint256)",
      "arguments": [
        "0xDB943E63D3Bbf57f434E3e03482e42830f4533e8",
        "100000000000000000000000"
      ],
      "transaction": {
        "from": "0xbb02a9d6a71a847d587ce4dbb92f32f79c2efb2a",
        "to": "0x50a016fb02f25fbb2c0143d1e49637bf1e1dd9ac",
        "gas": "0xfa4d",
        "value": "0x0",
        "input": "0x095ea7b3000000000000000000000000db943e63d3bbf57f434e3e03482e42830f4533e800000000000000000000000000000000000000000000152d02c7e14af6800000",
        "nonce": "0x12",
        "chainId": "0x14a34"
      },
      "additionalContracts": [],
      "isFixedGasLimit": false
    },
    {
      "hash": "0x3263f2be1671dcc717848c6f26f8cf5870a5d924ce291fe210bf52197b752efd",
      "transactionType": "CALL",
      "contractName": null,
      "contractAddress": "0x50a016fb02f25fbb2c0143d1e49637bf1e1dd9ac",
      "function": "approve(address,uint256)",
      "arguments": [
        "0xDB943E63D3Bbf57f434E3e03482e42830f4533e8",
        "100000000000000000000000"
      ],
      "transaction": {
        "from": "0xb47cfcf8181d36117142b83d31bbbf63b1b250fe",
        "to": "0x50a016fb02f25fbb2c0143d1e49637bf1e1dd9ac",
        "gas": "0xfa4d",
        "value": "0x0",
        "input": "0x095ea7b3000000000000000000000000db943e63d3bbf57f434e3e03482e42830f4533e800000000000000000000000000000000000000000000152d02c7e14af6800000",
        "nonce": "0x63",
        "chainId": "0x14a34"
      },
      "additionalContracts": [],
      "isFixedGasLimit": false
    },
    {
      "hash": "0xbbd12b9129a336cbb275d77d7019772c3208a7e957403d01fbf255bce90f88df",
      "transactionType": "CALL",
      "contractName": null,
      "contractAddress": "0x50a016fb02f25fbb2c0143d1e49637bf1e1dd9ac",
      "function": "approve(address,uint256)",
      "arguments": [
        "0xDB943E63D3Bbf57f434E3e03482e42830f4533e8",
        "100000000000000000000000"
      ],
      "transaction": {
        "from": "0xb1afd5179ac5d755c2da5bd2f961f5520647aeb2",
        "to": "0x50a016fb02f25fbb2c0143d1e49637bf1e1dd9ac",
        "gas": "0xfa4d",
        "value": "0x0",
        "input": "0x095ea7b3000000000000000000000000db943e63d3bbf57f434e3e03482e42830f4533e800000000000000000000000000000000000000000000152d02c7e14af6800000",
        "nonce": "0xb",
        "chainId": "0x14a34"
      },
      "additionalContracts": [],
      "isFixedGasLimit": false
    },
    {
      "hash": "0xb464411bace69ef0e7e45cf459585e44472871304be95a0cb0d4c69a3c323def",
      "transactionType": "CALL",
      "contractName": null,
      "contractAddress": "0x50a016fb02f25fbb2c0143d1e49637bf1e1dd9ac",
      "function": "approve(address,uint256)",
      "arguments": [
        "0xDB943E63D3Bbf57f434E3e03482e42830f4533e8",
        "100000000000000000000000"
      ],
      "transaction": {
        "from": "0xbd4114d7521f80c4bad67f5ece1c843627078791",
        "to": "0x50a016fb02f25fbb2c0143d1e49637bf1e1dd9ac",
        "gas": "0xfa4d",
        "value": "0x0",
        "input": "0x095ea7b3000000000000000000000000db943e63d3bbf57f434e3e03482e42830f4533e800000000000000000000000000000000000000000000152d02c7e14af6800000",
        "nonce": "0xc",
        "chainId": "0x14a34"
      },
      "additionalContracts": [],
      "isFixedGasLimit": false
    }
  ],
  "receipts": [
    {
      "status": "0x1",
      "cumulativeGasUsed": "0xa87690",
      "logs": [
        {
          "address": "0x50a016fb02f25fbb2c0143d1e49637bf1e1dd9ac",
          "topics": [
            "0x8c5be1e5ebec7d5bd14f71427d1e84f3dd0314c0f7b2291e5b200ac8c7c3b925",
            "0x000000000000000000000000bb02a9d6a71a847d587ce4dbb92f32f79c2efb2a",
            "0x000000000000000000000000db943e63d3bbf57f434e3e03482e42830f4533e8"
          ],
          "data": "0x00000000000000000000000000000000000000000000152d02c7e14af6800000",
          "blockHash": "0x20ce59cdb9794c0f3c70760433a15dfa1f010f66ff9ed3d87b1c12452fe2e3bd",
          "blockNumber": "0x1485f3e",
          "transactionHash": "0x225b924a2f22935c5cf37348f9d31eeb31617212d167b3fc54f995d5ca4617f4",
          "transactionIndex": "0x38",
          "logIndex": "0xf4",
          "removed": false
        }
      ],
      "logsBloom": "0x00000000000000000000000000000000000000000000000000040000000000000000000000000000000000000000000000000000000000008000000000200000000000000000000000000000000000000000000008000000000000000000000000000000000000000000000000000000800000000000000000000000000000000000000000000000000000000008000000000000000000000000000000000000020000000000000000000000000000200000000000000000000000000000000000008000000000020000000000000000000000000000000000000010000000000010000000000000000000000000000000000000000000000000000000000000",
      "type": "0x2",
      "transactionHash": "0x225b924a2f22935c5cf37348f9d31eeb31617212d167b3fc54f995d5ca4617f4",
      "transactionIndex": "0x38",
      "blockHash": "0x20ce59cdb9794c0f3c70760433a15dfa1f010f66ff9ed3d87b1c12452fe2e3bd",
      "blockNumber": "0x1485f3e",
      "gasUsed": "0xb537",
      "effectiveGasPrice": "0x9e89f",
      "from": "0xbb02a9d6a71a847d587ce4dbb92f32f79c2efb2a",
      "to": "0x50a016fb02f25fbb2c0143d1e49637bf1e1dd9ac",
      "contractAddress": null,
      "l1BaseFeeScalar": "0x44d",
      "l1BlobBaseFee": "0xa",
      "l1BlobBaseFeeScalar": "0xa118b",
      "l1Fee": "0x7d9657cd",
      "l1GasPrice": "0x474aa4a3",
      "l1GasUsed": "0x640"
    },
    {
      "status": "0x1",
      "cumulativeGasUsed": "0x849838",
      "logs": [
        {
          "address": "0x50a016fb02f25fbb2c0143d1e49637bf1e1dd9ac",
          "topics": [
            "0x8c5be1e5ebec7d5bd14f71427d1e84f3dd0314c0f7b2291e5b200ac8c7c3b925",
            "0x000000000000000000000000b47cfcf8181d36117142b83d31bbbf63b1b250fe",
            "0x000000000000000000000000db943e63d3bbf57f434e3e03482e42830f4533e8"
          ],
          "data": "0x00000000000000000000000000000000000000000000152d02c7e14af6800000",
          "blockHash": "0x1e7f2b5f1adbad90d00b2e59b267a5268edfbd1b11bec681389b99edf1bedf1d",
          "blockNumber": "0x1485f40",
          "transactionHash": "0x3263f2be1671dcc717848c6f26f8cf5870a5d924ce291fe210bf52197b752efd",
          "transactionIndex": "0x40",
          "logIndex": "0xd1",
          "removed": false
        }
      ],
      "logsBloom": "0x00000000000000000000000000000000000000000000000000040000000000000000000000000000080000000000000000000000000000000000000000200000000000000000000000000000000000000000000008800000000000000000000000000000000000000000000000000000800000000000000000000000000000000000000000000000000000000008000000000000000000000000000000000000020000000000000000000000000000200000000000000000000000000000000000000000000000000000000000000000000000000000000000000010000000000010000000000000000000000000000000000000000001000000000000000000",
      "type": "0x2",
      "transactionHash": "0x3263f2be1671dcc717848c6f26f8cf5870a5d924ce291fe210bf52197b752efd",
      "transactionIndex": "0x40",
      "blockHash": "0x1e7f2b5f1adbad90d00b2e59b267a5268edfbd1b11bec681389b99edf1bedf1d",
      "blockNumber": "0x1485f40",
      "gasUsed": "0xb537",
      "effectiveGasPrice": "0x9e89e",
      "from": "0xb47cfcf8181d36117142b83d31bbbf63b1b250fe",
      "to": "0x50a016fb02f25fbb2c0143d1e49637bf1e1dd9ac",
      "contractAddress": null,
      "l1BaseFeeScalar": "0x44d",
      "l1BlobBaseFee": "0xa",
      "l1BlobBaseFeeScalar": "0xa118b",
      "l1Fee": "0x7d9657cd",
      "l1GasPrice": "0x474aa4a3",
      "l1GasUsed": "0x640"
    },
    {
      "status": "0x1",
      "cumulativeGasUsed": "0x8188a5",
      "logs": [
        {
          "address": "0x50a016fb02f25fbb2c0143d1e49637bf1e1dd9ac",
          "topics": [
            "0x8c5be1e5ebec7d5bd14f71427d1e84f3dd0314c0f7b2291e5b200ac8c7c3b925",
            "0x000000000000000000000000b1afd5179ac5d755c2da5bd2f961f5520647aeb2",
            "0x000000000000000000000000db943e63d3bbf57f434e3e03482e42830f4533e8"
          ],
          "data": "0x00000000000000000000000000000000000000000000152d02c7e14af6800000",
          "blockHash": "0x7a5c33fe687d4ba162a619b381f05b1dce068b7795c771515c214b93e43c3fab",
          "blockNumber": "0x1485f42",
          "transactionHash": "0xbbd12b9129a336cbb275d77d7019772c3208a7e957403d01fbf255bce90f88df",
          "transactionIndex": "0x48",
          "logIndex": "0xce",
          "removed": false
        }
      ],
      "logsBloom": "0x00000100000000000000000000000000000000000000000000040000000000000000000000000000000000000000000000000000000000000000000000200000000000000000000000000000000000000000000008000000000000000000000000000000000000000000000000000000800000000000000000000000000000000000000000000000000000000008000000000000000000000000000000000000020000000000000000000000000200200040000000000000000000000000000000000000000000000000000000000000000000000000000000000010000000000010000000000000000000000000000000000000000000000000000000000000",
      "type": "0x2",
      "transactionHash": "0xbbd12b9129a336cbb275d77d7019772c3208a7e957403d01fbf255bce90f88df",
      "transactionIndex": "0x48",
      "blockHash": "0x7a5c33fe687d4ba162a619b381f05b1dce068b7795c771515c214b93e43c3fab",
      "blockNumber": "0x1485f42",
      "gasUsed": "0xb537",
      "effectiveGasPrice": "0x9e89f",
      "from": "0xb1afd5179ac5d755c2da5bd2f961f5520647aeb2",
      "to": "0x50a016fb02f25fbb2c0143d1e49637bf1e1dd9ac",
      "contractAddress": null,
      "l1BaseFeeScalar": "0x44d",
      "l1BlobBaseFee": "0xa",
      "l1BlobBaseFeeScalar": "0xa118b",
      "l1Fee": "0x7d9657cd",
      "l1GasPrice": "0x474aa4a3",
      "l1GasUsed": "0x640"
    },
    {
      "status": "0x1",
      "cumulativeGasUsed": "0x894a3b",
      "logs": [
        {
          "address": "0x50a016fb02f25fbb2c0143d1e49637bf1e1dd9ac",
          "topics": [
            "0x8c5be1e5ebec7d5bd14f71427d1e84f3dd0314c0f7b2291e5b200ac8c7c3b925",
            "0x000000000000000000000000bd4114d7521f80c4bad67f5ece1c843627078791",
            "0x000000000000000000000000db943e63d3bbf57f434e3e03482e42830f4533e8"
          ],
          "data": "0x00000000000000000000000000000000000000000000152d02c7e14af6800000",
          "blockHash": "0x0ae173bb96c7f36587d3bae5aa58ade1754d3a1349e2cee376b9d0e20175ee87",
          "blockNumber": "0x1485f44",
          "transactionHash": "0xb464411bace69ef0e7e45cf459585e44472871304be95a0cb0d4c69a3c323def",
          "transactionIndex": "0x3e",
          "logIndex": "0xe8",
          "removed": false
        }
      ],
      "logsBloom": "0x00000800000000000000000000000000000000000000000000040000000000000000000000000000000000000000000000000000000000000000000000200000000400000000000000000000000000000000000008000000000000000000000000000000000000000000000000000000800000000000000000000002000000000000000000000000000000000008000000000000000000000000000000000000020000000000000000000000000000200000000000000000000000000000000000000000000000000000000000000000000000000000000000000010000000000010000000000000000000000000000000000000000000000000000000000000",
      "type": "0x2",
      "transactionHash": "0xb464411bace69ef0e7e45cf459585e44472871304be95a0cb0d4c69a3c323def",
      "transactionIndex": "0x3e",
      "blockHash": "0x0ae173bb96c7f36587d3bae5aa58ade1754d3a1349e2cee376b9d0e20175ee87",
      "blockNumber": "0x1485f44",
      "gasUsed": "0xb537",
      "effectiveGasPrice": "0x9e89e",
      "from": "0xbd4114d7521f80c4bad67f5ece1c843627078791",
      "to": "0x50a016fb02f25fbb2c0143d1e49637bf1e1dd9ac",
      "contractAddress": null,
      "l1BaseFeeScalar": "0x44d",
      "l1BlobBaseFee": "0xc",
      "l1BlobBaseFeeScalar": "0xa118b",
      "l1Fee": "0x7e0514ca",
      "l1GasPrice": "0x47898118",
      "l1GasUsed": "0x640"
    }
  ],
  "libraries": [],
  "pending": [],
  "returns": {},
  "timestamp": 1738808680,
  "chain": 84532,
  "commit": "e3ad21d"
}