{
  "transactions": [
    {
      "hash": "0xa823326066990d13050c017ce969e810ad7b9362acc9dd154738a71a16db0e9e",
      "transactionType": "CALL",
      "contractName": null,
      "contractAddress": "0xa981adb90aa87645f6b9d0432d856c4a32fa0528",
      "function": "approve(address,uint256)",
      "arguments": [
        "0xDf85a20742f3e1a36fA7B4B1E4FbE7D9A29E1d8f",
        "100000000000000000000000"
      ],
      "transaction": {
        "from": "0xbb02a9d6a71a847d587ce4dbb92f32f79c2efb2a",
        "to": "0xa981adb90aa87645f6b9d0432d856c4a32fa0528",
        "gas": "0xfa4d",
        "value": "0x0",
        "input": "0x095ea7b3000000000000000000000000df85a20742f3e1a36fa7b4b1e4fbe7d9a29e1d8f00000000000000000000000000000000000000000000152d02c7e14af6800000",
        "nonce": "0x16",
        "chainId": "0x14a34"
      },
      "additionalContracts": [],
      "isFixedGasLimit": false
    },
    {
      "hash": "0x9978fd4a7f26c1b6dad77ed258971bd8920a0032e104ae40d23d04331b4e2437",
      "transactionType": "CALL",
      "contractName": null,
      "contractAddress": "0xa981adb90aa87645f6b9d0432d856c4a32fa0528",
      "function": "approve(address,uint256)",
      "arguments": [
        "0xDf85a20742f3e1a36fA7B4B1E4FbE7D9A29E1d8f",
        "100000000000000000000000"
      ],
      "transaction": {
        "from": "0xb47cfcf8181d36117142b83d31bbbf63b1b250fe",
        "to": "0xa981adb90aa87645f6b9d0432d856c4a32fa0528",
        "gas": "0xfa4d",
        "value": "0x0",
        "input": "0x095ea7b3000000000000000000000000df85a20742f3e1a36fa7b4b1e4fbe7d9a29e1d8f00000000000000000000000000000000000000000000152d02c7e14af6800000",
        "nonce": "0x65",
        "chainId": "0x14a34"
      },
      "additionalContracts": [],
      "isFixedGasLimit": false
    },
    {
      "hash": "0xc158bfc3c9a956debc9315add240122b43cacf8bb9303b2804869e381ea8ace3",
      "transactionType": "CALL",
      "contractName": null,
      "contractAddress": "0xa981adb90aa87645f6b9d0432d856c4a32fa0528",
      "function": "approve(address,uint256)",
      "arguments": [
        "0xDf85a20742f3e1a36fA7B4B1E4FbE7D9A29E1d8f",
        "100000000000000000000000"
      ],
      "transaction": {
        "from": "0xb1afd5179ac5d755c2da5bd2f961f5520647aeb2",
        "to": "0xa981adb90aa87645f6b9d0432d856c4a32fa0528",
        "gas": "0xfa4d",
        "value": "0x0",
        "input": "0x095ea7b3000000000000000000000000df85a20742f3e1a36fa7b4b1e4fbe7d9a29e1d8f00000000000000000000000000000000000000000000152d02c7e14af6800000",
        "nonce": "0xd",
        "chainId": "0x14a34"
      },
      "additionalContracts": [],
      "isFixedGasLimit": false
    },
    {
      "hash": "0xbe136a071c18ddd67c39b5885cd60eb135036288c4ad41aa5b992756ecb3c597",
      "transactionType": "CALL",
      "contractName": null,
      "contractAddress": "0xa981adb90aa87645f6b9d0432d856c4a32fa0528",
      "function": "approve(address,uint256)",
      "arguments": [
        "0xDf85a20742f3e1a36fA7B4B1E4FbE7D9A29E1d8f",
        "100000000000000000000000"
      ],
      "transaction": {
        "from": "0xbd4114d7521f80c4bad67f5ece1c843627078791",
        "to": "0xa981adb90aa87645f6b9d0432d856c4a32fa0528",
        "gas": "0xfa4d",
        "value": "0x0",
        "input": "0x095ea7b3000000000000000000000000df85a20742f3e1a36fa7b4b1e4fbe7d9a29e1d8f00000000000000000000000000000000000000000000152d02c7e14af6800000",
        "nonce": "0xd",
        "chainId": "0x14a34"
      },
      "additionalContracts": [],
      "isFixedGasLimit": false
    }
  ],
  "receipts": [
    {
      "status": "0x1",
      "cumulativeGasUsed": "0x8eab61",
      "logs": [
        {
          "address": "0xa981adb90aa87645f6b9d0432d856c4a32fa0528",
          "topics": [
            "0x8c5be1e5ebec7d5bd14f71427d1e84f3dd0314c0f7b2291e5b200ac8c7c3b925",
            "0x000000000000000000000000bb02a9d6a71a847d587ce4dbb92f32f79c2efb2a",
            "0x000000000000000000000000df85a20742f3e1a36fa7b4b1e4fbe7d9a29e1d8f"
          ],
          "data": "0x00000000000000000000000000000000000000000000152d02c7e14af6800000",
          "blockHash": "0x89adac063bd80557ef90e3d35246502c2915e8b80b0d815fd77092440d977365",
          "blockNumber": "0x1486624",
          "transactionHash": "0xa823326066990d13050c017ce969e810ad7b9362acc9dd154738a71a16db0e9e",
          "transactionIndex": "0x40",
          "logIndex": "0xcb",
          "removed": false
        }
      ],
      "logsBloom": "0x00000000000000000020000000000000000000000000000000000000000000000000000000000000000000040000000008000000000000008000000000200000000000000000000000000000000000000000000000000000000000000000000000000000000000000000000000000000000000000000000000000000000000000000000000000000100000000000000000000000000000000000000000000000020000000000000000000000000000000000000000000000000000000000000000008000000020020000000000000000000000000000000000000000000000000010000000000000000400000000000000000000000000000000000000000000",
      "type": "0x2",
      "transactionHash": "0xa823326066990d13050c017ce969e810ad7b9362acc9dd154738a71a16db0e9e",
      "transactionIndex": "0x40",
      "blockHash": "0x89adac063bd80557ef90e3d35246502c2915e8b80b0d815fd77092440d977365",
      "blockNumber": "0x1486624",
      "gasUsed": "0xb537",
      "effectiveGasPrice": "0x10b5f",
      "from": "0xbb02a9d6a71a847d587ce4dbb92f32f79c2efb2a",
      "to": "0xa981adb90aa87645f6b9d0432d856c4a32fa0528",
      "contractAddress": null,
      "l1BaseFeeScalar": "0x44d",
      "l1BlobBaseFee": "0x1fd58",
      "l1BlobBaseFeeScalar": "0xa118b",
      "l1Fee": "0xbfd23749",
      "l1GasPrice": "0x6c99641a",
      "l1GasUsed": "0x640"
    },
    {
      "status": "0x1",
      "cumulativeGasUsed": "0x7d3ef6",
      "logs": [
        {
          "address": "0xa981adb90aa87645f6b9d0432d856c4a32fa0528",
          "topics": [
            "0x8c5be1e5ebec7d5bd14f71427d1e84f3dd0314c0f7b2291e5b200ac8c7c3b925",
            "0x000000000000000000000000b47cfcf8181d36117142b83d31bbbf63b1b250fe",
            "0x000000000000000000000000df85a20742f3e1a36fa7b4b1e4fbe7d9a29e1d8f"
          ],
          "data": "0x00000000000000000000000000000000000000000000152d02c7e14af6800000",
          "blockHash": "0xacc8f5913b7c1679036e6a89ae684d356eee8a67a3590062e62fc2df28885ead",
          "blockNumber": "0x1486626",
          "transactionHash": "0x9978fd4a7f26c1b6dad77ed258971bd8920a0032e104ae40d23d04331b4e2437",
          "transactionIndex": "0x33",
          "logIndex": "0x109",
          "removed": false
        }
      ],
      "logsBloom": "0x00000000000000000020000000000000000000000000000000000000000000000000000000000000080000040000000008000000000000000000000000200000000000000000000000000000000000000000000000800000000000000000000000000000000000000000000000000000000000000000000000000000000000000000000000000000100000000000000000000000000000000000000000000000020000000000000000000000000000000000000000000000000000000000000000000000000020000000000000000000000000000000000000000000000000000010000000000000000400000000000000000000000001000000000000000000",
      "type": "0x2",
      "transactionHash": "0x9978fd4a7f26c1b6dad77ed258971bd8920a0032e104ae40d23d04331b4e2437",
      "transactionIndex": "0x33",
      "blockHash": "0xacc8f5913b7c1679036e6a89ae684d356eee8a67a3590062e62fc2df28885ead",
      "blockNumber": "0x1486626",
      "gasUsed": "0xb537",
      "effectiveGasPrice": "0x10b5e",
      "from": "0xb47cfcf8181d36117142b83d31bbbf63b1b250fe",
      "to": "0xa981adb90aa87645f6b9d0432d856c4a32fa0528",
      "contractAddress": null,
      "l1BaseFeeScalar": "0x44d",
      "l1BlobBaseFee": "0x1d6e1",
      "l1BlobBaseFeeScalar": "0xa118b",
      "l1Fee": "0xae2fb331",
      "l1GasPrice": "0x629c4872",
      "l1GasUsed": "0x640"
    },
    {
      "status": "0x1",
      "cumulativeGasUsed": "0x543445",
      "logs": [
        {
          "address": "0xa981adb90aa87645f6b9d0432d856c4a32fa0528",
          "topics": [
            "0x8c5be1e5ebec7d5bd14f71427d1e84f3dd0314c0f7b2291e5b200ac8c7c3b925",
            "0x000000000000000000000000b1afd5179ac5d755c2da5bd2f961f5520647aeb2",
            "0x000000000000000000000000df85a20742f3e1a36fa7b4b1e4fbe7d9a29e1d8f"
          ],
          "data": "0x00000000000000000000000000000000000000000000152d02c7e14af6800000",
          "blockHash": "0x8247c7a6eaffc101388466e219d494e84fea0d05b6addf366913fe3546e922d1",
          "blockNumber": "0x1486627",
          "transactionHash": "0xc158bfc3c9a956debc9315add240122b43cacf8bb9303b2804869e381ea8ace3",
          "transactionIndex": "0x28",
          "logIndex": "0x7a",
          "removed": false
        }
      ],
      "logsBloom": "0x00000100000000000020000000000000000000000000000000000000000000000000000000000000000000040000000008000000000000000000000000200000000000000000000000000000000000000000000000000000000000000000000000000000000000000000000000000000000000000000000000000000000000000000000000000000100000000000000000000000000000000000000000000000020000000000000000000000000200000040000000000000000000000000000000000000000020000000000000000000000000000000000000000000000000000010000000000000000400000000000000000000000000000000000000000000",
      "type": "0x2",
      "transactionHash": "0xc158bfc3c9a956debc9315add240122b43cacf8bb9303b2804869e381ea8ace3",
      "transactionIndex": "0x28",
      "blockHash": "0x8247c7a6eaffc101388466e219d494e84fea0d05b6addf366913fe3546e922d1",
      "blockNumber": "0x1486627",
      "gasUsed": "0xb537",
      "effectiveGasPrice": "0x10b5e",
      "from": "0xb1afd5179ac5d755c2da5bd2f961f5520647aeb2",
      "to": "0xa981adb90aa87645f6b9d0432d856c4a32fa0528",
      "contractAddress": null,
      "l1BaseFeeScalar": "0x44d",
      "l1BlobBaseFee": "0x1d6e1",
      "l1BlobBaseFeeScalar": "0xa118b",
      "l1Fee": "0xae2fb331",
      "l1GasPrice": "0x629c4872",
      "l1GasUsed": "0x640"
    },
    {
      "status": "0x1",
      "cumulativeGasUsed": "0x699671",
      "logs": [
        {
          "address": "0xa981adb90aa87645f6b9d0432d856c4a32fa0528",
          "topics": [
            "0x8c5be1e5ebec7d5bd14f71427d1e84f3dd0314c0f7b2291e5b200ac8c7c3b925",
            "0x000000000000000000000000bd4114d7521f80c4bad67f5ece1c843627078791",
            "0x000000000000000000000000df85a20742f3e1a36fa7b4b1e4fbe7d9a29e1d8f"
          ],
          "data": "0x00000000000000000000000000000000000000000000152d02c7e14af6800000",
          "blockHash": "0xece4503e1cc6222894bdf75b6d46aab688a4a9d9a98b6acd85a49069bbecfcf1",
          "blockNumber": "0x1486628",
          "transactionHash": "0xbe136a071c18ddd67c39b5885cd60eb135036288c4ad41aa5b992756ecb3c597",
          "transactionIndex": "0x32",
          "logIndex": "0xa8",
          "removed": false
        }
      ],
      "logsBloom": "0x00000800000000000020000000000000000000000000000000000000000000000000000000000000000000040000000008000000000000000000000000200000000400000000000000000000000000000000000000000000000000000000000000000000000000000000000000000000000000000000000000000002000000000000000000000000100000000000000000000000000000000000000000000000020000000000000000000000000000000000000000000000000000000000000000000000000020000000000000000000000000000000000000000000000000000010000000000000000400000000000000000000000000000000000000000000",
      "type": "0x2",
      "transactionHash": "0xbe136a071c18ddd67c39b5885cd60eb135036288c4ad41aa5b992756ecb3c597",
      "transactionIndex": "0x32",
      "blockHash": "0xece4503e1cc6222894bdf75b6d46aab688a4a9d9a98b6acd85a49069bbecfcf1",
      "blockNumber": "0x1486628",
      "gasUsed": "0xb537",
      "effectiveGasPrice": "0x10b5f",
      "from": "0xbd4114d7521f80c4bad67f5ece1c843627078791",
      "to": "0xa981adb90aa87645f6b9d0432d856c4a32fa0528",
      "contractAddress": null,
      "l1BaseFeeScalar": "0x44d",
      "l1BlobBaseFee": "0x1d6e1",
      "l1BlobBaseFeeScalar": "0xa118b",
      "l1Fee": "0xae2fb331",
      "l1GasPrice": "0x629c4872",
      "l1GasUsed": "0x640"
    }
  ],
  "libraries": [],
  "pending": [],
  "returns": {},
  "timestamp": 1738812208,
  "chain": 84532,
  "commit": "e3ad21d"
}