{
  "transactions": [
    {
      "hash": "0x9dcbd1506db3613fc23252fc7d82483ffd1ad7e0c6f8fb08cbe64eade92764b1",
      "transactionType": "CALL",
      "contractName": null,
      "contractAddress": "0x58817b59b1579652b2ae2ce420056e12fc62f0fa",
      "function": "approve(address,uint256)",
      "arguments": [
        "0x054ED3E0471774514f27e00066d012b74E00C950",
        "100000000000000000000000"
      ],
      "transaction": {
        "from": "0xbb02a9d6a71a847d587ce4dbb92f32f79c2efb2a",
        "to": "0x58817b59b1579652b2ae2ce420056e12fc62f0fa",
        "gas": "0xfa2b",
        "value": "0x0",
        "input": "0x095ea7b3000000000000000000000000054ed3e0471774514f27e00066d012b74e00c95000000000000000000000000000000000000000000000152d02c7e14af6800000",
        "nonce": "0xc",
        "chainId": "0x14a34"
      },
      "additionalContracts": [],
      "isFixedGasLimit": false
    },
    {
      "hash": "0xc52c174c587c0a79e194fd34b6b5f258b9faba4b0bdf75cfa296050847195b7c",
      "transactionType": "CALL",
      "contractName": null,
      "contractAddress": "0x58817b59b1579652b2ae2ce420056e12fc62f0fa",
      "function": "approve(address,uint256)",
      "arguments": [
        "0x054ED3E0471774514f27e00066d012b74E00C950",
        "100000000000000000000000"
      ],
      "transaction": {
        "from": "0xb47cfcf8181d36117142b83d31bbbf63b1b250fe",
        "to": "0x58817b59b1579652b2ae2ce420056e12fc62f0fa",
        "gas": "0xfa2b",
        "value": "0x0",
        "input": "0x095ea7b3000000000000000000000000054ed3e0471774514f27e00066d012b74e00c95000000000000000000000000000000000000000000000152d02c7e14af6800000",
        "nonce": "0x60",
        "chainId": "0x14a34"
      },
      "additionalContracts": [],
      "isFixedGasLimit": false
    },
    {
      "hash": "0x59c34088c91d72d545bd0c4da3023c0d1d50e5cd1d4349562c06da860260b1aa",
      "transactionType": "CALL",
      "contractName": null,
      "contractAddress": "0x58817b59b1579652b2ae2ce420056e12fc62f0fa",
      "function": "approve(address,uint256)",
      "arguments": [
        "0x054ED3E0471774514f27e00066d012b74E00C950",
        "100000000000000000000000"
      ],
      "transaction": {
        "from": "0xb1afd5179ac5d755c2da5bd2f961f5520647aeb2",
        "to": "0x58817b59b1579652b2ae2ce420056e12fc62f0fa",
        "gas": "0xfa2b",
        "value": "0x0",
        "input": "0x095ea7b3000000000000000000000000054ed3e0471774514f27e00066d012b74e00c95000000000000000000000000000000000000000000000152d02c7e14af6800000",
        "nonce": "0xa",
        "chainId": "0x14a34"
      },
      "additionalContracts": [],
      "isFixedGasLimit": false
    },
    {
      "hash": "0xb97ce360afbe10848e589665cb952db0804e5f9786ce600fdc0ffef9e134b17b",
      "transactionType": "CALL",
      "contractName": null,
      "contractAddress": "0x58817b59b1579652b2ae2ce420056e12fc62f0fa",
      "function": "approve(address,uint256)",
      "arguments": [
        "0x054ED3E0471774514f27e00066d012b74E00C950",
        "100000000000000000000000"
      ],
      "transaction": {
        "from": "0xbd4114d7521f80c4bad67f5ece1c843627078791",
        "to": "0x58817b59b1579652b2ae2ce420056e12fc62f0fa",
        "gas": "0xfa2b",
        "value": "0x0",
        "input": "0x095ea7b3000000000000000000000000054ed3e0471774514f27e00066d012b74e00c95000000000000000000000000000000000000000000000152d02c7e14af6800000",
        "nonce": "0xb",
        "chainId": "0x14a34"
      },
      "additionalContracts": [],
      "isFixedGasLimit": false
    }
  ],
  "receipts": [
    {
      "status": "0x1",
      "cumulativeGasUsed": "0x5c64e7",
      "logs": [
        {
          "address": "0x58817b59b1579652b2ae2ce420056e12fc62f0fa",
          "topics": [
            "0x8c5be1e5ebec7d5bd14f71427d1e84f3dd0314c0f7b2291e5b200ac8c7c3b925",
            "0x000000000000000000000000bb02a9d6a71a847d587ce4dbb92f32f79c2efb2a",
            "0x000000000000000000000000054ed3e0471774514f27e00066d012b74e00c950"
          ],
          "data": "0x00000000000000000000000000000000000000000000152d02c7e14af6800000",
          "blockHash": "0xa7806975714e8bb3ac2677cd8bc9726968961be922988f7c8f0b8175f2d18d8e",
          "blockNumber": "0x1485aea",
          "transactionHash": "0x9dcbd1506db3613fc23252fc7d82483ffd1ad7e0c6f8fb08cbe64eade92764b1",
          "transactionIndex": "0x2e",
          "logIndex": "0x8e",
          "removed": false
        }
      ],
      "logsBloom": "0x00000000000000000000000000000000000000000000000000000000000000000000000000000000000000000000000000000000000000008000000000200000000000000000000000000000000000000000000000000000000000000000000000000000000000000000000000000000000000000000000000000000000000000000000000000000000200000000000000010000000000000000000000000000020000000000000000000000000000000000000000000000000000000000000000008000000000020000000000000000000080000000000000000000000000001010000000000000000000000204000000000000000000000000000000000000",
      "type": "0x2",
      "transactionHash": "0x9dcbd1506db3613fc23252fc7d82483ffd1ad7e0c6f8fb08cbe64eade92764b1",
      "transactionIndex": "0x2e",
      "blockHash": "0xa7806975714e8bb3ac2677cd8bc9726968961be922988f7c8f0b8175f2d18d8e",
      "blockNumber": "0x1485aea",
      "gasUsed": "0xb51f",
      "effectiveGasPrice": "0x1ec35",
      "from": "0xbb02a9d6a71a847d587ce4dbb92f32f79c2efb2a",
      "to": "0x58817b59b1579652b2ae2ce420056e12fc62f0fa",
      "contractAddress": null,
      "l1BaseFeeScalar": "0x44d",
      "l1BlobBaseFee": "0x1",
      "l1BlobBaseFeeScalar": "0xa118b",
      "l1Fee": "0x6c5bcb81",
      "l1GasPrice": "0x3d82ee61",
      "l1GasUsed": "0x640"
    },
    {
      "status": "0x1",
      "cumulativeGasUsed": "0x5c2657",
      "logs": [
        {
          "address": "0x58817b59b1579652b2ae2ce420056e12fc62f0fa",
          "topics": [
            "0x8c5be1e5ebec7d5bd14f71427d1e84f3dd0314c0f7b2291e5b200ac8c7c3b925",
            "0x000000000000000000000000b47cfcf8181d36117142b83d31bbbf63b1b250fe",
            "0x000000000000000000000000054ed3e0471774514f27e00066d012b74e00c950"
          ],
          "data": "0x00000000000000000000000000000000000000000000152d02c7e14af6800000",
          "blockHash": "0x14d779aee7c86db203d39e94374b99bab6a452e119a3e52f77e3115a2c259a7c",
          "blockNumber": "0x1485aec",
          "transactionHash": "0xc52c174c587c0a79e194fd34b6b5f258b9faba4b0bdf75cfa296050847195b7c",
          "transactionIndex": "0x24",
          "logIndex": "0x5f",
          "removed": false
        }
      ],
      "logsBloom": "0x00000000000000000000000000000000000000000000000000000000000000000000000000000000080000000000000000000000000000000000000000200000000000000000000000000000000000000000000000800000000000000000000000000000000000000000000000000000000000000000000000000000000000000000000000000000000200000000000000010000000000000000000000000000020000000000000000000000000000000000000000000000000000000000000000000000000000000000000000000000000080000000000000000000000000001010000000000000000000000204000000000000000001000000000000000000",
      "type": "0x2",
      "transactionHash": "0xc52c174c587c0a79e194fd34b6b5f258b9faba4b0bdf75cfa296050847195b7c",
      "transactionIndex": "0x24",
      "blockHash": "0x14d779aee7c86db203d39e94374b99bab6a452e119a3e52f77e3115a2c259a7c",
      "blockNumber": "0x1485aec",
      "gasUsed": "0xb51f",
      "effectiveGasPrice": "0x1ec34",
      "from": "0xb47cfcf8181d36117142b83d31bbbf63b1b250fe",
      "to": "0x58817b59b1579652b2ae2ce420056e12fc62f0fa",
      "contractAddress": null,
      "l1BaseFeeScalar": "0x44d",
      "l1BlobBaseFee": "0x1",
      "l1BlobBaseFeeScalar": "0xa118b",
      "l1Fee": "0x6833cf92",
      "l1GasPrice": "0x3b26f19e",
      "l1GasUsed": "0x640"
    },
    {
      "status": "0x1",
      "cumulativeGasUsed": "0x491850",
      "logs": [
        {
          "address": "0x58817b59b1579652b2ae2ce420056e12fc62f0fa",
          "topics": [
            "0x8c5be1e5ebec7d5bd14f71427d1e84f3dd0314c0f7b2291e5b200ac8c7c3b925",
            "0x000000000000000000000000b1afd5179ac5d755c2da5bd2f961f5520647aeb2",
            "0x000000000000000000000000054ed3e0471774514f27e00066d012b74e00c950"
          ],
          "data": "0x00000000000000000000000000000000000000000000152d02c7e14af6800000",
          "blockHash": "0x223bf349d85298cbd16ba2d52c01756acc99378c7fe211943e8ee63d719bfc91",
          "blockNumber": "0x1485aee",
          "transactionHash": "0x59c34088c91d72d545bd0c4da3023c0d1d50e5cd1d4349562c06da860260b1aa",
          "transactionIndex": "0x25",
          "logIndex": "0x6f",
          "removed": false
        }
      ],
      "logsBloom": "0x00000100000000000000000000000000000000000000000000000000000000000000000000000000000000000000000000000000000000000000000000200000000000000000000000000000000000000000000000000000000000000000000000000000000000000000000000000000000000000000000000000000000000000000000000000000000200000000000000010000000000000000000000000000020000000000000000000000000200000040000000000000000000000000000000000000000000000000000000000000000080000000000000000000000000001010000000000000000000000204000000000000000000000000000000000000",
      "type": "0x2",
      "transactionHash": "0x59c34088c91d72d545bd0c4da3023c0d1d50e5cd1d4349562c06da860260b1aa",
      "transactionIndex": "0x25",
      "blockHash": "0x223bf349d85298cbd16ba2d52c01756acc99378c7fe211943e8ee63d719bfc91",
      "blockNumber": "0x1485aee",
      "gasUsed": "0xb51f",
      "effectiveGasPrice": "0x1ec34",
      "from": "0xb1afd5179ac5d755c2da5bd2f961f5520647aeb2",
      "to": "0x58817b59b1579652b2ae2ce420056e12fc62f0fa",
      "contractAddress": null,
      "l1BaseFeeScalar": "0x44d",
      "l1BlobBaseFee": "0x1",
      "l1BlobBaseFeeScalar": "0xa118b",
      "l1Fee": "0x6833cf92",
      "l1GasPrice": "0x3b26f19e",
      "l1GasUsed": "0x640"
    },
    {
      "status": "0x1",
      "cumulativeGasUsed": "0x61a2c0",
      "logs": [
        {
          "address": "0x58817b59b1579652b2ae2ce420056e12fc62f0fa",
          "topics": [
            "0x8c5be1e5ebec7d5bd14f71427d1e84f3dd0314c0f7b2291e5b200ac8c7c3b925",
            "0x000000000000000000000000bd4114d7521f80c4bad67f5ece1c843627078791",
            "0x000000000000000000000000054ed3e0471774514f27e00066d012b74e00c950"
          ],
          "data": "0x00000000000000000000000000000000000000000000152d02c7e14af6800000",
          "blockHash": "0x6e57c6c6856e3272379ccbb9b51fc56c315deecfba8fba5a3cff98770ff168b9",
          "blockNumber": "0x1485aef",
          "transactionHash": "0xb97ce360afbe10848e589665cb952db0804e5f9786ce600fdc0ffef9e134b17b",
          "transactionIndex": "0x22",
          "logIndex": "0x80",
          "removed": false
        }
      ],
      "logsBloom": "0x00000800000000000000000000000000000000000000000000000000000000000000000000000000000000000000000000000000000000000000000000200000000400000000000000000000000000000000000000000000000000000000000000000000000000000000000000000000000000000000000000000002000000000000000000000000000200000000000000010000000000000000000000000000020000000000000000000000000000000000000000000000000000000000000000000000000000000000000000000000000080000000000000000000000000001010000000000000000000000204000000000000000000000000000000000000",
      "type": "0x2",
      "transactionHash": "0xb97ce360afbe10848e589665cb952db0804e5f9786ce600fdc0ffef9e134b17b",
      "transactionIndex": "0x22",
      "blockHash": "0x6e57c6c6856e3272379ccbb9b51fc56c315deecfba8fba5a3cff98770ff168b9",
      "blockNumber": "0x1485aef",
      "gasUsed": "0xb51f",
      "effectiveGasPrice": "0x1ec33",
      "from": "0xbd4114d7521f80c4bad67f5ece1c843627078791",
      "to": "0x58817b59b1579652b2ae2ce420056e12fc62f0fa",
      "contractAddress": null,
      "l1BaseFeeScalar": "0x44d",
      "l1BlobBaseFee": "0x1",
      "l1BlobBaseFeeScalar": "0xa118b",
      "l1Fee": "0x6833cf92",
      "l1GasPrice": "0x3b26f19e",
      "l1GasUsed": "0x640"
    }
  ],
  "libraries": [],
  "pending": [],
  "returns": {},
  "timestamp": 1738806464,
  "chain": 84532,
  "commit": "e3ad21d"
}