{
  "transactions": [
    {
      "hash": "0xf03ba69fbceeee6f8aace837704738111c34d5f0822a8acc7161a3b23db90a77",
      "transactionType": "CALL",
      "contractName": null,
      "contractAddress": "0xc52d3f65ad9b25ce99bc9992f262aeaad10bccc8",
      "function": "approve(address,uint256)",
      "arguments": [
        "0x23012511708B9448CBA03C69E5B6daafC684c213",
        "1000000000000000000000"
      ],
      "transaction": {
        "from": "0xb47cfcf8181d36117142b83d31bbbf63b1b250fe",
        "to": "0xc52d3f65ad9b25ce99bc9992f262aeaad10bccc8",
        "gas": "0x8edc",
        "value": "0x0",
        "input": "0x095ea7b300000000000000000000000023012511708b9448cba03c69e5b6daafc684c21300000000000000000000000000000000000000000000003635c9adc5dea00000",
        "nonce": "0x57",
        "chainId": "0x14a34"
      },
      "additionalContracts": [],
      "isFixedGasLimit": false
    },
    {
      "hash": "0xa1fc8127e326d5788ba701e9ef0d6ffc339184bca4044c7ed9b8acb199364f72",
      "transactionType": "CALL",
      "contractName": null,
      "contractAddress": "0xc52d3f65ad9b25ce99bc9992f262aeaad10bccc8",
      "function": "approve(address,uint256)",
      "arguments": [
        "0x23012511708B9448CBA03C69E5B6daafC684c213",
        "1000000000000000000000"
      ],
      "transaction": {
        "from": "0xb1afd5179ac5d755c2da5bd2f961f5520647aeb2",
        "to": "0xc52d3f65ad9b25ce99bc9992f262aeaad10bccc8",
        "gas": "0x8edc",
        "value": "0x0",
        "input": "0x095ea7b300000000000000000000000023012511708b9448cba03c69e5b6daafc684c21300000000000000000000000000000000000000000000003635c9adc5dea00000",
        "nonce": "0x3",
        "chainId": "0x14a34"
      },
      "additionalContracts": [],
      "isFixedGasLimit": false
    },
    {
      "hash": "0x2be7acbf1e2f511e8f87b8b4fd5a1a896aa2c481a35866279df72eba74cdddc0",
      "transactionType": "CALL",
      "contractName": null,
      "contractAddress": "0xc52d3f65ad9b25ce99bc9992f262aeaad10bccc8",
      "function": "approve(address,uint256)",
      "arguments": [
        "0x23012511708B9448CBA03C69E5B6daafC684c213",
        "1000000000000000000000"
      ],
      "transaction": {
        "from": "0xbd4114d7521f80c4bad67f5ece1c843627078791",
        "to": "0xc52d3f65ad9b25ce99bc9992f262aeaad10bccc8",
        "gas": "0x8edc",
        "value": "0x0",
        "input": "0x095ea7b300000000000000000000000023012511708b9448cba03c69e5b6daafc684c21300000000000000000000000000000000000000000000003635c9adc5dea00000",
        "nonce": "0x5",
        "chainId": "0x14a34"
      },
      "additionalContracts": [],
      "isFixedGasLimit": false
    }
  ],
  "receipts": [
    {
      "status": "0x1",
      "cumulativeGasUsed": "0x55d8cb",
      "logs": [
        {
          "address": "0xc52d3f65ad9b25ce99bc9992f262aeaad10bccc8",
          "topics": [
            "0x8c5be1e5ebec7d5bd14f71427d1e84f3dd0314c0f7b2291e5b200ac8c7c3b925",
            "0x000000000000000000000000b47cfcf8181d36117142b83d31bbbf63b1b250fe",
            "0x00000000000000000000000023012511708b9448cba03c69e5b6daafc684c213"
          ],
          "data": "0x00000000000000000000000000000000000000000000003635c9adc5dea00000",
          "blockHash": "0x2f517550758a6817a1231865d66ad6ea2b3291d21ac04dd26203e41049d1cdab",
          "blockNumber": "0x14704ae",
          "transactionHash": "0xf03ba69fbceeee6f8aace837704738111c34d5f0822a8acc7161a3b23db90a77",
          "transactionIndex": "0x25",
          "logIndex": "0x65",
          "removed": false
        }
      ],
      "logsBloom": "0x00000000000000000000000000000000000000000000000000000000000000000000000000000000080000000000000000080000000000000000000000200000000000000000000000000000000000000000000000800000000000000000000000000000000000000000000000000000000000000000008000000000000000000000000000000000000000000000002000000000000000000000000000000000020000000000000000000000000000000000000000000000000000000000000040000000000000000040000000000000000000000000000000000000000000000010000000000000000000000000400000000000000001000000000000000000",
      "type": "0x2",
      "transactionHash": "0xf03ba69fbceeee6f8aace837704738111c34d5f0822a8acc7161a3b23db90a77",
      "transactionIndex": "0x25",
      "blockHash": "0x2f517550758a6817a1231865d66ad6ea2b3291d21ac04dd26203e41049d1cdab",
      "blockNumber": "0x14704ae",
      "gasUsed": "0x676f",
      "effectiveGasPrice": "0x75d",
      "from": "0xb47cfcf8181d36117142b83d31bbbf63b1b250fe",
      "to": "0xc52d3f65ad9b25ce99bc9992f262aeaad10bccc8",
      "contractAddress": null,
      "l1BaseFeeScalar": "0x44d",
      "l1BlobBaseFee": "0x1",
      "l1BlobBaseFeeScalar": "0xa118b",
      "l1Fee": "0x6bca7ce5",
      "l1GasPrice": "0x3d307200",
      "l1GasUsed": "0x640"
    },
    {
      "status": "0x1",
      "cumulativeGasUsed": "0x2de652",
      "logs": [
        {
          "address": "0xc52d3f65ad9b25ce99bc9992f262aeaad10bccc8",
          "topics": [
            "0x8c5be1e5ebec7d5bd14f71427d1e84f3dd0314c0f7b2291e5b200ac8c7c3b925",
            "0x000000000000000000000000b1afd5179ac5d755c2da5bd2f961f5520647aeb2",
            "0x00000000000000000000000023012511708b9448cba03c69e5b6daafc684c213"
          ],
          "data": "0x00000000000000000000000000000000000000000000003635c9adc5dea00000",
          "blockHash": "0x8ed913b2ef5e2f82311b41da2b6e34d80e23df99ab6cbf23d487f09312b4cbc9",
          "blockNumber": "0x14704b0",
          "transactionHash": "0xa1fc8127e326d5788ba701e9ef0d6ffc339184bca4044c7ed9b8acb199364f72",
          "transactionIndex": "0x17",
          "logIndex": "0x4b",
          "removed": false
        }
      ],
      "logsBloom": "0x00000100000000000000000000000000000000000000000000000000000000000000000000000000000000000000000000080000000000000000000000200000000000000000000000000000000000000000000000000000000000000000000000000000000000000000000000000000000000000000008000000000000000000000000000000000000000000000002000000000000000000000000000000000020000000000000000000000000200000040000000000000000000000000000040000000000000000040000000000000000000000000000000000000000000000010000000000000000000000000400000000000000000000000000000000000",
      "type": "0x2",
      "transactionHash": "0xa1fc8127e326d5788ba701e9ef0d6ffc339184bca4044c7ed9b8acb199364f72",
      "transactionIndex": "0x17",
      "blockHash": "0x8ed913b2ef5e2f82311b41da2b6e34d80e23df99ab6cbf23d487f09312b4cbc9",
      "blockNumber": "0x14704b0",
      "gasUsed": "0x676f",
      "effectiveGasPrice": "0x75d",
      "from": "0xb1afd5179ac5d755c2da5bd2f961f5520647aeb2",
      "to": "0xc52d3f65ad9b25ce99bc9992f262aeaad10bccc8",
      "contractAddress": null,
      "l1BaseFeeScalar": "0x44d",
      "l1BlobBaseFee": "0x1",
      "l1BlobBaseFeeScalar": "0xa118b",
      "l1Fee": "0x79375c88",
      "l1GasPrice": "0x44cf70d6",
      "l1GasUsed": "0x640"
    },
    {
      "status": "0x1",
      "cumulativeGasUsed": "0x41abff",
      "logs": [
        {
          "address": "0xc52d3f65ad9b25ce99bc9992f262aeaad10bccc8",
          "topics": [
            "0x8c5be1e5ebec7d5bd14f71427d1e84f3dd0314c0f7b2291e5b200ac8c7c3b925",
            "0x000000000000000000000000bd4114d7521f80c4bad67f5ece1c843627078791",
            "0x00000000000000000000000023012511708b9448cba03c69e5b6daafc684c213"
          ],
          "data": "0x00000000000000000000000000000000000000000000003635c9adc5dea00000",
          "blockHash": "0x076cfdbe873783ca8ed442c66fc4a84e78a7dc241b9b02b59e59f7441f2e3b34",
          "blockNumber": "0x14704b2",
          "transactionHash": "0x2be7acbf1e2f511e8f87b8b4fd5a1a896aa2c481a35866279df72eba74cdddc0",
          "transactionIndex": "0x20",
          "logIndex": "0x6c",
          "removed": false
        }
      ],
      "logsBloom": "0x00000800000000000000000000000000000000000000000000000000000000000000000000000000000000000000000000080000000000000000000000200000000400000000000000000000000000000000000000000000000000000000000000000000000000000000000000000000000000000000008000000002000000000000000000000000000000000000002000000000000000000000000000000000020000000000000000000000000000000000000000000000000000000000000040000000000000000040000000000000000000000000000000000000000000000010000000000000000000000000400000000000000000000000000000000000",
      "type": "0x2",
      "transactionHash": "0x2be7acbf1e2f511e8f87b8b4fd5a1a896aa2c481a35866279df72eba74cdddc0",
      "transactionIndex": "0x20",
      "blockHash": "0x076cfdbe873783ca8ed442c66fc4a84e78a7dc241b9b02b59e59f7441f2e3b34",
      "blockNumber": "0x14704b2",
      "gasUsed": "0x676f",
      "effectiveGasPrice": "0x75b",
      "from": "0xbd4114d7521f80c4bad67f5ece1c843627078791",
      "to": "0xc52d3f65ad9b25ce99bc9992f262aeaad10bccc8",
      "contractAddress": null,
      "l1BaseFeeScalar": "0x44d",
      "l1BlobBaseFee": "0x1",
      "l1BlobBaseFeeScalar": "0xa118b",
      "l1Fee": "0x79375c88",
      "l1GasPrice": "0x44cf70d6",
      "l1GasUsed": "0x640"
    }
  ],
  "libraries": [],
  "pending": [],
  "returns": {},
  "timestamp": 1738631236,
  "chain": 84532,
  "commit": "179dd92"
}