{
  "transactions": [
    {
      "hash": "0xce1d3340e644c28bcbbc778a30d0a52004bdb4a2c8b2ada2867406e801506a10",
      "transactionType": "CALL",
      "contractName": "PlaceholderStableCoin",
      "contractAddress": "0xcfe2f7254692bbd99b67a4d7d429f46b7b5e6c92",
      "function": "mint(uint256)",
      "arguments": [
        "4000000000000000000000"
      ],
      "transaction": {
        "from": "0xecba9756092b7851f4918ec6bab2085b8f88b8ff",
        "to": "0xcfe2f7254692bbd99b67a4d7d429f46b7b5e6c92",
        "gas": "0xb65c",
        "value": "0x0",
        "input": "0xa0712d680000000000000000000000000000000000000000000000d8d726b7177a800000",
        "nonce": "0xfa",
        "chainId": "0x14a34"
      },
      "additionalContracts": [],
      "isFixedGasLimit": false
    },
    {
      "hash": "0x38d7f2c24902785f47d31cf7d7c0da9202611fd5f440803311883e8c6fc6cf27",
      "transactionType": "CALL",
      "contractName": "PlaceholderStableCoin",
      "contractAddress": "0xcfe2f7254692bbd99b67a4d7d429f46b7b5e6c92",
      "function": "transfer(address,uint256)",
      "arguments": [
        "0xbb02a9D6A71A847D587cE4Dbb92F32f79c2EfB2a",
        "1000000000000000000000"
      ],
      "transaction": {
        "from": "0xecba9756092b7851f4918ec6bab2085b8f88b8ff",
        "to": "0xcfe2f7254692bbd99b67a4d7d429f46b7b5e6c92",
        "gas": "0xba47",
        "value": "0x0",
        "input": "0xa9059cbb000000000000000000000000bb02a9d6a71a847d587ce4dbb92f32f79c2efb2a00000000000000000000000000000000000000000000003635c9adc5dea00000",
        "nonce": "0xfb",
        "chainId": "0x14a34"
      },
      "additionalContracts": [],
      "isFixedGasLimit": false
    },
    {
      "hash": "0x81624965c7861da50560b167cfda29563ed5433f173f5098e617d0af5577cf0a",
      "transactionType": "CALL",
      "contractName": "PlaceholderStableCoin",
      "contractAddress": "0xcfe2f7254692bbd99b67a4d7d429f46b7b5e6c92",
      "function": "transfer(address,uint256)",
      "arguments": [
        "0xb47CFCf8181D36117142b83D31BBBF63B1b250fE",
        "1000000000000000000000"
      ],
      "transaction": {
        "from": "0xecba9756092b7851f4918ec6bab2085b8f88b8ff",
        "to": "0xcfe2f7254692bbd99b67a4d7d429f46b7b5e6c92",
        "gas": "0xba47",
        "value": "0x0",
        "input": "0xa9059cbb000000000000000000000000b47cfcf8181d36117142b83d31bbbf63b1b250fe00000000000000000000000000000000000000000000003635c9adc5dea00000",
        "nonce": "0xfc",
        "chainId": "0x14a34"
      },
      "additionalContracts": [],
      "isFixedGasLimit": false
    },
    {
      "hash": "0x5050eea758be0386f53a7a723789f9c11e114e811bf432175f28a1871f9d936e",
      "transactionType": "CALL",
      "contractName": "PlaceholderStableCoin",
      "contractAddress": "0xcfe2f7254692bbd99b67a4d7d429f46b7b5e6c92",
      "function": "transfer(address,uint256)",
      "arguments": [
        "0xb1AfD5179ac5D755C2da5bd2F961F5520647aEB2",
        "1000000000000000000000"
      ],
      "transaction": {
        "from": "0xecba9756092b7851f4918ec6bab2085b8f88b8ff",
        "to": "0xcfe2f7254692bbd99b67a4d7d429f46b7b5e6c92",
        "gas": "0xba47",
        "value": "0x0",
        "input": "0xa9059cbb000000000000000000000000b1afd5179ac5d755c2da5bd2f961f5520647aeb200000000000000000000000000000000000000000000003635c9adc5dea00000",
        "nonce": "0xfd",
        "chainId": "0x14a34"
      },
      "additionalContracts": [],
      "isFixedGasLimit": false
    },
    {
      "hash": "0xeb8927ee97d3381816b25c5737c1f0ce7dd94b200c7505da4051f3b439ecd49d",
      "transactionType": "CALL",
      "contractName": "PlaceholderStableCoin",
      "contractAddress": "0xcfe2f7254692bbd99b67a4d7d429f46b7b5e6c92",
      "function": "transfer(address,uint256)",
      "arguments": [
        "0xBd4114D7521F80C4bad67F5ECE1C843627078791",
        "1000000000000000000000"
      ],
      "transaction": {
        "from": "0xecba9756092b7851f4918ec6bab2085b8f88b8ff",
        "to": "0xcfe2f7254692bbd99b67a4d7d429f46b7b5e6c92",
        "gas": "0xba47",
        "value": "0x0",
        "input": "0xa9059cbb000000000000000000000000bd4114d7521f80c4bad67f5ece1c84362707879100000000000000000000000000000000000000000000003635c9adc5dea00000",
        "nonce": "0xfe",
        "chainId": "0x14a34"
      },
      "additionalContracts": [],
      "isFixedGasLimit": false
    }
  ],
  "receipts": [
    {
      "status": "0x1",
      "cumulativeGasUsed": "0x328307",
      "logs": [
        {
          "address": "0xcfe2f7254692bbd99b67a4d7d429f46b7b5e6c92",
          "topics": [
            "0xddf252ad1be2c89b69c2b068fc378daa952ba7f163c4a11628f55a4df523b3ef",
            "0x0000000000000000000000000000000000000000000000000000000000000000",
            "0x000000000000000000000000ecba9756092b7851f4918ec6bab2085b8f88b8ff"
          ],
          "data": "0x0000000000000000000000000000000000000000000000d8d726b7177a800000",
          "blockHash": "0x6a90e783c3a40f30c42aaa2cd666eae1295b9660d5be6ba9a4e60a41695ef764",
          "blockNumber": "0x1495d40",
          "transactionHash": "0xce1d3340e644c28bcbbc778a30d0a52004bdb4a2c8b2ada2867406e801506a10",
          "transactionIndex": "0x1c",
          "logIndex": "0x42",
          "removed": false
        }
      ],
      "logsBloom": "0x00000000000000000000000000000000000000000000000000000000000000000000000000000000001000000000000000000000000000000000000000000000000000000000000000000008000000000000000000000000000000000000000000000000020000000000000000000800001000000000000000000010000000000000000000000000000000000000000000000000000000000000000000000000000000000001010000000000000000000000000000000000000020000000000000000002000000000000000000000000000000000000000000000000000020000000000000000000000000000020000000000000000000000000000000000000",
      "type": "0x2",
      "transactionHash": "0xce1d3340e644c28bcbbc778a30d0a52004bdb4a2c8b2ada2867406e801506a10",
      "transactionIndex": "0x1c",
      "blockHash": "0x6a90e783c3a40f30c42aaa2cd666eae1295b9660d5be6ba9a4e60a41695ef764",
      "blockNumber": "0x1495d40",
      "gasUsed": "0x8407",
      "effectiveGasPrice": "0x18848",
      "from": "0xecba9756092b7851f4918ec6bab2085b8f88b8ff",
      "to": "0xcfe2f7254692bbd99b67a4d7d429f46b7b5e6c92",
      "contractAddress": null,
      "l1BaseFeeScalar": "0x44d",
      "l1BlobBaseFee": "0x271",
      "l1BlobBaseFeeScalar": "0xa118b",
      "l1Fee": "0x2c2b3ac017",
      "l1GasPrice": "0x1912b9c19c",
      "l1GasUsed": "0x640"
    },
    {
      "status": "0x1",
      "cumulativeGasUsed": "0x356755",
      "logs": [
        {
          "address": "0xcfe2f7254692bbd99b67a4d7d429f46b7b5e6c92",
          "topics": [
            "0xddf252ad1be2c89b69c2b068fc378daa952ba7f163c4a11628f55a4df523b3ef",
            "0x000000000000000000000000ecba9756092b7851f4918ec6bab2085b8f88b8ff",
            "0x000000000000000000000000bb02a9d6a71a847d587ce4dbb92f32f79c2efb2a"
          ],
          "data": "0x00000000000000000000000000000000000000000000003635c9adc5dea00000",
          "blockHash": "0x6a90e783c3a40f30c42aaa2cd666eae1295b9660d5be6ba9a4e60a41695ef764",
          "blockNumber": "0x1495d40",
          "transactionHash": "0x38d7f2c24902785f47d31cf7d7c0da9202611fd5f440803311883e8c6fc6cf27",
          "transactionIndex": "0x1e",
          "logIndex": "0x46",
          "removed": false
        }
      ],
      "logsBloom": "0x00000000000000000000000000000000000000000000000000000000000000000000000000000000001000000000000000000000000000008000000000000000000000000000000000000008000000000000000000000000000000000000000000000000000000000000000000000000001000000000000000000010000000000000000000000000000000000000000000000000000000000000000000000000000000000001010000000000000000000000000000000000000020000000000000008002000000020000000000000000000000000000000000000000000000000000000000000000000000000020000000000000000000000000000000000000",
      "type": "0x2",
      "transactionHash": "0x38d7f2c24902785f47d31cf7d7c0da9202611fd5f440803311883e8c6fc6cf27",
      "transactionIndex": "0x1e",
      "blockHash": "0x6a90e783c3a40f30c42aaa2cd666eae1295b9660d5be6ba9a4e60a41695ef764",
      "blockNumber": "0x1495d40",
      "gasUsed": "0x86de",
      "effectiveGasPrice": "0x18848",
      "from": "0xecba9756092b7851f4918ec6bab2085b8f88b8ff",
      "to": "0xcfe2f7254692bbd99b67a4d7d429f46b7b5e6c92",
      "contractAddress": null,
      "l1BaseFeeScalar": "0x44d",
      "l1BlobBaseFee": "0x271",
      "l1BlobBaseFeeScalar": "0xa118b",
      "l1Fee": "0x2c2b3ac017",
      "l1GasPrice": "0x1912b9c19c",
      "l1GasUsed": "0x640"
    },
    {
      "status": "0x1",
      "cumulativeGasUsed": "0x3c9d11",
      "logs": [
        {
          "address": "0xcfe2f7254692bbd99b67a4d7d429f46b7b5e6c92",
          "topics": [
            "0xddf252ad1be2c89b69c2b068fc378daa952ba7f163c4a11628f55a4df523b3ef",
            "0x000000000000000000000000ecba9756092b7851f4918ec6bab2085b8f88b8ff",
            "0x000000000000000000000000b47cfcf8181d36117142b83d31bbbf63b1b250fe"
          ],
          "data": "0x00000000000000000000000000000000000000000000003635c9adc5dea00000",
          "blockHash": "0x6a90e783c3a40f30c42aaa2cd666eae1295b9660d5be6ba9a4e60a41695ef764",
          "blockNumber": "0x1495d40",
          "transactionHash": "0x81624965c7861da50560b167cfda29563ed5433f173f5098e617d0af5577cf0a",
          "transactionIndex": "0x23",
          "logIndex": "0x51",
          "removed": false
        }
      ],
      "logsBloom": "0x00000000000000000000000000000000000000000000000000000000000000000000000000000000081000000000000000000000000000000000000000000000000000000000000000000008000000000000000000800000000000000000000000000000000000000000000000000000001000000000000000000010000000000000000000000000000000000000000000000000000000000000000000000000000000000001010000000000000000000000000000000000000020000000000000000002000000000000000000000000000000000000000000000000000000000000000000000000000000000020000000000000000001000000000000000000",
      "type": "0x2",
      "transactionHash": "0x81624965c7861da50560b167cfda29563ed5433f173f5098e617d0af5577cf0a",
      "transactionIndex": "0x23",
      "blockHash": "0x6a90e783c3a40f30c42aaa2cd666eae1295b9660d5be6ba9a4e60a41695ef764",
      "blockNumber": "0x1495d40",
      "gasUsed": "0x86de",
      "effectiveGasPrice": "0x18848",
      "from": "0xecba9756092b7851f4918ec6bab2085b8f88b8ff",
      "to": "0xcfe2f7254692bbd99b67a4d7d429f46b7b5e6c92",
      "contractAddress": null,
      "l1BaseFeeScalar": "0x44d",
      "l1BlobBaseFee": "0x271",
      "l1BlobBaseFeeScalar": "0xa118b",
      "l1Fee": "0x2c2b3ac017",
      "l1GasPrice": "0x1912b9c19c",
      "l1GasUsed": "0x640"
    },
    {
      "status": "0x1",
      "cumulativeGasUsed": "0x3d23ef",
      "logs": [
        {
          "address": "0xcfe2f7254692bbd99b67a4d7d429f46b7b5e6c92",
          "topics": [
            "0xddf252ad1be2c89b69c2b068fc378daa952ba7f163c4a11628f55a4df523b3ef",
            "0x000000000000000000000000ecba9756092b7851f4918ec6bab2085b8f88b8ff",
            "0x000000000000000000000000b1afd5179ac5d755c2da5bd2f961f5520647aeb2"
          ],
          "data": "0x00000000000000000000000000000000000000000000003635c9adc5dea00000",
          "blockHash": "0x6a90e783c3a40f30c42aaa2cd666eae1295b9660d5be6ba9a4e60a41695ef764",
          "blockNumber": "0x1495d40",
          "transactionHash": "0x5050eea758be0386f53a7a723789f9c11e114e811bf432175f28a1871f9d936e",
          "transactionIndex": "0x24",
          "logIndex": "0x52",
          "removed": false
        }
      ],
      "logsBloom": "0x00000100000000000000000000000000000000000000000000000000000000000000000000000000001000000000000000000000000000000000000000000000000000000000000000000008000000000000000000000000000000000000000000000000000000000000000000000000001000000000000000000010000000000000000000000000000000000000000000000000000000000000000000000000000000000001010000000000000200000040000000000000000020000000000000000002000000000000000000000000000000000000000000000000000000000000000000000000000000000020000000000000000000000000000000000000",
      "type": "0x2",
      "transactionHash": "0x5050eea758be0386f53a7a723789f9c11e114e811bf432175f28a1871f9d936e",
      "transactionIndex": "0x24",
      "blockHash": "0x6a90e783c3a40f30c42aaa2cd666eae1295b9660d5be6ba9a4e60a41695ef764",
      "blockNumber": "0x1495d40",
      "gasUsed": "0x86de",
      "effectiveGasPrice": "0x18848",
      "from": "0xecba9756092b7851f4918ec6bab2085b8f88b8ff",
      "to": "0xcfe2f7254692bbd99b67a4d7d429f46b7b5e6c92",
      "contractAddress": null,
      "l1BaseFeeScalar": "0x44d",
      "l1BlobBaseFee": "0x271",
      "l1BlobBaseFeeScalar": "0xa118b",
      "l1Fee": "0x2c2b3ac017",
      "l1GasPrice": "0x1912b9c19c",
      "l1GasUsed": "0x640"
    },
    {
      "status": "0x1",
      "cumulativeGasUsed": "0x3daacd",
      "logs": [
        {
          "address": "0xcfe2f7254692bbd99b67a4d7d429f46b7b5e6c92",
          "topics": [
            "0xddf252ad1be2c89b69c2b068fc378daa952ba7f163c4a11628f55a4df523b3ef",
            "0x000000000000000000000000ecba9756092b7851f4918ec6bab2085b8f88b8ff",
            "0x000000000000000000000000bd4114d7521f80c4bad67f5ece1c843627078791"
          ],
          "data": "0x00000000000000000000000000000000000000000000003635c9adc5dea00000",
          "blockHash": "0x6a90e783c3a40f30c42aaa2cd666eae1295b9660d5be6ba9a4e60a41695ef764",
          "blockNumber": "0x1495d40",
          "transactionHash": "0xeb8927ee97d3381816b25c5737c1f0ce7dd94b200c7505da4051f3b439ecd49d",
          "transactionIndex": "0x25",
          "logIndex": "0x53",
          "removed": false
        }
      ],
      "logsBloom": "0x00000800000000000000000000000000000000000000000000000000000000000000000000000000001000000000000000000000000000000000000000000000000400000000000000000008000000000000000000000000000000000000000000000000000000000000000000000000001000000000000000000012000000000000000000000000000000000000000000000000000000000000000000000000000000000001010000000000000000000000000000000000000020000000000000000002000000000000000000000000000000000000000000000000000000000000000000000000000000000020000000000000000000000000000000000000",
      "type": "0x2",
      "transactionHash": "0xeb8927ee97d3381816b25c5737c1f0ce7dd94b200c7505da4051f3b439ecd49d",
      "transactionIndex": "0x25",
      "blockHash": "0x6a90e783c3a40f30c42aaa2cd666eae1295b9660d5be6ba9a4e60a41695ef764",
      "blockNumber": "0x1495d40",
      "gasUsed": "0x86de",
      "effectiveGasPrice": "0x18848",
      "from": "0xecba9756092b7851f4918ec6bab2085b8f88b8ff",
      "to": "0xcfe2f7254692bbd99b67a4d7d429f46b7b5e6c92",
      "contractAddress": null,
      "l1BaseFeeScalar": "0x44d",
      "l1BlobBaseFee": "0x271",
      "l1BlobBaseFeeScalar": "0xa118b",
      "l1Fee": "0x2c2b3ac017",
      "l1GasPrice": "0x1912b9c19c",
      "l1GasUsed": "0x640"
    }
  ],
  "libraries": [],
  "pending": [],
  "returns": {},
  "timestamp": 1738938721,
  "chain": 84532,
  "commit": "270a582"
}