{
  "transactions": [
    {
      "hash": "0x56c60bb3af9a2905c5e56071eedc975473c089cc0e9a5ae73ee28ce072da5ac0",
      "transactionType": "CALL",
      "contractName": null,
      "contractAddress": "0x6120fe707cc065d85452e44abc971f3beafcde20",
      "function": "mint(uint256)",
      "arguments": [
        "4000000000000000000000"
      ],
      "transaction": {
        "from": "0xecba9756092b7851f4918ec6bab2085b8f88b8ff",
        "to": "0x6120fe707cc065d85452e44abc971f3beafcde20",
        "gas": "0x16ee2",
        "value": "0x0",
        "input": "0xa0712d680000000000000000000000000000000000000000000000d8d726b7177a800000",
        "nonce": "0x48",
        "chainId": "0x14a34"
      },
      "additionalContracts": [],
      "isFixedGasLimit": false
    },
    {
      "hash": "0x10809c78d6d4f15445a221dcb560be1fd5b455ad65709b6d4805b538bfcbaf89",
      "transactionType": "CALL",
      "contractName": null,
      "contractAddress": "0x6120fe707cc065d85452e44abc971f3beafcde20",
      "function": "transfer(address,uint256)",
      "arguments": [
        "0xbb02a9D6A71A847D587cE4Dbb92F32f79c2EfB2a",
        "1000000000000000000000"
      ],
      "transaction": {
        "from": "0xecba9756092b7851f4918ec6bab2085b8f88b8ff",
        "to": "0x6120fe707cc065d85452e44abc971f3beafcde20",
        "gas": "0x126ee",
        "value": "0x0",
        "input": "0xa9059cbb000000000000000000000000bb02a9d6a71a847d587ce4dbb92f32f79c2efb2a00000000000000000000000000000000000000000000003635c9adc5dea00000",
        "nonce": "0x49",
        "chainId": "0x14a34"
      },
      "additionalContracts": [],
      "isFixedGasLimit": false
    },
    {
      "hash": "0x66fc1ae810be6feeb78a81debb9f0af8c9beec8c312cc32c3ff63111264425fb",
      "transactionType": "CALL",
      "contractName": null,
      "contractAddress": "0x6120fe707cc065d85452e44abc971f3beafcde20",
      "function": "transfer(address,uint256)",
      "arguments": [
        "0xb47CFCf8181D36117142b83D31BBBF63B1b250fE",
        "1000000000000000000000"
      ],
      "transaction": {
        "from": "0xecba9756092b7851f4918ec6bab2085b8f88b8ff",
        "to": "0x6120fe707cc065d85452e44abc971f3beafcde20",
        "gas": "0x126ee",
        "value": "0x0",
        "input": "0xa9059cbb000000000000000000000000b47cfcf8181d36117142b83d31bbbf63b1b250fe00000000000000000000000000000000000000000000003635c9adc5dea00000",
        "nonce": "0x4a",
        "chainId": "0x14a34"
      },
      "additionalContracts": [],
      "isFixedGasLimit": false
    },
    {
      "hash": "0xfd49a4e796375534e1f83cc86746f6772d4095e9f4bb3fec9c1d83277fe6b313",
      "transactionType": "CALL",
      "contractName": null,
      "contractAddress": "0x6120fe707cc065d85452e44abc971f3beafcde20",
      "function": "transfer(address,uint256)",
      "arguments": [
        "0xb1AfD5179ac5D755C2da5bd2F961F5520647aEB2",
        "1000000000000000000000"
      ],
      "transaction": {
        "from": "0xecba9756092b7851f4918ec6bab2085b8f88b8ff",
        "to": "0x6120fe707cc065d85452e44abc971f3beafcde20",
        "gas": "0x126ee",
        "value": "0x0",
        "input": "0xa9059cbb000000000000000000000000b1afd5179ac5d755c2da5bd2f961f5520647aeb200000000000000000000000000000000000000000000003635c9adc5dea00000",
        "nonce": "0x4b",
        "chainId": "0x14a34"
      },
      "additionalContracts": [],
      "isFixedGasLimit": false
    },
    {
      "hash": "0x9714e914dcb8261ba56f95705482be0d5a69e69d66fb950026075ca06764ce28",
      "transactionType": "CALL",
      "contractName": null,
      "contractAddress": "0x6120fe707cc065d85452e44abc971f3beafcde20",
      "function": "transfer(address,uint256)",
      "arguments": [
        "0xBd4114D7521F80C4bad67F5ECE1C843627078791",
        "1000000000000000000000"
      ],
      "transaction": {
        "from": "0xecba9756092b7851f4918ec6bab2085b8f88b8ff",
        "to": "0x6120fe707cc065d85452e44abc971f3beafcde20",
        "gas": "0x10b82",
        "value": "0x0",
        "input": "0xa9059cbb000000000000000000000000bd4114d7521f80c4bad67f5ece1c84362707879100000000000000000000000000000000000000000000003635c9adc5dea00000",
        "nonce": "0x4c",
        "chainId": "0x14a34"
      },
      "additionalContracts": [],
      "isFixedGasLimit": false
    }
  ],
  "receipts": [
    {
      "status": "0x1",
      "cumulativeGasUsed": "0x3b61c3",
      "logs": [
        {
          "address": "0x6120fe707cc065d85452e44abc971f3beafcde20",
          "topics": [
            "0xddf252ad1be2c89b69c2b068fc378daa952ba7f163c4a11628f55a4df523b3ef",
            "0x0000000000000000000000000000000000000000000000000000000000000000",
            "0x000000000000000000000000ecba9756092b7851f4918ec6bab2085b8f88b8ff"
          ],
          "data": "0x0000000000000000000000000000000000000000000000d8d726b7177a800000",
          "blockHash": "0xa7e22be06022cc542305d85dd29d5ffc467dba1eda6db12df670e735f3e9d701",
          "blockNumber": "0x1485555",
          "transactionHash": "0x56c60bb3af9a2905c5e56071eedc975473c089cc0e9a5ae73ee28ce072da5ac0",
          "transactionIndex": "0x20",
          "logIndex": "0x6a",
          "removed": false
        }
      ],
      "logsBloom": "0x00000000000000000002000000000000000000000000000000000000000000000000000000000000001000000000000000000000000000000000000000000000000000000000000000000008000000000000000000000000000000000000000000000000020000000000000000000800001000000000000000000010000000000000000000000000000000000000000000000000000000000000000000020000000000000001000000000000000000000000000000000000000000000000000000000002008000000000000000000000000000000000000000000000000020000000000000000000000000000000000000000000000000000000000000000000",
      "type": "0x2",
      "transactionHash": "0x56c60bb3af9a2905c5e56071eedc975473c089cc0e9a5ae73ee28ce072da5ac0",
      "transactionIndex": "0x20",
      "blockHash": "0xa7e22be06022cc542305d85dd29d5ffc467dba1eda6db12df670e735f3e9d701",
      "blockNumber": "0x1485555",
      "gasUsed": "0x1099f",
      "effectiveGasPrice": "0x18831",
      "from": "0xecba9756092b7851f4918ec6bab2085b8f88b8ff",
      "to": "0x6120fe707cc065d85452e44abc971f3beafcde20",
      "contractAddress": null,
      "l1BaseFeeScalar": "0x44d",
      "l1BlobBaseFee": "0x1",
      "l1BlobBaseFeeScalar": "0xa118b",
      "l1Fee": "0x7ce18743",
      "l1GasPrice": "0x46e40189",
      "l1GasUsed": "0x640"
    },
    {
      "status": "0x1",
      "cumulativeGasUsed": "0x3c2b6d",
      "logs": [
        {
          "address": "0x6120fe707cc065d85452e44abc971f3beafcde20",
          "topics": [
            "0xddf252ad1be2c89b69c2b068fc378daa952ba7f163c4a11628f55a4df523b3ef",
            "0x000000000000000000000000ecba9756092b7851f4918ec6bab2085b8f88b8ff",
            "0x000000000000000000000000bb02a9d6a71a847d587ce4dbb92f32f79c2efb2a"
          ],
          "data": "0x00000000000000000000000000000000000000000000003635c9adc5dea00000",
          "blockHash": "0xa7e22be06022cc542305d85dd29d5ffc467dba1eda6db12df670e735f3e9d701",
          "blockNumber": "0x1485555",
          "transactionHash": "0x10809c78d6d4f15445a221dcb560be1fd5b455ad65709b6d4805b538bfcbaf89",
          "transactionIndex": "0x21",
          "logIndex": "0x6b",
          "removed": false
        }
      ],
      "logsBloom": "0x00000000000000000002000000000000000000000000000000000000000000000000000000000000001000000000000000000000000000008000000000000000000000000000000000000008000000000000000000000000000000000000000000000000000000000000000000000000001000000000000000000010000000000000000000000000000000000000000000000000000000000000000000020000000000000001000000000000000000000000000000000000000000000000000000008002008000020000000000000000000000000000000000000000000000000000000000000000000000000000000000000000000000000000000000000000",
      "type": "0x2",
      "transactionHash": "0x10809c78d6d4f15445a221dcb560be1fd5b455ad65709b6d4805b538bfcbaf89",
      "transactionIndex": "0x21",
      "blockHash": "0xa7e22be06022cc542305d85dd29d5ffc467dba1eda6db12df670e735f3e9d701",
      "blockNumber": "0x1485555",
      "gasUsed": "0xc9aa",
      "effectiveGasPrice": "0x18831",
      "from": "0xecba9756092b7851f4918ec6bab2085b8f88b8ff",
      "to": "0x6120fe707cc065d85452e44abc971f3beafcde20",
      "contractAddress": null,
      "l1BaseFeeScalar": "0x44d",
      "l1BlobBaseFee": "0x1",
      "l1BlobBaseFeeScalar": "0xa118b",
      "l1Fee": "0x7ce18743",
      "l1GasPrice": "0x46e40189",
      "l1GasUsed": "0x640"
    },
    {
      "status": "0x1",
      "cumulativeGasUsed": "0x3cf517",
      "logs": [
        {
          "address": "0x6120fe707cc065d85452e44abc971f3beafcde20",
          "topics": [
            "0xddf252ad1be2c89b69c2b068fc378daa952ba7f163c4a11628f55a4df523b3ef",
            "0x000000000000000000000000ecba9756092b7851f4918ec6bab2085b8f88b8ff",
            "0x000000000000000000000000b47cfcf8181d36117142b83d31bbbf63b1b250fe"
          ],
          "data": "0x00000000000000000000000000000000000000000000003635c9adc5dea00000",
          "blockHash": "0xa7e22be06022cc542305d85dd29d5ffc467dba1eda6db12df670e735f3e9d701",
          "blockNumber": "0x1485555",
          "transactionHash": "0x66fc1ae810be6feeb78a81debb9f0af8c9beec8c312cc32c3ff63111264425fb",
          "transactionIndex": "0x22",
          "logIndex": "0x6c",
          "removed": false
        }
      ],
      "logsBloom": "0x00000000000000000002000000000000000000000000000000000000000000000000000000000000081000000000000000000000000000000000000000000000000000000000000000000008000000000000000000800000000000000000000000000000000000000000000000000000001000000000000000000010000000000000000000000000000000000000000000000000000000000000000000020000000000000001000000000000000000000000000000000000000000000000000000000002008000000000000000000000000000000000000000000000000000000000000000000000000000000000000000000000000001000000000000000000",
      "type": "0x2",
      "transactionHash": "0x66fc1ae810be6feeb78a81debb9f0af8c9beec8c312cc32c3ff63111264425fb",
      "transactionIndex": "0x22",
      "blockHash": "0xa7e22be06022cc542305d85dd29d5ffc467dba1eda6db12df670e735f3e9d701",
      "blockNumber": "0x1485555",
      "gasUsed": "0xc9aa",
      "effectiveGasPrice": "0x18831",
      "from": "0xecba9756092b7851f4918ec6bab2085b8f88b8ff",
      "to": "0x6120fe707cc065d85452e44abc971f3beafcde20",
      "contractAddress": null,
      "l1BaseFeeScalar": "0x44d",
      "l1BlobBaseFee": "0x1",
      "l1BlobBaseFeeScalar": "0xa118b",
      "l1Fee": "0x7ce18743",
      "l1GasPrice": "0x46e40189",
      "l1GasUsed": "0x640"
    },
    {
      "status": "0x1",
      "cumulativeGasUsed": "0x3dbec1",
      "logs": [
        {
          "address": "0x6120fe707cc065d85452e44abc971f3beafcde20",
          "topics": [
            "0xddf252ad1be2c89b69c2b068fc378daa952ba7f163c4a11628f55a4df523b3ef",
            "0x000000000000000000000000ecba9756092b7851f4918ec6bab2085b8f88b8ff",
            "0x000000000000000000000000b1afd5179ac5d755c2da5bd2f961f5520647aeb2"
          ],
          "data": "0x00000000000000000000000000000000000000000000003635c9adc5dea00000",
          "blockHash": "0xa7e22be06022cc542305d85dd29d5ffc467dba1eda6db12df670e735f3e9d701",
          "blockNumber": "0x1485555",
          "transactionHash": "0xfd49a4e796375534e1f83cc86746f6772d4095e9f4bb3fec9c1d83277fe6b313",
          "transactionIndex": "0x23",
          "logIndex": "0x6d",
          "removed": false
        }
      ],
      "logsBloom": "0x00000100000000000002000000000000000000000000000000000000000000000000000000000000001000000000000000000000000000000000000000000000000000000000000000000008000000000000000000000000000000000000000000000000000000000000000000000000001000000000000000000010000000000000000000000000000000000000000000000000000000000000000000020000000000000001000000000000000200000040000000000000000000000000000000000002008000000000000000000000000000000000000000000000000000000000000000000000000000000000000000000000000000000000000000000000",
      "type": "0x2",
      "transactionHash": "0xfd49a4e796375534e1f83cc86746f6772d4095e9f4bb3fec9c1d83277fe6b313",
      "transactionIndex": "0x23",
      "blockHash": "0xa7e22be06022cc542305d85dd29d5ffc467dba1eda6db12df670e735f3e9d701",
      "blockNumber": "0x1485555",
      "gasUsed": "0xc9aa",
      "effectiveGasPrice": "0x18831",
      "from": "0xecba9756092b7851f4918ec6bab2085b8f88b8ff",
      "to": "0x6120fe707cc065d85452e44abc971f3beafcde20",
      "contractAddress": null,
      "l1BaseFeeScalar": "0x44d",
      "l1BlobBaseFee": "0x1",
      "l1BlobBaseFeeScalar": "0xa118b",
      "l1Fee": "0x7ce18743",
      "l1GasPrice": "0x46e40189",
      "l1GasUsed": "0x640"
    },
    {
      "status": "0x1",
      "cumulativeGasUsed": "0x3e75ab",
      "logs": [
        {
          "address": "0x6120fe707cc065d85452e44abc971f3beafcde20",
          "topics": [
            "0xddf252ad1be2c89b69c2b068fc378daa952ba7f163c4a11628f55a4df523b3ef",
            "0x000000000000000000000000ecba9756092b7851f4918ec6bab2085b8f88b8ff",
            "0x000000000000000000000000bd4114d7521f80c4bad67f5ece1c843627078791"
          ],
          "data": "0x00000000000000000000000000000000000000000000003635c9adc5dea00000",
          "blockHash": "0xa7e22be06022cc542305d85dd29d5ffc467dba1eda6db12df670e735f3e9d701",
          "blockNumber": "0x1485555",
          "transactionHash": "0x9714e914dcb8261ba56f95705482be0d5a69e69d66fb950026075ca06764ce28",
          "transactionIndex": "0x24",
          "logIndex": "0x6e",
          "removed": false
        }
      ],
      "logsBloom": "0x00000800000000000002000000000000000000000000000000000000000000000000000000000000001000000000000000000000000000000000000000000000000400000000000000000008000000000000000000000000000000000000000000000000000000000000000000000000001000000000000000000012000000000000000000000000000000000000000000000000000000000000000000020000000000000001000000000000000000000000000000000000000000000000000000000002008000000000000000000000000000000000000000000000000000000000000000000000000000000000000000000000000000000000000000000000",
      "type": "0x2",
      "transactionHash": "0x9714e914dcb8261ba56f95705482be0d5a69e69d66fb950026075ca06764ce28",
      "transactionIndex": "0x24",
      "blockHash": "0xa7e22be06022cc542305d85dd29d5ffc467dba1eda6db12df670e735f3e9d701",
      "blockNumber": "0x1485555",
      "gasUsed": "0xb6ea",
      "effectiveGasPrice": "0x18831",
      "from": "0xecba9756092b7851f4918ec6bab2085b8f88b8ff",
      "to": "0x6120fe707cc065d85452e44abc971f3beafcde20",
      "contractAddress": null,
      "l1BaseFeeScalar": "0x44d",
      "l1BlobBaseFee": "0x1",
      "l1BlobBaseFeeScalar": "0xa118b",
      "l1Fee": "0x7ce18743",
      "l1GasPrice": "0x46e40189",
      "l1GasUsed": "0x640"
    }
  ],
  "libraries": [],
  "pending": [],
  "returns": {},
  "timestamp": 1738803595,
  "chain": 84532,
  "commit": "e3ad21d"
}