{
  "transactions": [
    {
      "hash": "0xf786c0ec6badd9104450016f3b755e8ff461766c88abdc48813bab50118fe703",
      "transactionType": "CALL",
      "contractName": null,
      "contractAddress": "0x728a61c50bd3d63f864b370aeb1b2dc90e381181",
      "function": "mint(uint256)",
      "arguments": [
        "4000000000000000000000"
      ],
      "transaction": {
        "from": "0xecba9756092b7851f4918ec6bab2085b8f88b8ff",
        "to": "0x728a61c50bd3d63f864b370aeb1b2dc90e381181",
        "gas": "0x16ee2",
        "value": "0x0",
        "input": "0xa0712d680000000000000000000000000000000000000000000000d8d726b7177a800000",
        "nonce": "0x74",
        "chainId": "0x14a34"
      },
      "additionalContracts": [],
      "isFixedGasLimit": false
    },
    {
      "hash": "0xe7427ede4470bc00a60c84c1bd5e3e1810a2aadfad7d1ac54786c12f60298a2e",
      "transactionType": "CALL",
      "contractName": null,
      "contractAddress": "0x728a61c50bd3d63f864b370aeb1b2dc90e381181",
      "function": "transfer(address,uint256)",
      "arguments": [
        "0xbb02a9D6A71A847D587cE4Dbb92F32f79c2EfB2a",
        "1000000000000000000000"
      ],
      "transaction": {
        "from": "0xecba9756092b7851f4918ec6bab2085b8f88b8ff",
        "to": "0x728a61c50bd3d63f864b370aeb1b2dc90e381181",
        "gas": "0x126ee",
        "value": "0x0",
        "input": "0xa9059cbb000000000000000000000000bb02a9d6a71a847d587ce4dbb92f32f79c2efb2a00000000000000000000000000000000000000000000003635c9adc5dea00000",
        "nonce": "0x75",
        "chainId": "0x14a34"
      },
      "additionalContracts": [],
      "isFixedGasLimit": false
    },
    {
      "hash": "0x92f186c531029388185ddbb1718db959470a1bd1bd58db349130f0ffe4aa1d5f",
      "transactionType": "CALL",
      "contractName": null,
      "contractAddress": "0x728a61c50bd3d63f864b370aeb1b2dc90e381181",
      "function": "transfer(address,uint256)",
      "arguments": [
        "0xb47CFCf8181D36117142b83D31BBBF63B1b250fE",
        "1000000000000000000000"
      ],
      "transaction": {
        "from": "0xecba9756092b7851f4918ec6bab2085b8f88b8ff",
        "to": "0x728a61c50bd3d63f864b370aeb1b2dc90e381181",
        "gas": "0x126ee",
        "value": "0x0",
        "input": "0xa9059cbb000000000000000000000000b47cfcf8181d36117142b83d31bbbf63b1b250fe00000000000000000000000000000000000000000000003635c9adc5dea00000",
        "nonce": "0x76",
        "chainId": "0x14a34"
      },
      "additionalContracts": [],
      "isFixedGasLimit": false
    },
    {
      "hash": "0x18d3f868c8012c453760b98abeef4dd660560347a2361d8d7b9630d70ace098f",
      "transactionType": "CALL",
      "contractName": null,
      "contractAddress": "0x728a61c50bd3d63f864b370aeb1b2dc90e381181",
      "function": "transfer(address,uint256)",
      "arguments": [
        "0xb1AfD5179ac5D755C2da5bd2F961F5520647aEB2",
        "1000000000000000000000"
      ],
      "transaction": {
        "from": "0xecba9756092b7851f4918ec6bab2085b8f88b8ff",
        "to": "0x728a61c50bd3d63f864b370aeb1b2dc90e381181",
        "gas": "0x126ee",
        "value": "0x0",
        "input": "0xa9059cbb000000000000000000000000b1afd5179ac5d755c2da5bd2f961f5520647aeb200000000000000000000000000000000000000000000003635c9adc5dea00000",
        "nonce": "0x77",
        "chainId": "0x14a34"
      },
      "additionalContracts": [],
      "isFixedGasLimit": false
    },
    {
      "hash": "0x69d9fe4660ab8d32c6c130bb951d9c1d5a3f3be385fbe94af9e42aee74f4c50f",
      "transactionType": "CALL",
      "contractName": null,
      "contractAddress": "0x728a61c50bd3d63f864b370aeb1b2dc90e381181",
      "function": "transfer(address,uint256)",
      "arguments": [
        "0xBd4114D7521F80C4bad67F5ECE1C843627078791",
        "1000000000000000000000"
      ],
      "transaction": {
        "from": "0xecba9756092b7851f4918ec6bab2085b8f88b8ff",
        "to": "0x728a61c50bd3d63f864b370aeb1b2dc90e381181",
        "gas": "0x10b82",
        "value": "0x0",
        "input": "0xa9059cbb000000000000000000000000bd4114d7521f80c4bad67f5ece1c84362707879100000000000000000000000000000000000000000000003635c9adc5dea00000",
        "nonce": "0x78",
        "chainId": "0x14a34"
      },
      "additionalContracts": [],
      "isFixedGasLimit": false
    }
  ],
  "receipts": [
    {
      "status": "0x1",
      "cumulativeGasUsed": "0x49c4a4",
      "logs": [
        {
          "address": "0x728a61c50bd3d63f864b370aeb1b2dc90e381181",
          "topics": [
            "0xddf252ad1be2c89b69c2b068fc378daa952ba7f163c4a11628f55a4df523b3ef",
            "0x0000000000000000000000000000000000000000000000000000000000000000",
            "0x000000000000000000000000ecba9756092b7851f4918ec6bab2085b8f88b8ff"
          ],
          "data": "0x0000000000000000000000000000000000000000000000d8d726b7177a800000",
          "blockHash": "0x8e59d173eb87b295077be5aee4033e4fa5c9d4da8ed1af6aa7c6ad777ab61f2e",
          "blockNumber": "0x14869d8",
          "transactionHash": "0xf786c0ec6badd9104450016f3b755e8ff461766c88abdc48813bab50118fe703",
          "transactionIndex": "0x29",
          "logIndex": "0x6d",
          "removed": false
        }
      ],
      "logsBloom": "0x00000000000000000000000000000000000000000000000000000000000000000000000000000000001000000000000000000000000000000000000000000200000000000000000000000008000000000000000000000000000000000000000000000000020000000000000000000800001000000000000000000010400000000000000000000000000000000000000000000000000000000000000000000000000000000001000000000000000000000000000000000000000000000000000000000002000000000000000000000000100000000000000000000000000020000000000000000000000000000000000000000000000000000000000000000000",
      "type": "0x2",
      "transactionHash": "0xf786c0ec6badd9104450016f3b755e8ff461766c88abdc48813bab50118fe703",
      "transactionIndex": "0x29",
      "blockHash": "0x8e59d173eb87b295077be5aee4033e4fa5c9d4da8ed1af6aa7c6ad777ab61f2e",
      "blockNumber": "0x14869d8",
      "gasUsed": "0x1099f",
      "effectiveGasPrice": "0x8eea2",
      "from": "0xecba9756092b7851f4918ec6bab2085b8f88b8ff",
      "to": "0x728a61c50bd3d63f864b370aeb1b2dc90e381181",
      "contractAddress": null,
      "l1BaseFeeScalar": "0x44d",
      "l1BlobBaseFee": "0x563aa5",
      "l1BlobBaseFeeScalar": "0xa118b",
      "l1Fee": "0xa35b2a00",
      "l1GasPrice": "0x501d621f",
      "l1GasUsed": "0x640"
    },
    {
      "status": "0x1",
      "cumulativeGasUsed": "0x4a8e4e",
      "logs": [
        {
          "address": "0x728a61c50bd3d63f864b370aeb1b2dc90e381181",
          "topics": [
            "0xddf252ad1be2c89b69c2b068fc378daa952ba7f163c4a11628f55a4df523b3ef",
            "0x000000000000000000000000ecba9756092b7851f4918ec6bab2085b8f88b8ff",
            "0x000000000000000000000000bb02a9d6a71a847d587ce4dbb92f32f79c2efb2a"
          ],
          "data": "0x00000000000000000000000000000000000000000000003635c9adc5dea00000",
          "blockHash": "0x8e59d173eb87b295077be5aee4033e4fa5c9d4da8ed1af6aa7c6ad777ab61f2e",
          "blockNumber": "0x14869d8",
          "transactionHash": "0xe7427ede4470bc00a60c84c1bd5e3e1810a2aadfad7d1ac54786c12f60298a2e",
          "transactionIndex": "0x2a",
          "logIndex": "0x6e",
          "removed": false
        }
      ],
      "logsBloom": "0x00000000000000000000000000000000000000000000000000000000000000000000000000000000001000000000000000000000000000008000000000000200000000000000000000000008000000000000000000000000000000000000000000000000000000000000000000000000001000000000000000000010400000000000000000000000000000000000000000000000000000000000000000000000000000000001000000000000000000000000000000000000000000000000000000008002000000020000000000000000100000000000000000000000000000000000000000000000000000000000000000000000000000000000000000000000",
      "type": "0x2",
      "transactionHash": "0xe7427ede4470bc00a60c84c1bd5e3e1810a2aadfad7d1ac54786c12f60298a2e",
      "transactionIndex": "0x2a",
      "blockHash": "0x8e59d173eb87b295077be5aee4033e4fa5c9d4da8ed1af6aa7c6ad777ab61f2e",
      "blockNumber": "0x14869d8",
      "gasUsed": "0xc9aa",
      "effectiveGasPrice": "0x8eea2",
      "from": "0xecba9756092b7851f4918ec6bab2085b8f88b8ff",
      "to": "0x728a61c50bd3d63f864b370aeb1b2dc90e381181",
      "contractAddress": null,
      "l1BaseFeeScalar": "0x44d",
      "l1BlobBaseFee": "0x563aa5",
      "l1BlobBaseFeeScalar": "0xa118b",
      "l1Fee": "0xa35b2a00",
      "l1GasPrice": "0x501d621f",
      "l1GasUsed": "0x640"
    },
    {
      "status": "0x1",
      "cumulativeGasUsed": "0x4b57f8",
      "logs": [
        {
          "address": "0x728a61c50bd3d63f864b370aeb1b2dc90e381181",
          "topics": [
            "0xddf252ad1be2c89b69c2b068fc378daa952ba7f163c4a11628f55a4df523b3ef",
            "0x000000000000000000000000ecba9756092b7851f4918ec6bab2085b8f88b8ff",
            "0x000000000000000000000000b47cfcf8181d36117142b83d31bbbf63b1b250fe"
          ],
          "data": "0x00000000000000000000000000000000000000000000003635c9adc5dea00000",
          "blockHash": "0x8e59d173eb87b295077be5aee4033e4fa5c9d4da8ed1af6aa7c6ad777ab61f2e",
          "blockNumber": "0x14869d8",
          "transactionHash": "0x92f186c531029388185ddbb1718db959470a1bd1bd58db349130f0ffe4aa1d5f",
          "transactionIndex": "0x2b",
          "logIndex": "0x6f",
          "removed": false
        }
      ],
      "logsBloom": "0x00000000000000000000000000000000000000000000000000000000000000000000000000000000081000000000000000000000000000000000000000000200000000000000000000000008000000000000000000800000000000000000000000000000000000000000000000000000001000000000000000000010400000000000000000000000000000000000000000000000000000000000000000000000000000000001000000000000000000000000000000000000000000000000000000000002000000000000000000000000100000000000000000000000000000000000000000000000000000000000000000000000000001000000000000000000",
      "type": "0x2",
      "transactionHash": "0x92f186c531029388185ddbb1718db959470a1bd1bd58db349130f0ffe4aa1d5f",
      "transactionIndex": "0x2b",
      "blockHash": "0x8e59d173eb87b295077be5aee4033e4fa5c9d4da8ed1af6aa7c6ad777ab61f2e",
      "blockNumber": "0x14869d8",
      "gasUsed": "0xc9aa",
      "effectiveGasPrice": "0x8eea2",
      "from": "0xecba9756092b7851f4918ec6bab2085b8f88b8ff",
      "to": "0x728a61c50bd3d63f864b370aeb1b2dc90e381181",
      "contractAddress": null,
      "l1BaseFeeScalar": "0x44d",
      "l1BlobBaseFee": "0x563aa5",
      "l1BlobBaseFeeScalar": "0xa118b",
      "l1Fee": "0xa35b2a00",
      "l1GasPrice": "0x501d621f",
      "l1GasUsed": "0x640"
    },
    {
      "status": "0x1",
      "cumulativeGasUsed": "0x4c21a2",
      "logs": [
        {
          "address": "0x728a61c50bd3d63f864b370aeb1b2dc90e381181",
          "topics": [
            "0xddf252ad1be2c89b69c2b068fc378daa952ba7f163c4a11628f55a4df523b3ef",
            "0x000000000000000000000000ecba9756092b7851f4918ec6bab2085b8f88b8ff",
            "0x000000000000000000000000b1afd5179ac5d755c2da5bd2f961f5520647aeb2"
          ],
          "data": "0x00000000000000000000000000000000000000000000003635c9adc5dea00000",
          "blockHash": "0x8e59d173eb87b295077be5aee4033e4fa5c9d4da8ed1af6aa7c6ad777ab61f2e",
          "blockNumber": "0x14869d8",
          "transactionHash": "0x18d3f868c8012c453760b98abeef4dd660560347a2361d8d7b9630d70ace098f",
          "transactionIndex": "0x2c",
          "logIndex": "0x70",
          "removed": false
        }
      ],
      "logsBloom": "0x00000100000000000000000000000000000000000000000000000000000000000000000000000000001000000000000000000000000000000000000000000200000000000000000000000008000000000000000000000000000000000000000000000000000000000000000000000000001000000000000000000010400000000000000000000000000000000000000000000000000000000000000000000000000000000001000000000000000200000040000000000000000000000000000000000002000000000000000000000000100000000000000000000000000000000000000000000000000000000000000000000000000000000000000000000000",
      "type": "0x2",
      "transactionHash": "0x18d3f868c8012c453760b98abeef4dd660560347a2361d8d7b9630d70ace098f",
      "transactionIndex": "0x2c",
      "blockHash": "0x8e59d173eb87b295077be5aee4033e4fa5c9d4da8ed1af6aa7c6ad777ab61f2e",
      "blockNumber": "0x14869d8",
      "gasUsed": "0xc9aa",
      "effectiveGasPrice": "0x8eea2",
      "from": "0xecba9756092b7851f4918ec6bab2085b8f88b8ff",
      "to": "0x728a61c50bd3d63f864b370aeb1b2dc90e381181",
      "contractAddress": null,
      "l1BaseFeeScalar": "0x44d",
      "l1BlobBaseFee": "0x563aa5",
      "l1BlobBaseFeeScalar": "0xa118b",
      "l1Fee": "0xa35b2a00",
      "l1GasPrice": "0x501d621f",
      "l1GasUsed": "0x640"
    },
    {
      "status": "0x1",
      "cumulativeGasUsed": "0x4cd88c",
      "logs": [
        {
          "address": "0x728a61c50bd3d63f864b370aeb1b2dc90e381181",
          "topics": [
            "0xddf252ad1be2c89b69c2b068fc378daa952ba7f163c4a11628f55a4df523b3ef",
            "0x000000000000000000000000ecba9756092b7851f4918ec6bab2085b8f88b8ff",
            "0x000000000000000000000000bd4114d7521f80c4bad67f5ece1c843627078791"
          ],
          "data": "0x00000000000000000000000000000000000000000000003635c9adc5dea00000",
          "blockHash": "0x8e59d173eb87b295077be5aee4033e4fa5c9d4da8ed1af6aa7c6ad777ab61f2e",
          "blockNumber": "0x14869d8",
          "transactionHash": "0x69d9fe4660ab8d32c6c130bb951d9c1d5a3f3be385fbe94af9e42aee74f4c50f",
          "transactionIndex": "0x2d",
          "logIndex": "0x71",
          "removed": false
        }
      ],
      "logsBloom": "0x00000800000000000000000000000000000000000000000000000000000000000000000000000000001000000000000000000000000000000000000000000200000400000000000000000008000000000000000000000000000000000000000000000000000000000000000000000000001000000000000000000012400000000000000000000000000000000000000000000000000000000000000000000000000000000001000000000000000000000000000000000000000000000000000000000002000000000000000000000000100000000000000000000000000000000000000000000000000000000000000000000000000000000000000000000000",
      "type": "0x2",
      "transactionHash": "0x69d9fe4660ab8d32c6c130bb951d9c1d5a3f3be385fbe94af9e42aee74f4c50f",
      "transactionIndex": "0x2d",
      "blockHash": "0x8e59d173eb87b295077be5aee4033e4fa5c9d4da8ed1af6aa7c6ad777ab61f2e",
      "blockNumber": "0x14869d8",
      "gasUsed": "0xb6ea",
      "effectiveGasPrice": "0x8eea2",
      "from": "0xecba9756092b7851f4918ec6bab2085b8f88b8ff",
      "to": "0x728a61c50bd3d63f864b370aeb1b2dc90e381181",
      "contractAddress": null,
      "l1BaseFeeScalar": "0x44d",
      "l1BlobBaseFee": "0x563aa5",
      "l1BlobBaseFeeScalar": "0xa118b",
      "l1Fee": "0xa35b2a00",
      "l1GasPrice": "0x501d621f",
      "l1GasUsed": "0x640"
    }
  ],
  "libraries": [],
  "pending": [],
  "returns": {},
  "timestamp": 1738814098,
  "chain": 84532,
  "commit": "e3ad21d"
}