{
  "transactions": [
    {
      "hash": "0xf4ae5c50728ebd1e9c77ba1e3d1143d4523cb54d22dfe0bab177af87ffc926db",
      "transactionType": "CALL",
      "contractName": "PlaceholderStableCoin",
      "contractAddress": "0xcfe2f7254692bbd99b67a4d7d429f46b7b5e6c92",
      "function": "mint(uint256)",
      "arguments": [
        "400000000000000000000000"
      ],
      "transaction": {
        "from": "0xecba9756092b7851f4918ec6bab2085b8f88b8ff",
        "to": "0xcfe2f7254692bbd99b67a4d7d429f46b7b5e6c92",
        "gas": "0xb65c",
        "value": "0x0",
        "input": "0xa0712d680000000000000000000000000000000000000000000054b40b1f852bda000000",
        "nonce": "0x128",
        "chainId": "0x14a34"
      },
      "additionalContracts": [],
      "isFixedGasLimit": false
    },
    {
      "hash": "0x121ae2f38437f19baef73238ed9a3e037f68e8e655250e87a5da0de02782d39b",
      "transactionType": "CALL",
      "contractName": "PlaceholderStableCoin",
      "contractAddress": "0xcfe2f7254692bbd99b67a4d7d429f46b7b5e6c92",
      "function": "transfer(address,uint256)",
      "arguments": [
        "0xbb02a9D6A71A847D587cE4Dbb92F32f79c2EfB2a",
        "100000000000000000000000"
      ],
      "transaction": {
        "from": "0xecba9756092b7851f4918ec6bab2085b8f88b8ff",
        "to": "0xcfe2f7254692bbd99b67a4d7d429f46b7b5e6c92",
        "gas": "0xc54f",
        "value": "0x0",
        "input": "0xa9059cbb000000000000000000000000bb02a9d6a71a847d587ce4dbb92f32f79c2efb2a00000000000000000000000000000000000000000000152d02c7e14af6800000",
        "nonce": "0x129",
        "chainId": "0x14a34"
      },
      "additionalContracts": [],
      "isFixedGasLimit": false
    },
    {
      "hash": "0x5c8c731bbe2724efa079860b3b7d2e9062c45ab1bcd9c1e6bef90ec329ea0ec6",
      "transactionType": "CALL",
      "contractName": "PlaceholderStableCoin",
      "contractAddress": "0xcfe2f7254692bbd99b67a4d7d429f46b7b5e6c92",
      "function": "transfer(address,uint256)",
      "arguments": [
        "0xb47CFCf8181D36117142b83D31BBBF63B1b250fE",
        "100000000000000000000000"
      ],
      "transaction": {
        "from": "0xecba9756092b7851f4918ec6bab2085b8f88b8ff",
        "to": "0xcfe2f7254692bbd99b67a4d7d429f46b7b5e6c92",
        "gas": "0xc54f",
        "value": "0x0",
        "input": "0xa9059cbb000000000000000000000000b47cfcf8181d36117142b83d31bbbf63b1b250fe00000000000000000000000000000000000000000000152d02c7e14af6800000",
        "nonce": "0x12a",
        "chainId": "0x14a34"
      },
      "additionalContracts": [],
      "isFixedGasLimit": false
    },
    {
      "hash": "0x90e59a223ee29b60b48eb20b861be05b94906eb580136104aa66ee588c890a85",
      "transactionType": "CALL",
      "contractName": "PlaceholderStableCoin",
      "contractAddress": "0xcfe2f7254692bbd99b67a4d7d429f46b7b5e6c92",
      "function": "transfer(address,uint256)",
      "arguments": [
        "0xb1AfD5179ac5D755C2da5bd2F961F5520647aEB2",
        "100000000000000000000000"
      ],
      "transaction": {
        "from": "0xecba9756092b7851f4918ec6bab2085b8f88b8ff",
        "to": "0xcfe2f7254692bbd99b67a4d7d429f46b7b5e6c92",
        "gas": "0xc54f",
        "value": "0x0",
        "input": "0xa9059cbb000000000000000000000000b1afd5179ac5d755c2da5bd2f961f5520647aeb200000000000000000000000000000000000000000000152d02c7e14af6800000",
        "nonce": "0x12b",
        "chainId": "0x14a34"
      },
      "additionalContracts": [],
      "isFixedGasLimit": false
    },
    {
      "hash": "0xb7f1cd639c4068f10464491b7035decc187f7f3306c2351f2e1bfbc1f5ea3a4c",
      "transactionType": "CALL",
      "contractName": "PlaceholderStableCoin",
      "contractAddress": "0xcfe2f7254692bbd99b67a4d7d429f46b7b5e6c92",
      "function": "transfer(address,uint256)",
      "arguments": [
        "0xBd4114D7521F80C4bad67F5ECE1C843627078791",
        "100000000000000000000000"
      ],
      "transaction": {
        "from": "0xecba9756092b7851f4918ec6bab2085b8f88b8ff",
        "to": "0xcfe2f7254692bbd99b67a4d7d429f46b7b5e6c92",
        "gas": "0xc54f",
        "value": "0x0",
        "input": "0xa9059cbb000000000000000000000000bd4114d7521f80c4bad67f5ece1c84362707879100000000000000000000000000000000000000000000152d02c7e14af6800000",
        "nonce": "0x12c",
        "chainId": "0x14a34"
      },
      "additionalContracts": [],
      "isFixedGasLimit": false
    }
  ],
  "receipts": [
    {
      "status": "0x1",
      "cumulativeGasUsed": "0x753cb4",
      "logs": [
        {
          "address": "0xcfe2f7254692bbd99b67a4d7d429f46b7b5e6c92",
          "topics": [
            "0xddf252ad1be2c89b69c2b068fc378daa952ba7f163c4a11628f55a4df523b3ef",
            "0x0000000000000000000000000000000000000000000000000000000000000000",
            "0x000000000000000000000000ecba9756092b7851f4918ec6bab2085b8f88b8ff"
          ],
          "data": "0x0000000000000000000000000000000000000000000054b40b1f852bda000000",
          "blockHash": "0x9b0c55fbf6846ff7493589e0d89c0188caedd7228a3deaadae976f4b51ec8384",
          "blockNumber": "0x1496212",
          "transactionHash": "0xf4ae5c50728ebd1e9c77ba1e3d1143d4523cb54d22dfe0bab177af87ffc926db",
          "transactionIndex": "0x23",
          "logIndex": "0x5e",
          "removed": false
        }
      ],
      "logsBloom": "0x00000000000000000000000000000000000000000000000000000000000000000000000000000000001000000000000000000000000000000000000000000000000000000000000000000008000000000000000000000000000000000000000000000000020000000000000000000800001000000000000000000010000000000000000000000000000000000000000000000000000000000000000000000000000000000001010000000000000000000000000000000000000020000000000000000002000000000000000000000000000000000000000000000000000020000000000000000000000000000020000000000000000000000000000000000000",
      "type": "0x2",
      "transactionHash": "0xf4ae5c50728ebd1e9c77ba1e3d1143d4523cb54d22dfe0bab177af87ffc926db",
      "transactionIndex": "0x23",
      "blockHash": "0x9b0c55fbf6846ff7493589e0d89c0188caedd7228a3deaadae976f4b51ec8384",
      "blockNumber": "0x1496212",
      "gasUsed": "0x8407",
      "effectiveGasPrice": "0x18868",
      "from": "0xecba9756092b7851f4918ec6bab2085b8f88b8ff",
      "to": "0xcfe2f7254692bbd99b67a4d7d429f46b7b5e6c92",
      "contractAddress": null,
      "l1BaseFeeScalar": "0x44d",
      "l1BlobBaseFee": "0x5",
      "l1BlobBaseFeeScalar": "0xa118b",
      "l1Fee": "0x173d62aa0e",
      "l1GasPrice": "0xd31432a8f",
      "l1GasUsed": "0x640"
    },
    {
      "status": "0x1",
      "cumulativeGasUsed": "0x767740",
      "logs": [
        {
          "address": "0xcfe2f7254692bbd99b67a4d7d429f46b7b5e6c92",
          "topics": [
            "0xddf252ad1be2c89b69c2b068fc378daa952ba7f163c4a11628f55a4df523b3ef",
            "0x000000000000000000000000ecba9756092b7851f4918ec6bab2085b8f88b8ff",
            "0x000000000000000000000000bb02a9d6a71a847d587ce4dbb92f32f79c2efb2a"
          ],
          "data": "0x00000000000000000000000000000000000000000000152d02c7e14af6800000",
          "blockHash": "0x9b0c55fbf6846ff7493589e0d89c0188caedd7228a3deaadae976f4b51ec8384",
          "blockNumber": "0x1496212",
          "transactionHash": "0x121ae2f38437f19baef73238ed9a3e037f68e8e655250e87a5da0de02782d39b",
          "transactionIndex": "0x25",
          "logIndex": "0x60",
          "removed": false
        }
      ],
      "logsBloom": "0x00000000000000000000000000000000000000000000000000000000000000000000000000000000001000000000000000000000000000008000000000000000000000000000000000000008000000000000000000000000000000000000000000000000000000000000000000000000001000000000000000000010000000000000000000000000000000000000000000000000000000000000000000000000000000000001010000000000000000000000000000000000000020000000000000008002000000020000000000000000000000000000000000000000000000000000000000000000000000000020000000000000000000000000000000000000",
      "type": "0x2",
      "transactionHash": "0x121ae2f38437f19baef73238ed9a3e037f68e8e655250e87a5da0de02782d39b",
      "transactionIndex": "0x25",
      "blockHash": "0x9b0c55fbf6846ff7493589e0d89c0188caedd7228a3deaadae976f4b51ec8384",
      "blockNumber": "0x1496212",
      "gasUsed": "0x86ea",
      "effectiveGasPrice": "0x18868",
      "from": "0xecba9756092b7851f4918ec6bab2085b8f88b8ff",
      "to": "0xcfe2f7254692bbd99b67a4d7d429f46b7b5e6c92",
      "contractAddress": null,
      "l1BaseFeeScalar": "0x44d",
      "l1BlobBaseFee": "0x5",
      "l1BlobBaseFeeScalar": "0xa118b",
      "l1Fee": "0x173d62aa0e",
      "l1GasPrice": "0xd31432a8f",
      "l1GasUsed": "0x640"
    },
    {
      "status": "0x1",
      "cumulativeGasUsed": "0x76fe2a",
      "logs": [
        {
          "address": "0xcfe2f7254692bbd99b67a4d7d429f46b7b5e6c92",
          "topics": [
            "0xddf252ad1be2c89b69c2b068fc378daa952ba7f163c4a11628f55a4df523b3ef",
            "0x000000000000000000000000ecba9756092b7851f4918ec6bab2085b8f88b8ff",
            "0x000000000000000000000000b47cfcf8181d36117142b83d31bbbf63b1b250fe"
          ],
          "data": "0x00000000000000000000000000000000000000000000152d02c7e14af6800000",
          "blockHash": "0x9b0c55fbf6846ff7493589e0d89c0188caedd7228a3deaadae976f4b51ec8384",
          "blockNumber": "0x1496212",
          "transactionHash": "0x5c8c731bbe2724efa079860b3b7d2e9062c45ab1bcd9c1e6bef90ec329ea0ec6",
          "transactionIndex": "0x26",
          "logIndex": "0x61",
          "removed": false
        }
      ],
      "logsBloom": "0x00000000000000000000000000000000000000000000000000000000000000000000000000000000081000000000000000000000000000000000000000000000000000000000000000000008000000000000000000800000000000000000000000000000000000000000000000000000001000000000000000000010000000000000000000000000000000000000000000000000000000000000000000000000000000000001010000000000000000000000000000000000000020000000000000000002000000000000000000000000000000000000000000000000000000000000000000000000000000000020000000000000000001000000000000000000",
      "type": "0x2",
      "transactionHash": "0x5c8c731bbe2724efa079860b3b7d2e9062c45ab1bcd9c1e6bef90ec329ea0ec6",
      "transactionIndex": "0x26",
      "blockHash": "0x9b0c55fbf6846ff7493589e0d89c0188caedd7228a3deaadae976f4b51ec8384",
      "blockNumber": "0x1496212",
      "gasUsed": "0x86ea",
      "effectiveGasPrice": "0x18868",
      "from": "0xecba9756092b7851f4918ec6bab2085b8f88b8ff",
      "to": "0xcfe2f7254692bbd99b67a4d7d429f46b7b5e6c92",
      "contractAddress": null,
      "l1BaseFeeScalar": "0x44d",
      "l1BlobBaseFee": "0x5",
      "l1BlobBaseFeeScalar": "0xa118b",
      "l1Fee": "0x173d62aa0e",
      "l1GasPrice": "0xd31432a8f",
      "l1GasUsed": "0x640"
    },
    {
      "status": "0x1",
      "cumulativeGasUsed": "0x778514",
      "logs": [
        {
          "address": "0xcfe2f7254692bbd99b67a4d7d429f46b7b5e6c92",
          "topics": [
            "0xddf252ad1be2c89b69c2b068fc378daa952ba7f163c4a11628f55a4df523b3ef",
            "0x000000000000000000000000ecba9756092b7851f4918ec6bab2085b8f88b8ff",
            "0x000000000000000000000000b1afd5179ac5d755c2da5bd2f961f5520647aeb2"
          ],
          "data": "0x00000000000000000000000000000000000000000000152d02c7e14af6800000",
          "blockHash": "0x9b0c55fbf6846ff7493589e0d89c0188caedd7228a3deaadae976f4b51ec8384",
          "blockNumber": "0x1496212",
          "transactionHash": "0x90e59a223ee29b60b48eb20b861be05b94906eb580136104aa66ee588c890a85",
          "transactionIndex": "0x27",
          "logIndex": "0x62",
          "removed": false
        }
      ],
      "logsBloom": "0x00000100000000000000000000000000000000000000000000000000000000000000000000000000001000000000000000000000000000000000000000000000000000000000000000000008000000000000000000000000000000000000000000000000000000000000000000000000001000000000000000000010000000000000000000000000000000000000000000000000000000000000000000000000000000000001010000000000000200000040000000000000000020000000000000000002000000000000000000000000000000000000000000000000000000000000000000000000000000000020000000000000000000000000000000000000",
      "type": "0x2",
      "transactionHash": "0x90e59a223ee29b60b48eb20b861be05b94906eb580136104aa66ee588c890a85",
      "transactionIndex": "0x27",
      "blockHash": "0x9b0c55fbf6846ff7493589e0d89c0188caedd7228a3deaadae976f4b51ec8384",
      "blockNumber": "0x1496212",
      "gasUsed": "0x86ea",
      "effectiveGasPrice": "0x18868",
      "from": "0xecba9756092b7851f4918ec6bab2085b8f88b8ff",
      "to": "0xcfe2f7254692bbd99b67a4d7d429f46b7b5e6c92",
      "contractAddress": null,
      "l1BaseFeeScalar": "0x44d",
      "l1BlobBaseFee": "0x5",
      "l1BlobBaseFeeScalar": "0xa118b",
      "l1Fee": "0x173d62aa0e",
      "l1GasPrice": "0xd31432a8f",
      "l1GasUsed": "0x640"
    },
    {
      "status": "0x1",
      "cumulativeGasUsed": "0x780bfe",
      "logs": [
        {
          "address": "0xcfe2f7254692bbd99b67a4d7d429f46b7b5e6c92",
          "topics": [
            "0xddf252ad1be2c89b69c2b068fc378daa952ba7f163c4a11628f55a4df523b3ef",
            "0x000000000000000000000000ecba9756092b7851f4918ec6bab2085b8f88b8ff",
            "0x000000000000000000000000bd4114d7521f80c4bad67f5ece1c843627078791"
          ],
          "data": "0x00000000000000000000000000000000000000000000152d02c7e14af6800000",
          "blockHash": "0x9b0c55fbf6846ff7493589e0d89c0188caedd7228a3deaadae976f4b51ec8384",
          "blockNumber": "0x1496212",
          "transactionHash": "0xb7f1cd639c4068f10464491b7035decc187f7f3306c2351f2e1bfbc1f5ea3a4c",
          "transactionIndex": "0x28",
          "logIndex": "0x63",
          "removed": false
        }
      ],
      "logsBloom": "0x00000800000000000000000000000000000000000000000000000000000000000000000000000000001000000000000000000000000000000000000000000000000400000000000000000008000000000000000000000000000000000000000000000000000000000000000000000000001000000000000000000012000000000000000000000000000000000000000000000000000000000000000000000000000000000001010000000000000000000000000000000000000020000000000000000002000000000000000000000000000000000000000000000000000000000000000000000000000000000020000000000000000000000000000000000000",
      "type": "0x2",
      "transactionHash": "0xb7f1cd639c4068f10464491b7035decc187f7f3306c2351f2e1bfbc1f5ea3a4c",
      "transactionIndex": "0x28",
      "blockHash": "0x9b0c55fbf6846ff7493589e0d89c0188caedd7228a3deaadae976f4b51ec8384",
      "blockNumber": "0x1496212",
      "gasUsed": "0x86ea",
      "effectiveGasPrice": "0x18868",
      "from": "0xecba9756092b7851f4918ec6bab2085b8f88b8ff",
      "to": "0xcfe2f7254692bbd99b67a4d7d429f46b7b5e6c92",
      "contractAddress": null,
      "l1BaseFeeScalar": "0x44d",
      "l1BlobBaseFee": "0x5",
      "l1BlobBaseFeeScalar": "0xa118b",
      "l1Fee": "0x173d62aa0e",
      "l1GasPrice": "0xd31432a8f",
      "l1GasUsed": "0x640"
    }
  ],
  "libraries": [],
  "pending": [],
  "returns": {},
  "timestamp": 1738941190,
  "chain": 84532,
  "commit": "270a582"
}