{
  "transactions": [
    {
      "hash": "0x33aa149050bc7e097e5e946a05c8dce94b856a986a617ac4510d95d801bac1e6",
      "transactionType": "CALL",
      "contractName": null,
      "contractAddress": "0x67cb1114b0e1adb17fe03612f2b79f307ba4cf11",
      "function": "mint(uint256)",
      "arguments": [
        "4000000000000000000000"
      ],
      "transaction": {
        "from": "0xecba9756092b7851f4918ec6bab2085b8f88b8ff",
        "to": "0x67cb1114b0e1adb17fe03612f2b79f307ba4cf11",
        "gas": "0x16ee2",
        "value": "0x0",
        "input": "0xa0712d680000000000000000000000000000000000000000000000d8d726b7177a800000",
        "nonce": "0xd0",
        "chainId": "0x14a34"
      },
      "additionalContracts": [],
      "isFixedGasLimit": false
    },
    {
      "hash": "0x053a64291d398fbfbafee939af4792406263270e2efbe20ac2c78712034128ea",
      "transactionType": "CALL",
      "contractName": null,
      "contractAddress": "0x67cb1114b0e1adb17fe03612f2b79f307ba4cf11",
      "function": "transfer(address,uint256)",
      "arguments": [
        "0xbb02a9D6A71A847D587cE4Dbb92F32f79c2EfB2a",
        "1000000000000000000000"
      ],
      "transaction": {
        "from": "0xecba9756092b7851f4918ec6bab2085b8f88b8ff",
        "to": "0x67cb1114b0e1adb17fe03612f2b79f307ba4cf11",
        "gas": "0x126ee",
        "value": "0x0",
        "input": "0xa9059cbb000000000000000000000000bb02a9d6a71a847d587ce4dbb92f32f79c2efb2a00000000000000000000000000000000000000000000003635c9adc5dea00000",
        "nonce": "0xd1",
        "chainId": "0x14a34"
      },
      "additionalContracts": [],
      "isFixedGasLimit": false
    },
    {
      "hash": "0x8ef908f0a3b75f45dd22aeb56e9eb376be2a1da3d69a49ca5fd93fdd4ba4d921",
      "transactionType": "CALL",
      "contractName": null,
      "contractAddress": "0x67cb1114b0e1adb17fe03612f2b79f307ba4cf11",
      "function": "transfer(address,uint256)",
      "arguments": [
        "0xb47CFCf8181D36117142b83D31BBBF63B1b250fE",
        "1000000000000000000000"
      ],
      "transaction": {
        "from": "0xecba9756092b7851f4918ec6bab2085b8f88b8ff",
        "to": "0x67cb1114b0e1adb17fe03612f2b79f307ba4cf11",
        "gas": "0x126ee",
        "value": "0x0",
        "input": "0xa9059cbb000000000000000000000000b47cfcf8181d36117142b83d31bbbf63b1b250fe00000000000000000000000000000000000000000000003635c9adc5dea00000",
        "nonce": "0xd2",
        "chainId": "0x14a34"
      },
      "additionalContracts": [],
      "isFixedGasLimit": false
    },
    {
      "hash": "0x7e641ef0dd005548fc0dc14ea87193b3f81ff1670ea3eeaefaa1a9d91be9f3e0",
      "transactionType": "CALL",
      "contractName": null,
      "contractAddress": "0x67cb1114b0e1adb17fe03612f2b79f307ba4cf11",
      "function": "transfer(address,uint256)",
      "arguments": [
        "0xb1AfD5179ac5D755C2da5bd2F961F5520647aEB2",
        "1000000000000000000000"
      ],
      "transaction": {
        "from": "0xecba9756092b7851f4918ec6bab2085b8f88b8ff",
        "to": "0x67cb1114b0e1adb17fe03612f2b79f307ba4cf11",
        "gas": "0x126ee",
        "value": "0x0",
        "input": "0xa9059cbb000000000000000000000000b1afd5179ac5d755c2da5bd2f961f5520647aeb200000000000000000000000000000000000000000000003635c9adc5dea00000",
        "nonce": "0xd3",
        "chainId": "0x14a34"
      },
      "additionalContracts": [],
      "isFixedGasLimit": false
    },
    {
      "hash": "0xd793ac540f8c5aa25d3f461ff33b63dcaf27a05c7d26b524139f7149bb3ab1fe",
      "transactionType": "CALL",
      "contractName": null,
      "contractAddress": "0x67cb1114b0e1adb17fe03612f2b79f307ba4cf11",
      "function": "transfer(address,uint256)",
      "arguments": [
        "0xBd4114D7521F80C4bad67F5ECE1C843627078791",
        "1000000000000000000000"
      ],
      "transaction": {
        "from": "0xecba9756092b7851f4918ec6bab2085b8f88b8ff",
        "to": "0x67cb1114b0e1adb17fe03612f2b79f307ba4cf11",
        "gas": "0x10b82",
        "value": "0x0",
        "input": "0xa9059cbb000000000000000000000000bd4114d7521f80c4bad67f5ece1c84362707879100000000000000000000000000000000000000000000003635c9adc5dea00000",
        "nonce": "0xd4",
        "chainId": "0x14a34"
      },
      "additionalContracts": [],
      "isFixedGasLimit": false
    }
  ],
  "receipts": [
    {
      "status": "0x1",
      "cumulativeGasUsed": "0x5befc7",
      "logs": [
        {
          "address": "0x67cb1114b0e1adb17fe03612f2b79f307ba4cf11",
          "topics": [
            "0xddf252ad1be2c89b69c2b068fc378daa952ba7f163c4a11628f55a4df523b3ef",
            "0x0000000000000000000000000000000000000000000000000000000000000000",
            "0x000000000000000000000000ecba9756092b7851f4918ec6bab2085b8f88b8ff"
          ],
          "data": "0x0000000000000000000000000000000000000000000000d8d726b7177a800000",
          "blockHash": "0xae1214af7e1786eec79a0f783258341aa6fed5ce62e1fbb184ac141117824191",
          "blockNumber": "0x148a8bd",
          "transactionHash": "0x33aa149050bc7e097e5e946a05c8dce94b856a986a617ac4510d95d801bac1e6",
          "transactionIndex": "0x28",
          "logIndex": "0x7d",
          "removed": false
        }
      ],
      "logsBloom": "0x00000000000000000000000000000000000000000000000000000000000000000000000000000000001000000000000000000000000000000000000004000000000000000000000000000008000000000000000000000000000000000000000000000000020000000000000000000820001000000000000000000011000000000000000000000000000000000000000000000000000000000000000000000000000000000001000000000000000000000000000000000000000000000000000000000002000000000000000000000000000000000000000000000000000020000000000000000000000000000000000000000000000000000000000000000000",
      "type": "0x2",
      "transactionHash": "0x33aa149050bc7e097e5e946a05c8dce94b856a986a617ac4510d95d801bac1e6",
      "transactionIndex": "0x28",
      "blockHash": "0xae1214af7e1786eec79a0f783258341aa6fed5ce62e1fbb184ac141117824191",
      "blockNumber": "0x148a8bd",
      "gasUsed": "0x1099f",
      "effectiveGasPrice": "0xe5cc5",
      "from": "0xecba9756092b7851f4918ec6bab2085b8f88b8ff",
      "to": "0x67cb1114b0e1adb17fe03612f2b79f307ba4cf11",
      "contractAddress": null,
      "l1BaseFeeScalar": "0x44d",
      "l1BlobBaseFee": "0xfe0f2f01d8",
      "l1BlobBaseFeeScalar": "0xa118b",
      "l1Fee": "0x419eafeb2992",
      "l1GasPrice": "0x139e12a12c",
      "l1GasUsed": "0x640"
    },
    {
      "status": "0x1",
      "cumulativeGasUsed": "0x5cb971",
      "logs": [
        {
          "address": "0x67cb1114b0e1adb17fe03612f2b79f307ba4cf11",
          "topics": [
            "0xddf252ad1be2c89b69c2b068fc378daa952ba7f163c4a11628f55a4df523b3ef",
            "0x000000000000000000000000ecba9756092b7851f4918ec6bab2085b8f88b8ff",
            "0x000000000000000000000000bb02a9d6a71a847d587ce4dbb92f32f79c2efb2a"
          ],
          "data": "0x00000000000000000000000000000000000000000000003635c9adc5dea00000",
          "blockHash": "0xae1214af7e1786eec79a0f783258341aa6fed5ce62e1fbb184ac141117824191",
          "blockNumber": "0x148a8bd",
          "transactionHash": "0x053a64291d398fbfbafee939af4792406263270e2efbe20ac2c78712034128ea",
          "transactionIndex": "0x29",
          "logIndex": "0x7e",
          "removed": false
        }
      ],
      "logsBloom": "0x00000000000000000000000000000000000000000000000000000000000000000000000000000000001000000000000000000000000000008000000004000000000000000000000000000008000000000000000000000000000000000000000000000000000000000000000000000020001000000000000000000011000000000000000000000000000000000000000000000000000000000000000000000000000000000001000000000000000000000000000000000000000000000000000000008002000000020000000000000000000000000000000000000000000000000000000000000000000000000000000000000000000000000000000000000000",
      "type": "0x2",
      "transactionHash": "0x053a64291d398fbfbafee939af4792406263270e2efbe20ac2c78712034128ea",
      "transactionIndex": "0x29",
      "blockHash": "0xae1214af7e1786eec79a0f783258341aa6fed5ce62e1fbb184ac141117824191",
      "blockNumber": "0x148a8bd",
      "gasUsed": "0xc9aa",
      "effectiveGasPrice": "0xe5cc5",
      "from": "0xecba9756092b7851f4918ec6bab2085b8f88b8ff",
      "to": "0x67cb1114b0e1adb17fe03612f2b79f307ba4cf11",
      "contractAddress": null,
      "l1BaseFeeScalar": "0x44d",
      "l1BlobBaseFee": "0xfe0f2f01d8",
      "l1BlobBaseFeeScalar": "0xa118b",
      "l1Fee": "0x419eafeb2992",
      "l1GasPrice": "0x139e12a12c",
      "l1GasUsed": "0x640"
    },
    {
      "status": "0x1",
      "cumulativeGasUsed": "0x5d831b",
      "logs": [
        {
          "address": "0x67cb1114b0e1adb17fe03612f2b79f307ba4cf11",
          "topics": [
            "0xddf252ad1be2c89b69c2b068fc378daa952ba7f163c4a11628f55a4df523b3ef",
            "0x000000000000000000000000ecba9756092b7851f4918ec6bab2085b8f88b8ff",
            "0x000000000000000000000000b47cfcf8181d36117142b83d31bbbf63b1b250fe"
          ],
          "data": "0x00000000000000000000000000000000000000000000003635c9adc5dea00000",
          "blockHash": "0xae1214af7e1786eec79a0f783258341aa6fed5ce62e1fbb184ac141117824191",
          "blockNumber": "0x148a8bd",
          "transactionHash": "0x8ef908f0a3b75f45dd22aeb56e9eb376be2a1da3d69a49ca5fd93fdd4ba4d921",
          "transactionIndex": "0x2a",
          "logIndex": "0x7f",
          "removed": false
        }
      ],
      "logsBloom": "0x00000000000000000000000000000000000000000000000000000000000000000000000000000000081000000000000000000000000000000000000004000000000000000000000000000008000000000000000000800000000000000000000000000000000000000000000000000020001000000000000000000011000000000000000000000000000000000000000000000000000000000000000000000000000000000001000000000000000000000000000000000000000000000000000000000002000000000000000000000000000000000000000000000000000000000000000000000000000000000000000000000000000001000000000000000000",
      "type": "0x2",
      "transactionHash": "0x8ef908f0a3b75f45dd22aeb56e9eb376be2a1da3d69a49ca5fd93fdd4ba4d921",
      "transactionIndex": "0x2a",
      "blockHash": "0xae1214af7e1786eec79a0f783258341aa6fed5ce62e1fbb184ac141117824191",
      "blockNumber": "0x148a8bd",
      "gasUsed": "0xc9aa",
      "effectiveGasPrice": "0xe5cc5",
      "from": "0xecba9756092b7851f4918ec6bab2085b8f88b8ff",
      "to": "0x67cb1114b0e1adb17fe03612f2b79f307ba4cf11",
      "contractAddress": null,
      "l1BaseFeeScalar": "0x44d",
      "l1BlobBaseFee": "0xfe0f2f01d8",
      "l1BlobBaseFeeScalar": "0xa118b",
      "l1Fee": "0x419eafeb2992",
      "l1GasPrice": "0x139e12a12c",
      "l1GasUsed": "0x640"
    },
    {
      "status": "0x1",
      "cumulativeGasUsed": "0x5e4cc5",
      "logs": [
        {
          "address": "0x67cb1114b0e1adb17fe03612f2b79f307ba4cf11",
          "topics": [
            "0xddf252ad1be2c89b69c2b068fc378daa952ba7f163c4a11628f55a4df523b3ef",
            "0x000000000000000000000000ecba9756092b7851f4918ec6bab2085b8f88b8ff",
            "0x000000000000000000000000b1afd5179ac5d755c2da5bd2f961f5520647aeb2"
          ],
          "data": "0x00000000000000000000000000000000000000000000003635c9adc5dea00000",
          "blockHash": "0xae1214af7e1786eec79a0f783258341aa6fed5ce62e1fbb184ac141117824191",
          "blockNumber": "0x148a8bd",
          "transactionHash": "0x7e641ef0dd005548fc0dc14ea87193b3f81ff1670ea3eeaefaa1a9d91be9f3e0",
          "transactionIndex": "0x2b",
          "logIndex": "0x80",
          "removed": false
        }
      ],
      "logsBloom": "0x00000100000000000000000000000000000000000000000000000000000000000000000000000000001000000000000000000000000000000000000004000000000000000000000000000008000000000000000000000000000000000000000000000000000000000000000000000020001000000000000000000011000000000000000000000000000000000000000000000000000000000000000000000000000000000001000000000000000200000040000000000000000000000000000000000002000000000000000000000000000000000000000000000000000000000000000000000000000000000000000000000000000000000000000000000000",
      "type": "0x2",
      "transactionHash": "0x7e641ef0dd005548fc0dc14ea87193b3f81ff1670ea3eeaefaa1a9d91be9f3e0",
      "transactionIndex": "0x2b",
      "blockHash": "0xae1214af7e1786eec79a0f783258341aa6fed5ce62e1fbb184ac141117824191",
      "blockNumber": "0x148a8bd",
      "gasUsed": "0xc9aa",
      "effectiveGasPrice": "0xe5cc5",
      "from": "0xecba9756092b7851f4918ec6bab2085b8f88b8ff",
      "to": "0x67cb1114b0e1adb17fe03612f2b79f307ba4cf11",
      "contractAddress": null,
      "l1BaseFeeScalar": "0x44d",
      "l1BlobBaseFee": "0xfe0f2f01d8",
      "l1BlobBaseFeeScalar": "0xa118b",
      "l1Fee": "0x419eafeb2992",
      "l1GasPrice": "0x139e12a12c",
      "l1GasUsed": "0x640"
    },
    {
      "status": "0x1",
      "cumulativeGasUsed": "0x5f03af",
      "logs": [
        {
          "address": "0x67cb1114b0e1adb17fe03612f2b79f307ba4cf11",
          "topics": [
            "0xddf252ad1be2c89b69c2b068fc378daa952ba7f163c4a11628f55a4df523b3ef",
            "0x000000000000000000000000ecba9756092b7851f4918ec6bab2085b8f88b8ff",
            "0x000000000000000000000000bd4114d7521f80c4bad67f5ece1c843627078791"
          ],
          "data": "0x00000000000000000000000000000000000000000000003635c9adc5dea00000",
          "blockHash": "0xae1214af7e1786eec79a0f783258341aa6fed5ce62e1fbb184ac141117824191",
          "blockNumber": "0x148a8bd",
          "transactionHash": "0xd793ac540f8c5aa25d3f461ff33b63dcaf27a05c7d26b524139f7149bb3ab1fe",
          "transactionIndex": "0x2c",
          "logIndex": "0x81",
          "removed": false
        }
      ],
      "logsBloom": "0x00000800000000000000000000000000000000000000000000000000000000000000000000000000001000000000000000000000000000000000000004000000000400000000000000000008000000000000000000000000000000000000000000000000000000000000000000000020001000000000000000000013000000000000000000000000000000000000000000000000000000000000000000000000000000000001000000000000000000000000000000000000000000000000000000000002000000000000000000000000000000000000000000000000000000000000000000000000000000000000000000000000000000000000000000000000",
      "type": "0x2",
      "transactionHash": "0xd793ac540f8c5aa25d3f461ff33b63dcaf27a05c7d26b524139f7149bb3ab1fe",
      "transactionIndex": "0x2c",
      "blockHash": "0xae1214af7e1786eec79a0f783258341aa6fed5ce62e1fbb184ac141117824191",
      "blockNumber": "0x148a8bd",
      "gasUsed": "0xb6ea",
      "effectiveGasPrice": "0xe5cc5",
      "from": "0xecba9756092b7851f4918ec6bab2085b8f88b8ff",
      "to": "0x67cb1114b0e1adb17fe03612f2b79f307ba4cf11",
      "contractAddress": null,
      "l1BaseFeeScalar": "0x44d",
      "l1BlobBaseFee": "0xfe0f2f01d8",
      "l1BlobBaseFeeScalar": "0xa118b",
      "l1Fee": "0x419eafeb2992",
      "l1GasPrice": "0x139e12a12c",
      "l1GasUsed": "0x640"
    }
  ],
  "libraries": [],
  "pending": [],
  "returns": {},
  "timestamp": 1738846300,
  "chain": 84532,
  "commit": "270a582"
}