{
  "transactions": [
    {
      "hash": "0x0f41683d90ab6cf0375d98369f8aba66bfca4263c3686656e38af12a8c2f6179",
      "transactionType": "CALL",
      "contractName": null,
      "contractAddress": "0xa981adb90aa87645f6b9d0432d856c4a32fa0528",
      "function": "mint(uint256)",
      "arguments": [
        "4000000000000000000000"
      ],
      "transaction": {
        "from": "0xecba9756092b7851f4918ec6bab2085b8f88b8ff",
        "to": "0xa981adb90aa87645f6b9d0432d856c4a32fa0528",
        "gas": "0x16ee2",
        "value": "0x0",
        "input": "0xa0712d680000000000000000000000000000000000000000000000d8d726b7177a800000",
        "nonce": "0x6c",
        "chainId": "0x14a34"
      },
      "additionalContracts": [],
      "isFixedGasLimit": false
    },
    {
      "hash": "0xa3c56d08e20801fbeb7ba071a64b2b7ebfcb02ef833b9acf704011ac55a89cc1",
      "transactionType": "CALL",
      "contractName": null,
      "contractAddress": "0xa981adb90aa87645f6b9d0432d856c4a32fa0528",
      "function": "transfer(address,uint256)",
      "arguments": [
        "0xbb02a9D6A71A847D587cE4Dbb92F32f79c2EfB2a",
        "1000000000000000000000"
      ],
      "transaction": {
        "from": "0xecba9756092b7851f4918ec6bab2085b8f88b8ff",
        "to": "0xa981adb90aa87645f6b9d0432d856c4a32fa0528",
        "gas": "0x126ee",
        "value": "0x0",
        "input": "0xa9059cbb000000000000000000000000bb02a9d6a71a847d587ce4dbb92f32f79c2efb2a00000000000000000000000000000000000000000000003635c9adc5dea00000",
        "nonce": "0x6d",
        "chainId": "0x14a34"
      },
      "additionalContracts": [],
      "isFixedGasLimit": false
    },
    {
      "hash": "0xd3e13c7b39e954e973dceff780d79cd990416a20c441e63d5f2b5b469f9ac449",
      "transactionType": "CALL",
      "contractName": null,
      "contractAddress": "0xa981adb90aa87645f6b9d0432d856c4a32fa0528",
      "function": "transfer(address,uint256)",
      "arguments": [
        "0xb47CFCf8181D36117142b83D31BBBF63B1b250fE",
        "1000000000000000000000"
      ],
      "transaction": {
        "from": "0xecba9756092b7851f4918ec6bab2085b8f88b8ff",
        "to": "0xa981adb90aa87645f6b9d0432d856c4a32fa0528",
        "gas": "0x126ee",
        "value": "0x0",
        "input": "0xa9059cbb000000000000000000000000b47cfcf8181d36117142b83d31bbbf63b1b250fe00000000000000000000000000000000000000000000003635c9adc5dea00000",
        "nonce": "0x6e",
        "chainId": "0x14a34"
      },
      "additionalContracts": [],
      "isFixedGasLimit": false
    },
    {
      "hash": "0x4af8eeaaf25613288b9edfbe975dc421301389b566b9af550de9e59a6117630c",
      "transactionType": "CALL",
      "contractName": null,
      "contractAddress": "0xa981adb90aa87645f6b9d0432d856c4a32fa0528",
      "function": "transfer(address,uint256)",
      "arguments": [
        "0xb1AfD5179ac5D755C2da5bd2F961F5520647aEB2",
        "1000000000000000000000"
      ],
      "transaction": {
        "from": "0xecba9756092b7851f4918ec6bab2085b8f88b8ff",
        "to": "0xa981adb90aa87645f6b9d0432d856c4a32fa0528",
        "gas": "0x126ee",
        "value": "0x0",
        "input": "0xa9059cbb000000000000000000000000b1afd5179ac5d755c2da5bd2f961f5520647aeb200000000000000000000000000000000000000000000003635c9adc5dea00000",
        "nonce": "0x6f",
        "chainId": "0x14a34"
      },
      "additionalContracts": [],
      "isFixedGasLimit": false
    },
    {
      "hash": "0x2a03625636a3ca2fc521382def98cd041f66489ec6ec773d829f29438ff9ddb0",
      "transactionType": "CALL",
      "contractName": null,
      "contractAddress": "0xa981adb90aa87645f6b9d0432d856c4a32fa0528",
      "function": "transfer(address,uint256)",
      "arguments": [
        "0xBd4114D7521F80C4bad67F5ECE1C843627078791",
        "1000000000000000000000"
      ],
      "transaction": {
        "from": "0xecba9756092b7851f4918ec6bab2085b8f88b8ff",
        "to": "0xa981adb90aa87645f6b9d0432d856c4a32fa0528",
        "gas": "0x10b82",
        "value": "0x0",
        "input": "0xa9059cbb000000000000000000000000bd4114d7521f80c4bad67f5ece1c84362707879100000000000000000000000000000000000000000000003635c9adc5dea00000",
        "nonce": "0x70",
        "chainId": "0x14a34"
      },
      "additionalContracts": [],
      "isFixedGasLimit": false
    }
  ],
  "receipts": [
    {
      "status": "0x1",
      "cumulativeGasUsed": "0x9c1d1a",
      "logs": [
        {
          "address": "0xa981adb90aa87645f6b9d0432d856c4a32fa0528",
          "topics": [
            "0xddf252ad1be2c89b69c2b068fc378daa952ba7f163c4a11628f55a4df523b3ef",
            "0x0000000000000000000000000000000000000000000000000000000000000000",
            "0x000000000000000000000000ecba9756092b7851f4918ec6bab2085b8f88b8ff"
          ],
          "data": "0x0000000000000000000000000000000000000000000000d8d726b7177a800000",
          "blockHash": "0x29bca16caa70f52f0fe37bb1b4b708ee82bf364b888c31376504ceb2e16c73cd",
          "blockNumber": "0x1486616",
          "transactionHash": "0x0f41683d90ab6cf0375d98369f8aba66bfca4263c3686656e38af12a8c2f6179",
          "transactionIndex": "0x32",
          "logIndex": "0x97",
          "removed": false
        }
      ],
      "logsBloom": "0x00000000000000000020000000000000000000000000000000000000000000000000000000000000001000000000000008000000000000000000000000000000000000000000000000000008000000000000000000000000000000000000000000000000020000000000000000000800001000000000000000000010000000000000000000000000100000000000000000000000000000000000000000000000000000000001000000000000000000000000000000000000000000000000000000000002000000000000000000000000000000000000000000000000000020000000000000000000000000000000000000000000000000000000000000000000",
      "type": "0x2",
      "transactionHash": "0x0f41683d90ab6cf0375d98369f8aba66bfca4263c3686656e38af12a8c2f6179",
      "transactionIndex": "0x32",
      "blockHash": "0x29bca16caa70f52f0fe37bb1b4b708ee82bf364b888c31376504ceb2e16c73cd",
      "blockNumber": "0x1486616",
      "gasUsed": "0x1099f",
      "effectiveGasPrice": "0x18876",
      "from": "0xecba9756092b7851f4918ec6bab2085b8f88b8ff",
      "to": "0xa981adb90aa87645f6b9d0432d856c4a32fa0528",
      "contractAddress": null,
      "l1BaseFeeScalar": "0x44d",
      "l1BlobBaseFee": "0x211bd",
      "l1BlobBaseFeeScalar": "0xa118b",
      "l1Fee": "0xb278329f",
      "l1GasPrice": "0x65021d72",
      "l1GasUsed": "0x640"
    },
    {
      "status": "0x1",
      "cumulativeGasUsed": "0x9e4dd8",
      "logs": [
        {
          "address": "0xa981adb90aa87645f6b9d0432d856c4a32fa0528",
          "topics": [
            "0xddf252ad1be2c89b69c2b068fc378daa952ba7f163c4a11628f55a4df523b3ef",
            "0x000000000000000000000000ecba9756092b7851f4918ec6bab2085b8f88b8ff",
            "0x000000000000000000000000bb02a9d6a71a847d587ce4dbb92f32f79c2efb2a"
          ],
          "data": "0x00000000000000000000000000000000000000000000003635c9adc5dea00000",
          "blockHash": "0x29bca16caa70f52f0fe37bb1b4b708ee82bf364b888c31376504ceb2e16c73cd",
          "blockNumber": "0x1486616",
          "transactionHash": "0xa3c56d08e20801fbeb7ba071a64b2b7ebfcb02ef833b9acf704011ac55a89cc1",
          "transactionIndex": "0x35",
          "logIndex": "0x9a",
          "removed": false
        }
      ],
      "logsBloom": "0x00000000000000000020000000000000000000000000000000000000000000000000000000000000001000000000000008000000000000008000000000000000000000000000000000000008000000000000000000000000000000000000000000000000000000000000000000000000001000000000000000000010000000000000000000000000100000000000000000000000000000000000000000000000000000000001000000000000000000000000000000000000000000000000000000008002000000020000000000000000000000000000000000000000000000000000000000000000000000000000000000000000000000000000000000000000",
      "type": "0x2",
      "transactionHash": "0xa3c56d08e20801fbeb7ba071a64b2b7ebfcb02ef833b9acf704011ac55a89cc1",
      "transactionIndex": "0x35",
      "blockHash": "0x29bca16caa70f52f0fe37bb1b4b708ee82bf364b888c31376504ceb2e16c73cd",
      "blockNumber": "0x1486616",
      "gasUsed": "0xc9aa",
      "effectiveGasPrice": "0x18876",
      "from": "0xecba9756092b7851f4918ec6bab2085b8f88b8ff",
      "to": "0xa981adb90aa87645f6b9d0432d856c4a32fa0528",
      "contractAddress": null,
      "l1BaseFeeScalar": "0x44d",
      "l1BlobBaseFee": "0x211bd",
      "l1BlobBaseFeeScalar": "0xa118b",
      "l1Fee": "0xb278329f",
      "l1GasPrice": "0x65021d72",
      "l1GasUsed": "0x640"
    },
    {
      "status": "0x1",
      "cumulativeGasUsed": "0x9f1782",
      "logs": [
        {
          "address": "0xa981adb90aa87645f6b9d0432d856c4a32fa0528",
          "topics": [
            "0xddf252ad1be2c89b69c2b068fc378daa952ba7f163c4a11628f55a4df523b3ef",
            "0x000000000000000000000000ecba9756092b7851f4918ec6bab2085b8f88b8ff",
            "0x000000000000000000000000b47cfcf8181d36117142b83d31bbbf63b1b250fe"
          ],
          "data": "0x00000000000000000000000000000000000000000000003635c9adc5dea00000",
          "blockHash": "0x29bca16caa70f52f0fe37bb1b4b708ee82bf364b888c31376504ceb2e16c73cd",
          "blockNumber": "0x1486616",
          "transactionHash": "0xd3e13c7b39e954e973dceff780d79cd990416a20c441e63d5f2b5b469f9ac449",
          "transactionIndex": "0x36",
          "logIndex": "0x9b",
          "removed": false
        }
      ],
      "logsBloom": "0x00000000000000000020000000000000000000000000000000000000000000000000000000000000081000000000000008000000000000000000000000000000000000000000000000000008000000000000000000800000000000000000000000000000000000000000000000000000001000000000000000000010000000000000000000000000100000000000000000000000000000000000000000000000000000000001000000000000000000000000000000000000000000000000000000000002000000000000000000000000000000000000000000000000000000000000000000000000000000000000000000000000000001000000000000000000",
      "type": "0x2",
      "transactionHash": "0xd3e13c7b39e954e973dceff780d79cd990416a20c441e63d5f2b5b469f9ac449",
      "transactionIndex": "0x36",
      "blockHash": "0x29bca16caa70f52f0fe37bb1b4b708ee82bf364b888c31376504ceb2e16c73cd",
      "blockNumber": "0x1486616",
      "gasUsed": "0xc9aa",
      "effectiveGasPrice": "0x18876",
      "from": "0xecba9756092b7851f4918ec6bab2085b8f88b8ff",
      "to": "0xa981adb90aa87645f6b9d0432d856c4a32fa0528",
      "contractAddress": null,
      "l1BaseFeeScalar": "0x44d",
      "l1BlobBaseFee": "0x211bd",
      "l1BlobBaseFeeScalar": "0xa118b",
      "l1Fee": "0xb278329f",
      "l1GasPrice": "0x65021d72",
      "l1GasUsed": "0x640"
    },
    {
      "status": "0x1",
      "cumulativeGasUsed": "0x9fe12c",
      "logs": [
        {
          "address": "0xa981adb90aa87645f6b9d0432d856c4a32fa0528",
          "topics": [
            "0xddf252ad1be2c89b69c2b068fc378daa952ba7f163c4a11628f55a4df523b3ef",
            "0x000000000000000000000000ecba9756092b7851f4918ec6bab2085b8f88b8ff",
            "0x000000000000000000000000b1afd5179ac5d755c2da5bd2f961f5520647aeb2"
          ],
          "data": "0x00000000000000000000000000000000000000000000003635c9adc5dea00000",
          "blockHash": "0x29bca16caa70f52f0fe37bb1b4b708ee82bf364b888c31376504ceb2e16c73cd",
          "blockNumber": "0x1486616",
          "transactionHash": "0x4af8eeaaf25613288b9edfbe975dc421301389b566b9af550de9e59a6117630c",
          "transactionIndex": "0x37",
          "logIndex": "0x9c",
          "removed": false
        }
      ],
      "logsBloom": "0x00000100000000000020000000000000000000000000000000000000000000000000000000000000001000000000000008000000000000000000000000000000000000000000000000000008000000000000000000000000000000000000000000000000000000000000000000000000001000000000000000000010000000000000000000000000100000000000000000000000000000000000000000000000000000000001000000000000000200000040000000000000000000000000000000000002000000000000000000000000000000000000000000000000000000000000000000000000000000000000000000000000000000000000000000000000",
      "type": "0x2",
      "transactionHash": "0x4af8eeaaf25613288b9edfbe975dc421301389b566b9af550de9e59a6117630c",
      "transactionIndex": "0x37",
      "blockHash": "0x29bca16caa70f52f0fe37bb1b4b708ee82bf364b888c31376504ceb2e16c73cd",
      "blockNumber": "0x1486616",
      "gasUsed": "0xc9aa",
      "effectiveGasPrice": "0x18876",
      "from": "0xecba9756092b7851f4918ec6bab2085b8f88b8ff",
      "to": "0xa981adb90aa87645f6b9d0432d856c4a32fa0528",
      "contractAddress": null,
      "l1BaseFeeScalar": "0x44d",
      "l1BlobBaseFee": "0x211bd",
      "l1BlobBaseFeeScalar": "0xa118b",
      "l1Fee": "0xb278329f",
      "l1GasPrice": "0x65021d72",
      "l1GasUsed": "0x640"
    },
    {
      "status": "0x1",
      "cumulativeGasUsed": "0xa09816",
      "logs": [
        {
          "address": "0xa981adb90aa87645f6b9d0432d856c4a32fa0528",
          "topics": [
            "0xddf252ad1be2c89b69c2b068fc378daa952ba7f163c4a11628f55a4df523b3ef",
            "0x000000000000000000000000ecba9756092b7851f4918ec6bab2085b8f88b8ff",
            "0x000000000000000000000000bd4114d7521f80c4bad67f5ece1c843627078791"
          ],
          "data": "0x00000000000000000000000000000000000000000000003635c9adc5dea00000",
          "blockHash": "0x29bca16caa70f52f0fe37bb1b4b708ee82bf364b888c31376504ceb2e16c73cd",
          "blockNumber": "0x1486616",
          "transactionHash": "0x2a03625636a3ca2fc521382def98cd041f66489ec6ec773d829f29438ff9ddb0",
          "transactionIndex": "0x38",
          "logIndex": "0x9d",
          "removed": false
        }
      ],
      "logsBloom": "0x00000800000000000020000000000000000000000000000000000000000000000000000000000000001000000000000008000000000000000000000000000000000400000000000000000008000000000000000000000000000000000000000000000000000000000000000000000000001000000000000000000012000000000000000000000000100000000000000000000000000000000000000000000000000000000001000000000000000000000000000000000000000000000000000000000002000000000000000000000000000000000000000000000000000000000000000000000000000000000000000000000000000000000000000000000000",
      "type": "0x2",
      "transactionHash": "0x2a03625636a3ca2fc521382def98cd041f66489ec6ec773d829f29438ff9ddb0",
      "transactionIndex": "0x38",
      "blockHash": "0x29bca16caa70f52f0fe37bb1b4b708ee82bf364b888c31376504ceb2e16c73cd",
      "blockNumber": "0x1486616",
      "gasUsed": "0xb6ea",
      "effectiveGasPrice": "0x18876",
      "from": "0xecba9756092b7851f4918ec6bab2085b8f88b8ff",
      "to": "0xa981adb90aa87645f6b9d0432d856c4a32fa0528",
      "contractAddress": null,
      "l1BaseFeeScalar": "0x44d",
      "l1BlobBaseFee": "0x211bd",
      "l1BlobBaseFeeScalar": "0xa118b",
      "l1Fee": "0xb278329f",
      "l1GasPrice": "0x65021d72",
      "l1GasUsed": "0x640"
    }
  ],
  "libraries": [],
  "pending": [],
  "returns": {},
  "timestamp": 1738812172,
  "chain": 84532,
  "commit": "e3ad21d"
}