{
  "transactions": [
    {
      "hash": "0x5f1a6254c5a06671d8da89c06ac4270de8f2f546e050175dcf855faf3e0fd8ec",
      "transactionType": "CALL",
      "contractName": null,
      "contractAddress": "0xc52d3f65ad9b25ce99bc9992f262aeaad10bccc8",
      "function": "mint(uint256)",
      "arguments": [
        "4000000000000000000000"
      ],
      "transaction": {
        "from": "0xecba9756092b7851f4918ec6bab2085b8f88b8ff",
        "to": "0xc52d3f65ad9b25ce99bc9992f262aeaad10bccc8",
        "gas": "0x122c7",
        "value": "0x0",
        "input": "0xa0712d680000000000000000000000000000000000000000000000d8d726b7177a800000",
        "nonce": "0x17",
        "chainId": "0x14a34"
      },
      "additionalContracts": [],
      "isFixedGasLimit": false
    },
    {
      "hash": "0xca8f5c1215ea9cffe7076db2c6decab73166101df6f3757f9860008d198aa5d4",
      "transactionType": "CALL",
      "contractName": null,
      "contractAddress": "0xc52d3f65ad9b25ce99bc9992f262aeaad10bccc8",
      "function": "transfer(address,uint256)",
      "arguments": [
        "0xbb02a9D6A71A847D587cE4Dbb92F32f79c2EfB2a",
        "1000000000000000000000"
      ],
      "transaction": {
        "from": "0xecba9756092b7851f4918ec6bab2085b8f88b8ff",
        "to": "0xc52d3f65ad9b25ce99bc9992f262aeaad10bccc8",
        "gas": "0xba47",
        "value": "0x0",
        "input": "0xa9059cbb000000000000000000000000bb02a9d6a71a847d587ce4dbb92f32f79c2efb2a00000000000000000000000000000000000000000000003635c9adc5dea00000",
        "nonce": "0x18",
        "chainId": "0x14a34"
      },
      "additionalContracts": [],
      "isFixedGasLimit": false
    },
    {
      "hash": "0xda8a419881785962f1e33daff211d7957649493d6d21a54c546f646c255d818d",
      "transactionType": "CALL",
      "contractName": null,
      "contractAddress": "0xc52d3f65ad9b25ce99bc9992f262aeaad10bccc8",
      "function": "transfer(address,uint256)",
      "arguments": [
        "0xb47CFCf8181D36117142b83D31BBBF63B1b250fE",
        "1000000000000000000000"
      ],
      "transaction": {
        "from": "0xecba9756092b7851f4918ec6bab2085b8f88b8ff",
        "to": "0xc52d3f65ad9b25ce99bc9992f262aeaad10bccc8",
        "gas": "0xba47",
        "value": "0x0",
        "input": "0xa9059cbb000000000000000000000000b47cfcf8181d36117142b83d31bbbf63b1b250fe00000000000000000000000000000000000000000000003635c9adc5dea00000",
        "nonce": "0x19",
        "chainId": "0x14a34"
      },
      "additionalContracts": [],
      "isFixedGasLimit": false
    },
    {
      "hash": "0xe34fa4e4e4d4cf829173a05d7d016ae650dcd402c9371f45e4d56f9cf7bf812d",
      "transactionType": "CALL",
      "contractName": null,
      "contractAddress": "0xc52d3f65ad9b25ce99bc9992f262aeaad10bccc8",
      "function": "transfer(address,uint256)",
      "arguments": [
        "0xb1AfD5179ac5D755C2da5bd2F961F5520647aEB2",
        "1000000000000000000000"
      ],
      "transaction": {
        "from": "0xecba9756092b7851f4918ec6bab2085b8f88b8ff",
        "to": "0xc52d3f65ad9b25ce99bc9992f262aeaad10bccc8",
        "gas": "0xba47",
        "value": "0x0",
        "input": "0xa9059cbb000000000000000000000000b1afd5179ac5d755c2da5bd2f961f5520647aeb200000000000000000000000000000000000000000000003635c9adc5dea00000",
        "nonce": "0x1a",
        "chainId": "0x14a34"
      },
      "additionalContracts": [],
      "isFixedGasLimit": false
    },
    {
      "hash": "0xa9d2be4ace76bd97e945526009a5ad49ab5a25706c0d12b75db916a82b7690b3",
      "transactionType": "CALL",
      "contractName": null,
      "contractAddress": "0xc52d3f65ad9b25ce99bc9992f262aeaad10bccc8",
      "function": "transfer(address,uint256)",
      "arguments": [
        "0xBd4114D7521F80C4bad67F5ECE1C843627078791",
        "1000000000000000000000"
      ],
      "transaction": {
        "from": "0xecba9756092b7851f4918ec6bab2085b8f88b8ff",
        "to": "0xc52d3f65ad9b25ce99bc9992f262aeaad10bccc8",
        "gas": "0xa061",
        "value": "0x0",
        "input": "0xa9059cbb000000000000000000000000bd4114d7521f80c4bad67f5ece1c84362707879100000000000000000000000000000000000000000000003635c9adc5dea00000",
        "nonce": "0x1b",
        "chainId": "0x14a34"
      },
      "additionalContracts": [],
      "isFixedGasLimit": false
    }
  ],
  "receipts": [
    {
      "status": "0x1",
      "cumulativeGasUsed": "0x3b145a",
      "logs": [
        {
          "address": "0xc52d3f65ad9b25ce99bc9992f262aeaad10bccc8",
          "topics": [
            "0xddf252ad1be2c89b69c2b068fc378daa952ba7f163c4a11628f55a4df523b3ef",
            "0x0000000000000000000000000000000000000000000000000000000000000000",
            "0x000000000000000000000000ecba9756092b7851f4918ec6bab2085b8f88b8ff"
          ],
          "data": "0x0000000000000000000000000000000000000000000000d8d726b7177a800000",
          "blockHash": "0xbded9fe6b00810856d43cd82dc62a3b1c5ee218470084028397cd861b4f7189c",
          "blockNumber": "0x14702ef",
          "transactionHash": "0x5f1a6254c5a06671d8da89c06ac4270de8f2f546e050175dcf855faf3e0fd8ec",
          "transactionIndex": "0x1e",
          "logIndex": "0x50",
          "removed": false
        }
      ],
      "logsBloom": "0x00000000000000000000000000000000000000000000000000000000000000000000000000000000001000000000000000080000000000000000000000000000000000000000000000000008000000000000000000000000000000000000000000000000020000000000000000000800001000000000000000000010000000000000000000000000000000000000000000000000000000000000000000000000000000000001000000000000000000000000000000000000000000000000000000000002000000000040000000000000000000000000000000000000000020000000000000000000000000000000400000000000000000000000000000000000",
      "type": "0x2",
      "transactionHash": "0x5f1a6254c5a06671d8da89c06ac4270de8f2f546e050175dcf855faf3e0fd8ec",
      "transactionIndex": "0x1e",
      "blockHash": "0xbded9fe6b00810856d43cd82dc62a3b1c5ee218470084028397cd861b4f7189c",
      "blockNumber": "0x14702ef",
      "gasUsed": "0xc6d3",
      "effectiveGasPrice": "0x735",
      "from": "0xecba9756092b7851f4918ec6bab2085b8f88b8ff",
      "to": "0xc52d3f65ad9b25ce99bc9992f262aeaad10bccc8",
      "contractAddress": null,
      "l1BaseFeeScalar": "0x44d",
      "l1BlobBaseFee": "0x1",
      "l1BlobBaseFeeScalar": "0xa118b",
      "l1Fee": "0x6f23f765",
      "l1GasPrice": "0x3f1734de",
      "l1GasUsed": "0x640"
    },
    {
      "status": "0x1",
      "cumulativeGasUsed": "0x3b9b38",
      "logs": [
        {
          "address": "0xc52d3f65ad9b25ce99bc9992f262aeaad10bccc8",
          "topics": [
            "0xddf252ad1be2c89b69c2b068fc378daa952ba7f163c4a11628f55a4df523b3ef",
            "0x000000000000000000000000ecba9756092b7851f4918ec6bab2085b8f88b8ff",
            "0x000000000000000000000000bb02a9d6a71a847d587ce4dbb92f32f79c2efb2a"
          ],
          "data": "0x00000000000000000000000000000000000000000000003635c9adc5dea00000",
          "blockHash": "0xbded9fe6b00810856d43cd82dc62a3b1c5ee218470084028397cd861b4f7189c",
          "blockNumber": "0x14702ef",
          "transactionHash": "0xca8f5c1215ea9cffe7076db2c6decab73166101df6f3757f9860008d198aa5d4",
          "transactionIndex": "0x1f",
          "logIndex": "0x51",
          "removed": false
        }
      ],
      "logsBloom": "0x00000000000000000000000000000000000000000000000000000000000000000000000000000000001000000000000000080000000000008000000000000000000000000000000000000008000000000000000000000000000000000000000000000000000000000000000000000000001000000000000000000010000000000000000000000000000000000000000000000000000000000000000000000000000000000001000000000000000000000000000000000000000000000000000000008002000000020040000000000000000000000000000000000000000000000000000000000000000000000000400000000000000000000000000000000000",
      "type": "0x2",
      "transactionHash": "0xca8f5c1215ea9cffe7076db2c6decab73166101df6f3757f9860008d198aa5d4",
      "transactionIndex": "0x1f",
      "blockHash": "0xbded9fe6b00810856d43cd82dc62a3b1c5ee218470084028397cd861b4f7189c",
      "blockNumber": "0x14702ef",
      "gasUsed": "0x86de",
      "effectiveGasPrice": "0x735",
      "from": "0xecba9756092b7851f4918ec6bab2085b8f88b8ff",
      "to": "0xc52d3f65ad9b25ce99bc9992f262aeaad10bccc8",
      "contractAddress": null,
      "l1BaseFeeScalar": "0x44d",
      "l1BlobBaseFee": "0x1",
      "l1BlobBaseFeeScalar": "0xa118b",
      "l1Fee": "0x6f23f765",
      "l1GasPrice": "0x3f1734de",
      "l1GasUsed": "0x640"
    },
    {
      "status": "0x1",
      "cumulativeGasUsed": "0x3c2216",
      "logs": [
        {
          "address": "0xc52d3f65ad9b25ce99bc9992f262aeaad10bccc8",
          "topics": [
            "0xddf252ad1be2c89b69c2b068fc378daa952ba7f163c4a11628f55a4df523b3ef",
            "0x000000000000000000000000ecba9756092b7851f4918ec6bab2085b8f88b8ff",
            "0x000000000000000000000000b47cfcf8181d36117142b83d31bbbf63b1b250fe"
          ],
          "data": "0x00000000000000000000000000000000000000000000003635c9adc5dea00000",
          "blockHash": "0xbded9fe6b00810856d43cd82dc62a3b1c5ee218470084028397cd861b4f7189c",
          "blockNumber": "0x14702ef",
          "transactionHash": "0xda8a419881785962f1e33daff211d7957649493d6d21a54c546f646c255d818d",
          "transactionIndex": "0x20",
          "logIndex": "0x52",
          "removed": false
        }
      ],
      "logsBloom": "0x00000000000000000000000000000000000000000000000000000000000000000000000000000000081000000000000000080000000000000000000000000000000000000000000000000008000000000000000000800000000000000000000000000000000000000000000000000000001000000000000000000010000000000000000000000000000000000000000000000000000000000000000000000000000000000001000000000000000000000000000000000000000000000000000000000002000000000040000000000000000000000000000000000000000000000000000000000000000000000000400000000000000001000000000000000000",
      "type": "0x2",
      "transactionHash": "0xda8a419881785962f1e33daff211d7957649493d6d21a54c546f646c255d818d",
      "transactionIndex": "0x20",
      "blockHash": "0xbded9fe6b00810856d43cd82dc62a3b1c5ee218470084028397cd861b4f7189c",
      "blockNumber": "0x14702ef",
      "gasUsed": "0x86de",
      "effectiveGasPrice": "0x735",
      "from": "0xecba9756092b7851f4918ec6bab2085b8f88b8ff",
      "to": "0xc52d3f65ad9b25ce99bc9992f262aeaad10bccc8",
      "contractAddress": null,
      "l1BaseFeeScalar": "0x44d",
      "l1BlobBaseFee": "0x1",
      "l1BlobBaseFeeScalar": "0xa118b",
      "l1Fee": "0x6f23f765",
      "l1GasPrice": "0x3f1734de",
      "l1GasUsed": "0x640"
    },
    {
      "status": "0x1",
      "cumulativeGasUsed": "0x3ca8f4",
      "logs": [
        {
          "address": "0xc52d3f65ad9b25ce99bc9992f262aeaad10bccc8",
          "topics": [
            "0xddf252ad1be2c89b69c2b068fc378daa952ba7f163c4a11628f55a4df523b3ef",
            "0x000000000000000000000000ecba9756092b7851f4918ec6bab2085b8f88b8ff",
            "0x000000000000000000000000b1afd5179ac5d755c2da5bd2f961f5520647aeb2"
          ],
          "data": "0x00000000000000000000000000000000000000000000003635c9adc5dea00000",
          "blockHash": "0xbded9fe6b00810856d43cd82dc62a3b1c5ee218470084028397cd861b4f7189c",
          "blockNumber": "0x14702ef",
          "transactionHash": "0xe34fa4e4e4d4cf829173a05d7d016ae650dcd402c9371f45e4d56f9cf7bf812d",
          "transactionIndex": "0x21",
          "logIndex": "0x53",
          "removed": false
        }
      ],
      "logsBloom": "0x00000100000000000000000000000000000000000000000000000000000000000000000000000000001000000000000000080000000000000000000000000000000000000000000000000008000000000000000000000000000000000000000000000000000000000000000000000000001000000000000000000010000000000000000000000000000000000000000000000000000000000000000000000000000000000001000000000000000200000040000000000000000000000000000000000002000000000040000000000000000000000000000000000000000000000000000000000000000000000000400000000000000000000000000000000000",
      "type": "0x2",
      "transactionHash": "0xe34fa4e4e4d4cf829173a05d7d016ae650dcd402c9371f45e4d56f9cf7bf812d",
      "transactionIndex": "0x21",
      "blockHash": "0xbded9fe6b00810856d43cd82dc62a3b1c5ee218470084028397cd861b4f7189c",
      "blockNumber": "0x14702ef",
      "gasUsed": "0x86de",
      "effectiveGasPrice": "0x735",
      "from": "0xecba9756092b7851f4918ec6bab2085b8f88b8ff",
      "to": "0xc52d3f65ad9b25ce99bc9992f262aeaad10bccc8",
      "contractAddress": null,
      "l1BaseFeeScalar": "0x44d",
      "l1BlobBaseFee": "0x1",
      "l1BlobBaseFeeScalar": "0xa118b",
      "l1Fee": "0x6f23f765",
      "l1GasPrice": "0x3f1734de",
      "l1GasUsed": "0x640"
    },
    {
      "status": "0x1",
      "cumulativeGasUsed": "0x3d1d12",
      "logs": [
        {
          "address": "0xc52d3f65ad9b25ce99bc9992f262aeaad10bccc8",
          "topics": [
            "0xddf252ad1be2c89b69c2b068fc378daa952ba7f163c4a11628f55a4df523b3ef",
            "0x000000000000000000000000ecba9756092b7851f4918ec6bab2085b8f88b8ff",
            "0x000000000000000000000000bd4114d7521f80c4bad67f5ece1c843627078791"
          ],
          "data": "0x00000000000000000000000000000000000000000000003635c9adc5dea00000",
          "blockHash": "0xbded9fe6b00810856d43cd82dc62a3b1c5ee218470084028397cd861b4f7189c",
          "blockNumber": "0x14702ef",
          "transactionHash": "0xa9d2be4ace76bd97e945526009a5ad49ab5a25706c0d12b75db916a82b7690b3",
          "transactionIndex": "0x22",
          "logIndex": "0x54",
          "removed": false
        }
      ],
      "logsBloom": "0x00000800000000000000000000000000000000000000000000000000000000000000000000000000001000000000000000080000000000000000000000000000000400000000000000000008000000000000000000000000000000000000000000000000000000000000000000000000001000000000000000000012000000000000000000000000000000000000000000000000000000000000000000000000000000000001000000000000000000000000000000000000000000000000000000000002000000000040000000000000000000000000000000000000000000000000000000000000000000000000400000000000000000000000000000000000",
      "type": "0x2",
      "transactionHash": "0xa9d2be4ace76bd97e945526009a5ad49ab5a25706c0d12b75db916a82b7690b3",
      "transactionIndex": "0x22",
      "blockHash": "0xbded9fe6b00810856d43cd82dc62a3b1c5ee218470084028397cd861b4f7189c",
      "blockNumber": "0x14702ef",
      "gasUsed": "0x741e",
      "effectiveGasPrice": "0x735",
      "from": "0xecba9756092b7851f4918ec6bab2085b8f88b8ff",
      "to": "0xc52d3f65ad9b25ce99bc9992f262aeaad10bccc8",
      "contractAddress": null,
      "l1BaseFeeScalar": "0x44d",
      "l1BlobBaseFee": "0x1",
      "l1BlobBaseFeeScalar": "0xa118b",
      "l1Fee": "0x6f23f765",
      "l1GasPrice": "0x3f1734de",
      "l1GasUsed": "0x640"
    }
  ],
  "libraries": [],
  "pending": [],
  "returns": {},
  "timestamp": 1738630334,
  "chain": 84532,
  "commit": "179dd92"
}