{
  "transactions": [
    {
      "hash": "0x74e4d979742ac90135b945b288f357f38e0cd95c63e9ee6b489a05a9a5bde45d",
      "transactionType": "CALL",
      "contractName": null,
      "contractAddress": "0xf806916058553b33c87d23b9e9698b4df32cb5b9",
      "function": "mint(uint256)",
      "arguments": [
        "400000000000000000000000"
      ],
      "transaction": {
        "from": "0xecba9756092b7851f4918ec6bab2085b8f88b8ff",
        "to": "0xf806916058553b33c87d23b9e9698b4df32cb5b9",
        "gas": "0x16ee2",
        "value": "0x0",
        "input": "0xa0712d680000000000000000000000000000000000000000000054b40b1f852bda000000",
        "nonce": "0x139",
        "chainId": "0x14a34"
      },
      "additionalContracts": [],
      "isFixedGasLimit": false
    },
    {
      "hash": "0x83828e4d38294ac9dbb66ace9548f8e1fd4c5c57273ba6baaae3bfebb5a75d92",
      "transactionType": "CALL",
      "contractName": null,
      "contractAddress": "0xf806916058553b33c87d23b9e9698b4df32cb5b9",
      "function": "transfer(address,uint256)",
      "arguments": [
        "0xbb02a9D6A71A847D587cE4Dbb92F32f79c2EfB2a",
        "100000000000000000000000"
      ],
      "transaction": {
        "from": "0xecba9756092b7851f4918ec6bab2085b8f88b8ff",
        "to": "0xf806916058553b33c87d23b9e9698b4df32cb5b9",
        "gas": "0x1169c",
        "value": "0x0",
        "input": "0xa9059cbb000000000000000000000000bb02a9d6a71a847d587ce4dbb92f32f79c2efb2a00000000000000000000000000000000000000000000152d02c7e14af6800000",
        "nonce": "0x13a",
        "chainId": "0x14a34"
      },
      "additionalContracts": [],
      "isFixedGasLimit": false
    },
    {
      "hash": "0x604f14052b6b846f21441cc3659f676deb9c5f08ba9f86b234b6fa0d38c51136",
      "transactionType": "CALL",
      "contractName": null,
      "contractAddress": "0xf806916058553b33c87d23b9e9698b4df32cb5b9",
      "function": "transfer(address,uint256)",
      "arguments": [
        "0xb47CFCf8181D36117142b83D31BBBF63B1b250fE",
        "100000000000000000000000"
      ],
      "transaction": {
        "from": "0xecba9756092b7851f4918ec6bab2085b8f88b8ff",
        "to": "0xf806916058553b33c87d23b9e9698b4df32cb5b9",
        "gas": "0x1169c",
        "value": "0x0",
        "input": "0xa9059cbb000000000000000000000000b47cfcf8181d36117142b83d31bbbf63b1b250fe00000000000000000000000000000000000000000000152d02c7e14af6800000",
        "nonce": "0x13b",
        "chainId": "0x14a34"
      },
      "additionalContracts": [],
      "isFixedGasLimit": false
    },
    {
      "hash": "0xf611833053865a93da5a228e120f405313f6b4ee551955999d5c570d08184661",
      "transactionType": "CALL",
      "contractName": null,
      "contractAddress": "0xf806916058553b33c87d23b9e9698b4df32cb5b9",
      "function": "transfer(address,uint256)",
      "arguments": [
        "0xb1AfD5179ac5D755C2da5bd2F961F5520647aEB2",
        "100000000000000000000000"
      ],
      "transaction": {
        "from": "0xecba9756092b7851f4918ec6bab2085b8f88b8ff",
        "to": "0xf806916058553b33c87d23b9e9698b4df32cb5b9",
        "gas": "0x1169c",
        "value": "0x0",
        "input": "0xa9059cbb000000000000000000000000b1afd5179ac5d755c2da5bd2f961f5520647aeb200000000000000000000000000000000000000000000152d02c7e14af6800000",
        "nonce": "0x13c",
        "chainId": "0x14a34"
      },
      "additionalContracts": [],
      "isFixedGasLimit": false
    },
    {
      "hash": "0x68d4ce9c10e9f2dd1d363673900da0b4a531843beb8f3d1fa6a0750c504c7af0",
      "transactionType": "CALL",
      "contractName": null,
      "contractAddress": "0xf806916058553b33c87d23b9e9698b4df32cb5b9",
      "function": "transfer(address,uint256)",
      "arguments": [
        "0xBd4114D7521F80C4bad67F5ECE1C843627078791",
        "100000000000000000000000"
      ],
      "transaction": {
        "from": "0xecba9756092b7851f4918ec6bab2085b8f88b8ff",
        "to": "0xf806916058553b33c87d23b9e9698b4df32cb5b9",
        "gas": "0xfcb6",
        "value": "0x0",
        "input": "0xa9059cbb000000000000000000000000bd4114d7521f80c4bad67f5ece1c84362707879100000000000000000000000000000000000000000000152d02c7e14af6800000",
        "nonce": "0x13d",
        "chainId": "0x14a34"
      },
      "additionalContracts": [],
      "isFixedGasLimit": false
    }
  ],
  "receipts": [
    {
      "status": "0x1",
      "cumulativeGasUsed": "0x2bb390",
      "logs": [
        {
          "address": "0xf806916058553b33c87d23b9e9698b4df32cb5b9",
          "topics": [
            "0xddf252ad1be2c89b69c2b068fc378daa952ba7f163c4a11628f55a4df523b3ef",
            "0x0000000000000000000000000000000000000000000000000000000000000000",
            "0x000000000000000000000000ecba9756092b7851f4918ec6bab2085b8f88b8ff"
          ],
          "data": "0x0000000000000000000000000000000000000000000054b40b1f852bda000000",
          "blockHash": "0xa9fe52d2ca92be316ddc127b50addb3d222bb934d2ba29585b92ac83a8ab884b",
          "blockNumber": "0x1497dbf",
          "transactionHash": "0x74e4d979742ac90135b945b288f357f38e0cd95c63e9ee6b489a05a9a5bde45d",
          "transactionIndex": "0x14",
          "logIndex": "0x35",
          "removed": false
        }
      ],
      "logsBloom": "0x00000000000000000000000000000000000000000000000000000000000000000000000000000000001000040000000000000000000000000000000000000000000000000000000000000008000000000000000000000000000000000000000000000000020000000000000100000800001000000000000000000010000000000000000000000400000000000000000000000000000000000000000000000000000000000001000000000000000000000000000000000000000000000000000000000002000000000000000000000000000000000000000000000000000020000000000000000000000000000000000000000000000000000000000000000000",
      "type": "0x2",
      "transactionHash": "0x74e4d979742ac90135b945b288f357f38e0cd95c63e9ee6b489a05a9a5bde45d",
      "transactionIndex": "0x14",
      "blockHash": "0xa9fe52d2ca92be316ddc127b50addb3d222bb934d2ba29585b92ac83a8ab884b",
      "blockNumber": "0x1497dbf",
      "gasUsed": "0x1099f",
      "effectiveGasPrice": "0x187f7",
      "from": "0xecba9756092b7851f4918ec6bab2085b8f88b8ff",
      "to": "0xf806916058553b33c87d23b9e9698b4df32cb5b9",
      "contractAddress": null,
      "l1BaseFeeScalar": "0x44d",
      "l1BlobBaseFee": "0x1",
      "l1BlobBaseFeeScalar": "0xa118b",
      "l1Fee": "0x2e1e77e9a",
      "l1GasPrice": "0x1a2e20b80",
      "l1GasUsed": "0x640"
    },
    {
      "status": "0x1",
      "cumulativeGasUsed": "0x2c7d46",
      "logs": [
        {
          "address": "0xf806916058553b33c87d23b9e9698b4df32cb5b9",
          "topics": [
            "0xddf252ad1be2c89b69c2b068fc378daa952ba7f163c4a11628f55a4df523b3ef",
            "0x000000000000000000000000ecba9756092b7851f4918ec6bab2085b8f88b8ff",
            "0x000000000000000000000000bb02a9d6a71a847d587ce4dbb92f32f79c2efb2a"
          ],
          "data": "0x00000000000000000000000000000000000000000000152d02c7e14af6800000",
          "blockHash": "0xa9fe52d2ca92be316ddc127b50addb3d222bb934d2ba29585b92ac83a8ab884b",
          "blockNumber": "0x1497dbf",
          "transactionHash": "0x83828e4d38294ac9dbb66ace9548f8e1fd4c5c57273ba6baaae3bfebb5a75d92",
          "transactionIndex": "0x15",
          "logIndex": "0x36",
          "removed": false
        }
      ],
      "logsBloom": "0x00000000000000000000000000000000000000000000000000000000000000000000000000000000001000040000000000000000000000008000000000000000000000000000000000000008000000000000000000000000000000000000000000000000000000000000000100000000001000000000000000000010000000000000000000000400000000000000000000000000000000000000000000000000000000000001000000000000000000000000000000000000000000000000000000008002000000020000000000000000000000000000000000000000000000000000000000000000000000000000000000000000000000000000000000000000",
      "type": "0x2",
      "transactionHash": "0x83828e4d38294ac9dbb66ace9548f8e1fd4c5c57273ba6baaae3bfebb5a75d92",
      "transactionIndex": "0x15",
      "blockHash": "0xa9fe52d2ca92be316ddc127b50addb3d222bb934d2ba29585b92ac83a8ab884b",
      "blockNumber": "0x1497dbf",
      "gasUsed": "0xc9b6",
      "effectiveGasPrice": "0x187f7",
      "from": "0xecba9756092b7851f4918ec6bab2085b8f88b8ff",
      "to": "0xf806916058553b33c87d23b9e9698b4df32cb5b9",
      "contractAddress": null,
      "l1BaseFeeScalar": "0x44d",
      "l1BlobBaseFee": "0x1",
      "l1BlobBaseFeeScalar": "0xa118b",
      "l1Fee": "0x2e1e77e9a",
      "l1GasPrice": "0x1a2e20b80",
      "l1GasUsed": "0x640"
    },
    {
      "status": "0x1",
      "cumulativeGasUsed": "0x2d46fc",
      "logs": [
        {
          "address": "0xf806916058553b33c87d23b9e9698b4df32cb5b9",
          "topics": [
            "0xddf252ad1be2c89b69c2b068fc378daa952ba7f163c4a11628f55a4df523b3ef",
            "0x000000000000000000000000ecba9756092b7851f4918ec6bab2085b8f88b8ff",
            "0x000000000000000000000000b47cfcf8181d36117142b83d31bbbf63b1b250fe"
          ],
          "data": "0x00000000000000000000000000000000000000000000152d02c7e14af6800000",
          "blockHash": "0xa9fe52d2ca92be316ddc127b50addb3d222bb934d2ba29585b92ac83a8ab884b",
          "blockNumber": "0x1497dbf",
          "transactionHash": "0x604f14052b6b846f21441cc3659f676deb9c5f08ba9f86b234b6fa0d38c51136",
          "transactionIndex": "0x16",
          "logIndex": "0x37",
          "removed": false
        }
      ],
      "logsBloom": "0x00000000000000000000000000000000000000000000000000000000000000000000000000000000081000040000000000000000000000000000000000000000000000000000000000000008000000000000000000800000000000000000000000000000000000000000000100000000001000000000000000000010000000000000000000000400000000000000000000000000000000000000000000000000000000000001000000000000000000000000000000000000000000000000000000000002000000000000000000000000000000000000000000000000000000000000000000000000000000000000000000000000000001000000000000000000",
      "type": "0x2",
      "transactionHash": "0x604f14052b6b846f21441cc3659f676deb9c5f08ba9f86b234b6fa0d38c51136",
      "transactionIndex": "0x16",
      "blockHash": "0xa9fe52d2ca92be316ddc127b50addb3d222bb934d2ba29585b92ac83a8ab884b",
      "blockNumber": "0x1497dbf",
      "gasUsed": "0xc9b6",
      "effectiveGasPrice": "0x187f7",
      "from": "0xecba9756092b7851f4918ec6bab2085b8f88b8ff",
      "to": "0xf806916058553b33c87d23b9e9698b4df32cb5b9",
      "contractAddress": null,
      "l1BaseFeeScalar": "0x44d",
      "l1BlobBaseFee": "0x1",
      "l1BlobBaseFeeScalar": "0xa118b",
      "l1Fee": "0x2e1e77e9a",
      "l1GasPrice": "0x1a2e20b80",
      "l1GasUsed": "0x640"
    },
    {
      "status": "0x1",
      "cumulativeGasUsed": "0x2e10b2",
      "logs": [
        {
          "address": "0xf806916058553b33c87d23b9e9698b4df32cb5b9",
          "topics": [
            "0xddf252ad1be2c89b69c2b068fc378daa952ba7f163c4a11628f55a4df523b3ef",
            "0x000000000000000000000000ecba9756092b7851f4918ec6bab2085b8f88b8ff",
            "0x000000000000000000000000b1afd5179ac5d755c2da5bd2f961f5520647aeb2"
          ],
          "data": "0x00000000000000000000000000000000000000000000152d02c7e14af6800000",
          "blockHash": "0xa9fe52d2ca92be316ddc127b50addb3d222bb934d2ba29585b92ac83a8ab884b",
          "blockNumber": "0x1497dbf",
          "transactionHash": "0xf611833053865a93da5a228e120f405313f6b4ee551955999d5c570d08184661",
          "transactionIndex": "0x17",
          "logIndex": "0x38",
          "removed": false
        }
      ],
      "logsBloom": "0x00000100000000000000000000000000000000000000000000000000000000000000000000000000001000040000000000000000000000000000000000000000000000000000000000000008000000000000000000000000000000000000000000000000000000000000000100000000001000000000000000000010000000000000000000000400000000000000000000000000000000000000000000000000000000000001000000000000000200000040000000000000000000000000000000000002000000000000000000000000000000000000000000000000000000000000000000000000000000000000000000000000000000000000000000000000",
      "type": "0x2",
      "transactionHash": "0xf611833053865a93da5a228e120f405313f6b4ee551955999d5c570d08184661",
      "transactionIndex": "0x17",
      "blockHash": "0xa9fe52d2ca92be316ddc127b50addb3d222bb934d2ba29585b92ac83a8ab884b",
      "blockNumber": "0x1497dbf",
      "gasUsed": "0xc9b6",
      "effectiveGasPrice": "0x187f7",
      "from": "0xecba9756092b7851f4918ec6bab2085b8f88b8ff",
      "to": "0xf806916058553b33c87d23b9e9698b4df32cb5b9",
      "contractAddress": null,
      "l1BaseFeeScalar": "0x44d",
      "l1BlobBaseFee": "0x1",
      "l1BlobBaseFeeScalar": "0xa118b",
      "l1Fee": "0x2e1e77e9a",
      "l1GasPrice": "0x1a2e20b80",
      "l1GasUsed": "0x640"
    },
    {
      "status": "0x1",
      "cumulativeGasUsed": "0x2ec7a8",
      "logs": [
        {
          "address": "0xf806916058553b33c87d23b9e9698b4df32cb5b9",
          "topics": [
            "0xddf252ad1be2c89b69c2b068fc378daa952ba7f163c4a11628f55a4df523b3ef",
            "0x000000000000000000000000ecba9756092b7851f4918ec6bab2085b8f88b8ff",
            "0x000000000000000000000000bd4114d7521f80c4bad67f5ece1c843627078791"
          ],
          "data": "0x00000000000000000000000000000000000000000000152d02c7e14af6800000",
          "blockHash": "0xa9fe52d2ca92be316ddc127b50addb3d222bb934d2ba29585b92ac83a8ab884b",
          "blockNumber": "0x1497dbf",
          "transactionHash": "0x68d4ce9c10e9f2dd1d363673900da0b4a531843beb8f3d1fa6a0750c504c7af0",
          "transactionIndex": "0x18",
          "logIndex": "0x39",
          "removed": false
        }
      ],
      "logsBloom": "0x00000800000000000000000000000000000000000000000000000000000000000000000000000000001000040000000000000000000000000000000000000000000400000000000000000008000000000000000000000000000000000000000000000000000000000000000100000000001000000000000000000012000000000000000000000400000000000000000000000000000000000000000000000000000000000001000000000000000000000000000000000000000000000000000000000002000000000000000000000000000000000000000000000000000000000000000000000000000000000000000000000000000000000000000000000000",
      "type": "0x2",
      "transactionHash": "0x68d4ce9c10e9f2dd1d363673900da0b4a531843beb8f3d1fa6a0750c504c7af0",
      "transactionIndex": "0x18",
      "blockHash": "0xa9fe52d2ca92be316ddc127b50addb3d222bb934d2ba29585b92ac83a8ab884b",
      "blockNumber": "0x1497dbf",
      "gasUsed": "0xb6f6",
      "effectiveGasPrice": "0x187f7",
      "from": "0xecba9756092b7851f4918ec6bab2085b8f88b8ff",
      "to": "0xf806916058553b33c87d23b9e9698b4df32cb5b9",
      "contractAddress": null,
      "l1BaseFeeScalar": "0x44d",
      "l1BlobBaseFee": "0x1",
      "l1BlobBaseFeeScalar": "0xa118b",
      "l1Fee": "0x2e1e77e9a",
      "l1GasPrice": "0x1a2e20b80",
      "l1GasUsed": "0x640"
    }
  ],
  "libraries": [],
  "pending": [],
  "returns": {},
  "timestamp": 1738955359,
  "chain": 84532,
  "commit": "744412f"
}