{
  "transactions": [
    {
      "hash": "0x3030d2fe55573a3b2ed4db24f03849acef44dd1d464f71a581e4c3bea7129139",
      "transactionType": "CALL",
      "contractName": "PlaceholderStableCoin",
      "contractAddress": "0xc52d3f65ad9b25ce99bc9992f262aeaad10bccc8",
      "function": "mint(uint256)",
      "arguments": [
        "4000000000000000000000"
      ],
      "transaction": {
        "from": "0xecba9756092b7851f4918ec6bab2085b8f88b8ff",
        "to": "0xc52d3f65ad9b25ce99bc9992f262aeaad10bccc8",
        "gas": "0x122c7",
        "value": "0x0",
        "input": "0xa0712d680000000000000000000000000000000000000000000000d8d726b7177a800000",
        "nonce": "0x34",
        "chainId": "0x14a34"
      },
      "additionalContracts": [],
      "isFixedGasLimit": false
    },
    {
      "hash": "0xbe20ace7d2d439d10c3cea6a4a2b0e60c6c2d296754514634996eb078abe41d0",
      "transactionType": "CALL",
      "contractName": "PlaceholderStableCoin",
      "contractAddress": "0xc52d3f65ad9b25ce99bc9992f262aeaad10bccc8",
      "function": "transfer(address,uint256)",
      "arguments": [
        "0xbb02a9D6A71A847D587cE4Dbb92F32f79c2EfB2a",
        "1000000000000000000000"
      ],
      "transaction": {
        "from": "0xecba9756092b7851f4918ec6bab2085b8f88b8ff",
        "to": "0xc52d3f65ad9b25ce99bc9992f262aeaad10bccc8",
        "gas": "0xba47",
        "value": "0x0",
        "input": "0xa9059cbb000000000000000000000000bb02a9d6a71a847d587ce4dbb92f32f79c2efb2a00000000000000000000000000000000000000000000003635c9adc5dea00000",
        "nonce": "0x35",
        "chainId": "0x14a34"
      },
      "additionalContracts": [],
      "isFixedGasLimit": false
    },
    {
      "hash": "0x05a893594c8ca98113c10b51021f27e352b9d60ea937407764e33b28f9f6cda9",
      "transactionType": "CALL",
      "contractName": "PlaceholderStableCoin",
      "contractAddress": "0xc52d3f65ad9b25ce99bc9992f262aeaad10bccc8",
      "function": "transfer(address,uint256)",
      "arguments": [
        "0xb47CFCf8181D36117142b83D31BBBF63B1b250fE",
        "1000000000000000000000"
      ],
      "transaction": {
        "from": "0xecba9756092b7851f4918ec6bab2085b8f88b8ff",
        "to": "0xc52d3f65ad9b25ce99bc9992f262aeaad10bccc8",
        "gas": "0xba47",
        "value": "0x0",
        "input": "0xa9059cbb000000000000000000000000b47cfcf8181d36117142b83d31bbbf63b1b250fe00000000000000000000000000000000000000000000003635c9adc5dea00000",
        "nonce": "0x36",
        "chainId": "0x14a34"
      },
      "additionalContracts": [],
      "isFixedGasLimit": false
    },
    {
      "hash": "0x245018c6cee73b29b7dc997663e983025030a6ef19a7adb9c6cc460fc72a75e1",
      "transactionType": "CALL",
      "contractName": "PlaceholderStableCoin",
      "contractAddress": "0xc52d3f65ad9b25ce99bc9992f262aeaad10bccc8",
      "function": "transfer(address,uint256)",
      "arguments": [
        "0xb1AfD5179ac5D755C2da5bd2F961F5520647aEB2",
        "1000000000000000000000"
      ],
      "transaction": {
        "from": "0xecba9756092b7851f4918ec6bab2085b8f88b8ff",
        "to": "0xc52d3f65ad9b25ce99bc9992f262aeaad10bccc8",
        "gas": "0xba47",
        "value": "0x0",
        "input": "0xa9059cbb000000000000000000000000b1afd5179ac5d755c2da5bd2f961f5520647aeb200000000000000000000000000000000000000000000003635c9adc5dea00000",
        "nonce": "0x37",
        "chainId": "0x14a34"
      },
      "additionalContracts": [],
      "isFixedGasLimit": false
    },
    {
      "hash": "0xd65073679f1b560c211e925e2aa44ca048258048768dd89951d9fc2538cfe47b",
      "transactionType": "CALL",
      "contractName": "PlaceholderStableCoin",
      "contractAddress": "0xc52d3f65ad9b25ce99bc9992f262aeaad10bccc8",
      "function": "transfer(address,uint256)",
      "arguments": [
        "0xBd4114D7521F80C4bad67F5ECE1C843627078791",
        "1000000000000000000000"
      ],
      "transaction": {
        "from": "0xecba9756092b7851f4918ec6bab2085b8f88b8ff",
        "to": "0xc52d3f65ad9b25ce99bc9992f262aeaad10bccc8",
        "gas": "0xa061",
        "value": "0x0",
        "input": "0xa9059cbb000000000000000000000000bd4114d7521f80c4bad67f5ece1c84362707879100000000000000000000000000000000000000000000003635c9adc5dea00000",
        "nonce": "0x38",
        "chainId": "0x14a34"
      },
      "additionalContracts": [],
      "isFixedGasLimit": false
    }
  ],
  "receipts": [
    {
      "status": "0x1",
      "cumulativeGasUsed": "0x4329b0",
      "logs": [
        {
          "address": "0xc52d3f65ad9b25ce99bc9992f262aeaad10bccc8",
          "topics": [
            "0xddf252ad1be2c89b69c2b068fc378daa952ba7f163c4a11628f55a4df523b3ef",
            "0x0000000000000000000000000000000000000000000000000000000000000000",
            "0x000000000000000000000000ecba9756092b7851f4918ec6bab2085b8f88b8ff"
          ],
          "data": "0x0000000000000000000000000000000000000000000000d8d726b7177a800000",
          "blockHash": "0x50a43105771ca61c9e115face442e732e9a04a9a07ce661112a4c78d1f0c4e4d",
          "blockNumber": "0x1485242",
          "transactionHash": "0x3030d2fe55573a3b2ed4db24f03849acef44dd1d464f71a581e4c3bea7129139",
          "transactionIndex": "0x28",
          "logIndex": "0x74",
          "removed": false
        }
      ],
      "logsBloom": "0x00000000000000000000000000000000000000000000000000000000000000000000000000000000001000000000000000080000000000000000000000000000000000000000000000000008000000000000000000000000000000000000000000000000020000000000000000000800001000000000000000000010000000000000000000000000000000000000000000000000000000000000000000000000000000000001000000000000000000000000000000000000000000000000000000000002000000000040000000000000000000000000000000000000000020000000000000000000000000000000400000000000000000000000000000000000",
      "type": "0x2",
      "transactionHash": "0x3030d2fe55573a3b2ed4db24f03849acef44dd1d464f71a581e4c3bea7129139",
      "transactionIndex": "0x28",
      "blockHash": "0x50a43105771ca61c9e115face442e732e9a04a9a07ce661112a4c78d1f0c4e4d",
      "blockNumber": "0x1485242",
      "gasUsed": "0xc6d3",
      "effectiveGasPrice": "0xecec7",
      "from": "0xecba9756092b7851f4918ec6bab2085b8f88b8ff",
      "to": "0xc52d3f65ad9b25ce99bc9992f262aeaad10bccc8",
      "contractAddress": null,
      "l1BaseFeeScalar": "0x44d",
      "l1BlobBaseFee": "0x1",
      "l1BlobBaseFeeScalar": "0xa118b",
      "l1Fee": "0x6ed1d6fb",
      "l1GasPrice": "0x3ee89607",
      "l1GasUsed": "0x640"
    },
    {
      "status": "0x1",
      "cumulativeGasUsed": "0x446418",
      "logs": [
        {
          "address": "0xc52d3f65ad9b25ce99bc9992f262aeaad10bccc8",
          "topics": [
            "0xddf252ad1be2c89b69c2b068fc378daa952ba7f163c4a11628f55a4df523b3ef",
            "0x000000000000000000000000ecba9756092b7851f4918ec6bab2085b8f88b8ff",
            "0x000000000000000000000000bb02a9d6a71a847d587ce4dbb92f32f79c2efb2a"
          ],
          "data": "0x00000000000000000000000000000000000000000000003635c9adc5dea00000",
          "blockHash": "0x50a43105771ca61c9e115face442e732e9a04a9a07ce661112a4c78d1f0c4e4d",
          "blockNumber": "0x1485242",
          "transactionHash": "0xbe20ace7d2d439d10c3cea6a4a2b0e60c6c2d296754514634996eb078abe41d0",
          "transactionIndex": "0x2a",
          "logIndex": "0x76",
          "removed": false
        }
      ],
      "logsBloom": "0x00000000000000000000000000000000000000000000000000000000000000000000000000000000001000000000000000080000000000008000000000000000000000000000000000000008000000000000000000000000000000000000000000000000000000000000000000000000001000000000000000000010000000000000000000000000000000000000000000000000000000000000000000000000000000000001000000000000000000000000000000000000000000000000000000008002000000020040000000000000000000000000000000000000000000000000000000000000000000000000400000000000000000000000000000000000",
      "type": "0x2",
      "transactionHash": "0xbe20ace7d2d439d10c3cea6a4a2b0e60c6c2d296754514634996eb078abe41d0",
      "transactionIndex": "0x2a",
      "blockHash": "0x50a43105771ca61c9e115face442e732e9a04a9a07ce661112a4c78d1f0c4e4d",
      "blockNumber": "0x1485242",
      "gasUsed": "0x86de",
      "effectiveGasPrice": "0xecec7",
      "from": "0xecba9756092b7851f4918ec6bab2085b8f88b8ff",
      "to": "0xc52d3f65ad9b25ce99bc9992f262aeaad10bccc8",
      "contractAddress": null,
      "l1BaseFeeScalar": "0x44d",
      "l1BlobBaseFee": "0x1",
      "l1BlobBaseFeeScalar": "0xa118b",
      "l1Fee": "0x6ed1d6fb",
      "l1GasPrice": "0x3ee89607",
      "l1GasUsed": "0x640"
    },
    {
      "status": "0x1",
      "cumulativeGasUsed": "0x44eaf6",
      "logs": [
        {
          "address": "0xc52d3f65ad9b25ce99bc9992f262aeaad10bccc8",
          "topics": [
            "0xddf252ad1be2c89b69c2b068fc378daa952ba7f163c4a11628f55a4df523b3ef",
            "0x000000000000000000000000ecba9756092b7851f4918ec6bab2085b8f88b8ff",
            "0x000000000000000000000000b47cfcf8181d36117142b83d31bbbf63b1b250fe"
          ],
          "data": "0x00000000000000000000000000000000000000000000003635c9adc5dea00000",
          "blockHash": "0x50a43105771ca61c9e115face442e732e9a04a9a07ce661112a4c78d1f0c4e4d",
          "blockNumber": "0x1485242",
          "transactionHash": "0x05a893594c8ca98113c10b51021f27e352b9d60ea937407764e33b28f9f6cda9",
          "transactionIndex": "0x2b",
          "logIndex": "0x77",
          "removed": false
        }
      ],
      "logsBloom": "0x00000000000000000000000000000000000000000000000000000000000000000000000000000000081000000000000000080000000000000000000000000000000000000000000000000008000000000000000000800000000000000000000000000000000000000000000000000000001000000000000000000010000000000000000000000000000000000000000000000000000000000000000000000000000000000001000000000000000000000000000000000000000000000000000000000002000000000040000000000000000000000000000000000000000000000000000000000000000000000000400000000000000001000000000000000000",
      "type": "0x2",
      "transactionHash": "0x05a893594c8ca98113c10b51021f27e352b9d60ea937407764e33b28f9f6cda9",
      "transactionIndex": "0x2b",
      "blockHash": "0x50a43105771ca61c9e115face442e732e9a04a9a07ce661112a4c78d1f0c4e4d",
      "blockNumber": "0x1485242",
      "gasUsed": "0x86de",
      "effectiveGasPrice": "0xecec7",
      "from": "0xecba9756092b7851f4918ec6bab2085b8f88b8ff",
      "to": "0xc52d3f65ad9b25ce99bc9992f262aeaad10bccc8",
      "contractAddress": null,
      "l1BaseFeeScalar": "0x44d",
      "l1BlobBaseFee": "0x1",
      "l1BlobBaseFeeScalar": "0xa118b",
      "l1Fee": "0x6ed1d6fb",
      "l1GasPrice": "0x3ee89607",
      "l1GasUsed": "0x640"
    },
    {
      "status": "0x1",
      "cumulativeGasUsed": "0x19fb3c",
      "logs": [
        {
          "address": "0xc52d3f65ad9b25ce99bc9992f262aeaad10bccc8",
          "topics": [
            "0xddf252ad1be2c89b69c2b068fc378daa952ba7f163c4a11628f55a4df523b3ef",
            "0x000000000000000000000000ecba9756092b7851f4918ec6bab2085b8f88b8ff",
            "0x000000000000000000000000b1afd5179ac5d755c2da5bd2f961f5520647aeb2"
          ],
          "data": "0x00000000000000000000000000000000000000000000003635c9adc5dea00000",
          "blockHash": "0x3ea166bb1b398a618405f9b6e47a3e7da04ddd57f547905a00e83208f0f3acf1",
          "blockNumber": "0x1485243",
          "transactionHash": "0x245018c6cee73b29b7dc997663e983025030a6ef19a7adb9c6cc460fc72a75e1",
          "transactionIndex": "0xf",
          "logIndex": "0x28",
          "removed": false
        }
      ],
      "logsBloom": "0x00000100000000000000000000000000000000000000000000000000000000000000000000000000001000000000000000080000000000000000000000000000000000000000000000000008000000000000000000000000000000000000000000000000000000000000000000000000001000000000000000000010000000000000000000000000000000000000000000000000000000000000000000000000000000000001000000000000000200000040000000000000000000000000000000000002000000000040000000000000000000000000000000000000000000000000000000000000000000000000400000000000000000000000000000000000",
      "type": "0x2",
      "transactionHash": "0x245018c6cee73b29b7dc997663e983025030a6ef19a7adb9c6cc460fc72a75e1",
      "transactionIndex": "0xf",
      "blockHash": "0x3ea166bb1b398a618405f9b6e47a3e7da04ddd57f547905a00e83208f0f3acf1",
      "blockNumber": "0x1485243",
      "gasUsed": "0x86de",
      "effectiveGasPrice": "0xecec7",
      "from": "0xecba9756092b7851f4918ec6bab2085b8f88b8ff",
      "to": "0xc52d3f65ad9b25ce99bc9992f262aeaad10bccc8",
      "contractAddress": null,
      "l1BaseFeeScalar": "0x44d",
      "l1BlobBaseFee": "0x1",
      "l1BlobBaseFeeScalar": "0xa118b",
      "l1Fee": "0x748cbd43",
      "l1GasPrice": "0x42294b70",
      "l1GasUsed": "0x640"
    },
    {
      "status": "0x1",
      "cumulativeGasUsed": "0x1a6f5a",
      "logs": [
        {
          "address": "0xc52d3f65ad9b25ce99bc9992f262aeaad10bccc8",
          "topics": [
            "0xddf252ad1be2c89b69c2b068fc378daa952ba7f163c4a11628f55a4df523b3ef",
            "0x000000000000000000000000ecba9756092b7851f4918ec6bab2085b8f88b8ff",
            "0x000000000000000000000000bd4114d7521f80c4bad67f5ece1c843627078791"
          ],
          "data": "0x00000000000000000000000000000000000000000000003635c9adc5dea00000",
          "blockHash": "0x3ea166bb1b398a618405f9b6e47a3e7da04ddd57f547905a00e83208f0f3acf1",
          "blockNumber": "0x1485243",
          "transactionHash": "0xd65073679f1b560c211e925e2aa44ca048258048768dd89951d9fc2538cfe47b",
          "transactionIndex": "0x10",
          "logIndex": "0x29",
          "removed": false
        }
      ],
      "logsBloom": "0x00000800000000000000000000000000000000000000000000000000000000000000000000000000001000000000000000080000000000000000000000000000000400000000000000000008000000000000000000000000000000000000000000000000000000000000000000000000001000000000000000000012000000000000000000000000000000000000000000000000000000000000000000000000000000000001000000000000000000000000000000000000000000000000000000000002000000000040000000000000000000000000000000000000000000000000000000000000000000000000400000000000000000000000000000000000",
      "type": "0x2",
      "transactionHash": "0xd65073679f1b560c211e925e2aa44ca048258048768dd89951d9fc2538cfe47b",
      "transactionIndex": "0x10",
      "blockHash": "0x3ea166bb1b398a618405f9b6e47a3e7da04ddd57f547905a00e83208f0f3acf1",
      "blockNumber": "0x1485243",
      "gasUsed": "0x741e",
      "effectiveGasPrice": "0xecec7",
      "from": "0xecba9756092b7851f4918ec6bab2085b8f88b8ff",
      "to": "0xc52d3f65ad9b25ce99bc9992f262aeaad10bccc8",
      "contractAddress": null,
      "l1BaseFeeScalar": "0x44d",
      "l1BlobBaseFee": "0x1",
      "l1BlobBaseFeeScalar": "0xa118b",
      "l1Fee": "0x748cbd43",
      "l1GasPrice": "0x42294b70",
      "l1GasUsed": "0x640"
    }
  ],
  "libraries": [],
  "pending": [],
  "returns": {},
  "timestamp": 1738802023,
  "chain": 84532,
  "commit": "01c5c73"
}