{
  "transactions": [
    {
      "hash": "0x23527fccf15b1bd04bffe9b4e61c8ef546d13ee24263bd310245ed58c5bd9888",
      "transactionType": "CALL",
      "contractName": "PlaceholderStableCoin",
      "contractAddress": "0xcfe2f7254692bbd99b67a4d7d429f46b7b5e6c92",
      "function": "mint(uint256)",
      "arguments": [
        "4000000000000000000000"
      ],
      "transaction": {
        "from": "0xecba9756092b7851f4918ec6bab2085b8f88b8ff",
        "to": "0xcfe2f7254692bbd99b67a4d7d429f46b7b5e6c92",
        "gas": "0x16ee2",
        "value": "0x0",
        "input": "0xa0712d680000000000000000000000000000000000000000000000d8d726b7177a800000",
        "nonce": "0xeb",
        "chainId": "0x14a34"
      },
      "additionalContracts": [],
      "isFixedGasLimit": false
    },
    {
      "hash": "0xb95c2ba97ebf8f5e948329b7ffc27cda2c4d0e62e8cbc25e6ca16f99a0989f4f",
      "transactionType": "CALL",
      "contractName": "PlaceholderStableCoin",
      "contractAddress": "0xcfe2f7254692bbd99b67a4d7d429f46b7b5e6c92",
      "function": "transfer(address,uint256)",
      "arguments": [
        "0xbb02a9D6A71A847D587cE4Dbb92F32f79c2EfB2a",
        "1000000000000000000000"
      ],
      "transaction": {
        "from": "0xecba9756092b7851f4918ec6bab2085b8f88b8ff",
        "to": "0xcfe2f7254692bbd99b67a4d7d429f46b7b5e6c92",
        "gas": "0x126ee",
        "value": "0x0",
        "input": "0xa9059cbb000000000000000000000000bb02a9d6a71a847d587ce4dbb92f32f79c2efb2a00000000000000000000000000000000000000000000003635c9adc5dea00000",
        "nonce": "0xec",
        "chainId": "0x14a34"
      },
      "additionalContracts": [],
      "isFixedGasLimit": false
    },
    {
      "hash": "0x4ac5872b68a9465fa6112b7514083c81db2257c150346edaceafe6e81543e090",
      "transactionType": "CALL",
      "contractName": "PlaceholderStableCoin",
      "contractAddress": "0xcfe2f7254692bbd99b67a4d7d429f46b7b5e6c92",
      "function": "transfer(address,uint256)",
      "arguments": [
        "0xb47CFCf8181D36117142b83D31BBBF63B1b250fE",
        "1000000000000000000000"
      ],
      "transaction": {
        "from": "0xecba9756092b7851f4918ec6bab2085b8f88b8ff",
        "to": "0xcfe2f7254692bbd99b67a4d7d429f46b7b5e6c92",
        "gas": "0x126ee",
        "value": "0x0",
        "input": "0xa9059cbb000000000000000000000000b47cfcf8181d36117142b83d31bbbf63b1b250fe00000000000000000000000000000000000000000000003635c9adc5dea00000",
        "nonce": "0xed",
        "chainId": "0x14a34"
      },
      "additionalContracts": [],
      "isFixedGasLimit": false
    },
    {
      "hash": "0xf0cb7a79b293697b4d2994c16607bc36be2fb3e6d2e8ca53f9e8a5b9196696bd",
      "transactionType": "CALL",
      "contractName": "PlaceholderStableCoin",
      "contractAddress": "0xcfe2f7254692bbd99b67a4d7d429f46b7b5e6c92",
      "function": "transfer(address,uint256)",
      "arguments": [
        "0xb1AfD5179ac5D755C2da5bd2F961F5520647aEB2",
        "1000000000000000000000"
      ],
      "transaction": {
        "from": "0xecba9756092b7851f4918ec6bab2085b8f88b8ff",
        "to": "0xcfe2f7254692bbd99b67a4d7d429f46b7b5e6c92",
        "gas": "0x126ee",
        "value": "0x0",
        "input": "0xa9059cbb000000000000000000000000b1afd5179ac5d755c2da5bd2f961f5520647aeb200000000000000000000000000000000000000000000003635c9adc5dea00000",
        "nonce": "0xee",
        "chainId": "0x14a34"
      },
      "additionalContracts": [],
      "isFixedGasLimit": false
    },
    {
      "hash": "0x17a73524599f6097b398b5082ad234d3e621e194a3e1ab636363c37ca841b39d",
      "transactionType": "CALL",
      "contractName": "PlaceholderStableCoin",
      "contractAddress": "0xcfe2f7254692bbd99b67a4d7d429f46b7b5e6c92",
      "function": "transfer(address,uint256)",
      "arguments": [
        "0xBd4114D7521F80C4bad67F5ECE1C843627078791",
        "1000000000000000000000"
      ],
      "transaction": {
        "from": "0xecba9756092b7851f4918ec6bab2085b8f88b8ff",
        "to": "0xcfe2f7254692bbd99b67a4d7d429f46b7b5e6c92",
        "gas": "0x10b82",
        "value": "0x0",
        "input": "0xa9059cbb000000000000000000000000bd4114d7521f80c4bad67f5ece1c84362707879100000000000000000000000000000000000000000000003635c9adc5dea00000",
        "nonce": "0xef",
        "chainId": "0x14a34"
      },
      "additionalContracts": [],
      "isFixedGasLimit": false
    }
  ],
  "receipts": [
    {
      "status": "0x1",
      "cumulativeGasUsed": "0x99e11e",
      "logs": [
        {
          "address": "0xcfe2f7254692bbd99b67a4d7d429f46b7b5e6c92",
          "topics": [
            "0xddf252ad1be2c89b69c2b068fc378daa952ba7f163c4a11628f55a4df523b3ef",
            "0x0000000000000000000000000000000000000000000000000000000000000000",
            "0x000000000000000000000000ecba9756092b7851f4918ec6bab2085b8f88b8ff"
          ],
          "data": "0x0000000000000000000000000000000000000000000000d8d726b7177a800000",
          "blockHash": "0x951d71da457f678b8e3e1635fe8e57f7a16c031c8736312c924f22bce04ee10f",
          "blockNumber": "0x1495b86",
          "transactionHash": "0x23527fccf15b1bd04bffe9b4e61c8ef546d13ee24263bd310245ed58c5bd9888",
          "transactionIndex": "0x30",
          "logIndex": "0x94",
          "removed": false
        }
      ],
      "logsBloom": "0x00000000000000000000000000000000000000000000000000000000000000000000000000000000001000000000000000000000000000000000000000000000000000000000000000000008000000000000000000000000000000000000000000000000020000000000000000000800001000000000000000000010000000000000000000000000000000000000000000000000000000000000000000000000000000000001010000000000000000000000000000000000000020000000000000000002000000000000000000000000000000000000000000000000000020000000000000000000000000000020000000000000000000000000000000000000",
      "type": "0x2",
      "transactionHash": "0x23527fccf15b1bd04bffe9b4e61c8ef546d13ee24263bd310245ed58c5bd9888",
      "transactionIndex": "0x30",
      "blockHash": "0x951d71da457f678b8e3e1635fe8e57f7a16c031c8736312c924f22bce04ee10f",
      "blockNumber": "0x1495b86",
      "gasUsed": "0x1099f",
      "effectiveGasPrice": "0x18822",
      "from": "0xecba9756092b7851f4918ec6bab2085b8f88b8ff",
      "to": "0xcfe2f7254692bbd99b67a4d7d429f46b7b5e6c92",
      "contractAddress": null,
      "l1BaseFeeScalar": "0x44d",
      "l1BlobBaseFee": "0x3ea",
      "l1BlobBaseFeeScalar": "0xa118b",
      "l1Fee": "0x1e8866f51a",
      "l1GasPrice": "0x11551a049e",
      "l1GasUsed": "0x640"
    },
    {
      "status": "0x1",
      "cumulativeGasUsed": "0x9b5e5e",
      "logs": [
        {
          "address": "0xcfe2f7254692bbd99b67a4d7d429f46b7b5e6c92",
          "topics": [
            "0xddf252ad1be2c89b69c2b068fc378daa952ba7f163c4a11628f55a4df523b3ef",
            "0x000000000000000000000000ecba9756092b7851f4918ec6bab2085b8f88b8ff",
            "0x000000000000000000000000bb02a9d6a71a847d587ce4dbb92f32f79c2efb2a"
          ],
          "data": "0x00000000000000000000000000000000000000000000003635c9adc5dea00000",
          "blockHash": "0x951d71da457f678b8e3e1635fe8e57f7a16c031c8736312c924f22bce04ee10f",
          "blockNumber": "0x1495b86",
          "transactionHash": "0xb95c2ba97ebf8f5e948329b7ffc27cda2c4d0e62e8cbc25e6ca16f99a0989f4f",
          "transactionIndex": "0x32",
          "logIndex": "0x96",
          "removed": false
        }
      ],
      "logsBloom": "0x00000000000000000000000000000000000000000000000000000000000000000000000000000000001000000000000000000000000000008000000000000000000000000000000000000008000000000000000000000000000000000000000000000000000000000000000000000000001000000000000000000010000000000000000000000000000000000000000000000000000000000000000000000000000000000001010000000000000000000000000000000000000020000000000000008002000000020000000000000000000000000000000000000000000000000000000000000000000000000020000000000000000000000000000000000000",
      "type": "0x2",
      "transactionHash": "0xb95c2ba97ebf8f5e948329b7ffc27cda2c4d0e62e8cbc25e6ca16f99a0989f4f",
      "transactionIndex": "0x32",
      "blockHash": "0x951d71da457f678b8e3e1635fe8e57f7a16c031c8736312c924f22bce04ee10f",
      "blockNumber": "0x1495b86",
      "gasUsed": "0xc9aa",
      "effectiveGasPrice": "0x18822",
      "from": "0xecba9756092b7851f4918ec6bab2085b8f88b8ff",
      "to": "0xcfe2f7254692bbd99b67a4d7d429f46b7b5e6c92",
      "contractAddress": null,
      "l1BaseFeeScalar": "0x44d",
      "l1BlobBaseFee": "0x3ea",
      "l1BlobBaseFeeScalar": "0xa118b",
      "l1Fee": "0x1e8866f51a",
      "l1GasPrice": "0x11551a049e",
      "l1GasUsed": "0x640"
    },
    {
      "status": "0x1",
      "cumulativeGasUsed": "0x9c2808",
      "logs": [
        {
          "address": "0xcfe2f7254692bbd99b67a4d7d429f46b7b5e6c92",
          "topics": [
            "0xddf252ad1be2c89b69c2b068fc378daa952ba7f163c4a11628f55a4df523b3ef",
            "0x000000000000000000000000ecba9756092b7851f4918ec6bab2085b8f88b8ff",
            "0x000000000000000000000000b47cfcf8181d36117142b83d31bbbf63b1b250fe"
          ],
          "data": "0x00000000000000000000000000000000000000000000003635c9adc5dea00000",
          "blockHash": "0x951d71da457f678b8e3e1635fe8e57f7a16c031c8736312c924f22bce04ee10f",
          "blockNumber": "0x1495b86",
          "transactionHash": "0x4ac5872b68a9465fa6112b7514083c81db2257c150346edaceafe6e81543e090",
          "transactionIndex": "0x33",
          "logIndex": "0x97",
          "removed": false
        }
      ],
      "logsBloom": "0x00000000000000000000000000000000000000000000000000000000000000000000000000000000081000000000000000000000000000000000000000000000000000000000000000000008000000000000000000800000000000000000000000000000000000000000000000000000001000000000000000000010000000000000000000000000000000000000000000000000000000000000000000000000000000000001010000000000000000000000000000000000000020000000000000000002000000000000000000000000000000000000000000000000000000000000000000000000000000000020000000000000000001000000000000000000",
      "type": "0x2",
      "transactionHash": "0x4ac5872b68a9465fa6112b7514083c81db2257c150346edaceafe6e81543e090",
      "transactionIndex": "0x33",
      "blockHash": "0x951d71da457f678b8e3e1635fe8e57f7a16c031c8736312c924f22bce04ee10f",
      "blockNumber": "0x1495b86",
      "gasUsed": "0xc9aa",
      "effectiveGasPrice": "0x18822",
      "from": "0xecba9756092b7851f4918ec6bab2085b8f88b8ff",
      "to": "0xcfe2f7254692bbd99b67a4d7d429f46b7b5e6c92",
      "contractAddress": null,
      "l1BaseFeeScalar": "0x44d",
      "l1BlobBaseFee": "0x3ea",
      "l1BlobBaseFeeScalar": "0xa118b",
      "l1Fee": "0x1e8866f51a",
      "l1GasPrice": "0x11551a049e",
      "l1GasUsed": "0x640"
    },
    {
      "status": "0x1",
      "cumulativeGasUsed": "0x9cf1b2",
      "logs": [
        {
          "address": "0xcfe2f7254692bbd99b67a4d7d429f46b7b5e6c92",
          "topics": [
            "0xddf252ad1be2c89b69c2b068fc378daa952ba7f163c4a11628f55a4df523b3ef",
            "0x000000000000000000000000ecba9756092b7851f4918ec6bab2085b8f88b8ff",
            "0x000000000000000000000000b1afd5179ac5d755c2da5bd2f961f5520647aeb2"
          ],
          "data": "0x00000000000000000000000000000000000000000000003635c9adc5dea00000",
          "blockHash": "0x951d71da457f678b8e3e1635fe8e57f7a16c031c8736312c924f22bce04ee10f",
          "blockNumber": "0x1495b86",
          "transactionHash": "0xf0cb7a79b293697b4d2994c16607bc36be2fb3e6d2e8ca53f9e8a5b9196696bd",
          "transactionIndex": "0x34",
          "logIndex": "0x98",
          "removed": false
        }
      ],
      "logsBloom": "0x00000100000000000000000000000000000000000000000000000000000000000000000000000000001000000000000000000000000000000000000000000000000000000000000000000008000000000000000000000000000000000000000000000000000000000000000000000000001000000000000000000010000000000000000000000000000000000000000000000000000000000000000000000000000000000001010000000000000200000040000000000000000020000000000000000002000000000000000000000000000000000000000000000000000000000000000000000000000000000020000000000000000000000000000000000000",
      "type": "0x2",
      "transactionHash": "0xf0cb7a79b293697b4d2994c16607bc36be2fb3e6d2e8ca53f9e8a5b9196696bd",
      "transactionIndex": "0x34",
      "blockHash": "0x951d71da457f678b8e3e1635fe8e57f7a16c031c8736312c924f22bce04ee10f",
      "blockNumber": "0x1495b86",
      "gasUsed": "0xc9aa",
      "effectiveGasPrice": "0x18822",
      "from": "0xecba9756092b7851f4918ec6bab2085b8f88b8ff",
      "to": "0xcfe2f7254692bbd99b67a4d7d429f46b7b5e6c92",
      "contractAddress": null,
      "l1BaseFeeScalar": "0x44d",
      "l1BlobBaseFee": "0x3ea",
      "l1BlobBaseFeeScalar": "0xa118b",
      "l1Fee": "0x1e8866f51a",
      "l1GasPrice": "0x11551a049e",
      "l1GasUsed": "0x640"
    },
    {
      "status": "0x1",
      "cumulativeGasUsed": "0x9da89c",
      "logs": [
        {
          "address": "0xcfe2f7254692bbd99b67a4d7d429f46b7b5e6c92",
          "topics": [
            "0xddf252ad1be2c89b69c2b068fc378daa952ba7f163c4a11628f55a4df523b3ef",
            "0x000000000000000000000000ecba9756092b7851f4918ec6bab2085b8f88b8ff",
            "0x000000000000000000000000bd4114d7521f80c4bad67f5ece1c843627078791"
          ],
          "data": "0x00000000000000000000000000000000000000000000003635c9adc5dea00000",
          "blockHash": "0x951d71da457f678b8e3e1635fe8e57f7a16c031c8736312c924f22bce04ee10f",
          "blockNumber": "0x1495b86",
          "transactionHash": "0x17a73524599f6097b398b5082ad234d3e621e194a3e1ab636363c37ca841b39d",
          "transactionIndex": "0x35",
          "logIndex": "0x99",
          "removed": false
        }
      ],
      "logsBloom": "0x00000800000000000000000000000000000000000000000000000000000000000000000000000000001000000000000000000000000000000000000000000000000400000000000000000008000000000000000000000000000000000000000000000000000000000000000000000000001000000000000000000012000000000000000000000000000000000000000000000000000000000000000000000000000000000001010000000000000000000000000000000000000020000000000000000002000000000000000000000000000000000000000000000000000000000000000000000000000000000020000000000000000000000000000000000000",
      "type": "0x2",
      "transactionHash": "0x17a73524599f6097b398b5082ad234d3e621e194a3e1ab636363c37ca841b39d",
      "transactionIndex": "0x35",
      "blockHash": "0x951d71da457f678b8e3e1635fe8e57f7a16c031c8736312c924f22bce04ee10f",
      "blockNumber": "0x1495b86",
      "gasUsed": "0xb6ea",
      "effectiveGasPrice": "0x18822",
      "from": "0xecba9756092b7851f4918ec6bab2085b8f88b8ff",
      "to": "0xcfe2f7254692bbd99b67a4d7d429f46b7b5e6c92",
      "contractAddress": null,
      "l1BaseFeeScalar": "0x44d",
      "l1BlobBaseFee": "0x3ea",
      "l1BlobBaseFeeScalar": "0xa118b",
      "l1Fee": "0x1e8866f51a",
      "l1GasPrice": "0x11551a049e",
      "l1GasUsed": "0x640"
    }
  ],
  "libraries": [],
  "pending": [],
  "returns": {},
  "timestamp": 1738937838,
  "chain": 84532,
  "commit": "270a582"
}