{
  "transactions": [
    {
      "hash": "0x09518764c7c1a6b0cb2503f10f8d72a16eda70f5d9d4131a7f1d489e01f82892",
      "transactionType": "CALL",
      "contractName": null,
      "contractAddress": "0xc52d3f65ad9b25ce99bc9992f262aeaad10bccc8",
      "function": "mint(uint256)",
      "arguments": ["4000000000000000000000"],
      "transaction": {
        "from": "0xecba9756092b7851f4918ec6bab2085b8f88b8ff",
        "to": "0xc52d3f65ad9b25ce99bc9992f262aeaad10bccc8",
        "gas": "0x16ee2",
        "value": "0x0",
        "input": "0xa0712d680000000000000000000000000000000000000000000000d8d726b7177a800000",
        "nonce": "0xf",
        "chainId": "0x14a34"
      },
      "additionalContracts": [],
      "isFixedGasLimit": false
    },
    {
      "hash": "0xe888fd508801ea4cbe9e22ad0a35720d7fdd87a39df63f4ddb4c085c79959555",
      "transactionType": "CALL",
      "contractName": null,
      "contractAddress": "0xc52d3f65ad9b25ce99bc9992f262aeaad10bccc8",
      "function": "transfer(address,uint256)",
      "arguments": [
        "0xbb02a9D6A71A847D587cE4Dbb92F32f79c2EfB2a",
        "1000000000000000000000"
      ],
      "transaction": {
        "from": "0xecba9756092b7851f4918ec6bab2085b8f88b8ff",
        "to": "0xc52d3f65ad9b25ce99bc9992f262aeaad10bccc8",
        "gas": "0x126ee",
        "value": "0x0",
        "input": "0xa9059cbb000000000000000000000000bb02a9d6a71a847d587ce4dbb92f32f79c2efb2a00000000000000000000000000000000000000000000003635c9adc5dea00000",
        "nonce": "0x10",
        "chainId": "0x14a34"
      },
      "additionalContracts": [],
      "isFixedGasLimit": false
    },
    {
      "hash": "0x9c9ae7f665bc3e4f141490e189d9db59fad44ec407db1b87d42f1813ff7538b3",
      "transactionType": "CALL",
      "contractName": null,
      "contractAddress": "0xc52d3f65ad9b25ce99bc9992f262aeaad10bccc8",
      "function": "transfer(address,uint256)",
      "arguments": [
        "0xb47CFCf8181D36117142b83D31BBBF63B1b250fE",
        "1000000000000000000000"
      ],
      "transaction": {
        "from": "0xecba9756092b7851f4918ec6bab2085b8f88b8ff",
        "to": "0xc52d3f65ad9b25ce99bc9992f262aeaad10bccc8",
        "gas": "0x126ee",
        "value": "0x0",
        "input": "0xa9059cbb000000000000000000000000b47cfcf8181d36117142b83d31bbbf63b1b250fe00000000000000000000000000000000000000000000003635c9adc5dea00000",
        "nonce": "0x11",
        "chainId": "0x14a34"
      },
      "additionalContracts": [],
      "isFixedGasLimit": false
    },
    {
      "hash": "0xd3978280b24bb5ad9fa36f931d0fe13baf9480c77abee69040934bff16b267db",
      "transactionType": "CALL",
      "contractName": null,
      "contractAddress": "0xc52d3f65ad9b25ce99bc9992f262aeaad10bccc8",
      "function": "transfer(address,uint256)",
      "arguments": [
        "0xb1AfD5179ac5D755C2da5bd2F961F5520647aEB2",
        "1000000000000000000000"
      ],
      "transaction": {
        "from": "0xecba9756092b7851f4918ec6bab2085b8f88b8ff",
        "to": "0xc52d3f65ad9b25ce99bc9992f262aeaad10bccc8",
        "gas": "0x126ee",
        "value": "0x0",
        "input": "0xa9059cbb000000000000000000000000b1afd5179ac5d755c2da5bd2f961f5520647aeb200000000000000000000000000000000000000000000003635c9adc5dea00000",
        "nonce": "0x12",
        "chainId": "0x14a34"
      },
      "additionalContracts": [],
      "isFixedGasLimit": false
    },
    {
      "hash": "0x9edd3a89b251c8a5d0e10a8ff98daba52cbfd771f7a955bd2ca7dd6af7a672df",
      "transactionType": "CALL",
      "contractName": null,
      "contractAddress": "0xc52d3f65ad9b25ce99bc9992f262aeaad10bccc8",
      "function": "transfer(address,uint256)",
      "arguments": [
        "0xBd4114D7521F80C4bad67F5ECE1C843627078791",
        "1000000000000000000000"
      ],
      "transaction": {
        "from": "0xecba9756092b7851f4918ec6bab2085b8f88b8ff",
        "to": "0xc52d3f65ad9b25ce99bc9992f262aeaad10bccc8",
        "gas": "0x10b82",
        "value": "0x0",
        "input": "0xa9059cbb000000000000000000000000bd4114d7521f80c4bad67f5ece1c84362707879100000000000000000000000000000000000000000000003635c9adc5dea00000",
        "nonce": "0x13",
        "chainId": "0x14a34"
      },
      "additionalContracts": [],
      "isFixedGasLimit": false
    }
  ],
  "receipts": [
    {
      "status": "0x1",
      "cumulativeGasUsed": "0x282058",
      "logs": [
        {
          "address": "0xc52d3f65ad9b25ce99bc9992f262aeaad10bccc8",
          "topics": [
            "0xddf252ad1be2c89b69c2b068fc378daa952ba7f163c4a11628f55a4df523b3ef",
            "0x0000000000000000000000000000000000000000000000000000000000000000",
            "0x000000000000000000000000ecba9756092b7851f4918ec6bab2085b8f88b8ff"
          ],
          "data": "0x0000000000000000000000000000000000000000000000d8d726b7177a800000",
          "blockHash": "0xa3b1b46ce00e1032f76f18e137dcb21351282ac468beb1862878889469609ffa",
          "blockNumber": "0x146ff31",
          "transactionHash": "0x09518764c7c1a6b0cb2503f10f8d72a16eda70f5d9d4131a7f1d489e01f82892",
          "transactionIndex": "0x15",
          "logIndex": "0x35",
          "removed": false
        }
      ],
      "logsBloom": "0x00000000000000000000000000000000000000000000000000000000000000000000000000000000001000000000000000080000000000000000000000000000000000000000000000000008000000000000000000000000000000000000000000000000020000000000000000000800001000000000000000000010000000000000000000000000000000000000000000000000000000000000000000000000000000000001000000000000000000000000000000000000000000000000000000000002000000000040000000000000000000000000000000000000000020000000000000000000000000000000400000000000000000000000000000000000",
      "type": "0x2",
      "transactionHash": "0x09518764c7c1a6b0cb2503f10f8d72a16eda70f5d9d4131a7f1d489e01f82892",
      "transactionIndex": "0x15",
      "blockHash": "0xa3b1b46ce00e1032f76f18e137dcb21351282ac468beb1862878889469609ffa",
      "blockNumber": "0x146ff31",
      "gasUsed": "0x1099f",
      "effectiveGasPrice": "0x865d9",
      "from": "0xecba9756092b7851f4918ec6bab2085b8f88b8ff",
      "to": "0xc52d3f65ad9b25ce99bc9992f262aeaad10bccc8",
      "contractAddress": null,
      "l1BaseFeeScalar": "0x44d",
      "l1BlobBaseFee": "0x1",
      "l1BlobBaseFeeScalar": "0xa118b",
      "l1Fee": "0x7021884e",
      "l1GasPrice": "0x3fa725b4",
      "l1GasUsed": "0x640"
    },
    {
      "status": "0x1",
      "cumulativeGasUsed": "0x28ea02",
      "logs": [
        {
          "address": "0xc52d3f65ad9b25ce99bc9992f262aeaad10bccc8",
          "topics": [
            "0xddf252ad1be2c89b69c2b068fc378daa952ba7f163c4a11628f55a4df523b3ef",
            "0x000000000000000000000000ecba9756092b7851f4918ec6bab2085b8f88b8ff",
            "0x000000000000000000000000bb02a9d6a71a847d587ce4dbb92f32f79c2efb2a"
          ],
          "data": "0x00000000000000000000000000000000000000000000003635c9adc5dea00000",
          "blockHash": "0xa3b1b46ce00e1032f76f18e137dcb21351282ac468beb1862878889469609ffa",
          "blockNumber": "0x146ff31",
          "transactionHash": "0xe888fd508801ea4cbe9e22ad0a35720d7fdd87a39df63f4ddb4c085c79959555",
          "transactionIndex": "0x16",
          "logIndex": "0x36",
          "removed": false
        }
      ],
      "logsBloom": "0x00000000000000000000000000000000000000000000000000000000000000000000000000000000001000000000000000080000000000008000000000000000000000000000000000000008000000000000000000000000000000000000000000000000000000000000000000000000001000000000000000000010000000000000000000000000000000000000000000000000000000000000000000000000000000000001000000000000000000000000000000000000000000000000000000008002000000020040000000000000000000000000000000000000000000000000000000000000000000000000400000000000000000000000000000000000",
      "type": "0x2",
      "transactionHash": "0xe888fd508801ea4cbe9e22ad0a35720d7fdd87a39df63f4ddb4c085c79959555",
      "transactionIndex": "0x16",
      "blockHash": "0xa3b1b46ce00e1032f76f18e137dcb21351282ac468beb1862878889469609ffa",
      "blockNumber": "0x146ff31",
      "gasUsed": "0xc9aa",
      "effectiveGasPrice": "0x865d9",
      "from": "0xecba9756092b7851f4918ec6bab2085b8f88b8ff",
      "to": "0xc52d3f65ad9b25ce99bc9992f262aeaad10bccc8",
      "contractAddress": null,
      "l1BaseFeeScalar": "0x44d",
      "l1BlobBaseFee": "0x1",
      "l1BlobBaseFeeScalar": "0xa118b",
      "l1Fee": "0x7021884e",
      "l1GasPrice": "0x3fa725b4",
      "l1GasUsed": "0x640"
    },
    {
      "status": "0x1",
      "cumulativeGasUsed": "0x29b3ac",
      "logs": [
        {
          "address": "0xc52d3f65ad9b25ce99bc9992f262aeaad10bccc8",
          "topics": [
            "0xddf252ad1be2c89b69c2b068fc378daa952ba7f163c4a11628f55a4df523b3ef",
            "0x000000000000000000000000ecba9756092b7851f4918ec6bab2085b8f88b8ff",
            "0x000000000000000000000000b47cfcf8181d36117142b83d31bbbf63b1b250fe"
          ],
          "data": "0x00000000000000000000000000000000000000000000003635c9adc5dea00000",
          "blockHash": "0xa3b1b46ce00e1032f76f18e137dcb21351282ac468beb1862878889469609ffa",
          "blockNumber": "0x146ff31",
          "transactionHash": "0x9c9ae7f665bc3e4f141490e189d9db59fad44ec407db1b87d42f1813ff7538b3",
          "transactionIndex": "0x17",
          "logIndex": "0x37",
          "removed": false
        }
      ],
      "logsBloom": "0x00000000000000000000000000000000000000000000000000000000000000000000000000000000081000000000000000080000000000000000000000000000000000000000000000000008000000000000000000800000000000000000000000000000000000000000000000000000001000000000000000000010000000000000000000000000000000000000000000000000000000000000000000000000000000000001000000000000000000000000000000000000000000000000000000000002000000000040000000000000000000000000000000000000000000000000000000000000000000000000400000000000000001000000000000000000",
      "type": "0x2",
      "transactionHash": "0x9c9ae7f665bc3e4f141490e189d9db59fad44ec407db1b87d42f1813ff7538b3",
      "transactionIndex": "0x17",
      "blockHash": "0xa3b1b46ce00e1032f76f18e137dcb21351282ac468beb1862878889469609ffa",
      "blockNumber": "0x146ff31",
      "gasUsed": "0xc9aa",
      "effectiveGasPrice": "0x865d9",
      "from": "0xecba9756092b7851f4918ec6bab2085b8f88b8ff",
      "to": "0xc52d3f65ad9b25ce99bc9992f262aeaad10bccc8",
      "contractAddress": null,
      "l1BaseFeeScalar": "0x44d",
      "l1BlobBaseFee": "0x1",
      "l1BlobBaseFeeScalar": "0xa118b",
      "l1Fee": "0x7021884e",
      "l1GasPrice": "0x3fa725b4",
      "l1GasUsed": "0x640"
    },
    {
      "status": "0x1",
      "cumulativeGasUsed": "0x2a7d56",
      "logs": [
        {
          "address": "0xc52d3f65ad9b25ce99bc9992f262aeaad10bccc8",
          "topics": [
            "0xddf252ad1be2c89b69c2b068fc378daa952ba7f163c4a11628f55a4df523b3ef",
            "0x000000000000000000000000ecba9756092b7851f4918ec6bab2085b8f88b8ff",
            "0x000000000000000000000000b1afd5179ac5d755c2da5bd2f961f5520647aeb2"
          ],
          "data": "0x00000000000000000000000000000000000000000000003635c9adc5dea00000",
          "blockHash": "0xa3b1b46ce00e1032f76f18e137dcb21351282ac468beb1862878889469609ffa",
          "blockNumber": "0x146ff31",
          "transactionHash": "0xd3978280b24bb5ad9fa36f931d0fe13baf9480c77abee69040934bff16b267db",
          "transactionIndex": "0x18",
          "logIndex": "0x38",
          "removed": false
        }
      ],
      "logsBloom": "0x00000100000000000000000000000000000000000000000000000000000000000000000000000000001000000000000000080000000000000000000000000000000000000000000000000008000000000000000000000000000000000000000000000000000000000000000000000000001000000000000000000010000000000000000000000000000000000000000000000000000000000000000000000000000000000001000000000000000200000040000000000000000000000000000000000002000000000040000000000000000000000000000000000000000000000000000000000000000000000000400000000000000000000000000000000000",
      "type": "0x2",
      "transactionHash": "0xd3978280b24bb5ad9fa36f931d0fe13baf9480c77abee69040934bff16b267db",
      "transactionIndex": "0x18",
      "blockHash": "0xa3b1b46ce00e1032f76f18e137dcb21351282ac468beb1862878889469609ffa",
      "blockNumber": "0x146ff31",
      "gasUsed": "0xc9aa",
      "effectiveGasPrice": "0x865d9",
      "from": "0xecba9756092b7851f4918ec6bab2085b8f88b8ff",
      "to": "0xc52d3f65ad9b25ce99bc9992f262aeaad10bccc8",
      "contractAddress": null,
      "l1BaseFeeScalar": "0x44d",
      "l1BlobBaseFee": "0x1",
      "l1BlobBaseFeeScalar": "0xa118b",
      "l1Fee": "0x7021884e",
      "l1GasPrice": "0x3fa725b4",
      "l1GasUsed": "0x640"
    },
    {
      "status": "0x1",
      "cumulativeGasUsed": "0x2b3440",
      "logs": [
        {
          "address": "0xc52d3f65ad9b25ce99bc9992f262aeaad10bccc8",
          "topics": [
            "0xddf252ad1be2c89b69c2b068fc378daa952ba7f163c4a11628f55a4df523b3ef",
            "0x000000000000000000000000ecba9756092b7851f4918ec6bab2085b8f88b8ff",
            "0x000000000000000000000000bd4114d7521f80c4bad67f5ece1c843627078791"
          ],
          "data": "0x00000000000000000000000000000000000000000000003635c9adc5dea00000",
          "blockHash": "0xa3b1b46ce00e1032f76f18e137dcb21351282ac468beb1862878889469609ffa",
          "blockNumber": "0x146ff31",
          "transactionHash": "0x9edd3a89b251c8a5d0e10a8ff98daba52cbfd771f7a955bd2ca7dd6af7a672df",
          "transactionIndex": "0x19",
          "logIndex": "0x39",
          "removed": false
        }
      ],
      "logsBloom": "0x00000800000000000000000000000000000000000000000000000000000000000000000000000000001000000000000000080000000000000000000000000000000400000000000000000008000000000000000000000000000000000000000000000000000000000000000000000000001000000000000000000012000000000000000000000000000000000000000000000000000000000000000000000000000000000001000000000000000000000000000000000000000000000000000000000002000000000040000000000000000000000000000000000000000000000000000000000000000000000000400000000000000000000000000000000000",
      "type": "0x2",
      "transactionHash": "0x9edd3a89b251c8a5d0e10a8ff98daba52cbfd771f7a955bd2ca7dd6af7a672df",
      "transactionIndex": "0x19",
      "blockHash": "0xa3b1b46ce00e1032f76f18e137dcb21351282ac468beb1862878889469609ffa",
      "blockNumber": "0x146ff31",
      "gasUsed": "0xb6ea",
      "effectiveGasPrice": "0x865d9",
      "from": "0xecba9756092b7851f4918ec6bab2085b8f88b8ff",
      "to": "0xc52d3f65ad9b25ce99bc9992f262aeaad10bccc8",
      "contractAddress": null,
      "l1BaseFeeScalar": "0x44d",
      "l1BlobBaseFee": "0x1",
      "l1BlobBaseFeeScalar": "0xa118b",
      "l1Fee": "0x7021884e",
      "l1GasPrice": "0x3fa725b4",
      "l1GasUsed": "0x640"
    }
  ],
  "libraries": [],
  "pending": [],
  "returns": {},
  "timestamp": 1738628420,
  "chain": 84532,
  "commit": "179dd92"
}
