{
  "transactions": [
    {
      "hash": "0xa1716c4c17dbc4f2c4247a02bbe8cb6cff14804253ed45ebd144bb2b7a4b690a",
      "transactionType": "CALL",
      "contractName": null,
      "contractAddress": "0x010f80d930a5bc6d9a37f4fa0a965740c9825f95",
      "function": "mint(uint256)",
      "arguments": [
        "4000000000000000000000"
      ],
      "transaction": {
        "from": "0xecba9756092b7851f4918ec6bab2085b8f88b8ff",
        "to": "0x010f80d930a5bc6d9a37f4fa0a965740c9825f95",
        "gas": "0x16ee2",
        "value": "0x0",
        "input": "0xa0712d680000000000000000000000000000000000000000000000d8d726b7177a800000",
        "nonce": "0xac",
        "chainId": "0x14a34"
      },
      "additionalContracts": [],
      "isFixedGasLimit": false
    },
    {
      "hash": "0x3248f7aee15a55c229b94cb934c10ca90635ebef261aba9e42184d4693d57a58",
      "transactionType": "CALL",
      "contractName": null,
      "contractAddress": "0x010f80d930a5bc6d9a37f4fa0a965740c9825f95",
      "function": "transfer(address,uint256)",
      "arguments": [
        "0xbb02a9D6A71A847D587cE4Dbb92F32f79c2EfB2a",
        "1000000000000000000000"
      ],
      "transaction": {
        "from": "0xecba9756092b7851f4918ec6bab2085b8f88b8ff",
        "to": "0x010f80d930a5bc6d9a37f4fa0a965740c9825f95",
        "gas": "0x126ee",
        "value": "0x0",
        "input": "0xa9059cbb000000000000000000000000bb02a9d6a71a847d587ce4dbb92f32f79c2efb2a00000000000000000000000000000000000000000000003635c9adc5dea00000",
        "nonce": "0xad",
        "chainId": "0x14a34"
      },
      "additionalContracts": [],
      "isFixedGasLimit": false
    },
    {
      "hash": "0xf5b21c9aa93d602fd99e8622071b29e21aab51b0d1bab6b869f1962eda477e80",
      "transactionType": "CALL",
      "contractName": null,
      "contractAddress": "0x010f80d930a5bc6d9a37f4fa0a965740c9825f95",
      "function": "transfer(address,uint256)",
      "arguments": [
        "0xb47CFCf8181D36117142b83D31BBBF63B1b250fE",
        "1000000000000000000000"
      ],
      "transaction": {
        "from": "0xecba9756092b7851f4918ec6bab2085b8f88b8ff",
        "to": "0x010f80d930a5bc6d9a37f4fa0a965740c9825f95",
        "gas": "0x126ee",
        "value": "0x0",
        "input": "0xa9059cbb000000000000000000000000b47cfcf8181d36117142b83d31bbbf63b1b250fe00000000000000000000000000000000000000000000003635c9adc5dea00000",
        "nonce": "0xae",
        "chainId": "0x14a34"
      },
      "additionalContracts": [],
      "isFixedGasLimit": false
    },
    {
      "hash": "0x4ba3b80270adcc87d4909eb4d2803425ee369d774b30f101e8a1ac70cfd150e4",
      "transactionType": "CALL",
      "contractName": null,
      "contractAddress": "0x010f80d930a5bc6d9a37f4fa0a965740c9825f95",
      "function": "transfer(address,uint256)",
      "arguments": [
        "0xb1AfD5179ac5D755C2da5bd2F961F5520647aEB2",
        "1000000000000000000000"
      ],
      "transaction": {
        "from": "0xecba9756092b7851f4918ec6bab2085b8f88b8ff",
        "to": "0x010f80d930a5bc6d9a37f4fa0a965740c9825f95",
        "gas": "0x126ee",
        "value": "0x0",
        "input": "0xa9059cbb000000000000000000000000b1afd5179ac5d755c2da5bd2f961f5520647aeb200000000000000000000000000000000000000000000003635c9adc5dea00000",
        "nonce": "0xaf",
        "chainId": "0x14a34"
      },
      "additionalContracts": [],
      "isFixedGasLimit": false
    },
    {
      "hash": "0xb4852edf6ce0aa31c6cdeefb462827cf22be81408b2c8bd50eba8451f20b72a2",
      "transactionType": "CALL",
      "contractName": null,
      "contractAddress": "0x010f80d930a5bc6d9a37f4fa0a965740c9825f95",
      "function": "transfer(address,uint256)",
      "arguments": [
        "0xBd4114D7521F80C4bad67F5ECE1C843627078791",
        "1000000000000000000000"
      ],
      "transaction": {
        "from": "0xecba9756092b7851f4918ec6bab2085b8f88b8ff",
        "to": "0x010f80d930a5bc6d9a37f4fa0a965740c9825f95",
        "gas": "0x10b82",
        "value": "0x0",
        "input": "0xa9059cbb000000000000000000000000bd4114d7521f80c4bad67f5ece1c84362707879100000000000000000000000000000000000000000000003635c9adc5dea00000",
        "nonce": "0xb0",
        "chainId": "0x14a34"
      },
      "additionalContracts": [],
      "isFixedGasLimit": false
    }
  ],
  "receipts": [
    {
      "status": "0x1",
      "cumulativeGasUsed": "0x74eaef",
      "logs": [
        {
          "address": "0x010f80d930a5bc6d9a37f4fa0a965740c9825f95",
          "topics": [
            "0xddf252ad1be2c89b69c2b068fc378daa952ba7f163c4a11628f55a4df523b3ef",
            "0x0000000000000000000000000000000000000000000000000000000000000000",
            "0x000000000000000000000000ecba9756092b7851f4918ec6bab2085b8f88b8ff"
          ],
          "data": "0x0000000000000000000000000000000000000000000000d8d726b7177a800000",
          "blockHash": "0x72369fc4966f8fd0f74e5e627597187e53836e01ec6be7f346cfccd83f0a6f7e",
          "blockNumber": "0x1488dff",
          "transactionHash": "0xa1716c4c17dbc4f2c4247a02bbe8cb6cff14804253ed45ebd144bb2b7a4b690a",
          "transactionIndex": "0x46",
          "logIndex": "0xc0",
          "removed": false
        }
      ],
      "logsBloom": "0x00000000000000000000000000000000000000000000000000000000000000000000000000000000001000000000000000000000000000000000000000000000000000000000000000000008000000000000000000000000000000000000002000000000020000000000002000000800001000000000000000000010000000000000000000000000000000000000000000000000000000000000000000000000000000000001000000000000000000000000000000000000000000000000000000000002000000000000000000000100000000000000000000000000000020000000000000000000000000000000000000000000000000000000000000000000",
      "type": "0x2",
      "transactionHash": "0xa1716c4c17dbc4f2c4247a02bbe8cb6cff14804253ed45ebd144bb2b7a4b690a",
      "transactionIndex": "0x46",
      "blockHash": "0x72369fc4966f8fd0f74e5e627597187e53836e01ec6be7f346cfccd83f0a6f7e",
      "blockNumber": "0x1488dff",
      "gasUsed": "0x1099f",
      "effectiveGasPrice": "0x28c6",
      "from": "0xecba9756092b7851f4918ec6bab2085b8f88b8ff",
      "to": "0x010f80d930a5bc6d9a37f4fa0a965740c9825f95",
      "contractAddress": null,
      "l1BaseFeeScalar": "0x44d",
      "l1BlobBaseFee": "0x98806356d5",
      "l1BlobBaseFeeScalar": "0xa118b",
      "l1Fee": "0x277e369e3873",
      "l1GasPrice": "0x1ae63026ee",
      "l1GasUsed": "0x640"
    },
    {
      "status": "0x1",
      "cumulativeGasUsed": "0x783451",
      "logs": [
        {
          "address": "0x010f80d930a5bc6d9a37f4fa0a965740c9825f95",
          "topics": [
            "0xddf252ad1be2c89b69c2b068fc378daa952ba7f163c4a11628f55a4df523b3ef",
            "0x000000000000000000000000ecba9756092b7851f4918ec6bab2085b8f88b8ff",
            "0x000000000000000000000000bb02a9d6a71a847d587ce4dbb92f32f79c2efb2a"
          ],
          "data": "0x00000000000000000000000000000000000000000000003635c9adc5dea00000",
          "blockHash": "0x72369fc4966f8fd0f74e5e627597187e53836e01ec6be7f346cfccd83f0a6f7e",
          "blockNumber": "0x1488dff",
          "transactionHash": "0x3248f7aee15a55c229b94cb934c10ca90635ebef261aba9e42184d4693d57a58",
          "transactionIndex": "0x48",
          "logIndex": "0xc5",
          "removed": false
        }
      ],
      "logsBloom": "0x00000000000000000000000000000000000000000000000000000000000000000000000000000000001000000000000000000000000000008000000000000000000000000000000000000008000000000000000000000000000000000000002000000000000000000000002000000000001000000000000000000010000000000000000000000000000000000000000000000000000000000000000000000000000000000001000000000000000000000000000000000000000000000000000000008002000000020000000000000100000000000000000000000000000000000000000000000000000000000000000000000000000000000000000000000000",
      "type": "0x2",
      "transactionHash": "0x3248f7aee15a55c229b94cb934c10ca90635ebef261aba9e42184d4693d57a58",
      "transactionIndex": "0x48",
      "blockHash": "0x72369fc4966f8fd0f74e5e627597187e53836e01ec6be7f346cfccd83f0a6f7e",
      "blockNumber": "0x1488dff",
      "gasUsed": "0xc9aa",
      "effectiveGasPrice": "0x28c6",
      "from": "0xecba9756092b7851f4918ec6bab2085b8f88b8ff",
      "to": "0x010f80d930a5bc6d9a37f4fa0a965740c9825f95",
      "contractAddress": null,
      "l1BaseFeeScalar": "0x44d",
      "l1BlobBaseFee": "0x98806356d5",
      "l1BlobBaseFeeScalar": "0xa118b",
      "l1Fee": "0x277e369e3873",
      "l1GasPrice": "0x1ae63026ee",
      "l1GasUsed": "0x640"
    },
    {
      "status": "0x1",
      "cumulativeGasUsed": "0x78fdfb",
      "logs": [
        {
          "address": "0x010f80d930a5bc6d9a37f4fa0a965740c9825f95",
          "topics": [
            "0xddf252ad1be2c89b69c2b068fc378daa952ba7f163c4a11628f55a4df523b3ef",
            "0x000000000000000000000000ecba9756092b7851f4918ec6bab2085b8f88b8ff",
            "0x000000000000000000000000b47cfcf8181d36117142b83d31bbbf63b1b250fe"
          ],
          "data": "0x00000000000000000000000000000000000000000000003635c9adc5dea00000",
          "blockHash": "0x72369fc4966f8fd0f74e5e627597187e53836e01ec6be7f346cfccd83f0a6f7e",
          "blockNumber": "0x1488dff",
          "transactionHash": "0xf5b21c9aa93d602fd99e8622071b29e21aab51b0d1bab6b869f1962eda477e80",
          "transactionIndex": "0x49",
          "logIndex": "0xc6",
          "removed": false
        }
      ],
      "logsBloom": "0x00000000000000000000000000000000000000000000000000000000000000000000000000000000081000000000000000000000000000000000000000000000000000000000000000000008000000000000000000800000000000000000002000000000000000000000002000000000001000000000000000000010000000000000000000000000000000000000000000000000000000000000000000000000000000000001000000000000000000000000000000000000000000000000000000000002000000000000000000000100000000000000000000000000000000000000000000000000000000000000000000000000000001000000000000000000",
      "type": "0x2",
      "transactionHash": "0xf5b21c9aa93d602fd99e8622071b29e21aab51b0d1bab6b869f1962eda477e80",
      "transactionIndex": "0x49",
      "blockHash": "0x72369fc4966f8fd0f74e5e627597187e53836e01ec6be7f346cfccd83f0a6f7e",
      "blockNumber": "0x1488dff",
      "gasUsed": "0xc9aa",
      "effectiveGasPrice": "0x28c6",
      "from": "0xecba9756092b7851f4918ec6bab2085b8f88b8ff",
      "to": "0x010f80d930a5bc6d9a37f4fa0a965740c9825f95",
      "contractAddress": null,
      "l1BaseFeeScalar": "0x44d",
      "l1BlobBaseFee": "0x98806356d5",
      "l1BlobBaseFeeScalar": "0xa118b",
      "l1Fee": "0x277e369e3873",
      "l1GasPrice": "0x1ae63026ee",
      "l1GasUsed": "0x640"
    },
    {
      "status": "0x1",
      "cumulativeGasUsed": "0x79c7a5",
      "logs": [
        {
          "address": "0x010f80d930a5bc6d9a37f4fa0a965740c9825f95",
          "topics": [
            "0xddf252ad1be2c89b69c2b068fc378daa952ba7f163c4a11628f55a4df523b3ef",
            "0x000000000000000000000000ecba9756092b7851f4918ec6bab2085b8f88b8ff",
            "0x000000000000000000000000b1afd5179ac5d755c2da5bd2f961f5520647aeb2"
          ],
          "data": "0x00000000000000000000000000000000000000000000003635c9adc5dea00000",
          "blockHash": "0x72369fc4966f8fd0f74e5e627597187e53836e01ec6be7f346cfccd83f0a6f7e",
          "blockNumber": "0x1488dff",
          "transactionHash": "0x4ba3b80270adcc87d4909eb4d2803425ee369d774b30f101e8a1ac70cfd150e4",
          "transactionIndex": "0x4a",
          "logIndex": "0xc7",
          "removed": false
        }
      ],
      "logsBloom": "0x00000100000000000000000000000000000000000000000000000000000000000000000000000000001000000000000000000000000000000000000000000000000000000000000000000008000000000000000000000000000000000000002000000000000000000000002000000000001000000000000000000010000000000000000000000000000000000000000000000000000000000000000000000000000000000001000000000000000200000040000000000000000000000000000000000002000000000000000000000100000000000000000000000000000000000000000000000000000000000000000000000000000000000000000000000000",
      "type": "0x2",
      "transactionHash": "0x4ba3b80270adcc87d4909eb4d2803425ee369d774b30f101e8a1ac70cfd150e4",
      "transactionIndex": "0x4a",
      "blockHash": "0x72369fc4966f8fd0f74e5e627597187e53836e01ec6be7f346cfccd83f0a6f7e",
      "blockNumber": "0x1488dff",
      "gasUsed": "0xc9aa",
      "effectiveGasPrice": "0x28c6",
      "from": "0xecba9756092b7851f4918ec6bab2085b8f88b8ff",
      "to": "0x010f80d930a5bc6d9a37f4fa0a965740c9825f95",
      "contractAddress": null,
      "l1BaseFeeScalar": "0x44d",
      "l1BlobBaseFee": "0x98806356d5",
      "l1BlobBaseFeeScalar": "0xa118b",
      "l1Fee": "0x277e369e3873",
      "l1GasPrice": "0x1ae63026ee",
      "l1GasUsed": "0x640"
    },
    {
      "status": "0x1",
      "cumulativeGasUsed": "0x7cdbdb",
      "logs": [
        {
          "address": "0x010f80d930a5bc6d9a37f4fa0a965740c9825f95",
          "topics": [
            "0xddf252ad1be2c89b69c2b068fc378daa952ba7f163c4a11628f55a4df523b3ef",
            "0x000000000000000000000000ecba9756092b7851f4918ec6bab2085b8f88b8ff",
            "0x000000000000000000000000bd4114d7521f80c4bad67f5ece1c843627078791"
          ],
          "data": "0x00000000000000000000000000000000000000000000003635c9adc5dea00000",
          "blockHash": "0x72369fc4966f8fd0f74e5e627597187e53836e01ec6be7f346cfccd83f0a6f7e",
          "blockNumber": "0x1488dff",
          "transactionHash": "0xb4852edf6ce0aa31c6cdeefb462827cf22be81408b2c8bd50eba8451f20b72a2",
          "transactionIndex": "0x4c",
          "logIndex": "0xcb",
          "removed": false
        }
      ],
      "logsBloom": "0x00000800000000000000000000000000000000000000000000000000000000000000000000000000001000000000000000000000000000000000000000000000000400000000000000000008000000000000000000000000000000000000002000000000000000000000002000000000001000000000000000000012000000000000000000000000000000000000000000000000000000000000000000000000000000000001000000000000000000000000000000000000000000000000000000000002000000000000000000000100000000000000000000000000000000000000000000000000000000000000000000000000000000000000000000000000",
      "type": "0x2",
      "transactionHash": "0xb4852edf6ce0aa31c6cdeefb462827cf22be81408b2c8bd50eba8451f20b72a2",
      "transactionIndex": "0x4c",
      "blockHash": "0x72369fc4966f8fd0f74e5e627597187e53836e01ec6be7f346cfccd83f0a6f7e",
      "blockNumber": "0x1488dff",
      "gasUsed": "0xb6ea",
      "effectiveGasPrice": "0x28c6",
      "from": "0xecba9756092b7851f4918ec6bab2085b8f88b8ff",
      "to": "0x010f80d930a5bc6d9a37f4fa0a965740c9825f95",
      "contractAddress": null,
      "l1BaseFeeScalar": "0x44d",
      "l1BlobBaseFee": "0x98806356d5",
      "l1BlobBaseFeeScalar": "0xa118b",
      "l1Fee": "0x277e369e3873",
      "l1GasPrice": "0x1ae63026ee",
      "l1GasUsed": "0x640"
    }
  ],
  "libraries": [],
  "pending": [],
  "returns": {},
  "timestamp": 1738832608,
  "chain": 84532,
  "commit": "270a582"
}