{
  "transactions": [
    {
      "hash": "0xb60aced3ff54f4169fd77f72cdea84a94f33795d158352df73d48d0ae9d31af8",
      "transactionType": "CALL",
      "contractName": null,
      "contractAddress": "0x7f310442e1ddfa18a5f98410195d381d1cb8db1b",
      "function": "mint(uint256)",
      "arguments": [
        "4000000000000000000000"
      ],
      "transaction": {
        "from": "0xecba9756092b7851f4918ec6bab2085b8f88b8ff",
        "to": "0x7f310442e1ddfa18a5f98410195d381d1cb8db1b",
        "gas": "0x16ee2",
        "value": "0x0",
        "input": "0xa0712d680000000000000000000000000000000000000000000000d8d726b7177a800000",
        "nonce": "0x81",
        "chainId": "0x14a34"
      },
      "additionalContracts": [],
      "isFixedGasLimit": false
    },
    {
      "hash": "0x419dda858dd453b792ee08ca444fb343a79f3b8cf78b6237f09da8121716a842",
      "transactionType": "CALL",
      "contractName": null,
      "contractAddress": "0x7f310442e1ddfa18a5f98410195d381d1cb8db1b",
      "function": "transfer(address,uint256)",
      "arguments": [
        "0xbb02a9D6A71A847D587cE4Dbb92F32f79c2EfB2a",
        "1000000000000000000000"
      ],
      "transaction": {
        "from": "0xecba9756092b7851f4918ec6bab2085b8f88b8ff",
        "to": "0x7f310442e1ddfa18a5f98410195d381d1cb8db1b",
        "gas": "0x126ee",
        "value": "0x0",
        "input": "0xa9059cbb000000000000000000000000bb02a9d6a71a847d587ce4dbb92f32f79c2efb2a00000000000000000000000000000000000000000000003635c9adc5dea00000",
        "nonce": "0x82",
        "chainId": "0x14a34"
      },
      "additionalContracts": [],
      "isFixedGasLimit": false
    },
    {
      "hash": "0xbb4ef39274e93914c47338aca3ba9896b86f5946ac5d51858d51ee8fd5e5f291",
      "transactionType": "CALL",
      "contractName": null,
      "contractAddress": "0x7f310442e1ddfa18a5f98410195d381d1cb8db1b",
      "function": "transfer(address,uint256)",
      "arguments": [
        "0xb47CFCf8181D36117142b83D31BBBF63B1b250fE",
        "1000000000000000000000"
      ],
      "transaction": {
        "from": "0xecba9756092b7851f4918ec6bab2085b8f88b8ff",
        "to": "0x7f310442e1ddfa18a5f98410195d381d1cb8db1b",
        "gas": "0x126ee",
        "value": "0x0",
        "input": "0xa9059cbb000000000000000000000000b47cfcf8181d36117142b83d31bbbf63b1b250fe00000000000000000000000000000000000000000000003635c9adc5dea00000",
        "nonce": "0x83",
        "chainId": "0x14a34"
      },
      "additionalContracts": [],
      "isFixedGasLimit": false
    },
    {
      "hash": "0x9d1539510ec566f5ef63ff932dbc056955fa2c05bf1475ed749b594231e02f88",
      "transactionType": "CALL",
      "contractName": null,
      "contractAddress": "0x7f310442e1ddfa18a5f98410195d381d1cb8db1b",
      "function": "transfer(address,uint256)",
      "arguments": [
        "0xb1AfD5179ac5D755C2da5bd2F961F5520647aEB2",
        "1000000000000000000000"
      ],
      "transaction": {
        "from": "0xecba9756092b7851f4918ec6bab2085b8f88b8ff",
        "to": "0x7f310442e1ddfa18a5f98410195d381d1cb8db1b",
        "gas": "0x126ee",
        "value": "0x0",
        "input": "0xa9059cbb000000000000000000000000b1afd5179ac5d755c2da5bd2f961f5520647aeb200000000000000000000000000000000000000000000003635c9adc5dea00000",
        "nonce": "0x84",
        "chainId": "0x14a34"
      },
      "additionalContracts": [],
      "isFixedGasLimit": false
    },
    {
      "hash": "0xde167388e3e928cc0b77443302e21268b7dfaa74f22441cf8ddabed49b21ad23",
      "transactionType": "CALL",
      "contractName": null,
      "contractAddress": "0x7f310442e1ddfa18a5f98410195d381d1cb8db1b",
      "function": "transfer(address,uint256)",
      "arguments": [
        "0xBd4114D7521F80C4bad67F5ECE1C843627078791",
        "1000000000000000000000"
      ],
      "transaction": {
        "from": "0xecba9756092b7851f4918ec6bab2085b8f88b8ff",
        "to": "0x7f310442e1ddfa18a5f98410195d381d1cb8db1b",
        "gas": "0x10b82",
        "value": "0x0",
        "input": "0xa9059cbb000000000000000000000000bd4114d7521f80c4bad67f5ece1c84362707879100000000000000000000000000000000000000000000003635c9adc5dea00000",
        "nonce": "0x85",
        "chainId": "0x14a34"
      },
      "additionalContracts": [],
      "isFixedGasLimit": false
    }
  ],
  "receipts": [
    {
      "status": "0x1",
      "cumulativeGasUsed": "0x3a0f64",
      "logs": [
        {
          "address": "0x7f310442e1ddfa18a5f98410195d381d1cb8db1b",
          "topics": [
            "0xddf252ad1be2c89b69c2b068fc378daa952ba7f163c4a11628f55a4df523b3ef",
            "0x0000000000000000000000000000000000000000000000000000000000000000",
            "0x000000000000000000000000ecba9756092b7851f4918ec6bab2085b8f88b8ff"
          ],
          "data": "0x0000000000000000000000000000000000000000000000d8d726b7177a800000",
          "blockHash": "0x1bf4c651e05becdd599c73a540d032292291db1cd5280a11c72d88dda6184e07",
          "blockNumber": "0x148789a",
          "transactionHash": "0xb60aced3ff54f4169fd77f72cdea84a94f33795d158352df73d48d0ae9d31af8",
          "transactionIndex": "0x1d",
          "logIndex": "0x5a",
          "removed": false
        }
      ],
      "logsBloom": "0x00000000000000000000000000000000000000000000000000000000000000000000000000000000001000800000000000000000000000000000000000000000000000000000000000000008000000000000000000000000200000000000000000000000020000000000000000000800001000000000000000000010000000000000000000000000000000000000000000000000000000000000000000000000000000000001000000000000000000000000000000000000000000000000200000000002000000000000000000000000000000000000000000000000000020000000000000000000000000000000000000000000000000000000000000000000",
      "type": "0x2",
      "transactionHash": "0xb60aced3ff54f4169fd77f72cdea84a94f33795d158352df73d48d0ae9d31af8",
      "transactionIndex": "0x1d",
      "blockHash": "0x1bf4c651e05becdd599c73a540d032292291db1cd5280a11c72d88dda6184e07",
      "blockNumber": "0x148789a",
      "gasUsed": "0x1099f",
      "effectiveGasPrice": "0x1888e",
      "from": "0xecba9756092b7851f4918ec6bab2085b8f88b8ff",
      "to": "0x7f310442e1ddfa18a5f98410195d381d1cb8db1b",
      "contractAddress": null,
      "l1BaseFeeScalar": "0x44d",
      "l1BlobBaseFee": "0x34d520ab4b",
      "l1BlobBaseFeeScalar": "0xa118b",
      "l1Fee": "0xda4300a03a8",
      "l1GasPrice": "0x36bfd0226",
      "l1GasUsed": "0x640"
    },
    {
      "status": "0x1",
      "cumulativeGasUsed": "0x3ad90e",
      "logs": [
        {
          "address": "0x7f310442e1ddfa18a5f98410195d381d1cb8db1b",
          "topics": [
            "0xddf252ad1be2c89b69c2b068fc378daa952ba7f163c4a11628f55a4df523b3ef",
            "0x000000000000000000000000ecba9756092b7851f4918ec6bab2085b8f88b8ff",
            "0x000000000000000000000000bb02a9d6a71a847d587ce4dbb92f32f79c2efb2a"
          ],
          "data": "0x00000000000000000000000000000000000000000000003635c9adc5dea00000",
          "blockHash": "0x1bf4c651e05becdd599c73a540d032292291db1cd5280a11c72d88dda6184e07",
          "blockNumber": "0x148789a",
          "transactionHash": "0x419dda858dd453b792ee08ca444fb343a79f3b8cf78b6237f09da8121716a842",
          "transactionIndex": "0x1e",
          "logIndex": "0x5b",
          "removed": false
        }
      ],
      "logsBloom": "0x00000000000000000000000000000000000000000000000000000000000000000000000000000000001000800000000000000000000000008000000000000000000000000000000000000008000000000000000000000000200000000000000000000000000000000000000000000000001000000000000000000010000000000000000000000000000000000000000000000000000000000000000000000000000000000001000000000000000000000000000000000000000000000000200000008002000000020000000000000000000000000000000000000000000000000000000000000000000000000000000000000000000000000000000000000000",
      "type": "0x2",
      "transactionHash": "0x419dda858dd453b792ee08ca444fb343a79f3b8cf78b6237f09da8121716a842",
      "transactionIndex": "0x1e",
      "blockHash": "0x1bf4c651e05becdd599c73a540d032292291db1cd5280a11c72d88dda6184e07",
      "blockNumber": "0x148789a",
      "gasUsed": "0xc9aa",
      "effectiveGasPrice": "0x1888e",
      "from": "0xecba9756092b7851f4918ec6bab2085b8f88b8ff",
      "to": "0x7f310442e1ddfa18a5f98410195d381d1cb8db1b",
      "contractAddress": null,
      "l1BaseFeeScalar": "0x44d",
      "l1BlobBaseFee": "0x34d520ab4b",
      "l1BlobBaseFeeScalar": "0xa118b",
      "l1Fee": "0xda4300a03a8",
      "l1GasPrice": "0x36bfd0226",
      "l1GasUsed": "0x640"
    },
    {
      "status": "0x1",
      "cumulativeGasUsed": "0x3ba2b8",
      "logs": [
        {
          "address": "0x7f310442e1ddfa18a5f98410195d381d1cb8db1b",
          "topics": [
            "0xddf252ad1be2c89b69c2b068fc378daa952ba7f163c4a11628f55a4df523b3ef",
            "0x000000000000000000000000ecba9756092b7851f4918ec6bab2085b8f88b8ff",
            "0x000000000000000000000000b47cfcf8181d36117142b83d31bbbf63b1b250fe"
          ],
          "data": "0x00000000000000000000000000000000000000000000003635c9adc5dea00000",
          "blockHash": "0x1bf4c651e05becdd599c73a540d032292291db1cd5280a11c72d88dda6184e07",
          "blockNumber": "0x148789a",
          "transactionHash": "0xbb4ef39274e93914c47338aca3ba9896b86f5946ac5d51858d51ee8fd5e5f291",
          "transactionIndex": "0x1f",
          "logIndex": "0x5c",
          "removed": false
        }
      ],
      "logsBloom": "0x00000000000000000000000000000000000000000000000000000000000000000000000000000000081000800000000000000000000000000000000000000000000000000000000000000008000000000000000000800000200000000000000000000000000000000000000000000000001000000000000000000010000000000000000000000000000000000000000000000000000000000000000000000000000000000001000000000000000000000000000000000000000000000000200000000002000000000000000000000000000000000000000000000000000000000000000000000000000000000000000000000000000001000000000000000000",
      "type": "0x2",
      "transactionHash": "0xbb4ef39274e93914c47338aca3ba9896b86f5946ac5d51858d51ee8fd5e5f291",
      "transactionIndex": "0x1f",
      "blockHash": "0x1bf4c651e05becdd599c73a540d032292291db1cd5280a11c72d88dda6184e07",
      "blockNumber": "0x148789a",
      "gasUsed": "0xc9aa",
      "effectiveGasPrice": "0x1888e",
      "from": "0xecba9756092b7851f4918ec6bab2085b8f88b8ff",
      "to": "0x7f310442e1ddfa18a5f98410195d381d1cb8db1b",
      "contractAddress": null,
      "l1BaseFeeScalar": "0x44d",
      "l1BlobBaseFee": "0x34d520ab4b",
      "l1BlobBaseFeeScalar": "0xa118b",
      "l1Fee": "0xda4300a03a8",
      "l1GasPrice": "0x36bfd0226",
      "l1GasUsed": "0x640"
    },
    {
      "status": "0x1",
      "cumulativeGasUsed": "0x3efa1a",
      "logs": [
        {
          "address": "0x7f310442e1ddfa18a5f98410195d381d1cb8db1b",
          "topics": [
            "0xddf252ad1be2c89b69c2b068fc378daa952ba7f163c4a11628f55a4df523b3ef",
            "0x000000000000000000000000ecba9756092b7851f4918ec6bab2085b8f88b8ff",
            "0x000000000000000000000000b1afd5179ac5d755c2da5bd2f961f5520647aeb2"
          ],
          "data": "0x00000000000000000000000000000000000000000000003635c9adc5dea00000",
          "blockHash": "0x1bf4c651e05becdd599c73a540d032292291db1cd5280a11c72d88dda6184e07",
          "blockNumber": "0x148789a",
          "transactionHash": "0x9d1539510ec566f5ef63ff932dbc056955fa2c05bf1475ed749b594231e02f88",
          "transactionIndex": "0x21",
          "logIndex": "0x60",
          "removed": false
        }
      ],
      "logsBloom": "0x00000100000000000000000000000000000000000000000000000000000000000000000000000000001000800000000000000000000000000000000000000000000000000000000000000008000000000000000000000000200000000000000000000000000000000000000000000000001000000000000000000010000000000000000000000000000000000000000000000000000000000000000000000000000000000001000000000000000200000040000000000000000000000000200000000002000000000000000000000000000000000000000000000000000000000000000000000000000000000000000000000000000000000000000000000000",
      "type": "0x2",
      "transactionHash": "0x9d1539510ec566f5ef63ff932dbc056955fa2c05bf1475ed749b594231e02f88",
      "transactionIndex": "0x21",
      "blockHash": "0x1bf4c651e05becdd599c73a540d032292291db1cd5280a11c72d88dda6184e07",
      "blockNumber": "0x148789a",
      "gasUsed": "0xc9aa",
      "effectiveGasPrice": "0x1888e",
      "from": "0xecba9756092b7851f4918ec6bab2085b8f88b8ff",
      "to": "0x7f310442e1ddfa18a5f98410195d381d1cb8db1b",
      "contractAddress": null,
      "l1BaseFeeScalar": "0x44d",
      "l1BlobBaseFee": "0x34d520ab4b",
      "l1BlobBaseFeeScalar": "0xa118b",
      "l1Fee": "0xda4300a03a8",
      "l1GasPrice": "0x36bfd0226",
      "l1GasUsed": "0x640"
    },
    {
      "status": "0x1",
      "cumulativeGasUsed": "0x3fb104",
      "logs": [
        {
          "address": "0x7f310442e1ddfa18a5f98410195d381d1cb8db1b",
          "topics": [
            "0xddf252ad1be2c89b69c2b068fc378daa952ba7f163c4a11628f55a4df523b3ef",
            "0x000000000000000000000000ecba9756092b7851f4918ec6bab2085b8f88b8ff",
            "0x000000000000000000000000bd4114d7521f80c4bad67f5ece1c843627078791"
          ],
          "data": "0x00000000000000000000000000000000000000000000003635c9adc5dea00000",
          "blockHash": "0x1bf4c651e05becdd599c73a540d032292291db1cd5280a11c72d88dda6184e07",
          "blockNumber": "0x148789a",
          "transactionHash": "0xde167388e3e928cc0b77443302e21268b7dfaa74f22441cf8ddabed49b21ad23",
          "transactionIndex": "0x22",
          "logIndex": "0x61",
          "removed": false
        }
      ],
      "logsBloom": "0x00000800000000000000000000000000000000000000000000000000000000000000000000000000001000800000000000000000000000000000000000000000000400000000000000000008000000000000000000000000200000000000000000000000000000000000000000000000001000000000000000000012000000000000000000000000000000000000000000000000000000000000000000000000000000000001000000000000000000000000000000000000000000000000200000000002000000000000000000000000000000000000000000000000000000000000000000000000000000000000000000000000000000000000000000000000",
      "type": "0x2",
      "transactionHash": "0xde167388e3e928cc0b77443302e21268b7dfaa74f22441cf8ddabed49b21ad23",
      "transactionIndex": "0x22",
      "blockHash": "0x1bf4c651e05becdd599c73a540d032292291db1cd5280a11c72d88dda6184e07",
      "blockNumber": "0x148789a",
      "gasUsed": "0xb6ea",
      "effectiveGasPrice": "0x1888e",
      "from": "0xecba9756092b7851f4918ec6bab2085b8f88b8ff",
      "to": "0x7f310442e1ddfa18a5f98410195d381d1cb8db1b",
      "contractAddress": null,
      "l1BaseFeeScalar": "0x44d",
      "l1BlobBaseFee": "0x34d520ab4b",
      "l1BlobBaseFeeScalar": "0xa118b",
      "l1Fee": "0xda4300a03a8",
      "l1GasPrice": "0x36bfd0226",
      "l1GasUsed": "0x640"
    }
  ],
  "libraries": [],
  "pending": [],
  "returns": {},
  "timestamp": 1738821652,
  "chain": 84532,
  "commit": "e3ad21d"
}