{
  "transactions": [
    {
      "hash": "0xcfccfcee6b7db74a612a4c5b24128f9defce7e9d66b7ef0f8e2183bf8c18f673",
      "transactionType": "CALL",
      "contractName": "PlaceholderStableCoin",
      "contractAddress": "0xcfe2f7254692bbd99b67a4d7d429f46b7b5e6c92",
      "function": "mint(uint256)",
      "arguments": [
        "4000000000000000000000"
      ],
      "transaction": {
        "from": "0xecba9756092b7851f4918ec6bab2085b8f88b8ff",
        "to": "0xcfe2f7254692bbd99b67a4d7d429f46b7b5e6c92",
        "gas": "0xb65c",
        "value": "0x0",
        "input": "0xa0712d680000000000000000000000000000000000000000000000d8d726b7177a800000",
        "nonce": "0xf5",
        "chainId": "0x14a34"
      },
      "additionalContracts": [],
      "isFixedGasLimit": false
    },
    {
      "hash": "0x0976794ffdbe91a5801c8e040124758c7974ea61749c131a953e11df571df803",
      "transactionType": "CALL",
      "contractName": "PlaceholderStableCoin",
      "contractAddress": "0xcfe2f7254692bbd99b67a4d7d429f46b7b5e6c92",
      "function": "transfer(address,uint256)",
      "arguments": [
        "0xbb02a9D6A71A847D587cE4Dbb92F32f79c2EfB2a",
        "1000000000000000000000"
      ],
      "transaction": {
        "from": "0xecba9756092b7851f4918ec6bab2085b8f88b8ff",
        "to": "0xcfe2f7254692bbd99b67a4d7d429f46b7b5e6c92",
        "gas": "0xba47",
        "value": "0x0",
        "input": "0xa9059cbb000000000000000000000000bb02a9d6a71a847d587ce4dbb92f32f79c2efb2a00000000000000000000000000000000000000000000003635c9adc5dea00000",
        "nonce": "0xf6",
        "chainId": "0x14a34"
      },
      "additionalContracts": [],
      "isFixedGasLimit": false
    },
    {
      "hash": "0xcc8feebbe81b1ab827460e64b2ff957e6ea83641cde248c958e728cd21af0e17",
      "transactionType": "CALL",
      "contractName": "PlaceholderStableCoin",
      "contractAddress": "0xcfe2f7254692bbd99b67a4d7d429f46b7b5e6c92",
      "function": "transfer(address,uint256)",
      "arguments": [
        "0xb47CFCf8181D36117142b83D31BBBF63B1b250fE",
        "1000000000000000000000"
      ],
      "transaction": {
        "from": "0xecba9756092b7851f4918ec6bab2085b8f88b8ff",
        "to": "0xcfe2f7254692bbd99b67a4d7d429f46b7b5e6c92",
        "gas": "0xba47",
        "value": "0x0",
        "input": "0xa9059cbb000000000000000000000000b47cfcf8181d36117142b83d31bbbf63b1b250fe00000000000000000000000000000000000000000000003635c9adc5dea00000",
        "nonce": "0xf7",
        "chainId": "0x14a34"
      },
      "additionalContracts": [],
      "isFixedGasLimit": false
    },
    {
      "hash": "0xa48797c7f829af5cfa3ff6ecad9bf77fb59c1ff85f725a71f8b159a041657224",
      "transactionType": "CALL",
      "contractName": "PlaceholderStableCoin",
      "contractAddress": "0xcfe2f7254692bbd99b67a4d7d429f46b7b5e6c92",
      "function": "transfer(address,uint256)",
      "arguments": [
        "0xb1AfD5179ac5D755C2da5bd2F961F5520647aEB2",
        "1000000000000000000000"
      ],
      "transaction": {
        "from": "0xecba9756092b7851f4918ec6bab2085b8f88b8ff",
        "to": "0xcfe2f7254692bbd99b67a4d7d429f46b7b5e6c92",
        "gas": "0xba47",
        "value": "0x0",
        "input": "0xa9059cbb000000000000000000000000b1afd5179ac5d755c2da5bd2f961f5520647aeb200000000000000000000000000000000000000000000003635c9adc5dea00000",
        "nonce": "0xf8",
        "chainId": "0x14a34"
      },
      "additionalContracts": [],
      "isFixedGasLimit": false
    },
    {
      "hash": "0xa0ea157f2e21fefded237b8293efb0f638e292556c3dd38a6bf41c829dd50206",
      "transactionType": "CALL",
      "contractName": "PlaceholderStableCoin",
      "contractAddress": "0xcfe2f7254692bbd99b67a4d7d429f46b7b5e6c92",
      "function": "transfer(address,uint256)",
      "arguments": [
        "0xBd4114D7521F80C4bad67F5ECE1C843627078791",
        "1000000000000000000000"
      ],
      "transaction": {
        "from": "0xecba9756092b7851f4918ec6bab2085b8f88b8ff",
        "to": "0xcfe2f7254692bbd99b67a4d7d429f46b7b5e6c92",
        "gas": "0xba47",
        "value": "0x0",
        "input": "0xa9059cbb000000000000000000000000bd4114d7521f80c4bad67f5ece1c84362707879100000000000000000000000000000000000000000000003635c9adc5dea00000",
        "nonce": "0xf9",
        "chainId": "0x14a34"
      },
      "additionalContracts": [],
      "isFixedGasLimit": false
    }
  ],
  "receipts": [
    {
      "status": "0x1",
      "cumulativeGasUsed": "0x47cf30",
      "logs": [
        {
          "address": "0xcfe2f7254692bbd99b67a4d7d429f46b7b5e6c92",
          "topics": [
            "0xddf252ad1be2c89b69c2b068fc378daa952ba7f163c4a11628f55a4df523b3ef",
            "0x0000000000000000000000000000000000000000000000000000000000000000",
            "0x000000000000000000000000ecba9756092b7851f4918ec6bab2085b8f88b8ff"
          ],
          "data": "0x0000000000000000000000000000000000000000000000d8d726b7177a800000",
          "blockHash": "0x9e2bd059c1b450631b82efdcf3a84b25512affd02977abca29dc11f15282667f",
          "blockNumber": "0x1495d36",
          "transactionHash": "0xcfccfcee6b7db74a612a4c5b24128f9defce7e9d66b7ef0f8e2183bf8c18f673",
          "transactionIndex": "0x1f",
          "logIndex": "0x58",
          "removed": false
        }
      ],
      "logsBloom": "0x00000000000000000000000000000000000000000000000000000000000000000000000000000000001000000000000000000000000000000000000000000000000000000000000000000008000000000000000000000000000000000000000000000000020000000000000000000800001000000000000000000010000000000000000000000000000000000000000000000000000000000000000000000000000000000001010000000000000000000000000000000000000020000000000000000002000000000000000000000000000000000000000000000000000020000000000000000000000000000020000000000000000000000000000000000000",
      "type": "0x2",
      "transactionHash": "0xcfccfcee6b7db74a612a4c5b24128f9defce7e9d66b7ef0f8e2183bf8c18f673",
      "transactionIndex": "0x1f",
      "blockHash": "0x9e2bd059c1b450631b82efdcf3a84b25512affd02977abca29dc11f15282667f",
      "blockNumber": "0x1495d36",
      "gasUsed": "0x8407",
      "effectiveGasPrice": "0x18847",
      "from": "0xecba9756092b7851f4918ec6bab2085b8f88b8ff",
      "to": "0xcfe2f7254692bbd99b67a4d7d429f46b7b5e6c92",
      "contractAddress": null,
      "l1BaseFeeScalar": "0x44d",
      "l1BlobBaseFee": "0x22c",
      "l1BlobBaseFeeScalar": "0xa118b",
      "l1Fee": "0x2bab641958",
      "l1GasPrice": "0x18ca27ff12",
      "l1GasUsed": "0x640"
    },
    {
      "status": "0x1",
      "cumulativeGasUsed": "0x49bd2e",
      "logs": [
        {
          "address": "0xcfe2f7254692bbd99b67a4d7d429f46b7b5e6c92",
          "topics": [
            "0xddf252ad1be2c89b69c2b068fc378daa952ba7f163c4a11628f55a4df523b3ef",
            "0x000000000000000000000000ecba9756092b7851f4918ec6bab2085b8f88b8ff",
            "0x000000000000000000000000bb02a9d6a71a847d587ce4dbb92f32f79c2efb2a"
          ],
          "data": "0x00000000000000000000000000000000000000000000003635c9adc5dea00000",
          "blockHash": "0x9e2bd059c1b450631b82efdcf3a84b25512affd02977abca29dc11f15282667f",
          "blockNumber": "0x1495d36",
          "transactionHash": "0x0976794ffdbe91a5801c8e040124758c7974ea61749c131a953e11df571df803",
          "transactionIndex": "0x22",
          "logIndex": "0x5b",
          "removed": false
        }
      ],
      "logsBloom": "0x00000000000000000000000000000000000000000000000000000000000000000000000000000000001000000000000000000000000000008000000000000000000000000000000000000008000000000000000000000000000000000000000000000000000000000000000000000000001000000000000000000010000000000000000000000000000000000000000000000000000000000000000000000000000000000001010000000000000000000000000000000000000020000000000000008002000000020000000000000000000000000000000000000000000000000000000000000000000000000020000000000000000000000000000000000000",
      "type": "0x2",
      "transactionHash": "0x0976794ffdbe91a5801c8e040124758c7974ea61749c131a953e11df571df803",
      "transactionIndex": "0x22",
      "blockHash": "0x9e2bd059c1b450631b82efdcf3a84b25512affd02977abca29dc11f15282667f",
      "blockNumber": "0x1495d36",
      "gasUsed": "0x86de",
      "effectiveGasPrice": "0x18847",
      "from": "0xecba9756092b7851f4918ec6bab2085b8f88b8ff",
      "to": "0xcfe2f7254692bbd99b67a4d7d429f46b7b5e6c92",
      "contractAddress": null,
      "l1BaseFeeScalar": "0x44d",
      "l1BlobBaseFee": "0x22c",
      "l1BlobBaseFeeScalar": "0xa118b",
      "l1Fee": "0x2bab641958",
      "l1GasPrice": "0x18ca27ff12",
      "l1GasUsed": "0x640"
    },
    {
      "status": "0x1",
      "cumulativeGasUsed": "0x4a440c",
      "logs": [
        {
          "address": "0xcfe2f7254692bbd99b67a4d7d429f46b7b5e6c92",
          "topics": [
            "0xddf252ad1be2c89b69c2b068fc378daa952ba7f163c4a11628f55a4df523b3ef",
            "0x000000000000000000000000ecba9756092b7851f4918ec6bab2085b8f88b8ff",
            "0x000000000000000000000000b47cfcf8181d36117142b83d31bbbf63b1b250fe"
          ],
          "data": "0x00000000000000000000000000000000000000000000003635c9adc5dea00000",
          "blockHash": "0x9e2bd059c1b450631b82efdcf3a84b25512affd02977abca29dc11f15282667f",
          "blockNumber": "0x1495d36",
          "transactionHash": "0xcc8feebbe81b1ab827460e64b2ff957e6ea83641cde248c958e728cd21af0e17",
          "transactionIndex": "0x23",
          "logIndex": "0x5c",
          "removed": false
        }
      ],
      "logsBloom": "0x00000000000000000000000000000000000000000000000000000000000000000000000000000000081000000000000000000000000000000000000000000000000000000000000000000008000000000000000000800000000000000000000000000000000000000000000000000000001000000000000000000010000000000000000000000000000000000000000000000000000000000000000000000000000000000001010000000000000000000000000000000000000020000000000000000002000000000000000000000000000000000000000000000000000000000000000000000000000000000020000000000000000001000000000000000000",
      "type": "0x2",
      "transactionHash": "0xcc8feebbe81b1ab827460e64b2ff957e6ea83641cde248c958e728cd21af0e17",
      "transactionIndex": "0x23",
      "blockHash": "0x9e2bd059c1b450631b82efdcf3a84b25512affd02977abca29dc11f15282667f",
      "blockNumber": "0x1495d36",
      "gasUsed": "0x86de",
      "effectiveGasPrice": "0x18847",
      "from": "0xecba9756092b7851f4918ec6bab2085b8f88b8ff",
      "to": "0xcfe2f7254692bbd99b67a4d7d429f46b7b5e6c92",
      "contractAddress": null,
      "l1BaseFeeScalar": "0x44d",
      "l1BlobBaseFee": "0x22c",
      "l1BlobBaseFeeScalar": "0xa118b",
      "l1Fee": "0x2bab641958",
      "l1GasPrice": "0x18ca27ff12",
      "l1GasUsed": "0x640"
    },
    {
      "status": "0x1",
      "cumulativeGasUsed": "0x4acaea",
      "logs": [
        {
          "address": "0xcfe2f7254692bbd99b67a4d7d429f46b7b5e6c92",
          "topics": [
            "0xddf252ad1be2c89b69c2b068fc378daa952ba7f163c4a11628f55a4df523b3ef",
            "0x000000000000000000000000ecba9756092b7851f4918ec6bab2085b8f88b8ff",
            "0x000000000000000000000000b1afd5179ac5d755c2da5bd2f961f5520647aeb2"
          ],
          "data": "0x00000000000000000000000000000000000000000000003635c9adc5dea00000",
          "blockHash": "0x9e2bd059c1b450631b82efdcf3a84b25512affd02977abca29dc11f15282667f",
          "blockNumber": "0x1495d36",
          "transactionHash": "0xa48797c7f829af5cfa3ff6ecad9bf77fb59c1ff85f725a71f8b159a041657224",
          "transactionIndex": "0x24",
          "logIndex": "0x5d",
          "removed": false
        }
      ],
      "logsBloom": "0x00000100000000000000000000000000000000000000000000000000000000000000000000000000001000000000000000000000000000000000000000000000000000000000000000000008000000000000000000000000000000000000000000000000000000000000000000000000001000000000000000000010000000000000000000000000000000000000000000000000000000000000000000000000000000000001010000000000000200000040000000000000000020000000000000000002000000000000000000000000000000000000000000000000000000000000000000000000000000000020000000000000000000000000000000000000",
      "type": "0x2",
      "transactionHash": "0xa48797c7f829af5cfa3ff6ecad9bf77fb59c1ff85f725a71f8b159a041657224",
      "transactionIndex": "0x24",
      "blockHash": "0x9e2bd059c1b450631b82efdcf3a84b25512affd02977abca29dc11f15282667f",
      "blockNumber": "0x1495d36",
      "gasUsed": "0x86de",
      "effectiveGasPrice": "0x18847",
      "from": "0xecba9756092b7851f4918ec6bab2085b8f88b8ff",
      "to": "0xcfe2f7254692bbd99b67a4d7d429f46b7b5e6c92",
      "contractAddress": null,
      "l1BaseFeeScalar": "0x44d",
      "l1BlobBaseFee": "0x22c",
      "l1BlobBaseFeeScalar": "0xa118b",
      "l1Fee": "0x2bab641958",
      "l1GasPrice": "0x18ca27ff12",
      "l1GasUsed": "0x640"
    },
    {
      "status": "0x1",
      "cumulativeGasUsed": "0x4b51c8",
      "logs": [
        {
          "address": "0xcfe2f7254692bbd99b67a4d7d429f46b7b5e6c92",
          "topics": [
            "0xddf252ad1be2c89b69c2b068fc378daa952ba7f163c4a11628f55a4df523b3ef",
            "0x000000000000000000000000ecba9756092b7851f4918ec6bab2085b8f88b8ff",
            "0x000000000000000000000000bd4114d7521f80c4bad67f5ece1c843627078791"
          ],
          "data": "0x00000000000000000000000000000000000000000000003635c9adc5dea00000",
          "blockHash": "0x9e2bd059c1b450631b82efdcf3a84b25512affd02977abca29dc11f15282667f",
          "blockNumber": "0x1495d36",
          "transactionHash": "0xa0ea157f2e21fefded237b8293efb0f638e292556c3dd38a6bf41c829dd50206",
          "transactionIndex": "0x25",
          "logIndex": "0x5e",
          "removed": false
        }
      ],
      "logsBloom": "0x00000800000000000000000000000000000000000000000000000000000000000000000000000000001000000000000000000000000000000000000000000000000400000000000000000008000000000000000000000000000000000000000000000000000000000000000000000000001000000000000000000012000000000000000000000000000000000000000000000000000000000000000000000000000000000001010000000000000000000000000000000000000020000000000000000002000000000000000000000000000000000000000000000000000000000000000000000000000000000020000000000000000000000000000000000000",
      "type": "0x2",
      "transactionHash": "0xa0ea157f2e21fefded237b8293efb0f638e292556c3dd38a6bf41c829dd50206",
      "transactionIndex": "0x25",
      "blockHash": "0x9e2bd059c1b450631b82efdcf3a84b25512affd02977abca29dc11f15282667f",
      "blockNumber": "0x1495d36",
      "gasUsed": "0x86de",
      "effectiveGasPrice": "0x18847",
      "from": "0xecba9756092b7851f4918ec6bab2085b8f88b8ff",
      "to": "0xcfe2f7254692bbd99b67a4d7d429f46b7b5e6c92",
      "contractAddress": null,
      "l1BaseFeeScalar": "0x44d",
      "l1BlobBaseFee": "0x22c",
      "l1BlobBaseFeeScalar": "0xa118b",
      "l1Fee": "0x2bab641958",
      "l1GasPrice": "0x18ca27ff12",
      "l1GasUsed": "0x640"
    }
  ],
  "libraries": [],
  "pending": [],
  "returns": {},
  "timestamp": 1738938701,
  "chain": 84532,
  "commit": "270a582"
}