{
  "transactions": [
    {
      "hash": "0x694660dbda0cd9dcfbcbc4ddb35eaf9560b2170e2146da5de2f50d4034755da1",
      "transactionType": "CALL",
      "contractName": null,
      "contractAddress": "0x58817b59b1579652b2ae2ce420056e12fc62f0fa",
      "function": "mint(uint256)",
      "arguments": [
        "4000000000000000000000"
      ],
      "transaction": {
        "from": "0xecba9756092b7851f4918ec6bab2085b8f88b8ff",
        "to": "0x58817b59b1579652b2ae2ce420056e12fc62f0fa",
        "gas": "0x16ee2",
        "value": "0x0",
        "input": "0xa0712d680000000000000000000000000000000000000000000000d8d726b7177a800000",
        "nonce": "0x55",
        "chainId": "0x14a34"
      },
      "additionalContracts": [],
      "isFixedGasLimit": false
    },
    {
      "hash": "0x2734ae903fb0875ba51acf55e2819421a677f0bf2179fcf934b325f3cada2f95",
      "transactionType": "CALL",
      "contractName": null,
      "contractAddress": "0x58817b59b1579652b2ae2ce420056e12fc62f0fa",
      "function": "transfer(address,uint256)",
      "arguments": [
        "0xbb02a9D6A71A847D587cE4Dbb92F32f79c2EfB2a",
        "1000000000000000000000"
      ],
      "transaction": {
        "from": "0xecba9756092b7851f4918ec6bab2085b8f88b8ff",
        "to": "0x58817b59b1579652b2ae2ce420056e12fc62f0fa",
        "gas": "0x126ee",
        "value": "0x0",
        "input": "0xa9059cbb000000000000000000000000bb02a9d6a71a847d587ce4dbb92f32f79c2efb2a00000000000000000000000000000000000000000000003635c9adc5dea00000",
        "nonce": "0x56",
        "chainId": "0x14a34"
      },
      "additionalContracts": [],
      "isFixedGasLimit": false
    },
    {
      "hash": "0xbd0b9cd33ae5d715470bb8c13a6022635838718fa3cf4ba605152e957649003f",
      "transactionType": "CALL",
      "contractName": null,
      "contractAddress": "0x58817b59b1579652b2ae2ce420056e12fc62f0fa",
      "function": "transfer(address,uint256)",
      "arguments": [
        "0xb47CFCf8181D36117142b83D31BBBF63B1b250fE",
        "1000000000000000000000"
      ],
      "transaction": {
        "from": "0xecba9756092b7851f4918ec6bab2085b8f88b8ff",
        "to": "0x58817b59b1579652b2ae2ce420056e12fc62f0fa",
        "gas": "0x126ee",
        "value": "0x0",
        "input": "0xa9059cbb000000000000000000000000b47cfcf8181d36117142b83d31bbbf63b1b250fe00000000000000000000000000000000000000000000003635c9adc5dea00000",
        "nonce": "0x57",
        "chainId": "0x14a34"
      },
      "additionalContracts": [],
      "isFixedGasLimit": false
    },
    {
      "hash": "0x7e508252ba26eae864f4e7b3377849eef2f44496a963247717b936c9696630c9",
      "transactionType": "CALL",
      "contractName": null,
      "contractAddress": "0x58817b59b1579652b2ae2ce420056e12fc62f0fa",
      "function": "transfer(address,uint256)",
      "arguments": [
        "0xb1AfD5179ac5D755C2da5bd2F961F5520647aEB2",
        "1000000000000000000000"
      ],
      "transaction": {
        "from": "0xecba9756092b7851f4918ec6bab2085b8f88b8ff",
        "to": "0x58817b59b1579652b2ae2ce420056e12fc62f0fa",
        "gas": "0x126ee",
        "value": "0x0",
        "input": "0xa9059cbb000000000000000000000000b1afd5179ac5d755c2da5bd2f961f5520647aeb200000000000000000000000000000000000000000000003635c9adc5dea00000",
        "nonce": "0x58",
        "chainId": "0x14a34"
      },
      "additionalContracts": [],
      "isFixedGasLimit": false
    },
    {
      "hash": "0x32046b4069448c5ff2982ea2e0e1ec6b5c011401745598566fffddc5a7706983",
      "transactionType": "CALL",
      "contractName": null,
      "contractAddress": "0x58817b59b1579652b2ae2ce420056e12fc62f0fa",
      "function": "transfer(address,uint256)",
      "arguments": [
        "0xBd4114D7521F80C4bad67F5ECE1C843627078791",
        "1000000000000000000000"
      ],
      "transaction": {
        "from": "0xecba9756092b7851f4918ec6bab2085b8f88b8ff",
        "to": "0x58817b59b1579652b2ae2ce420056e12fc62f0fa",
        "gas": "0x10b82",
        "value": "0x0",
        "input": "0xa9059cbb000000000000000000000000bd4114d7521f80c4bad67f5ece1c84362707879100000000000000000000000000000000000000000000003635c9adc5dea00000",
        "nonce": "0x59",
        "chainId": "0x14a34"
      },
      "additionalContracts": [],
      "isFixedGasLimit": false
    }
  ],
  "receipts": [
    {
      "status": "0x1",
      "cumulativeGasUsed": "0x1437723",
      "logs": [
        {
          "address": "0x58817b59b1579652b2ae2ce420056e12fc62f0fa",
          "topics": [
            "0xddf252ad1be2c89b69c2b068fc378daa952ba7f163c4a11628f55a4df523b3ef",
            "0x0000000000000000000000000000000000000000000000000000000000000000",
            "0x000000000000000000000000ecba9756092b7851f4918ec6bab2085b8f88b8ff"
          ],
          "data": "0x0000000000000000000000000000000000000000000000d8d726b7177a800000",
          "blockHash": "0x65d1d939094e8dc4c08c1a10befcab82f2629cf31e6e10e594b444c9096a8dfb",
          "blockNumber": "0x1485ae0",
          "transactionHash": "0x694660dbda0cd9dcfbcbc4ddb35eaf9560b2170e2146da5de2f50d4034755da1",
          "transactionIndex": "0x27",
          "logIndex": "0x75",
          "removed": false
        }
      ],
      "logsBloom": "0x00000000000000000000000000000000000000000000000000000000000000000000000000000000001000000000000000000000000000000000000000000000000000000000000000000008000000000000000000000000000000000000000000000000020000000000000000000800001000000000000000000010000000000000000000000000000000000000000000010000000000000000000000000000000000000001000000000000000000000000000000000000000000000000000000000002000000000000000000000000000000000000000000000000000020001000000000000000000000000004000000000000000000000000000000000000",
      "type": "0x2",
      "transactionHash": "0x694660dbda0cd9dcfbcbc4ddb35eaf9560b2170e2146da5de2f50d4034755da1",
      "transactionIndex": "0x27",
      "blockHash": "0x65d1d939094e8dc4c08c1a10befcab82f2629cf31e6e10e594b444c9096a8dfb",
      "blockNumber": "0x1485ae0",
      "gasUsed": "0x1099f",
      "effectiveGasPrice": "0x8988b",
      "from": "0xecba9756092b7851f4918ec6bab2085b8f88b8ff",
      "to": "0x58817b59b1579652b2ae2ce420056e12fc62f0fa",
      "contractAddress": null,
      "l1BaseFeeScalar": "0x44d",
      "l1BlobBaseFee": "0x1",
      "l1BlobBaseFeeScalar": "0xa118b",
      "l1Fee": "0x6059612b",
      "l1GasPrice": "0x36b1b0da",
      "l1GasUsed": "0x640"
    },
    {
      "status": "0x1",
      "cumulativeGasUsed": "0x14440cd",
      "logs": [
        {
          "address": "0x58817b59b1579652b2ae2ce420056e12fc62f0fa",
          "topics": [
            "0xddf252ad1be2c89b69c2b068fc378daa952ba7f163c4a11628f55a4df523b3ef",
            "0x000000000000000000000000ecba9756092b7851f4918ec6bab2085b8f88b8ff",
            "0x000000000000000000000000bb02a9d6a71a847d587ce4dbb92f32f79c2efb2a"
          ],
          "data": "0x00000000000000000000000000000000000000000000003635c9adc5dea00000",
          "blockHash": "0x65d1d939094e8dc4c08c1a10befcab82f2629cf31e6e10e594b444c9096a8dfb",
          "blockNumber": "0x1485ae0",
          "transactionHash": "0x2734ae903fb0875ba51acf55e2819421a677f0bf2179fcf934b325f3cada2f95",
          "transactionIndex": "0x28",
          "logIndex": "0x76",
          "removed": false
        }
      ],
      "logsBloom": "0x00000000000000000000000000000000000000000000000000000000000000000000000000000000001000000000000000000000000000008000000000000000000000000000000000000008000000000000000000000000000000000000000000000000000000000000000000000000001000000000000000000010000000000000000000000000000000000000000000010000000000000000000000000000000000000001000000000000000000000000000000000000000000000000000000008002000000020000000000000000000000000000000000000000000000001000000000000000000000000004000000000000000000000000000000000000",
      "type": "0x2",
      "transactionHash": "0x2734ae903fb0875ba51acf55e2819421a677f0bf2179fcf934b325f3cada2f95",
      "transactionIndex": "0x28",
      "blockHash": "0x65d1d939094e8dc4c08c1a10befcab82f2629cf31e6e10e594b444c9096a8dfb",
      "blockNumber": "0x1485ae0",
      "gasUsed": "0xc9aa",
      "effectiveGasPrice": "0x8988b",
      "from": "0xecba9756092b7851f4918ec6bab2085b8f88b8ff",
      "to": "0x58817b59b1579652b2ae2ce420056e12fc62f0fa",
      "contractAddress": null,
      "l1BaseFeeScalar": "0x44d",
      "l1BlobBaseFee": "0x1",
      "l1BlobBaseFeeScalar": "0xa118b",
      "l1Fee": "0x6059612b",
      "l1GasPrice": "0x36b1b0da",
      "l1GasUsed": "0x640"
    },
    {
      "status": "0x1",
      "cumulativeGasUsed": "0x1450a77",
      "logs": [
        {
          "address": "0x58817b59b1579652b2ae2ce420056e12fc62f0fa",
          "topics": [
            "0xddf252ad1be2c89b69c2b068fc378daa952ba7f163c4a11628f55a4df523b3ef",
            "0x000000000000000000000000ecba9756092b7851f4918ec6bab2085b8f88b8ff",
            "0x000000000000000000000000b47cfcf8181d36117142b83d31bbbf63b1b250fe"
          ],
          "data": "0x00000000000000000000000000000000000000000000003635c9adc5dea00000",
          "blockHash": "0x65d1d939094e8dc4c08c1a10befcab82f2629cf31e6e10e594b444c9096a8dfb",
          "blockNumber": "0x1485ae0",
          "transactionHash": "0xbd0b9cd33ae5d715470bb8c13a6022635838718fa3cf4ba605152e957649003f",
          "transactionIndex": "0x29",
          "logIndex": "0x77",
          "removed": false
        }
      ],
      "logsBloom": "0x00000000000000000000000000000000000000000000000000000000000000000000000000000000081000000000000000000000000000000000000000000000000000000000000000000008000000000000000000800000000000000000000000000000000000000000000000000000001000000000000000000010000000000000000000000000000000000000000000010000000000000000000000000000000000000001000000000000000000000000000000000000000000000000000000000002000000000000000000000000000000000000000000000000000000001000000000000000000000000004000000000000000001000000000000000000",
      "type": "0x2",
      "transactionHash": "0xbd0b9cd33ae5d715470bb8c13a6022635838718fa3cf4ba605152e957649003f",
      "transactionIndex": "0x29",
      "blockHash": "0x65d1d939094e8dc4c08c1a10befcab82f2629cf31e6e10e594b444c9096a8dfb",
      "blockNumber": "0x1485ae0",
      "gasUsed": "0xc9aa",
      "effectiveGasPrice": "0x8988b",
      "from": "0xecba9756092b7851f4918ec6bab2085b8f88b8ff",
      "to": "0x58817b59b1579652b2ae2ce420056e12fc62f0fa",
      "contractAddress": null,
      "l1BaseFeeScalar": "0x44d",
      "l1BlobBaseFee": "0x1",
      "l1BlobBaseFeeScalar": "0xa118b",
      "l1Fee": "0x6059612b",
      "l1GasPrice": "0x36b1b0da",
      "l1GasUsed": "0x640"
    },
    {
      "status": "0x1",
      "cumulativeGasUsed": "0x145d421",
      "logs": [
        {
          "address": "0x58817b59b1579652b2ae2ce420056e12fc62f0fa",
          "topics": [
            "0xddf252ad1be2c89b69c2b068fc378daa952ba7f163c4a11628f55a4df523b3ef",
            "0x000000000000000000000000ecba9756092b7851f4918ec6bab2085b8f88b8ff",
            "0x000000000000000000000000b1afd5179ac5d755c2da5bd2f961f5520647aeb2"
          ],
          "data": "0x00000000000000000000000000000000000000000000003635c9adc5dea00000",
          "blockHash": "0x65d1d939094e8dc4c08c1a10befcab82f2629cf31e6e10e594b444c9096a8dfb",
          "blockNumber": "0x1485ae0",
          "transactionHash": "0x7e508252ba26eae864f4e7b3377849eef2f44496a963247717b936c9696630c9",
          "transactionIndex": "0x2a",
          "logIndex": "0x78",
          "removed": false
        }
      ],
      "logsBloom": "0x00000100000000000000000000000000000000000000000000000000000000000000000000000000001000000000000000000000000000000000000000000000000000000000000000000008000000000000000000000000000000000000000000000000000000000000000000000000001000000000000000000010000000000000000000000000000000000000000000010000000000000000000000000000000000000001000000000000000200000040000000000000000000000000000000000002000000000000000000000000000000000000000000000000000000001000000000000000000000000004000000000000000000000000000000000000",
      "type": "0x2",
      "transactionHash": "0x7e508252ba26eae864f4e7b3377849eef2f44496a963247717b936c9696630c9",
      "transactionIndex": "0x2a",
      "blockHash": "0x65d1d939094e8dc4c08c1a10befcab82f2629cf31e6e10e594b444c9096a8dfb",
      "blockNumber": "0x1485ae0",
      "gasUsed": "0xc9aa",
      "effectiveGasPrice": "0x8988b",
      "from": "0xecba9756092b7851f4918ec6bab2085b8f88b8ff",
      "to": "0x58817b59b1579652b2ae2ce420056e12fc62f0fa",
      "contractAddress": null,
      "l1BaseFeeScalar": "0x44d",
      "l1BlobBaseFee": "0x1",
      "l1BlobBaseFeeScalar": "0xa118b",
      "l1Fee": "0x6059612b",
      "l1GasPrice": "0x36b1b0da",
      "l1GasUsed": "0x640"
    },
    {
      "status": "0x1",
      "cumulativeGasUsed": "0x1468b0b",
      "logs": [
        {
          "address": "0x58817b59b1579652b2ae2ce420056e12fc62f0fa",
          "topics": [
            "0xddf252ad1be2c89b69c2b068fc378daa952ba7f163c4a11628f55a4df523b3ef",
            "0x000000000000000000000000ecba9756092b7851f4918ec6bab2085b8f88b8ff",
            "0x000000000000000000000000bd4114d7521f80c4bad67f5ece1c843627078791"
          ],
          "data": "0x00000000000000000000000000000000000000000000003635c9adc5dea00000",
          "blockHash": "0x65d1d939094e8dc4c08c1a10befcab82f2629cf31e6e10e594b444c9096a8dfb",
          "blockNumber": "0x1485ae0",
          "transactionHash": "0x32046b4069448c5ff2982ea2e0e1ec6b5c011401745598566fffddc5a7706983",
          "transactionIndex": "0x2b",
          "logIndex": "0x79",
          "removed": false
        }
      ],
      "logsBloom": "0x00000800000000000000000000000000000000000000000000000000000000000000000000000000001000000000000000000000000000000000000000000000000400000000000000000008000000000000000000000000000000000000000000000000000000000000000000000000001000000000000000000012000000000000000000000000000000000000000000010000000000000000000000000000000000000001000000000000000000000000000000000000000000000000000000000002000000000000000000000000000000000000000000000000000000001000000000000000000000000004000000000000000000000000000000000000",
      "type": "0x2",
      "transactionHash": "0x32046b4069448c5ff2982ea2e0e1ec6b5c011401745598566fffddc5a7706983",
      "transactionIndex": "0x2b",
      "blockHash": "0x65d1d939094e8dc4c08c1a10befcab82f2629cf31e6e10e594b444c9096a8dfb",
      "blockNumber": "0x1485ae0",
      "gasUsed": "0xb6ea",
      "effectiveGasPrice": "0x8988b",
      "from": "0xecba9756092b7851f4918ec6bab2085b8f88b8ff",
      "to": "0x58817b59b1579652b2ae2ce420056e12fc62f0fa",
      "contractAddress": null,
      "l1BaseFeeScalar": "0x44d",
      "l1BlobBaseFee": "0x1",
      "l1BlobBaseFeeScalar": "0xa118b",
      "l1Fee": "0x6059612b",
      "l1GasPrice": "0x36b1b0da",
      "l1GasUsed": "0x640"
    }
  ],
  "libraries": [],
  "pending": [],
  "returns": {},
  "timestamp": 1738806434,
  "chain": 84532,
  "commit": "e3ad21d"
}