{
  "transactions": [
    {
      "hash": "0xcee0302e27ca7b05c8a4ba27ca2f93dd696a6c1954b3f244ec52d20b4be654bc",
      "transactionType": "CALL",
      "contractName": "PlaceholderAdsMarketplace",
      "contractAddress": "0x0765e09c95e7d3f43c5ec2dccefa46b2e4a12ca3",
      "function": "startAuction(uint256,uint256,uint256)",
      "arguments": [
        "100000000000000000000",
        "10000000000000000000",
        "60"
      ],
      "transaction": {
        "from": "0xecba9756092b7851f4918ec6bab2085b8f88b8ff",
        "to": "0x0765e09c95e7d3f43c5ec2dccefa46b2e4a12ca3",
        "gas": "0x101ad",
        "value": "0x0",
        "input": "0x91e078bb0000000000000000000000000000000000000000000000056bc75e2d631000000000000000000000000000000000000000000000000000008ac7230489e80000000000000000000000000000000000000000000000000000000000000000003c",
        "nonce": "0x102",
        "chainId": "0x14a34"
      },
      "additionalContracts": [],
      "isFixedGasLimit": false
    }
  ],
  "receipts": [
    {
      "status": "0x1",
      "cumulativeGasUsed": "0x5fb5ec",
      "logs": [
        {
          "address": "0x0765e09c95e7d3f43c5ec2dccefa46b2e4a12ca3",
          "topics": [
            "0xa832766a05f1bd0298b0268308621777cfe1e4eea23afe7c06beea79bc6ddd2d"
          ],
          "data": "0x0000000000000000000000000000000000000000000000056bc75e2d631000000000000000000000000000000000000000000000000000008ac7230489e800000000000000000000000000000000000000000000000000000000000067a61c32000000000000000000000000000000000000000000000000000000000000003c",
          "blockHash": "0x386e8932a6abba82b781c7da6e82be67a71dac27f5cea74fb009065420edf5d4",
          "blockNumber": "0x1495ea9",
          "transactionHash": "0xcee0302e27ca7b05c8a4ba27ca2f93dd696a6c1954b3f244ec52d20b4be654bc",
          "transactionIndex": "0x29",
          "logIndex": "0x71",
          "removed": false
        }
      ],
      "logsBloom": "0x00000000000004000000000000000000000000000000000000000000000000000000000000000000000000000000000000000000000000000000000000000040000000000000000000000000000000000000001000000000000000000000000000000000000000000000000000000000000000000000000000000000000000000000000000000000000000000000000000000000000000000000000000000000000000000000000000000000000000000000000000000000000000000000000000000000000000000000000000000000000000000000000200000000004000000000000000000000008000000000000000000000000000000000000000000000",
      "type": "0x2",
      "transactionHash": "0xcee0302e27ca7b05c8a4ba27ca2f93dd696a6c1954b3f244ec52d20b4be654bc",
      "transactionIndex": "0x29",
      "blockHash": "0x386e8932a6abba82b781c7da6e82be67a71dac27f5cea74fb009065420edf5d4",
      "blockNumber": "0x1495ea9",
      "gasUsed": "0xb031",
      "effectiveGasPrice": "0x18849",
      "from": "0xecba9756092b7851f4918ec6bab2085b8f88b8ff",
      "to": "0x0765e09c95e7d3f43c5ec2dccefa46b2e4a12ca3",
      "contractAddress": null,
      "l1BaseFeeScalar": "0x44d",
      "l1BlobBaseFee": "0x98",
      "l1BlobBaseFeeScalar": "0xa118b",
      "l1Fee": "0x32cfacecf1",
      "l1GasPrice": "0x1cd802fa61",
      "l1GasUsed": "0x640"
    }
  ],
  "libraries": [],
  "pending": [],
  "returns": {},
  "timestamp": 1738939443,
  "chain": 84532,
  "commit": "270a582"
}