{
  "transactions": [
    {
      "hash": "0x041f7c17b019d53372036e28f33e8a2cdfa3de10c32a0631bc4f6483cd2a4c79",
      "transactionType": "CALL",
      "contractName": null,
      "contractAddress": "0x94435a3a14a4cf73c55cd884a5dbbfae41198cf6",
      "function": "startAuction(uint256,uint256)",
      "arguments": [
        "100000000000000000000",
        "10000000000000000000"
      ],
      "transaction": {
        "from": "0xecba9756092b7851f4918ec6bab2085b8f88b8ff",
        "to": "0x94435a3a14a4cf73c55cd884a5dbbfae41198cf6",
        "gas": "0xfafc",
        "value": "0x0",
        "input": "0x4fee13fc0000000000000000000000000000000000000000000000056bc75e2d631000000000000000000000000000000000000000000000000000008ac7230489e80000",
        "nonce": "0x87",
        "chainId": "0x14a34"
      },
      "additionalContracts": [],
      "isFixedGasLimit": false
    }
  ],
  "receipts": [
    {
      "status": "0x1",
      "cumulativeGasUsed": "0x7422a9",
      "logs": [
        {
          "address": "0x94435a3a14a4cf73c55cd884a5dbbfae41198cf6",
          "topics": [
            "0xa832766a05f1bd0298b0268308621777cfe1e4eea23afe7c06beea79bc6ddd2d"
          ],
          "data": "0x0000000000000000000000000000000000000000000000056bc75e2d631000000000000000000000000000000000000000000000000000008ac7230489e800000000000000000000000000000000000000000000000000000000000067a450e8000000000000000000000000000000000000000000000000000000000000012c",
          "blockHash": "0x9471e0d524b8f4800d11e60f2dba81323297939a9a683ca24b574889afadb318",
          "blockNumber": "0x1487904",
          "transactionHash": "0x041f7c17b019d53372036e28f33e8a2cdfa3de10c32a0631bc4f6483cd2a4c79",
          "transactionIndex": "0x3d",
          "logIndex": "0xb7",
          "removed": false
        }
      ],
      "logsBloom": "0x00000000000000000000000000000000000000000000000000000000000000000000000000000000000000000000000000000000000000000000000000000040000000000000000000000000000000000000000000000000000000000000000000000000000000000000000000000000000000000000000000000000000000000000000000000000000000000000000000000000000000000000000000000000000000000000000000000000000000000000000000000000000000000000000000000000000000000000000000000000000000000000000200000000004000000004040000000000000000000000000000000000000000000000000001000000",
      "type": "0x2",
      "transactionHash": "0x041f7c17b019d53372036e28f33e8a2cdfa3de10c32a0631bc4f6483cd2a4c79",
      "transactionIndex": "0x3d",
      "blockHash": "0x9471e0d524b8f4800d11e60f2dba81323297939a9a683ca24b574889afadb318",
      "blockNumber": "0x1487904",
      "gasUsed": "0xb5b6",
      "effectiveGasPrice": "0x1888b",
      "from": "0xecba9756092b7851f4918ec6bab2085b8f88b8ff",
      "to": "0x94435a3a14a4cf73c55cd884a5dbbfae41198cf6",
      "contractAddress": null,
      "l1BaseFeeScalar": "0x44d",
      "l1BlobBaseFee": "0x3b6fc4ce0f",
      "l1BlobBaseFeeScalar": "0xa118b",
      "l1Fee": "0xf58b6802e5a",
      "l1GasPrice": "0x3d9bd0c95",
      "l1GasUsed": "0x640"
    }
  ],
  "libraries": [],
  "pending": [],
  "returns": {},
  "timestamp": 1738821866,
  "chain": 84532,
  "commit": "e3ad21d"
}