{
  "transactions": [
    {
      "hash": "0x0fa4afd80971c0f45e1b546c3ca65f898cb035ba87efa9259b9b7a9d06567f57",
      "transactionType": "CALL",
      "contractName": null,
      "contractAddress": "0xd0382d4b654474b531ef648e2303f87ecbbd1187",
      "function": "startAuction(uint256,uint256)",
      "arguments": [
        "100000000000000000000",
        "10000000000000000000"
      ],
      "transaction": {
        "from": "0xecba9756092b7851f4918ec6bab2085b8f88b8ff",
        "to": "0xd0382d4b654474b531ef648e2303f87ecbbd1187",
        "gas": "0x2c241",
        "value": "0x0",
        "input": "0x4fee13fc0000000000000000000000000000000000000000000000056bc75e2d631000000000000000000000000000000000000000000000000000008ac7230489e80000",
        "nonce": "0x79",
        "chainId": "0x14a34"
      },
      "additionalContracts": [],
      "isFixedGasLimit": false
    }
  ],
  "receipts": [
    {
      "status": "0x1",
      "cumulativeGasUsed": "0x71d5f5",
      "logs": [
        {
          "address": "0xd0382d4b654474b531ef648e2303f87ecbbd1187",
          "topics": [
            "0xa832766a05f1bd0298b0268308621777cfe1e4eea23afe7c06beea79bc6ddd2d"
          ],
          "data": "0x0000000000000000000000000000000000000000000000056bc75e2d631000000000000000000000000000000000000000000000000000008ac7230489e800000000000000000000000000000000000000000000000000000000000067a432cc000000000000000000000000000000000000000000000000000000000000012c",
          "blockHash": "0x38445aca33155429b1255dd4b44879f2fe46fa2e2ca787a1cd7c795de6d621fa",
          "blockNumber": "0x14869f6",
          "transactionHash": "0x0fa4afd80971c0f45e1b546c3ca65f898cb035ba87efa9259b9b7a9d06567f57",
          "transactionIndex": "0x3b",
          "logIndex": "0xae",
          "removed": false
        }
      ],
      "logsBloom": "0x00000000000000000000000000000000000000000000000000000000000000000000000000000000000000000000000000000000000000000000000000000040000000000000000000000000000000000000000000000000000000000000000000800000000000000000000000000000000000000000000000000000000000000000000000000000000000000000000000000000080000000000000000000000000000000000000000000000000000000000000000000000000000000000000000000000000000000000000000000000000000002000000200000000004000000000000000000000000000000000000000000000000000000000000000000000",
      "type": "0x2",
      "transactionHash": "0x0fa4afd80971c0f45e1b546c3ca65f898cb035ba87efa9259b9b7a9d06567f57",
      "transactionIndex": "0x3b",
      "blockHash": "0x38445aca33155429b1255dd4b44879f2fe46fa2e2ca787a1cd7c795de6d621fa",
      "blockNumber": "0x14869f6",
      "gasUsed": "0x1e2e9",
      "effectiveGasPrice": "0x271bb",
      "from": "0xecba9756092b7851f4918ec6bab2085b8f88b8ff",
      "to": "0xd0382d4b654474b531ef648e2303f87ecbbd1187",
      "contractAddress": null,
      "l1BaseFeeScalar": "0x44d",
      "l1BlobBaseFee": "0x52e8c4",
      "l1BlobBaseFeeScalar": "0xa118b",
      "l1Fee": "0xa324980a",
      "l1GasPrice": "0x507ac22d",
      "l1GasUsed": "0x640"
    }
  ],
  "libraries": [],
  "pending": [],
  "returns": {},
  "timestamp": 1738814157,
  "chain": 84532,
  "commit": "e3ad21d"
}