{
  "transactions": [
    {
      "hash": "0x3ebab37348039197f5d3b26ed4d91f46a1f76e6e0d725702b19c16512d6ca32d",
      "transactionType": "CALL",
      "contractName": null,
      "contractAddress": "0x94435a3a14a4cf73c55cd884a5dbbfae41198cf6",
      "function": "startAuction(uint256,uint256)",
      "arguments": [
        "100000000000000000000",
        "10000000000000000000"
      ],
      "transaction": {
        "from": "0xecba9756092b7851f4918ec6bab2085b8f88b8ff",
        "to": "0x94435a3a14a4cf73c55cd884a5dbbfae41198cf6",
        "gas": "0x2c241",
        "value": "0x0",
        "input": "0x4fee13fc0000000000000000000000000000000000000000000000056bc75e2d631000000000000000000000000000000000000000000000000000008ac7230489e80000",
        "nonce": "0x86",
        "chainId": "0x14a34"
      },
      "additionalContracts": [],
      "isFixedGasLimit": false
    }
  ],
  "receipts": [
    {
      "status": "0x1",
      "cumulativeGasUsed": "0xb213be",
      "logs": [
        {
          "address": "0x94435a3a14a4cf73c55cd884a5dbbfae41198cf6",
          "topics": [
            "0xa832766a05f1bd0298b0268308621777cfe1e4eea23afe7c06beea79bc6ddd2d"
          ],
          "data": "0x0000000000000000000000000000000000000000000000056bc75e2d631000000000000000000000000000000000000000000000000000008ac7230489e800000000000000000000000000000000000000000000000000000000000067a45054000000000000000000000000000000000000000000000000000000000000012c",
          "blockHash": "0xc4859c8fc71c04f6ad25259ba88c95daafe5c4a1ae96ba2c19f40327e8464f4b",
          "blockNumber": "0x14878ba",
          "transactionHash": "0x3ebab37348039197f5d3b26ed4d91f46a1f76e6e0d725702b19c16512d6ca32d",
          "transactionIndex": "0x38",
          "logIndex": "0x110",
          "removed": false
        }
      ],
      "logsBloom": "0x00000000000000000000000000000000000000000000000000000000000000000000000000000000000000000000000000000000000000000000000000000040000000000000000000000000000000000000000000000000000000000000000000000000000000000000000000000000000000000000000000000000000000000000000000000000000000000000000000000000000000000000000000000000000000000000000000000000000000000000000000000000000000000000000000000000000000000000000000000000000000000000000200000000004000000004040000000000000000000000000000000000000000000000000001000000",
      "type": "0x2",
      "transactionHash": "0x3ebab37348039197f5d3b26ed4d91f46a1f76e6e0d725702b19c16512d6ca32d",
      "transactionIndex": "0x38",
      "blockHash": "0xc4859c8fc71c04f6ad25259ba88c95daafe5c4a1ae96ba2c19f40327e8464f4b",
      "blockNumber": "0x14878ba",
      "gasUsed": "0x1e2e9",
      "effectiveGasPrice": "0x1888b",
      "from": "0xecba9756092b7851f4918ec6bab2085b8f88b8ff",
      "to": "0x94435a3a14a4cf73c55cd884a5dbbfae41198cf6",
      "contractAddress": null,
      "l1BaseFeeScalar": "0x44d",
      "l1BlobBaseFee": "0x42ddbd76a6",
      "l1BlobBaseFeeScalar": "0xa118b",
      "l1Fee": "0x1141ed00a357",
      "l1GasPrice": "0x3444a932f",
      "l1GasUsed": "0x640"
    }
  ],
  "libraries": [],
  "pending": [],
  "returns": {},
  "timestamp": 1738821717,
  "chain": 84532,
  "commit": "e3ad21d"
}