{
  "transactions": [
    {
      "hash": "0xbd9315c3c6e60c6c2915b6579f14dacdd2428f7d9a5ed05f2ed9a552db6fe328",
      "transactionType": "CALL",
      "contractName": null,
      "contractAddress": "0x054ed3e0471774514f27e00066d012b74e00c950",
      "function": "startAuction(uint256,uint256)",
      "arguments": [
        "100000000000000000000",
        "10000000000000000000"
      ],
      "transaction": {
        "from": "0xecba9756092b7851f4918ec6bab2085b8f88b8ff",
        "to": "0x054ed3e0471774514f27e00066d012b74e00c950",
        "gas": "0xeee6",
        "value": "0x0",
        "input": "0x4fee13fc0000000000000000000000000000000000000000000000056bc75e2d631000000000000000000000000000000000000000000000000000008ac7230489e80000",
        "nonce": "0x5b",
        "chainId": "0x14a34"
      },
      "additionalContracts": [],
      "isFixedGasLimit": false
    }
  ],
  "receipts": [
    {
      "status": "0x1",
      "cumulativeGasUsed": "0x7ccf0b",
      "logs": [
        {
          "address": "0x054ed3e0471774514f27e00066d012b74e00c950",
          "topics": [
            "0xa832766a05f1bd0298b0268308621777cfe1e4eea23afe7c06beea79bc6ddd2d"
          ],
          "data": "0x0000000000000000000000000000000000000000000000056bc75e2d631000000000000000000000000000000000000000000000000000008ac7230489e800000000000000000000000000000000000000000000000000000000000067a4158a000000000000000000000000000000000000000000000000000000000000012c",
          "blockHash": "0xaed58b1143db2e541d04af3ecfc55c4a3a26194edc8bfd141e45b5acaa482a34",
          "blockNumber": "0x1485b55",
          "transactionHash": "0xbd9315c3c6e60c6c2915b6579f14dacdd2428f7d9a5ed05f2ed9a552db6fe328",
          "transactionIndex": "0x3d",
          "logIndex": "0xd4",
          "removed": false
        }
      ],
      "logsBloom": "0x00000000000000000000000000000000000000000000000000000000000000000000000000000000000000000000000000000000000000000000000000000040000000000000000000000000000000000000000000000000000000000000000000000000000000000000000000020000000000000000000000000000000000000000000000000000000000000000000000000000000000000000000000000000000000000000000000000000000000000000000000000000000000000000000000020000000000002000000000000000000000000000000200000000004000000000000000000000000000000000000000000000000000000000000000000000",
      "type": "0x2",
      "transactionHash": "0xbd9315c3c6e60c6c2915b6579f14dacdd2428f7d9a5ed05f2ed9a552db6fe328",
      "transactionIndex": "0x3d",
      "blockHash": "0xaed58b1143db2e541d04af3ecfc55c4a3a26194edc8bfd141e45b5acaa482a34",
      "blockNumber": "0x1485b55",
      "gasUsed": "0xacf6",
      "effectiveGasPrice": "0x18864",
      "from": "0xecba9756092b7851f4918ec6bab2085b8f88b8ff",
      "to": "0x054ed3e0471774514f27e00066d012b74e00c950",
      "contractAddress": null,
      "l1BaseFeeScalar": "0x44d",
      "l1BlobBaseFee": "0x1",
      "l1BlobBaseFeeScalar": "0xa118b",
      "l1Fee": "0x71b9488f",
      "l1GasPrice": "0x408e9d12",
      "l1GasUsed": "0x640"
    }
  ],
  "libraries": [],
  "pending": [],
  "returns": {},
  "timestamp": 1738806667,
  "chain": 84532,
  "commit": "e3ad21d"
}