{
  "transactions": [
    {
      "hash": "0xcb1cdc404535cb1bf1d1796a8be796ed88983fcafb4d8c5cbf10e2fb5e3c8c10",
      "transactionType": "CALL",
      "contractName": "PlaceholderAdsMarketplace",
      "contractAddress": "0x0765e09c95e7d3f43c5ec2dccefa46b2e4a12ca3",
      "function": "startAuction(uint256,uint256,uint256)",
      "arguments": [
        "100000000000000000000",
        "10000000000000000000",
        "60"
      ],
      "transaction": {
        "from": "0xecba9756092b7851f4918ec6bab2085b8f88b8ff",
        "to": "0x0765e09c95e7d3f43c5ec2dccefa46b2e4a12ca3",
        "gas": "0x101ad",
        "value": "0x0",
        "input": "0x91e078bb0000000000000000000000000000000000000000000000056bc75e2d631000000000000000000000000000000000000000000000000000008ac7230489e80000000000000000000000000000000000000000000000000000000000000000003c",
        "nonce": "0xf2",
        "chainId": "0x14a34"
      },
      "additionalContracts": [],
      "isFixedGasLimit": false
    }
  ],
  "receipts": [
    {
      "status": "0x1",
      "cumulativeGasUsed": "0x15f27cd",
      "logs": [
        {
          "address": "0x0765e09c95e7d3f43c5ec2dccefa46b2e4a12ca3",
          "topics": [
            "0xa832766a05f1bd0298b0268308621777cfe1e4eea23afe7c06beea79bc6ddd2d"
          ],
          "data": "0x0000000000000000000000000000000000000000000000056bc75e2d631000000000000000000000000000000000000000000000000000008ac7230489e800000000000000000000000000000000000000000000000000000000000067a61890000000000000000000000000000000000000000000000000000000000000003c",
          "blockHash": "0xd538d59cb86ca0fc6b5ebd47250830cc7075ac143453e51e338a7dfb3b085e1b",
          "blockNumber": "0x1495cd8",
          "transactionHash": "0xcb1cdc404535cb1bf1d1796a8be796ed88983fcafb4d8c5cbf10e2fb5e3c8c10",
          "transactionIndex": "0x27",
          "logIndex": "0x85",
          "removed": false
        }
      ],
      "logsBloom": "0x00000000000004000000000000000000000000000000000000000000000000000000000000000000000000000000000000000000000000000000000000000040000000000000000000000000000000000000001000000000000000000000000000000000000000000000000000000000000000000000000000000000000000000000000000000000000000000000000000000000000000000000000000000000000000000000000000000000000000000000000000000000000000000000000000000000000000000000000000000000000000000000000200000000004000000000000000000000008000000000000000000000000000000000000000000000",
      "type": "0x2",
      "transactionHash": "0xcb1cdc404535cb1bf1d1796a8be796ed88983fcafb4d8c5cbf10e2fb5e3c8c10",
      "transactionIndex": "0x27",
      "blockHash": "0xd538d59cb86ca0fc6b5ebd47250830cc7075ac143453e51e338a7dfb3b085e1b",
      "blockNumber": "0x1495cd8",
      "gasUsed": "0xb031",
      "effectiveGasPrice": "0x1883d",
      "from": "0xecba9756092b7851f4918ec6bab2085b8f88b8ff",
      "to": "0x0765e09c95e7d3f43c5ec2dccefa46b2e4a12ca3",
      "contractAddress": null,
      "l1BaseFeeScalar": "0x44d",
      "l1BlobBaseFee": "0x242",
      "l1BlobBaseFeeScalar": "0xa118b",
      "l1Fee": "0x27dfa7a437",
      "l1GasPrice": "0x16a288eb5a",
      "l1GasUsed": "0x640"
    }
  ],
  "libraries": [],
  "pending": [],
  "returns": {},
  "timestamp": 1738938513,
  "chain": 84532,
  "commit": "270a582"
}