{
  "transactions": [
    {
      "hash": "0x12cf39d63fb184aac01aabaeac54c50c42dc54ca43c4020fd16c5492cc7fc6e4",
      "transactionType": "CALL",
      "contractName": null,
      "contractAddress": "0x054ed3e0471774514f27e00066d012b74e00c950",
      "function": "startAuction(uint256,uint256)",
      "arguments": [
        "100000000000000000000",
        "10000000000000000000"
      ],
      "transaction": {
        "from": "0xecba9756092b7851f4918ec6bab2085b8f88b8ff",
        "to": "0x054ed3e0471774514f27e00066d012b74e00c950",
        "gas": "0x2c241",
        "value": "0x0",
        "input": "0x4fee13fc0000000000000000000000000000000000000000000000056bc75e2d631000000000000000000000000000000000000000000000000000008ac7230489e80000",
        "nonce": "0x5a",
        "chainId": "0x14a34"
      },
      "additionalContracts": [],
      "isFixedGasLimit": false
    }
  ],
  "receipts": [
    {
      "status": "0x1",
      "cumulativeGasUsed": "0x7e8700",
      "logs": [
        {
          "address": "0x054ed3e0471774514f27e00066d012b74e00c950",
          "topics": [
            "0xa832766a05f1bd0298b0268308621777cfe1e4eea23afe7c06beea79bc6ddd2d"
          ],
          "data": "0x0000000000000000000000000000000000000000000000056bc75e2d631000000000000000000000000000000000000000000000000000008ac7230489e800000000000000000000000000000000000000000000000000000000000067a414d6000000000000000000000000000000000000000000000000000000000000012c",
          "blockHash": "0x82f16d9be5fe00382588d93d6ef494896449ceef421d849d0ca67b5629ec5d91",
          "blockNumber": "0x1485afb",
          "transactionHash": "0x12cf39d63fb184aac01aabaeac54c50c42dc54ca43c4020fd16c5492cc7fc6e4",
          "transactionIndex": "0x43",
          "logIndex": "0xb7",
          "removed": false
        }
      ],
      "logsBloom": "0x00000000000000000000000000000000000000000000000000000000000000000000000000000000000000000000000000000000000000000000000000000040000000000000000000000000000000000000000000000000000000000000000000000000000000000000000000020000000000000000000000000000000000000000000000000000000000000000000000000000000000000000000000000000000000000000000000000000000000000000000000000000000000000000000000020000000000002000000000000000000000000000000200000000004000000000000000000000000000000000000000000000000000000000000000000000",
      "type": "0x2",
      "transactionHash": "0x12cf39d63fb184aac01aabaeac54c50c42dc54ca43c4020fd16c5492cc7fc6e4",
      "transactionIndex": "0x43",
      "blockHash": "0x82f16d9be5fe00382588d93d6ef494896449ceef421d849d0ca67b5629ec5d91",
      "blockNumber": "0x1485afb",
      "gasUsed": "0x1e2e9",
      "effectiveGasPrice": "0xce7b",
      "from": "0xecba9756092b7851f4918ec6bab2085b8f88b8ff",
      "to": "0x054ed3e0471774514f27e00066d012b74e00c950",
      "contractAddress": null,
      "l1BaseFeeScalar": "0x44d",
      "l1BlobBaseFee": "0x1",
      "l1BlobBaseFeeScalar": "0xa118b",
      "l1Fee": "0x6ac38d8f",
      "l1GasPrice": "0x3c9b2fa9",
      "l1GasUsed": "0x640"
    }
  ],
  "libraries": [],
  "pending": [],
  "returns": {},
  "timestamp": 1738806486,
  "chain": 84532,
  "commit": "e3ad21d"
}