{
  "transactions": [
    {
      "hash": "0x2a11bea1e2752e1aee1fdfef089beabafb5b13b632838b7c452aa53c9e1a88b8",
      "transactionType": "CALL",
      "contractName": "PlaceholderAdsMarketplace",
      "contractAddress": "0x0765e09c95e7d3f43c5ec2dccefa46b2e4a12ca3",
      "function": "startAuction(uint256,uint256,uint256)",
      "arguments": [
        "100000000000000000000",
        "10000000000000000000",
        "60"
      ],
      "transaction": {
        "from": "0xecba9756092b7851f4918ec6bab2085b8f88b8ff",
        "to": "0x0765e09c95e7d3f43c5ec2dccefa46b2e4a12ca3",
        "gas": "0x29bde",
        "value": "0x0",
        "input": "0x91e078bb0000000000000000000000000000000000000000000000056bc75e2d631000000000000000000000000000000000000000000000000000008ac7230489e80000000000000000000000000000000000000000000000000000000000000000003c",
        "nonce": "0xea",
        "chainId": "0x14a34"
      },
      "additionalContracts": [],
      "isFixedGasLimit": false
    }
  ],
  "receipts": [
    {
      "status": "0x1",
      "cumulativeGasUsed": "0x5a1bca",
      "logs": [
        {
          "address": "0x0765e09c95e7d3f43c5ec2dccefa46b2e4a12ca3",
          "topics": [
            "0xa832766a05f1bd0298b0268308621777cfe1e4eea23afe7c06beea79bc6ddd2d"
          ],
          "data": "0x0000000000000000000000000000000000000000000000056bc75e2d631000000000000000000000000000000000000000000000000000008ac7230489e800000000000000000000000000000000000000000000000000000000000067a6158e000000000000000000000000000000000000000000000000000000000000003c",
          "blockHash": "0x4284946f2bfc79ec333e99f44e434bef3463bf78f0583a54807bb5632174206b",
          "blockNumber": "0x1495b57",
          "transactionHash": "0x2a11bea1e2752e1aee1fdfef089beabafb5b13b632838b7c452aa53c9e1a88b8",
          "transactionIndex": "0x28",
          "logIndex": "0x7f",
          "removed": false
        }
      ],
      "logsBloom": "0x00000000000004000000000000000000000000000000000000000000000000000000000000000000000000000000000000000000000000000000000000000040000000000000000000000000000000000000001000000000000000000000000000000000000000000000000000000000000000000000000000000000000000000000000000000000000000000000000000000000000000000000000000000000000000000000000000000000000000000000000000000000000000000000000000000000000000000000000000000000000000000000000200000000004000000000000000000000008000000000000000000000000000000000000000000000",
      "type": "0x2",
      "transactionHash": "0x2a11bea1e2752e1aee1fdfef089beabafb5b13b632838b7c452aa53c9e1a88b8",
      "transactionIndex": "0x28",
      "blockHash": "0x4284946f2bfc79ec333e99f44e434bef3463bf78f0583a54807bb5632174206b",
      "blockNumber": "0x1495b57",
      "gasUsed": "0x1e387",
      "effectiveGasPrice": "0x18822",
      "from": "0xecba9756092b7851f4918ec6bab2085b8f88b8ff",
      "to": "0x0765e09c95e7d3f43c5ec2dccefa46b2e4a12ca3",
      "contractAddress": null,
      "l1BaseFeeScalar": "0x44d",
      "l1BlobBaseFee": "0x494",
      "l1BlobBaseFeeScalar": "0xa118b",
      "l1Fee": "0x1f7d183f62",
      "l1GasPrice": "0x11e0013c82",
      "l1GasUsed": "0x640"
    }
  ],
  "libraries": [],
  "pending": [],
  "returns": {},
  "timestamp": 1738937743,
  "chain": 84532,
  "commit": "270a582"
}