{
  "transactions": [
    {
      "hash": "0x14bb8c9a7eb86c2a445854ea9ca06ecf031436853b9e0ffac47b2264f96103a6",
      "transactionType": "CALL",
      "contractName": null,
      "contractAddress": "0x011e22fadb08ee41c0664f3995b8390da3d5d584",
      "function": "startAuction(uint256,uint256)",
      "arguments": [
        "100000000000000000000",
        "10000000000000000000"
      ],
      "transaction": {
        "from": "0xecba9756092b7851f4918ec6bab2085b8f88b8ff",
        "to": "0x011e22fadb08ee41c0664f3995b8390da3d5d584",
        "gas": "0x2c241",
        "value": "0x0",
        "input": "0x4fee13fc0000000000000000000000000000000000000000000000056bc75e2d631000000000000000000000000000000000000000000000000000008ac7230489e80000",
        "nonce": "0xb1",
        "chainId": "0x14a34"
      },
      "additionalContracts": [],
      "isFixedGasLimit": false
    }
  ],
  "receipts": [
    {
      "status": "0x1",
      "cumulativeGasUsed": "0x7b25f2",
      "logs": [
        {
          "address": "0x011e22fadb08ee41c0664f3995b8390da3d5d584",
          "topics": [
            "0xa832766a05f1bd0298b0268308621777cfe1e4eea23afe7c06beea79bc6ddd2d"
          ],
          "data": "0x0000000000000000000000000000000000000000000000056bc75e2d631000000000000000000000000000000000000000000000000000008ac7230489e800000000000000000000000000000000000000000000000000000000000067a47b5c000000000000000000000000000000000000000000000000000000000000012c",
          "blockHash": "0xbe27cc8776f7796dee38ccc595f541141ae0d49a665b338ce97d4ee91e5f305e",
          "blockNumber": "0x1488e3e",
          "transactionHash": "0x14bb8c9a7eb86c2a445854ea9ca06ecf031436853b9e0ffac47b2264f96103a6",
          "transactionIndex": "0x3c",
          "logIndex": "0xb2",
          "removed": false
        }
      ],
      "logsBloom": "0x00000000000000000000000000000000000000000000000000000000000000000000000000000000080000002000000000000000000000000000000000000040000000000000000000000000000000000000000000000000000000000000000000000000000000000000000000000000000000000000000000000000000000000000000000000000000000000000000000000000000000000000000000000000000000000000000000000000000000000000000000000000000000000000000000000000000000000000000000000000000008000000000200000000004000000000000000000000000000000000000000000000000000000000000000000000",
      "type": "0x2",
      "transactionHash": "0x14bb8c9a7eb86c2a445854ea9ca06ecf031436853b9e0ffac47b2264f96103a6",
      "transactionIndex": "0x3c",
      "blockHash": "0xbe27cc8776f7796dee38ccc595f541141ae0d49a665b338ce97d4ee91e5f305e",
      "blockNumber": "0x1488e3e",
      "gasUsed": "0x1e2e9",
      "effectiveGasPrice": "0x1885d",
      "from": "0xecba9756092b7851f4918ec6bab2085b8f88b8ff",
      "to": "0x011e22fadb08ee41c0664f3995b8390da3d5d584",
      "contractAddress": null,
      "l1BaseFeeScalar": "0x44d",
      "l1BlobBaseFee": "0x6f653ba466",
      "l1BlobBaseFeeScalar": "0xa118b",
      "l1Fee": "0x1cdd19f4d6f0",
      "l1GasPrice": "0x15f276db13",
      "l1GasUsed": "0x640"
    }
  ],
  "libraries": [],
  "pending": [],
  "returns": {},
  "timestamp": 1738832733,
  "chain": 84532,
  "commit": "270a582"
}