{
  "transactions": [
    {
      "hash": "0x8dee7c9681d7340cff4425f3cd733fde6a75c06db576897134b5091da39873f0",
      "transactionType": "CALL",
      "contractName": "PlaceholderAdsMarketplace",
      "contractAddress": "0xac662f26eff64cbc2edbcfbbe7f24478a43e5f45",
      "function": "startAuction(uint256,uint256)",
      "arguments": [
        "100000000000000000000",
        "10000000000000000000"
      ],
      "transaction": {
        "from": "0xecba9756092b7851f4918ec6bab2085b8f88b8ff",
        "to": "0xac662f26eff64cbc2edbcfbbe7f24478a43e5f45",
        "gas": "0x2c241",
        "value": "0x0",
        "input": "0x4fee13fc0000000000000000000000000000000000000000000000056bc75e2d631000000000000000000000000000000000000000000000000000008ac7230489e80000",
        "nonce": "0x39",
        "chainId": "0x14a34"
      },
      "additionalContracts": [],
      "isFixedGasLimit": false
    }
  ],
  "receipts": [
    {
      "status": "0x1",
      "cumulativeGasUsed": "0x95b8a3",
      "logs": [
        {
          "address": "0xac662f26eff64cbc2edbcfbbe7f24478a43e5f45",
          "topics": [
            "0xa832766a05f1bd0298b0268308621777cfe1e4eea23afe7c06beea79bc6ddd2d"
          ],
          "data": "0x0000000000000000000000000000000000000000000000056bc75e2d631000000000000000000000000000000000000000000000000000008ac7230489e800000000000000000000000000000000000000000000000000000000000067a4047c000000000000000000000000000000000000000000000000000000000000003c",
          "blockHash": "0xa6bc55279079f333ae0577b75f4155ee9698af7c48d4f145213297f72e25429c",
          "blockNumber": "0x14852ce",
          "transactionHash": "0x8dee7c9681d7340cff4425f3cd733fde6a75c06db576897134b5091da39873f0",
          "transactionIndex": "0x1f",
          "logIndex": "0x82",
          "removed": false
        }
      ],
      "logsBloom": "0x00000000000000000000000000000000000000000000000000000000000000000008000000000000000000000000000000000000000000000000000000000040000000000000000000000000000000000000000000000000000000000000000000000000000000000000000000000000000000000000000000000000000000000000000400000000000000000000000000000000000000000000000000000000000000000000000000000000000000000000000000000000000000000000000000000000000000000000000000000000000000000000000200000000004000000000400000000000000000000000000000000000000000000000000000000000",
      "type": "0x2",
      "transactionHash": "0x8dee7c9681d7340cff4425f3cd733fde6a75c06db576897134b5091da39873f0",
      "transactionIndex": "0x1f",
      "blockHash": "0xa6bc55279079f333ae0577b75f4155ee9698af7c48d4f145213297f72e25429c",
      "blockNumber": "0x14852ce",
      "gasUsed": "0x1e2e9",
      "effectiveGasPrice": "0xf0953",
      "from": "0xecba9756092b7851f4918ec6bab2085b8f88b8ff",
      "to": "0xac662f26eff64cbc2edbcfbbe7f24478a43e5f45",
      "contractAddress": null,
      "l1BaseFeeScalar": "0x44d",
      "l1BlobBaseFee": "0x1",
      "l1BlobBaseFeeScalar": "0xa118b",
      "l1Fee": "0x5a2a5871",
      "l1GasPrice": "0x332f0e7c",
      "l1GasUsed": "0x640"
    }
  ],
  "libraries": [],
  "pending": [],
  "returns": {},
  "timestamp": 1738802301,
  "chain": 84532,
  "commit": "01c5c73"
}