{
  "transactions": [
    {
      "hash": "0x400a8b8fd90cbc76b2a6188868a9be8d8e9e2f2b5a4c1f397e65545baefce785",
      "transactionType": "CALL",
      "contractName": null,
      "contractAddress": "0x4bde782760d45fb308ebd28fe8bc2db41393925f",
      "function": "startAuction(uint256,uint256)",
      "arguments": [
        "100000000000000000000",
        "10000000000000000000"
      ],
      "transaction": {
        "from": "0xecba9756092b7851f4918ec6bab2085b8f88b8ff",
        "to": "0x4bde782760d45fb308ebd28fe8bc2db41393925f",
        "gas": "0x2c241",
        "value": "0x0",
        "input": "0x4fee13fc0000000000000000000000000000000000000000000000056bc75e2d631000000000000000000000000000000000000000000000000000008ac7230489e80000",
        "nonce": "0x44",
        "chainId": "0x14a34"
      },
      "additionalContracts": [],
      "isFixedGasLimit": false
    }
  ],
  "receipts": [
    {
      "status": "0x1",
      "cumulativeGasUsed": "0x49db0f",
      "logs": [
        {
          "address": "0x4bde782760d45fb308ebd28fe8bc2db41393925f",
          "topics": [
            "0xa832766a05f1bd0298b0268308621777cfe1e4eea23afe7c06beea79bc6ddd2d"
          ],
          "data": "0x0000000000000000000000000000000000000000000000056bc75e2d631000000000000000000000000000000000000000000000000000008ac7230489e800000000000000000000000000000000000000000000000000000000000067a4065e000000000000000000000000000000000000000000000000000000000000012c",
          "blockHash": "0x88a55c0cb2845929dbdecb10b4325207fdf69d68440e96f34aeebf8e4b18adac",
          "blockNumber": "0x14853bf",
          "transactionHash": "0x400a8b8fd90cbc76b2a6188868a9be8d8e9e2f2b5a4c1f397e65545baefce785",
          "transactionIndex": "0x27",
          "logIndex": "0x5e",
          "removed": false
        }
      ],
      "logsBloom": "0x00000000000000000000000000000000000000000000000000000000000000000000000000000000000000000000000000000000000000000000000000000040000000000000000000000000000000000000000000000000000000000000000000000000020000000000000000000000000000000000000000000000080000000000000000000000000000000000000000000000000000000000000000000000000000000000000000000000000000000000000001000000000000000000000000000000000000000000000000000000000000000000000200000000004000000000000000000000000000000000000000000000000000000000000000000000",
      "type": "0x2",
      "transactionHash": "0x400a8b8fd90cbc76b2a6188868a9be8d8e9e2f2b5a4c1f397e65545baefce785",
      "transactionIndex": "0x27",
      "blockHash": "0x88a55c0cb2845929dbdecb10b4325207fdf69d68440e96f34aeebf8e4b18adac",
      "blockNumber": "0x14853bf",
      "gasUsed": "0x1e2e9",
      "effectiveGasPrice": "0x18838",
      "from": "0xecba9756092b7851f4918ec6bab2085b8f88b8ff",
      "to": "0x4bde782760d45fb308ebd28fe8bc2db41393925f",
      "contractAddress": null,
      "l1BaseFeeScalar": "0x44d",
      "l1BlobBaseFee": "0x1",
      "l1BlobBaseFeeScalar": "0xa118b",
      "l1Fee": "0x8099ae6a",
      "l1GasPrice": "0x490082b8",
      "l1GasUsed": "0x640"
    }
  ],
  "libraries": [],
  "pending": [],
  "returns": {},
  "timestamp": 1738802783,
  "chain": 84532,
  "commit": "01c5c73"
}