{
  "transactions": [
    {
      "hash": "0x45375d56a07c39cf909edf219fa7077cbb142e77b9fb31d0b9bd77f83a61629e",
      "transactionType": "CALL",
      "contractName": null,
      "contractAddress": "0x467aa2c078d639c1cbe85a1a7cf071dd48f678e7",
      "function": "startAuction(uint256,uint256)",
      "arguments": [
        "1000000000000000000000",
        "100000000000000000000"
      ],
      "transaction": {
        "from": "0xecba9756092b7851f4918ec6bab2085b8f88b8ff",
        "to": "0x467aa2c078d639c1cbe85a1a7cf071dd48f678e7",
        "gas": "0x2cf10",
        "value": "0x0",
        "input": "0x4fee13fc00000000000000000000000000000000000000000000003635c9adc5dea000000000000000000000000000000000000000000000000000056bc75e2d63100000",
        "nonce": "0x30",
        "chainId": "0x14a34"
      },
      "additionalContracts": [],
      "isFixedGasLimit": false
    }
  ],
  "receipts": [
    {
      "status": "0x1",
      "cumulativeGasUsed": "0x46f8fe",
      "logs": [
        {
          "address": "0x467aa2c078d639c1cbe85a1a7cf071dd48f678e7",
          "topics": [
            "0xa832766a05f1bd0298b0268308621777cfe1e4eea23afe7c06beea79bc6ddd2d"
          ],
          "data": "0x00000000000000000000000000000000000000000000003635c9adc5dea000000000000000000000000000000000000000000000000000056bc75e2d631000000000000000000000000000000000000000000000000000000000000067a18eee000000000000000000000000000000000000000000000000000000000000003c",
          "blockHash": "0x197b8c4282b2134bf4979c02955fc7d653c4e23e8446b507bc24361c9f502577",
          "blockNumber": "0x1471807",
          "transactionHash": "0x45375d56a07c39cf909edf219fa7077cbb142e77b9fb31d0b9bd77f83a61629e",
          "transactionIndex": "0x25",
          "logIndex": "0x73",
          "removed": false
        }
      ],
      "logsBloom": "0x00000000000000000000000000000000000000000000000000000000000000000000000000000000000000000000000000000000000000000000000000000040000000000000000000020000000000000000000000000000000000000000000000000000000000000000000000000000000000000000000000000000000000000000000000000000000000000000000000000000000000000000000000000000000000000000000000000000000000000000200000000000000000000000000000000000000000000000000000000000000000040000000200000000004000000000000000000000000000000000000000000000000000000000000000000000",
      "type": "0x2",
      "transactionHash": "0x45375d56a07c39cf909edf219fa7077cbb142e77b9fb31d0b9bd77f83a61629e",
      "transactionIndex": "0x25",
      "blockHash": "0x197b8c4282b2134bf4979c02955fc7d653c4e23e8446b507bc24361c9f502577",
      "blockNumber": "0x1471807",
      "gasUsed": "0x1ebab",
      "effectiveGasPrice": "0x1885a",
      "from": "0xecba9756092b7851f4918ec6bab2085b8f88b8ff",
      "to": "0x467aa2c078d639c1cbe85a1a7cf071dd48f678e7",
      "contractAddress": null,
      "l1BaseFeeScalar": "0x44d",
      "l1BlobBaseFee": "0x1",
      "l1BlobBaseFeeScalar": "0xa118b",
      "l1Fee": "0x39dce86fe",
      "l1GasPrice": "0x20d8c7d50",
      "l1GasUsed": "0x640"
    }
  ],
  "libraries": [],
  "pending": [],
  "returns": {},
  "timestamp": 1738641135,
  "chain": 84532,
  "commit": "179dd92"
}