{
  "transactions": [
    {
      "hash": "0xcdc1d5d5b880c775b3e95fd3bd4e8d86a5a7cfb24d2f3a3fc069a7cb6d3d02d2",
      "transactionType": "CALL",
      "contractName": null,
      "contractAddress": "0xbad80cd75e9731bb212b1ca1a83cf8f85b789ea9",
      "function": "startAuction(uint256,uint256)",
      "arguments": [
        "1000000000000000000000",
        "100000000000000000000"
      ],
      "transaction": {
        "from": "0xecba9756092b7851f4918ec6bab2085b8f88b8ff",
        "to": "0xbad80cd75e9731bb212b1ca1a83cf8f85b789ea9",
        "gas": "0x2cf10",
        "value": "0x0",
        "input": "0x4fee13fc00000000000000000000000000000000000000000000003635c9adc5dea000000000000000000000000000000000000000000000000000056bc75e2d63100000",
        "nonce": "0x27",
        "chainId": "0x14a34"
      },
      "additionalContracts": [],
      "isFixedGasLimit": false
    }
  ],
  "receipts": [
    {
      "status": "0x1",
      "cumulativeGasUsed": "0x8177c2",
      "logs": [
        {
          "address": "0xbad80cd75e9731bb212b1ca1a83cf8f85b789ea9",
          "topics": [
            "0xa832766a05f1bd0298b0268308621777cfe1e4eea23afe7c06beea79bc6ddd2d"
          ],
          "data": "0x00000000000000000000000000000000000000000000003635c9adc5dea000000000000000000000000000000000000000000000000000056bc75e2d631000000000000000000000000000000000000000000000000000000000000067a17e00000000000000000000000000000000000000000000000000000000000000003c",
          "blockHash": "0x7025e40eb1d632f14243de676219369d3474e746d6cebda3d62650a0a92fc468",
          "blockNumber": "0x1470f90",
          "transactionHash": "0xcdc1d5d5b880c775b3e95fd3bd4e8d86a5a7cfb24d2f3a3fc069a7cb6d3d02d2",
          "transactionIndex": "0x39",
          "logIndex": "0xce",
          "removed": false
        }
      ],
      "logsBloom": "0x00000000000000000000000000000000000000000000000000000000000000000000000000000000000000000000000000000000000000000000002000000040000000000000000000040000000000000000000000000000000000000000000000000000000000000000000000000000000000000000000000000000000000000000000000000000000000000000000000000000000000000000000000000000000000000000000000000000000000000000000000000000000000000000000000000000000000000000000000000000000000000000000200000000004000000000000000000000000000000000000000000000000001000000000000000000",
      "type": "0x2",
      "transactionHash": "0xcdc1d5d5b880c775b3e95fd3bd4e8d86a5a7cfb24d2f3a3fc069a7cb6d3d02d2",
      "transactionIndex": "0x39",
      "blockHash": "0x7025e40eb1d632f14243de676219369d3474e746d6cebda3d62650a0a92fc468",
      "blockNumber": "0x1470f90",
      "gasUsed": "0x1ebab",
      "effectiveGasPrice": "0xf4447",
      "from": "0xecba9756092b7851f4918ec6bab2085b8f88b8ff",
      "to": "0xbad80cd75e9731bb212b1ca1a83cf8f85b789ea9",
      "contractAddress": null,
      "l1BaseFeeScalar": "0x44d",
      "l1BlobBaseFee": "0x1",
      "l1BlobBaseFeeScalar": "0xa118b",
      "l1Fee": "0x7901425f",
      "l1GasPrice": "0x44b0ba93",
      "l1GasUsed": "0x640"
    }
  ],
  "libraries": [],
  "pending": [],
  "returns": {},
  "timestamp": 1738636801,
  "chain": 84532,
  "commit": "179dd92"
}