{
  "transactions": [
    {
      "hash": "0x85074e1106bf1da8054268864301f2c0fc52611f3a743732f12799749a6fe3d5",
      "transactionType": "CALL",
      "contractName": null,
      "contractAddress": "0xd0382d4b654474b531ef648e2303f87ecbbd1187",
      "function": "startAuction(uint256,uint256)",
      "arguments": [
        "100000000000000000000",
        "10000000000000000000"
      ],
      "transaction": {
        "from": "0xecba9756092b7851f4918ec6bab2085b8f88b8ff",
        "to": "0xd0382d4b654474b531ef648e2303f87ecbbd1187",
        "gas": "0xfafc",
        "value": "0x0",
        "input": "0x4fee13fc0000000000000000000000000000000000000000000000056bc75e2d631000000000000000000000000000000000000000000000000000008ac7230489e80000",
        "nonce": "0x7c",
        "chainId": "0x14a34"
      },
      "additionalContracts": [],
      "isFixedGasLimit": false
    }
  ],
  "receipts": [
    {
      "status": "0x1",
      "cumulativeGasUsed": "0x5919ee",
      "logs": [
        {
          "address": "0xd0382d4b654474b531ef648e2303f87ecbbd1187",
          "topics": [
            "0xa832766a05f1bd0298b0268308621777cfe1e4eea23afe7c06beea79bc6ddd2d"
          ],
          "data": "0x0000000000000000000000000000000000000000000000056bc75e2d631000000000000000000000000000000000000000000000000000008ac7230489e800000000000000000000000000000000000000000000000000000000000067a438aa000000000000000000000000000000000000000000000000000000000000012c",
          "blockHash": "0x570f7968b51b71c193b0d287a0a63f1388e3826bbdb8f951dca30f9ce5d1431c",
          "blockNumber": "0x1486ce5",
          "transactionHash": "0x85074e1106bf1da8054268864301f2c0fc52611f3a743732f12799749a6fe3d5",
          "transactionIndex": "0x29",
          "logIndex": "0x7c",
          "removed": false
        }
      ],
      "logsBloom": "0x00000000000000000000000000000000000000000000000000000000000000000000000000000000000000000000000000000000000000000000000000000040000000000000000000000000000000000000000000000000000000000000000000800000000000000000000000000000000000000000000000000000000000000000000000000000000000000000000000000000080000000000000000000000000000000000000000000000000000000000000000000000000000000000000000000000000000000000000000000000000000002000000200000000004000000000000000000000000000000000000000000000000000000000000000000000",
      "type": "0x2",
      "transactionHash": "0x85074e1106bf1da8054268864301f2c0fc52611f3a743732f12799749a6fe3d5",
      "transactionIndex": "0x29",
      "blockHash": "0x570f7968b51b71c193b0d287a0a63f1388e3826bbdb8f951dca30f9ce5d1431c",
      "blockNumber": "0x1486ce5",
      "gasUsed": "0xb5b6",
      "effectiveGasPrice": "0xe3064",
      "from": "0xecba9756092b7851f4918ec6bab2085b8f88b8ff",
      "to": "0xd0382d4b654474b531ef648e2303f87ecbbd1187",
      "contractAddress": null,
      "l1BaseFeeScalar": "0x44d",
      "l1BlobBaseFee": "0x1180379",
      "l1BlobBaseFeeScalar": "0xa118b",
      "l1Fee": "0xc3f02f32",
      "l1GasPrice": "0x46419db7",
      "l1GasUsed": "0x640"
    }
  ],
  "libraries": [],
  "pending": [],
  "returns": {},
  "timestamp": 1738815660,
  "chain": 84532,
  "commit": "e3ad21d"
}