{
  "transactions": [
    {
      "hash": "0x546c50caf8f0805aa7317309feb73d3e5fdb659230119e57081f22912a7040bf",
      "transactionType": "CALL",
      "contractName": null,
      "contractAddress": "0xd0382d4b654474b531ef648e2303f87ecbbd1187",
      "function": "startAuction(uint256,uint256)",
      "arguments": [
        "100000000000000000000",
        "10000000000000000000"
      ],
      "transaction": {
        "from": "0xecba9756092b7851f4918ec6bab2085b8f88b8ff",
        "to": "0xd0382d4b654474b531ef648e2303f87ecbbd1187",
        "gas": "0xfafc",
        "value": "0x0",
        "input": "0x4fee13fc0000000000000000000000000000000000000000000000056bc75e2d631000000000000000000000000000000000000000000000000000008ac7230489e80000",
        "nonce": "0x7d",
        "chainId": "0x14a34"
      },
      "additionalContracts": [],
      "isFixedGasLimit": false
    }
  ],
  "receipts": [
    {
      "status": "0x1",
      "cumulativeGasUsed": "0x53231a",
      "logs": [
        {
          "address": "0xd0382d4b654474b531ef648e2303f87ecbbd1187",
          "topics": [
            "0xa832766a05f1bd0298b0268308621777cfe1e4eea23afe7c06beea79bc6ddd2d"
          ],
          "data": "0x0000000000000000000000000000000000000000000000056bc75e2d631000000000000000000000000000000000000000000000000000008ac7230489e800000000000000000000000000000000000000000000000000000000000067a43b78000000000000000000000000000000000000000000000000000000000000012c",
          "blockHash": "0x011ccae42cdd8870e6d32568225a59c6a9355bdba9b03df0f0db8b1bdf1419e9",
          "blockNumber": "0x1486e4c",
          "transactionHash": "0x546c50caf8f0805aa7317309feb73d3e5fdb659230119e57081f22912a7040bf",
          "transactionIndex": "0x2c",
          "logIndex": "0x8a",
          "removed": false
        }
      ],
      "logsBloom": "0x00000000000000000000000000000000000000000000000000000000000000000000000000000000000000000000000000000000000000000000000000000040000000000000000000000000000000000000000000000000000000000000000000800000000000000000000000000000000000000000000000000000000000000000000000000000000000000000000000000000080000000000000000000000000000000000000000000000000000000000000000000000000000000000000000000000000000000000000000000000000000002000000200000000004000000000000000000000000000000000000000000000000000000000000000000000",
      "type": "0x2",
      "transactionHash": "0x546c50caf8f0805aa7317309feb73d3e5fdb659230119e57081f22912a7040bf",
      "transactionIndex": "0x2c",
      "blockHash": "0x011ccae42cdd8870e6d32568225a59c6a9355bdba9b03df0f0db8b1bdf1419e9",
      "blockNumber": "0x1486e4c",
      "gasUsed": "0xb5b6",
      "effectiveGasPrice": "0x18888",
      "from": "0xecba9756092b7851f4918ec6bab2085b8f88b8ff",
      "to": "0xd0382d4b654474b531ef648e2303f87ecbbd1187",
      "contractAddress": null,
      "l1BaseFeeScalar": "0x44d",
      "l1BlobBaseFee": "0x1c08712",
      "l1BlobBaseFeeScalar": "0xa118b",
      "l1Fee": "0xe9286f25",
      "l1GasPrice": "0x42ba5d79",
      "l1GasUsed": "0x640"
    }
  ],
  "libraries": [],
  "pending": [],
  "returns": {},
  "timestamp": 1738816377,
  "chain": 84532,
  "commit": "e3ad21d"
}