{
  "transactions": [
    {
      "hash": "0x4348a72c4f1acbadd436f0304f6e8bc14f48762fac8464d6f6998cbce3928fd4",
      "transactionType": "CALL",
      "contractName": null,
      "contractAddress": "0x4f2d12a9b328ba6d5bb3578dc3f0197249a0428c",
      "function": "startAuction(uint256,uint256)",
      "arguments": [
        "100000000000000000000",
        "10000000000000000000"
      ],
      "transaction": {
        "from": "0xecba9756092b7851f4918ec6bab2085b8f88b8ff",
        "to": "0x4f2d12a9b328ba6d5bb3578dc3f0197249a0428c",
        "gas": "0x2c241",
        "value": "0x0",
        "input": "0x4fee13fc0000000000000000000000000000000000000000000000056bc75e2d631000000000000000000000000000000000000000000000000000008ac7230489e80000",
        "nonce": "0x4d",
        "chainId": "0x14a34"
      },
      "additionalContracts": [],
      "isFixedGasLimit": false
    }
  ],
  "receipts": [
    {
      "status": "0x1",
      "cumulativeGasUsed": "0x3e52e2",
      "logs": [
        {
          "address": "0x4f2d12a9b328ba6d5bb3578dc3f0197249a0428c",
          "topics": [
            "0xa832766a05f1bd0298b0268308621777cfe1e4eea23afe7c06beea79bc6ddd2d"
          ],
          "data": "0x0000000000000000000000000000000000000000000000056bc75e2d631000000000000000000000000000000000000000000000000000008ac7230489e800000000000000000000000000000000000000000000000000000000000067a409d8000000000000000000000000000000000000000000000000000000000000012c",
          "blockHash": "0x022e564182b311e7c4778275308e6ea9e6bdb20c4f8a058d20de81a275b7bca2",
          "blockNumber": "0x148557c",
          "transactionHash": "0x4348a72c4f1acbadd436f0304f6e8bc14f48762fac8464d6f6998cbce3928fd4",
          "transactionIndex": "0x24",
          "logIndex": "0x5a",
          "removed": false
        }
      ],
      "logsBloom": "0x00000000000000001000000000000000000000000000000000000000000000000000000000000000000000000000000000000000000000000000000000000040000000000000000000000000000000000000000000400000000000000000000000000000000000000000000000000000000000000100000000000000000000000000000000000000000000000000000000000000000000000000000000000000000000000000000000000000000000000000000000000000000000000000000000000000000000000000000000000000000000000000000200000000004000000000000000000000000000000000000000000000000000000000000000000000",
      "type": "0x2",
      "transactionHash": "0x4348a72c4f1acbadd436f0304f6e8bc14f48762fac8464d6f6998cbce3928fd4",
      "transactionIndex": "0x24",
      "blockHash": "0x022e564182b311e7c4778275308e6ea9e6bdb20c4f8a058d20de81a275b7bca2",
      "blockNumber": "0x148557c",
      "gasUsed": "0x1e2e9",
      "effectiveGasPrice": "0xd83ba",
      "from": "0xecba9756092b7851f4918ec6bab2085b8f88b8ff",
      "to": "0x4f2d12a9b328ba6d5bb3578dc3f0197249a0428c",
      "contractAddress": null,
      "l1BaseFeeScalar": "0x44d",
      "l1BlobBaseFee": "0x1",
      "l1BlobBaseFeeScalar": "0xa118b",
      "l1Fee": "0x736aa108",
      "l1GasPrice": "0x41849be8",
      "l1GasUsed": "0x640"
    }
  ],
  "libraries": [],
  "pending": [],
  "returns": {},
  "timestamp": 1738803673,
  "chain": 84532,
  "commit": "e3ad21d"
}