{
  "transactions": [
    {
      "hash": "0x12c16f7c64d1baef44e52499ff3c6952c34658d2bcd4151c08bed28f105b5be3",
      "transactionType": "CALL",
      "contractName": null,
      "contractAddress": "0x010f80d930a5bc6d9a37f4fa0a965740c9825f95",
      "function": "approve(address,uint256)",
      "arguments": [
        "0x011e22FAdB08eE41c0664F3995b8390Da3D5d584",
        "83200000000000000000"
      ],
      "transaction": {
        "from": "0xbb02a9d6a71a847d587ce4dbb92f32f79c2efb2a",
        "to": "0x010f80d930a5bc6d9a37f4fa0a965740c9825f95",
        "gas": "0xa732",
        "value": "0x0",
        "input": "0x095ea7b3000000000000000000000000011e22fadb08ee41c0664f3995b8390da3d5d58400000000000000000000000000000000000000000000000482a1c73000800000",
        "nonce": "0x21",
        "chainId": "0x14a34"
      },
      "additionalContracts": [],
      "isFixedGasLimit": false
    },
    {
      "hash": "0x5586bc39901aaed3d5638e1303c9882b510be14923cd6aad2d3b46d7f169c8bf",
      "transactionType": "CALL",
      "contractName": null,
      "contractAddress": "0x011e22fadb08ee41c0664f3995b8390da3d5d584",
      "function": "placeBid(uint256,uint256)",
      "arguments": [
        "0",
        "83200000000000000000"
      ],
      "transaction": {
        "from": "0xbb02a9d6a71a847d587ce4dbb92f32f79c2efb2a",
        "to": "0x011e22fadb08ee41c0664f3995b8390da3d5d584",
        "gas": "0x40e49",
        "value": "0x0",
        "input": "0x57c90de5000000000000000000000000000000000000000000000000000000000000000000000000000000000000000000000000000000000000000482a1c73000800000",
        "nonce": "0x22",
        "chainId": "0x14a34"
      },
      "additionalContracts": [],
      "isFixedGasLimit": false
    }
  ],
  "receipts": [
    {
      "status": "0x1",
      "cumulativeGasUsed": "0x7e4e9a",
      "logs": [
        {
          "address": "0x010f80d930a5bc6d9a37f4fa0a965740c9825f95",
          "topics": [
            "0x8c5be1e5ebec7d5bd14f71427d1e84f3dd0314c0f7b2291e5b200ac8c7c3b925",
            "0x000000000000000000000000bb02a9d6a71a847d587ce4dbb92f32f79c2efb2a",
            "0x000000000000000000000000011e22fadb08ee41c0664f3995b8390da3d5d584"
          ],
          "data": "0x00000000000000000000000000000000000000000000000482a1c73000800000",
          "blockHash": "0x34e5838610534b632ee308a0f30eb847b1e03e274ad51ef2103528ffa6fb7657",
          "blockNumber": "0x1488e64",
          "transactionHash": "0x12c16f7c64d1baef44e52499ff3c6952c34658d2bcd4151c08bed28f105b5be3",
          "transactionIndex": "0x3a",
          "logIndex": "0xb3",
          "removed": false
        }
      ],
      "logsBloom": "0x00000000000000000000000000000000000000000000000000000000000000000000000000000000000000000000000000000000000000008000000000200000000000000000000000000000000000000000000000000000000000000800002000000000000000000000002000000000000000000000000000000000000000000000000000000400000000000000000000000000000000000000000000000000020000000000000000000000000000000000000000000000000000000000000000008000000000020000000000000100000000000000000000000000000000000010008000000000000000000000000000000000000000000000000000000000",
      "type": "0x2",
      "transactionHash": "0x12c16f7c64d1baef44e52499ff3c6952c34658d2bcd4151c08bed28f105b5be3",
      "transactionIndex": "0x3a",
      "blockHash": "0x34e5838610534b632ee308a0f30eb847b1e03e274ad51ef2103528ffa6fb7657",
      "blockNumber": "0x1488e64",
      "gasUsed": "0x7253",
      "effectiveGasPrice": "0x18861",
      "from": "0xbb02a9d6a71a847d587ce4dbb92f32f79c2efb2a",
      "to": "0x010f80d930a5bc6d9a37f4fa0a965740c9825f95",
      "contractAddress": null,
      "l1BaseFeeScalar": "0x44d",
      "l1BlobBaseFee": "0x787eb9bbc3",
      "l1BlobBaseFeeScalar": "0xa118b",
      "l1Fee": "0x1f382afb4f72",
      "l1GasPrice": "0x1770a1d093",
      "l1GasUsed": "0x640"
    },
    {
      "status": "0x1",
      "cumulativeGasUsed": "0x81148b",
      "logs": [
        {
          "address": "0x010f80d930a5bc6d9a37f4fa0a965740c9825f95",
          "topics": [
            "0xddf252ad1be2c89b69c2b068fc378daa952ba7f163c4a11628f55a4df523b3ef",
            "0x000000000000000000000000bb02a9d6a71a847d587ce4dbb92f32f79c2efb2a",
            "0x000000000000000000000000011e22fadb08ee41c0664f3995b8390da3d5d584"
          ],
          "data": "0x00000000000000000000000000000000000000000000000482a1c73000800000",
          "blockHash": "0x34e5838610534b632ee308a0f30eb847b1e03e274ad51ef2103528ffa6fb7657",
          "blockNumber": "0x1488e64",
          "transactionHash": "0x5586bc39901aaed3d5638e1303c9882b510be14923cd6aad2d3b46d7f169c8bf",
          "transactionIndex": "0x3b",
          "logIndex": "0xb4",
          "removed": false
        },
        {
          "address": "0x011e22fadb08ee41c0664f3995b8390da3d5d584",
          "topics": [
            "0xdf8644c0a4c21ed214ce69f395675b3a5fcd1039083daea5058898de40ea3149"
          ],
          "data": "0x000000000000000000000000bb02a9d6a71a847d587ce4dbb92f32f79c2efb2a00000000000000000000000000000000000000000000000482a1c730008000000000000000000000000000000000000000000000000000000000000000000000",
          "blockHash": "0x34e5838610534b632ee308a0f30eb847b1e03e274ad51ef2103528ffa6fb7657",
          "blockNumber": "0x1488e64",
          "transactionHash": "0x5586bc39901aaed3d5638e1303c9882b510be14923cd6aad2d3b46d7f169c8bf",
          "transactionIndex": "0x3b",
          "logIndex": "0xb5",
          "removed": false
        },
        {
          "address": "0x011e22fadb08ee41c0664f3995b8390da3d5d584",
          "topics": [
            "0xc358e8e3f205b5e7453abd5cbac388ca4552b887b69001bc972b88610c749035"
          ],
          "data": "0x000000000000000000000000bb02a9d6a71a847d587ce4dbb92f32f79c2efb2a00000000000000000000000000000000000000000000000482a1c730008000000000000000000000000000000000000000000000000000000000000000000000",
          "blockHash": "0x34e5838610534b632ee308a0f30eb847b1e03e274ad51ef2103528ffa6fb7657",
          "blockNumber": "0x1488e64",
          "transactionHash": "0x5586bc39901aaed3d5638e1303c9882b510be14923cd6aad2d3b46d7f169c8bf",
          "transactionIndex": "0x3b",
          "logIndex": "0xb6",
          "removed": false
        },
        {
          "address": "0x011e22fadb08ee41c0664f3995b8390da3d5d584",
          "topics": [
            "0x75ff54b34361a82532c89f24d71c8e91d70a10b35bfa45e8a6969cbc1970f326",
            "0x0000000000000000000000000000000000000000000000000000000000000000",
            "0x000000000000000000000000bb02a9d6a71a847d587ce4dbb92f32f79c2efb2a"
          ],
          "data": "0x000000000000000000000000000000000000000000000000000000000000008000000000000000000000000000000000000000000000000000000000000000c0000000000000000000000000000000000000000000000000000000000000012000000000000000000000000000000000000000000000000482a1c73000800000000000000000000000000000000000000000000000000000000000000000001453616d706c65204164766572746973656d656e7400000000000000000000000000000000000000000000000000000000000000000000000000000000000000365468697320697320612074657374206164766572746973656d656e74206d696e7465642076696120466f756e6472792073637269707400000000000000000000000000000000000000000000000000000000000000000000000000000000005368747470733a2f2f706c616365686f6c6465726164732e73332e61702d736f7574682d312e616d617a6f6e6177732e636f6d2f61642d696d616765732f313733383537353338313335332d363931322e706e6700000000000000000000000000",
          "blockHash": "0x34e5838610534b632ee308a0f30eb847b1e03e274ad51ef2103528ffa6fb7657",
          "blockNumber": "0x1488e64",
          "transactionHash": "0x5586bc39901aaed3d5638e1303c9882b510be14923cd6aad2d3b46d7f169c8bf",
          "transactionIndex": "0x3b",
          "logIndex": "0xb7",
          "removed": false
        }
      ],
      "logsBloom": "0x00000000000000000008000000000000000000000000000000000000000000000000000000001000080000002000000000000000000000008000000000000000000000000000000000000008000000000000000000000000400000000800002000000000020000000000002000000800000000000000000100000010000000000000000080000400000000000000000000000000000000000000000000000000000000000000000000000000000000000000000000000000000000000020000000008002000000020000000000000100000008000000000000000000010020000000008000000000000000000000000000000000000000000000000200000020",
      "type": "0x2",
      "transactionHash": "0x5586bc39901aaed3d5638e1303c9882b510be14923cd6aad2d3b46d7f169c8bf",
      "transactionIndex": "0x3b",
      "blockHash": "0x34e5838610534b632ee308a0f30eb847b1e03e274ad51ef2103528ffa6fb7657",
      "blockNumber": "0x1488e64",
      "gasUsed": "0x2c5f1",
      "effectiveGasPrice": "0x18861",
      "from": "0xbb02a9d6a71a847d587ce4dbb92f32f79c2efb2a",
      "to": "0x011e22fadb08ee41c0664f3995b8390da3d5d584",
      "contractAddress": null,
      "l1BaseFeeScalar": "0x44d",
      "l1BlobBaseFee": "0x787eb9bbc3",
      "l1BlobBaseFeeScalar": "0xa118b",
      "l1Fee": "0x1f382afb4f72",
      "l1GasPrice": "0x1770a1d093",
      "l1GasUsed": "0x640"
    }
  ],
  "libraries": [],
  "pending": [],
  "returns": {},
  "timestamp": 1738832809,
  "chain": 84532,
  "commit": "270a582"
}