{
  "transactions": [
    {
      "hash": "0x76769761dbc68c74f2c8da5038f5cffe9fa6d7335e90749b93758c57602cd420",
      "transactionType": "CALL",
      "contractName": null,
      "contractAddress": "0x58817b59b1579652b2ae2ce420056e12fc62f0fa",
      "function": "approve(address,uint256)",
      "arguments": [
        "0x054ED3E0471774514f27e00066d012b74E00C950",
        "100000000000000000000"
      ],
      "transaction": {
        "from": "0xbb02a9d6a71a847d587ce4dbb92f32f79c2efb2a",
        "to": "0x58817b59b1579652b2ae2ce420056e12fc62f0fa",
        "gas": "0x108d1",
        "value": "0x0",
        "input": "0x095ea7b3000000000000000000000000054ed3e0471774514f27e00066d012b74e00c9500000000000000000000000000000000000000000000000056bc75e2d63100000",
        "nonce": "0x10",
        "chainId": "0x14a34"
      },
      "additionalContracts": [],
      "isFixedGasLimit": false
    },
    {
      "hash": "0x8c8bbf086eb1f4203d4b57a492b3c161d615c5083bf5164ac80ff0886f708a96",
      "transactionType": "CALL",
      "contractName": null,
      "contractAddress": "0x054ed3e0471774514f27e00066d012b74e00c950",
      "function": "placeBid(uint256,uint256)",
      "arguments": [
        "0",
        "100000000000000000000"
      ],
      "transaction": {
        "from": "0xbb02a9d6a71a847d587ce4dbb92f32f79c2efb2a",
        "to": "0x054ed3e0471774514f27e00066d012b74e00c950",
        "gas": "0x366a7",
        "value": "0x0",
        "input": "0x57c90de500000000000000000000000000000000000000000000000000000000000000000000000000000000000000000000000000000000000000056bc75e2d63100000",
        "nonce": "0x11",
        "chainId": "0x14a34"
      },
      "additionalContracts": [],
      "isFixedGasLimit": false
    }
  ],
  "receipts": [
    {
      "status": "0x1",
      "cumulativeGasUsed": "0x816ddf",
      "logs": [
        {
          "address": "0x58817b59b1579652b2ae2ce420056e12fc62f0fa",
          "topics": [
            "0x8c5be1e5ebec7d5bd14f71427d1e84f3dd0314c0f7b2291e5b200ac8c7c3b925",
            "0x000000000000000000000000bb02a9d6a71a847d587ce4dbb92f32f79c2efb2a",
            "0x000000000000000000000000054ed3e0471774514f27e00066d012b74e00c950"
          ],
          "data": "0x0000000000000000000000000000000000000000000000056bc75e2d63100000",
          "blockHash": "0x986b49b28c22341ae303d6e49f564d71e9707e1d0ee4590b89297879b050d3cd",
          "blockNumber": "0x1485b63",
          "transactionHash": "0x76769761dbc68c74f2c8da5038f5cffe9fa6d7335e90749b93758c57602cd420",
          "transactionIndex": "0x37",
          "logIndex": "0xd9",
          "removed": false
        }
      ],
      "logsBloom": "0x00000000000000000000000000000000000000000000000000000000000000000000000000000000000000000000000000000000000000008000000000200000000000000000000000000000000000000000000000000000000000000000000000000000000000000000000000000000000000000000000000000000000000000000000000000000000200000000000000010000000000000000000000000000020000000000000000000000000000000000000000000000000000000000000000008000000000020000000000000000000080000000000000000000000000001010000000000000000000000204000000000000000000000000000000000000",
      "type": "0x2",
      "transactionHash": "0x76769761dbc68c74f2c8da5038f5cffe9fa6d7335e90749b93758c57602cd420",
      "transactionIndex": "0x37",
      "blockHash": "0x986b49b28c22341ae303d6e49f564d71e9707e1d0ee4590b89297879b050d3cd",
      "blockNumber": "0x1485b63",
      "gasUsed": "0xb513",
      "effectiveGasPrice": "0xb316e",
      "from": "0xbb02a9d6a71a847d587ce4dbb92f32f79c2efb2a",
      "to": "0x58817b59b1579652b2ae2ce420056e12fc62f0fa",
      "contractAddress": null,
      "l1BaseFeeScalar": "0x44d",
      "l1BlobBaseFee": "0x1",
      "l1BlobBaseFeeScalar": "0xa118b",
      "l1Fee": "0x7256a99d",
      "l1GasPrice": "0x40e7f3c9",
      "l1GasUsed": "0x640"
    },
    {
      "status": "0x1",
      "cumulativeGasUsed": "0x83e436",
      "logs": [
        {
          "address": "0x58817b59b1579652b2ae2ce420056e12fc62f0fa",
          "topics": [
            "0xddf252ad1be2c89b69c2b068fc378daa952ba7f163c4a11628f55a4df523b3ef",
            "0x000000000000000000000000bb02a9d6a71a847d587ce4dbb92f32f79c2efb2a",
            "0x000000000000000000000000054ed3e0471774514f27e00066d012b74e00c950"
          ],
          "data": "0x0000000000000000000000000000000000000000000000056bc75e2d63100000",
          "blockHash": "0x986b49b28c22341ae303d6e49f564d71e9707e1d0ee4590b89297879b050d3cd",
          "blockNumber": "0x1485b63",
          "transactionHash": "0x8c8bbf086eb1f4203d4b57a492b3c161d615c5083bf5164ac80ff0886f708a96",
          "transactionIndex": "0x38",
          "logIndex": "0xda",
          "removed": false
        },
        {
          "address": "0x054ed3e0471774514f27e00066d012b74e00c950",
          "topics": [
            "0xdf8644c0a4c21ed214ce69f395675b3a5fcd1039083daea5058898de40ea3149"
          ],
          "data": "0x000000000000000000000000bb02a9d6a71a847d587ce4dbb92f32f79c2efb2a0000000000000000000000000000000000000000000000056bc75e2d631000000000000000000000000000000000000000000000000000000000000000000000",
          "blockHash": "0x986b49b28c22341ae303d6e49f564d71e9707e1d0ee4590b89297879b050d3cd",
          "blockNumber": "0x1485b63",
          "transactionHash": "0x8c8bbf086eb1f4203d4b57a492b3c161d615c5083bf5164ac80ff0886f708a96",
          "transactionIndex": "0x38",
          "logIndex": "0xdb",
          "removed": false
        },
        {
          "address": "0x054ed3e0471774514f27e00066d012b74e00c950",
          "topics": [
            "0xc358e8e3f205b5e7453abd5cbac388ca4552b887b69001bc972b88610c749035"
          ],
          "data": "0x000000000000000000000000bb02a9d6a71a847d587ce4dbb92f32f79c2efb2a0000000000000000000000000000000000000000000000056bc75e2d631000000000000000000000000000000000000000000000000000000000000000000000",
          "blockHash": "0x986b49b28c22341ae303d6e49f564d71e9707e1d0ee4590b89297879b050d3cd",
          "blockNumber": "0x1485b63",
          "transactionHash": "0x8c8bbf086eb1f4203d4b57a492b3c161d615c5083bf5164ac80ff0886f708a96",
          "transactionIndex": "0x38",
          "logIndex": "0xdc",
          "removed": false
        },
        {
          "address": "0x054ed3e0471774514f27e00066d012b74e00c950",
          "topics": [
            "0x75ff54b34361a82532c89f24d71c8e91d70a10b35bfa45e8a6969cbc1970f326",
            "0x0000000000000000000000000000000000000000000000000000000000000000",
            "0x000000000000000000000000bb02a9d6a71a847d587ce4dbb92f32f79c2efb2a"
          ],
          "data": "0x000000000000000000000000000000000000000000000000000000000000008000000000000000000000000000000000000000000000000000000000000000c000000000000000000000000000000000000000000000000000000000000001200000000000000000000000000000000000000000000000056bc75e2d63100000000000000000000000000000000000000000000000000000000000000000001453616d706c65204164766572746973656d656e7400000000000000000000000000000000000000000000000000000000000000000000000000000000000000365468697320697320612074657374206164766572746973656d656e74206d696e7465642076696120466f756e6472792073637269707400000000000000000000000000000000000000000000000000000000000000000000000000000000005368747470733a2f2f706c616365686f6c6465726164732e73332e61702d736f7574682d312e616d617a6f6e6177732e636f6d2f61642d696d616765732f313733383537353338313335332d363931322e706e6700000000000000000000000000",
          "blockHash": "0x986b49b28c22341ae303d6e49f564d71e9707e1d0ee4590b89297879b050d3cd",
          "blockNumber": "0x1485b63",
          "transactionHash": "0x8c8bbf086eb1f4203d4b57a492b3c161d615c5083bf5164ac80ff0886f708a96",
          "transactionIndex": "0x38",
          "logIndex": "0xdd",
          "removed": false
        }
      ],
      "logsBloom": "0x00000000000000000008000000000000000000000000000000000000000000000000000000001000000000000000000000000000000000008000000000000000000000000000000000000008000000000000000000000000400000000000000000000000020000000000000000020800000000000000000100000010000000000000000080000000000200000000000000010000000000000000000000000000000000000000000000000000000000000000000000000000000000000020000000028002000000022000000000000000000080000000000000000000010020001000000000000000000000000204000000000000000000000000000200000020",
      "type": "0x2",
      "transactionHash": "0x8c8bbf086eb1f4203d4b57a492b3c161d615c5083bf5164ac80ff0886f708a96",
      "transactionIndex": "0x38",
      "blockHash": "0x986b49b28c22341ae303d6e49f564d71e9707e1d0ee4590b89297879b050d3cd",
      "blockNumber": "0x1485b63",
      "gasUsed": "0x27657",
      "effectiveGasPrice": "0xb316e",
      "from": "0xbb02a9d6a71a847d587ce4dbb92f32f79c2efb2a",
      "to": "0x054ed3e0471774514f27e00066d012b74e00c950",
      "contractAddress": null,
      "l1BaseFeeScalar": "0x44d",
      "l1BlobBaseFee": "0x1",
      "l1BlobBaseFeeScalar": "0xa118b",
      "l1Fee": "0x7256a99d",
      "l1GasPrice": "0x40e7f3c9",
      "l1GasUsed": "0x640"
    }
  ],
  "libraries": [],
  "pending": [],
  "returns": {},
  "timestamp": 1738806695,
  "chain": 84532,
  "commit": "e3ad21d"
}