{
  "transactions": [
    {
      "hash": "0x4cd3a9f5706a2746a8a995701d652d43bc973eeea8073bf1893046449f8b12aa",
      "transactionType": "CALL",
      "contractName": null,
      "contractAddress": "0x7f310442e1ddfa18a5f98410195d381d1cb8db1b",
      "function": "approve(address,uint256)",
      "arguments": [
        "0x94435a3A14A4cF73c55CD884A5DbbfAe41198cF6",
        "94600000000000000000"
      ],
      "transaction": {
        "from": "0xb47cfcf8181d36117142b83d31bbbf63b1b250fe",
        "to": "0x7f310442e1ddfa18a5f98410195d381d1cb8db1b",
        "gas": "0x108f4",
        "value": "0x0",
        "input": "0x095ea7b300000000000000000000000094435a3a14a4cf73c55cd884a5dbbfae41198cf600000000000000000000000000000000000000000000000520d6b6c9a7f40000",
        "nonce": "0x7d",
        "chainId": "0x14a34"
      },
      "additionalContracts": [],
      "isFixedGasLimit": false
    },
    {
      "hash": "0xab1c9412b987c0d2c815711ab5413b5a67fe0d774f8ca8c95ff822591b123dc0",
      "transactionType": "CALL",
      "contractName": null,
      "contractAddress": "0x94435a3a14a4cf73c55cd884a5dbbfae41198cf6",
      "function": "placeBid(uint256,uint256)",
      "arguments": [
        "3",
        "94600000000000000000"
      ],
      "transaction": {
        "from": "0xb47cfcf8181d36117142b83d31bbbf63b1b250fe",
        "to": "0x94435a3a14a4cf73c55cd884a5dbbfae41198cf6",
        "gas": "0x3e373",
        "value": "0x0",
        "input": "0x57c90de5000000000000000000000000000000000000000000000000000000000000000300000000000000000000000000000000000000000000000520d6b6c9a7f40000",
        "nonce": "0x7e",
        "chainId": "0x14a34"
      },
      "additionalContracts": [],
      "isFixedGasLimit": false
    }
  ],
  "receipts": [
    {
      "status": "0x1",
      "cumulativeGasUsed": "0x65a8ad",
      "logs": [
        {
          "address": "0x7f310442e1ddfa18a5f98410195d381d1cb8db1b",
          "topics": [
            "0x8c5be1e5ebec7d5bd14f71427d1e84f3dd0314c0f7b2291e5b200ac8c7c3b925",
            "0x000000000000000000000000b47cfcf8181d36117142b83d31bbbf63b1b250fe",
            "0x00000000000000000000000094435a3a14a4cf73c55cd884a5dbbfae41198cf6"
          ],
          "data": "0x00000000000000000000000000000000000000000000000520d6b6c9a7f40000",
          "blockHash": "0xf3d6a9fe7464a2e37b6c30dc98f2bb49d6807f7cfbdaa17a56b32ca524166764",
          "blockNumber": "0x148883e",
          "transactionHash": "0x4cd3a9f5706a2746a8a995701d652d43bc973eeea8073bf1893046449f8b12aa",
          "transactionIndex": "0x36",
          "logIndex": "0x99",
          "removed": false
        }
      ],
      "logsBloom": "0x00000000000000000000000000000000000000000000000000000000000000000000000000000000080000800000000000000000000000000000000000200000000000000000000000000000000000000000000000800004200000000000000000000000000000000000000000000000000000000000000000000000000000000000000000000010000000000000080000000000000000000000000000000000020000000000000000000000000000000000000000000000000000000000200000000000000000000000000000000000000000000000000000000000000000000010000000000000000000000000000000000000000001000000000000000000",
      "type": "0x2",
      "transactionHash": "0x4cd3a9f5706a2746a8a995701d652d43bc973eeea8073bf1893046449f8b12aa",
      "transactionIndex": "0x36",
      "blockHash": "0xf3d6a9fe7464a2e37b6c30dc98f2bb49d6807f7cfbdaa17a56b32ca524166764",
      "blockNumber": "0x148883e",
      "gasUsed": "0xb52b",
      "effectiveGasPrice": "0x1886e",
      "from": "0xb47cfcf8181d36117142b83d31bbbf63b1b250fe",
      "to": "0x7f310442e1ddfa18a5f98410195d381d1cb8db1b",
      "contractAddress": null,
      "l1BaseFeeScalar": "0x44d",
      "l1BlobBaseFee": "0x1352a0f1e91",
      "l1BlobBaseFeeScalar": "0xa118b",
      "l1Fee": "0x4fed59ee7f6a",
      "l1GasPrice": "0x22b14e8613",
      "l1GasUsed": "0x640"
    },
    {
      "status": "0x1",
      "cumulativeGasUsed": "0x68795d",
      "logs": [
        {
          "address": "0x7f310442e1ddfa18a5f98410195d381d1cb8db1b",
          "topics": [
            "0xddf252ad1be2c89b69c2b068fc378daa952ba7f163c4a11628f55a4df523b3ef",
            "0x000000000000000000000000b47cfcf8181d36117142b83d31bbbf63b1b250fe",
            "0x00000000000000000000000094435a3a14a4cf73c55cd884a5dbbfae41198cf6"
          ],
          "data": "0x00000000000000000000000000000000000000000000000520d6b6c9a7f40000",
          "blockHash": "0xf3d6a9fe7464a2e37b6c30dc98f2bb49d6807f7cfbdaa17a56b32ca524166764",
          "blockNumber": "0x148883e",
          "transactionHash": "0xab1c9412b987c0d2c815711ab5413b5a67fe0d774f8ca8c95ff822591b123dc0",
          "transactionIndex": "0x37",
          "logIndex": "0x9a",
          "removed": false
        },
        {
          "address": "0x94435a3a14a4cf73c55cd884a5dbbfae41198cf6",
          "topics": [
            "0xdf8644c0a4c21ed214ce69f395675b3a5fcd1039083daea5058898de40ea3149"
          ],
          "data": "0x000000000000000000000000b47cfcf8181d36117142b83d31bbbf63b1b250fe00000000000000000000000000000000000000000000000520d6b6c9a7f400000000000000000000000000000000000000000000000000000000000000000003",
          "blockHash": "0xf3d6a9fe7464a2e37b6c30dc98f2bb49d6807f7cfbdaa17a56b32ca524166764",
          "blockNumber": "0x148883e",
          "transactionHash": "0xab1c9412b987c0d2c815711ab5413b5a67fe0d774f8ca8c95ff822591b123dc0",
          "transactionIndex": "0x37",
          "logIndex": "0x9b",
          "removed": false
        },
        {
          "address": "0x94435a3a14a4cf73c55cd884a5dbbfae41198cf6",
          "topics": [
            "0xc358e8e3f205b5e7453abd5cbac388ca4552b887b69001bc972b88610c749035"
          ],
          "data": "0x000000000000000000000000b47cfcf8181d36117142b83d31bbbf63b1b250fe00000000000000000000000000000000000000000000000520d6b6c9a7f400000000000000000000000000000000000000000000000000000000000000000003",
          "blockHash": "0xf3d6a9fe7464a2e37b6c30dc98f2bb49d6807f7cfbdaa17a56b32ca524166764",
          "blockNumber": "0x148883e",
          "transactionHash": "0xab1c9412b987c0d2c815711ab5413b5a67fe0d774f8ca8c95ff822591b123dc0",
          "transactionIndex": "0x37",
          "logIndex": "0x9c",
          "removed": false
        },
        {
          "address": "0x94435a3a14a4cf73c55cd884a5dbbfae41198cf6",
          "topics": [
            "0x75ff54b34361a82532c89f24d71c8e91d70a10b35bfa45e8a6969cbc1970f326",
            "0x0000000000000000000000000000000000000000000000000000000000000003",
            "0x000000000000000000000000b47cfcf8181d36117142b83d31bbbf63b1b250fe"
          ],
          "data": "0x000000000000000000000000000000000000000000000000000000000000008000000000000000000000000000000000000000000000000000000000000000c0000000000000000000000000000000000000000000000000000000000000012000000000000000000000000000000000000000000000000520d6b6c9a7f40000000000000000000000000000000000000000000000000000000000000000001453616d706c65204164766572746973656d656e7400000000000000000000000000000000000000000000000000000000000000000000000000000000000000365468697320697320612074657374206164766572746973656d656e74206d696e7465642076696120466f756e6472792073637269707400000000000000000000000000000000000000000000000000000000000000000000000000000000005368747470733a2f2f706c616365686f6c6465726164732e73332e61702d736f7574682d312e616d617a6f6e6177732e636f6d2f61642d696d616765732f313733383537353338313335332d363931322e706e6700000000000000000000000000",
          "blockHash": "0xf3d6a9fe7464a2e37b6c30dc98f2bb49d6807f7cfbdaa17a56b32ca524166764",
          "blockNumber": "0x148883e",
          "transactionHash": "0xab1c9412b987c0d2c815711ab5413b5a67fe0d774f8ca8c95ff822591b123dc0",
          "transactionIndex": "0x37",
          "logIndex": "0x9d",
          "removed": false
        }
      ],
      "logsBloom": "0x00000000000000000008000000000000000000000000000000000000000000000000000000001000080000800000000000000000020000000000000000000000000000000000000000000008000000000000000000800004600000000000000000000000000000000000000000000000000000000000000100000010000000000000000080000010000000000000080000000000000000000000000000000000000000000000000000000000000000000000000000800000000000000020600000000002000000000000000000000000000000000000000000000000010000000004040000000000000000000000000000000000000001000000000201000020",
      "type": "0x2",
      "transactionHash": "0xab1c9412b987c0d2c815711ab5413b5a67fe0d774f8ca8c95ff822591b123dc0",
      "transactionIndex": "0x37",
      "blockHash": "0xf3d6a9fe7464a2e37b6c30dc98f2bb49d6807f7cfbdaa17a56b32ca524166764",
      "blockNumber": "0x148883e",
      "gasUsed": "0x2d0b0",
      "effectiveGasPrice": "0x1886e",
      "from": "0xb47cfcf8181d36117142b83d31bbbf63b1b250fe",
      "to": "0x94435a3a14a4cf73c55cd884a5dbbfae41198cf6",
      "contractAddress": null,
      "l1BaseFeeScalar": "0x44d",
      "l1BlobBaseFee": "0x1352a0f1e91",
      "l1BlobBaseFeeScalar": "0xa118b",
      "l1Fee": "0x4fed59ee7f6a",
      "l1GasPrice": "0x22b14e8613",
      "l1GasUsed": "0x640"
    }
  ],
  "libraries": [],
  "pending": [],
  "returns": {},
  "timestamp": 1738829660,
  "chain": 84532,
  "commit": "270a582"
}