{
  "transactions": [
    {
      "hash": "0x2e9e0057eba446452f8450bf731bc88f860aabfc7ff09e896a904053d9254f12",
      "transactionType": "CALL",
      "contractName": null,
      "contractAddress": "0x728a61c50bd3d63f864b370aeb1b2dc90e381181",
      "function": "approve(address,uint256)",
      "arguments": [
        "0xd0382d4B654474b531ef648E2303F87Ecbbd1187",
        "89800000000000000000"
      ],
      "transaction": {
        "from": "0xb47cfcf8181d36117142b83d31bbbf63b1b250fe",
        "to": "0x728a61c50bd3d63f864b370aeb1b2dc90e381181",
        "gas": "0x9df8",
        "value": "0x0",
        "input": "0x095ea7b3000000000000000000000000d0382d4b654474b531ef648e2303f87ecbbd1187000000000000000000000000000000000000000000000004de39b0381e140000",
        "nonce": "0x68",
        "chainId": "0x14a34"
      },
      "additionalContracts": [],
      "isFixedGasLimit": false
    },
    {
      "hash": "0xf46bb748b434542da23555f99e82cc27f6a240bbeaaa49b006521174c7a0cd93",
      "transactionType": "CALL",
      "contractName": null,
      "contractAddress": "0xd0382d4b654474b531ef648e2303f87ecbbd1187",
      "function": "placeBid(uint256,uint256)",
      "arguments": [
        "1",
        "89800000000000000000"
      ],
      "transaction": {
        "from": "0xb47cfcf8181d36117142b83d31bbbf63b1b250fe",
        "to": "0xd0382d4b654474b531ef648e2303f87ecbbd1187",
        "gas": "0x40455",
        "value": "0x0",
        "input": "0x57c90de50000000000000000000000000000000000000000000000000000000000000001000000000000000000000000000000000000000000000004de39b0381e140000",
        "nonce": "0x69",
        "chainId": "0x14a34"
      },
      "additionalContracts": [],
      "isFixedGasLimit": false
    }
  ],
  "receipts": [
    {
      "status": "0x1",
      "cumulativeGasUsed": "0x62bffc",
      "logs": [
        {
          "address": "0x728a61c50bd3d63f864b370aeb1b2dc90e381181",
          "topics": [
            "0x8c5be1e5ebec7d5bd14f71427d1e84f3dd0314c0f7b2291e5b200ac8c7c3b925",
            "0x000000000000000000000000b47cfcf8181d36117142b83d31bbbf63b1b250fe",
            "0x000000000000000000000000d0382d4b654474b531ef648e2303f87ecbbd1187"
          ],
          "data": "0x000000000000000000000000000000000000000000000004de39b0381e140000",
          "blockHash": "0x13a689f5ab6c1d08c67473ef79e01f19c8700c9f3a0d6c63b4dbb754a8b6add3",
          "blockNumber": "0x1486ae7",
          "transactionHash": "0x2e9e0057eba446452f8450bf731bc88f860aabfc7ff09e896a904053d9254f12",
          "transactionIndex": "0x3a",
          "logIndex": "0x90",
          "removed": false
        }
      ],
      "logsBloom": "0x00000000000000000000000000000000000000000000000000000000000000000000000000000000080000000000000000000020000000000000000000200200000000000000000000000000000000000002000000800000000000000000000000000000000000000000000100000000000000000000000000000000400000000000000000000000000000000000000000000000000000000000000000000000020000000000000000000000000000000000000000000000000000000000000000000000000000000000000000000000100000000000000000000000000000000010000000000000000000000000000000000000000001000000000000000000",
      "type": "0x2",
      "transactionHash": "0x2e9e0057eba446452f8450bf731bc88f860aabfc7ff09e896a904053d9254f12",
      "transactionIndex": "0x3a",
      "blockHash": "0x13a689f5ab6c1d08c67473ef79e01f19c8700c9f3a0d6c63b4dbb754a8b6add3",
      "blockNumber": "0x1486ae7",
      "gasUsed": "0x725f",
      "effectiveGasPrice": "0x188b4",
      "from": "0xb47cfcf8181d36117142b83d31bbbf63b1b250fe",
      "to": "0x728a61c50bd3d63f864b370aeb1b2dc90e381181",
      "contractAddress": null,
      "l1BaseFeeScalar": "0x44d",
      "l1BlobBaseFee": "0x3c8fba",
      "l1BlobBaseFeeScalar": "0xa118b",
      "l1Fee": "0x800c9bc5",
      "l1GasPrice": "0x3fd3f343",
      "l1GasUsed": "0x640"
    },
    {
      "status": "0x1",
      "cumulativeGasUsed": "0x657f1f",
      "logs": [
        {
          "address": "0x728a61c50bd3d63f864b370aeb1b2dc90e381181",
          "topics": [
            "0xddf252ad1be2c89b69c2b068fc378daa952ba7f163c4a11628f55a4df523b3ef",
            "0x000000000000000000000000b47cfcf8181d36117142b83d31bbbf63b1b250fe",
            "0x000000000000000000000000d0382d4b654474b531ef648e2303f87ecbbd1187"
          ],
          "data": "0x000000000000000000000000000000000000000000000004de39b0381e140000",
          "blockHash": "0x13a689f5ab6c1d08c67473ef79e01f19c8700c9f3a0d6c63b4dbb754a8b6add3",
          "blockNumber": "0x1486ae7",
          "transactionHash": "0xf46bb748b434542da23555f99e82cc27f6a240bbeaaa49b006521174c7a0cd93",
          "transactionIndex": "0x3b",
          "logIndex": "0x91",
          "removed": false
        },
        {
          "address": "0xd0382d4b654474b531ef648e2303f87ecbbd1187",
          "topics": [
            "0xdf8644c0a4c21ed214ce69f395675b3a5fcd1039083daea5058898de40ea3149"
          ],
          "data": "0x000000000000000000000000b47cfcf8181d36117142b83d31bbbf63b1b250fe000000000000000000000000000000000000000000000004de39b0381e1400000000000000000000000000000000000000000000000000000000000000000001",
          "blockHash": "0x13a689f5ab6c1d08c67473ef79e01f19c8700c9f3a0d6c63b4dbb754a8b6add3",
          "blockNumber": "0x1486ae7",
          "transactionHash": "0xf46bb748b434542da23555f99e82cc27f6a240bbeaaa49b006521174c7a0cd93",
          "transactionIndex": "0x3b",
          "logIndex": "0x92",
          "removed": false
        },
        {
          "address": "0xd0382d4b654474b531ef648e2303f87ecbbd1187",
          "topics": [
            "0xc358e8e3f205b5e7453abd5cbac388ca4552b887b69001bc972b88610c749035"
          ],
          "data": "0x000000000000000000000000b47cfcf8181d36117142b83d31bbbf63b1b250fe000000000000000000000000000000000000000000000004de39b0381e1400000000000000000000000000000000000000000000000000000000000000000001",
          "blockHash": "0x13a689f5ab6c1d08c67473ef79e01f19c8700c9f3a0d6c63b4dbb754a8b6add3",
          "blockNumber": "0x1486ae7",
          "transactionHash": "0xf46bb748b434542da23555f99e82cc27f6a240bbeaaa49b006521174c7a0cd93",
          "transactionIndex": "0x3b",
          "logIndex": "0x93",
          "removed": false
        },
        {
          "address": "0xd0382d4b654474b531ef648e2303f87ecbbd1187",
          "topics": [
            "0x75ff54b34361a82532c89f24d71c8e91d70a10b35bfa45e8a6969cbc1970f326",
            "0x0000000000000000000000000000000000000000000000000000000000000001",
            "0x000000000000000000000000b47cfcf8181d36117142b83d31bbbf63b1b250fe"
          ],
          "data": "0x000000000000000000000000000000000000000000000000000000000000008000000000000000000000000000000000000000000000000000000000000000c00000000000000000000000000000000000000000000000000000000000000100000000000000000000000000000000000000000000000004de39b0381e14000000000000000000000000000000000000000000000000000000000000000000104a61636f6273204d6561742048736f7000000000000000000000000000000000000000000000000000000000000000000000000000000000000000000000001c46617374206f7264657273206174206120676f6f6420706c6163652100000000000000000000000000000000000000000000000000000000000000000000005368747470733a2f2f706c616365686f6c6465726164732e73332e61702d736f7574682d312e616d617a6f6e6177732e636f6d2f61642d696d616765732f313733383831343531303530392d383035362e706e6700000000000000000000000000",
          "blockHash": "0x13a689f5ab6c1d08c67473ef79e01f19c8700c9f3a0d6c63b4dbb754a8b6add3",
          "blockNumber": "0x1486ae7",
          "transactionHash": "0xf46bb748b434542da23555f99e82cc27f6a240bbeaaa49b006521174c7a0cd93",
          "transactionIndex": "0x3b",
          "logIndex": "0x94",
          "removed": false
        }
      ],
      "logsBloom": "0x00000000000000000008000000000000000000000000000000000000000000000000000000001000080000000000000000000020000000000000000000040200000000000000000000000008000000000002000000840000400000000000000000800000000000000000000100000000000000000000000100000010400000000000000080000000000000000000000000000000080000000000000000000000000000000000000000000000000000000000000000000000000000000020000000000002000000000000000000000000100000002000000000000000010040000000000000000000000000000000000000000000000001000000000200000020",
      "type": "0x2",
      "transactionHash": "0xf46bb748b434542da23555f99e82cc27f6a240bbeaaa49b006521174c7a0cd93",
      "transactionIndex": "0x3b",
      "blockHash": "0x13a689f5ab6c1d08c67473ef79e01f19c8700c9f3a0d6c63b4dbb754a8b6add3",
      "blockNumber": "0x1486ae7",
      "gasUsed": "0x2bf23",
      "effectiveGasPrice": "0x188b4",
      "from": "0xb47cfcf8181d36117142b83d31bbbf63b1b250fe",
      "to": "0xd0382d4b654474b531ef648e2303f87ecbbd1187",
      "contractAddress": null,
      "l1BaseFeeScalar": "0x44d",
      "l1BlobBaseFee": "0x3c8fba",
      "l1BlobBaseFeeScalar": "0xa118b",
      "l1Fee": "0x800c9bc5",
      "l1GasPrice": "0x3fd3f343",
      "l1GasUsed": "0x640"
    }
  ],
  "libraries": [],
  "pending": [],
  "returns": {},
  "timestamp": 1738814639,
  "chain": 84532,
  "commit": "e3ad21d"
}