{
  "transactions": [
    {
      "hash": "0x7e76da7edb73b912068ccd07c8bf61cd309339e280f1139e459ba0e275b76c90",
      "transactionType": "CALL",
      "contractName": "PlaceholderStableCoin",
      "contractAddress": "0xcfe2f7254692bbd99b67a4d7d429f46b7b5e6c92",
      "function": "approve(address,uint256)",
      "arguments": [
        "0x0765e09c95E7D3F43c5EC2DcCeFA46B2e4a12CA3",
        "43000000000000000000"
      ],
      "transaction": {
        "from": "0xbb02a9d6a71a847d587ce4dbb92f32f79c2efb2a",
        "to": "0xcfe2f7254692bbd99b67a4d7d429f46b7b5e6c92",
        "gas": "0x108f4",
        "value": "0x0",
        "input": "0x095ea7b30000000000000000000000000765e09c95e7d3f43c5ec2dccefa46b2e4a12ca300000000000000000000000000000000000000000000000254beb02d1dcc0000",
        "nonce": "0x40",
        "chainId": "0x14a34"
      },
      "additionalContracts": [],
      "isFixedGasLimit": false
    },
    {
      "hash": "0xea1aff600362360bb9d3839ad65cab052cd0ecc5703877fc029ff3442758148a",
      "transactionType": "CALL",
      "contractName": "PlaceholderAdsMarketplace",
      "contractAddress": "0x0765e09c95e7d3f43c5ec2dccefa46b2e4a12ca3",
      "function": "placeBid(uint256,uint256)",
      "arguments": [
        "4",
        "43000000000000000000"
      ],
      "transaction": {
        "from": "0xbb02a9d6a71a847d587ce4dbb92f32f79c2efb2a",
        "to": "0x0765e09c95e7d3f43c5ec2dccefa46b2e4a12ca3",
        "gas": "0x44075",
        "value": "0x0",
        "input": "0x57c90de5000000000000000000000000000000000000000000000000000000000000000400000000000000000000000000000000000000000000000254beb02d1dcc0000",
        "nonce": "0x41",
        "chainId": "0x14a34"
      },
      "additionalContracts": [],
      "isFixedGasLimit": false
    }
  ],
  "receipts": [
    {
      "status": "0x1",
      "cumulativeGasUsed": "0x38ff48",
      "logs": [
        {
          "address": "0xcfe2f7254692bbd99b67a4d7d429f46b7b5e6c92",
          "topics": [
            "0x8c5be1e5ebec7d5bd14f71427d1e84f3dd0314c0f7b2291e5b200ac8c7c3b925",
            "0x000000000000000000000000bb02a9d6a71a847d587ce4dbb92f32f79c2efb2a",
            "0x0000000000000000000000000765e09c95e7d3f43c5ec2dccefa46b2e4a12ca3"
          ],
          "data": "0x00000000000000000000000000000000000000000000000254beb02d1dcc0000",
          "blockHash": "0xc2f17adf09633fcd13b5136b8f1f583836eafe9f027eae8251104ffd9d5606ca",
          "blockNumber": "0x1496065",
          "transactionHash": "0x7e76da7edb73b912068ccd07c8bf61cd309339e280f1139e459ba0e275b76c90",
          "transactionIndex": "0x1e",
          "logIndex": "0x53",
          "removed": false
        }
      ],
      "logsBloom": "0x00000000000000000000000000000000000000000000080000000000000000000000000000000000000000000000000000000000000000008000000000200000000000000000000000000000000000000000000000000000000000000000000000000000004000000000000000000000000000000000000000000000000000000000000000000000000000000000000000000000000000000000000000000000020000000000010000000000000000000000000000000000000020000000000000008000000000020000000000000000000000000000000000000000000000000010080000000000000000000020000000000000000000000000000000000000",
      "type": "0x2",
      "transactionHash": "0x7e76da7edb73b912068ccd07c8bf61cd309339e280f1139e459ba0e275b76c90",
      "transactionIndex": "0x1e",
      "blockHash": "0xc2f17adf09633fcd13b5136b8f1f583836eafe9f027eae8251104ffd9d5606ca",
      "blockNumber": "0x1496065",
      "gasUsed": "0xb52b",
      "effectiveGasPrice": "0xe5d1e",
      "from": "0xbb02a9d6a71a847d587ce4dbb92f32f79c2efb2a",
      "to": "0xcfe2f7254692bbd99b67a4d7d429f46b7b5e6c92",
      "contractAddress": null,
      "l1BaseFeeScalar": "0x44d",
      "l1BlobBaseFee": "0x1e",
      "l1BlobBaseFeeScalar": "0xa118b",
      "l1Fee": "0x26952701e2",
      "l1GasPrice": "0x15e6ebcee0",
      "l1GasUsed": "0x640"
    }
  ],
  "libraries": [],
  "pending": [],
  "returns": {},
  "timestamp": 1738940332,
  "chain": 84532,
  "commit": "270a582"
}