{
  "transactions": [
    {
      "hash": "0xc34bf05ae7f7ead931828ab39e6c1de8c7f629b8bb40b4c6db7613989c990431",
      "transactionType": "CALL",
      "contractName": null,
      "contractAddress": "0x728a61c50bd3d63f864b370aeb1b2dc90e381181",
      "function": "approve(address,uint256)",
      "arguments": [
        "0xd0382d4B654474b531ef648E2303F87Ecbbd1187",
        "95800000000000000000"
      ],
      "transaction": {
        "from": "0xbb02a9d6a71a847d587ce4dbb92f32f79c2efb2a",
        "to": "0x728a61c50bd3d63f864b370aeb1b2dc90e381181",
        "gas": "0x9df8",
        "value": "0x0",
        "input": "0x095ea7b3000000000000000000000000d0382d4b654474b531ef648e2303f87ecbbd1187000000000000000000000000000000000000000000000005317df86e0a6c0000",
        "nonce": "0x18",
        "chainId": "0x14a34"
      },
      "additionalContracts": [],
      "isFixedGasLimit": false
    },
    {
      "hash": "0x815b953a835a0e25f15d31daeb245263093a5d17d58048d46fba45709571664e",
      "transactionType": "CALL",
      "contractName": null,
      "contractAddress": "0xd0382d4b654474b531ef648e2303f87ecbbd1187",
      "function": "placeBid(uint256,uint256)",
      "arguments": [
        "0",
        "95800000000000000000"
      ],
      "transaction": {
        "from": "0xbb02a9d6a71a847d587ce4dbb92f32f79c2efb2a",
        "to": "0xd0382d4b654474b531ef648e2303f87ecbbd1187",
        "gas": "0x3bc08",
        "value": "0x0",
        "input": "0x57c90de50000000000000000000000000000000000000000000000000000000000000000000000000000000000000000000000000000000000000005317df86e0a6c0000",
        "nonce": "0x19",
        "chainId": "0x14a34"
      },
      "additionalContracts": [],
      "isFixedGasLimit": false
    }
  ],
  "receipts": [
    {
      "status": "0x1",
      "cumulativeGasUsed": "0x844163",
      "logs": [
        {
          "address": "0x728a61c50bd3d63f864b370aeb1b2dc90e381181",
          "topics": [
            "0x8c5be1e5ebec7d5bd14f71427d1e84f3dd0314c0f7b2291e5b200ac8c7c3b925",
            "0x000000000000000000000000bb02a9d6a71a847d587ce4dbb92f32f79c2efb2a",
            "0x000000000000000000000000d0382d4b654474b531ef648e2303f87ecbbd1187"
          ],
          "data": "0x000000000000000000000000000000000000000000000005317df86e0a6c0000",
          "blockHash": "0x4f11ebd415ec3d0de605f6b19f1b72b3c27a0c06cd45cff5189561142f54fe64",
          "blockNumber": "0x1486a08",
          "transactionHash": "0xc34bf05ae7f7ead931828ab39e6c1de8c7f629b8bb40b4c6db7613989c990431",
          "transactionIndex": "0x3c",
          "logIndex": "0xd8",
          "removed": false
        }
      ],
      "logsBloom": "0x00000000000000000000000000000000000000000000000000000000000000000000000000000000000000000000000000000020000000008000000000200200000000000000000000000000000000000002000000000000000000000000000000000000000000000000000100000000000000000000000000000000400000000000000000000000000000000000000000000000000000000000000000000000020000000000000000000000000000000000000000000000000000000000000000008000000000020000000000000000100000000000000000000000000000000010000000000000000000000000000000000000000000000000000000000000",
      "type": "0x2",
      "transactionHash": "0xc34bf05ae7f7ead931828ab39e6c1de8c7f629b8bb40b4c6db7613989c990431",
      "transactionIndex": "0x3c",
      "blockHash": "0x4f11ebd415ec3d0de605f6b19f1b72b3c27a0c06cd45cff5189561142f54fe64",
      "blockNumber": "0x1486a08",
      "gasUsed": "0x725f",
      "effectiveGasPrice": "0x1eac7",
      "from": "0xbb02a9d6a71a847d587ce4dbb92f32f79c2efb2a",
      "to": "0x728a61c50bd3d63f864b370aeb1b2dc90e381181",
      "contractAddress": null,
      "l1BaseFeeScalar": "0x44d",
      "l1BlobBaseFee": "0x5d45dc",
      "l1BlobBaseFeeScalar": "0xa118b",
      "l1Fee": "0xa1acb75d",
      "l1GasPrice": "0x4e213083",
      "l1GasUsed": "0x640"
    },
    {
      "status": "0x1",
      "cumulativeGasUsed": "0x86f58a",
      "logs": [
        {
          "address": "0x728a61c50bd3d63f864b370aeb1b2dc90e381181",
          "topics": [
            "0xddf252ad1be2c89b69c2b068fc378daa952ba7f163c4a11628f55a4df523b3ef",
            "0x000000000000000000000000bb02a9d6a71a847d587ce4dbb92f32f79c2efb2a",
            "0x000000000000000000000000d0382d4b654474b531ef648e2303f87ecbbd1187"
          ],
          "data": "0x000000000000000000000000000000000000000000000005317df86e0a6c0000",
          "blockHash": "0x4f11ebd415ec3d0de605f6b19f1b72b3c27a0c06cd45cff5189561142f54fe64",
          "blockNumber": "0x1486a08",
          "transactionHash": "0x815b953a835a0e25f15d31daeb245263093a5d17d58048d46fba45709571664e",
          "transactionIndex": "0x3d",
          "logIndex": "0xd9",
          "removed": false
        },
        {
          "address": "0xd0382d4b654474b531ef648e2303f87ecbbd1187",
          "topics": [
            "0xdf8644c0a4c21ed214ce69f395675b3a5fcd1039083daea5058898de40ea3149"
          ],
          "data": "0x000000000000000000000000bb02a9d6a71a847d587ce4dbb92f32f79c2efb2a000000000000000000000000000000000000000000000005317df86e0a6c00000000000000000000000000000000000000000000000000000000000000000000",
          "blockHash": "0x4f11ebd415ec3d0de605f6b19f1b72b3c27a0c06cd45cff5189561142f54fe64",
          "blockNumber": "0x1486a08",
          "transactionHash": "0x815b953a835a0e25f15d31daeb245263093a5d17d58048d46fba45709571664e",
          "transactionIndex": "0x3d",
          "logIndex": "0xda",
          "removed": false
        },
        {
          "address": "0xd0382d4b654474b531ef648e2303f87ecbbd1187",
          "topics": [
            "0xc358e8e3f205b5e7453abd5cbac388ca4552b887b69001bc972b88610c749035"
          ],
          "data": "0x000000000000000000000000bb02a9d6a71a847d587ce4dbb92f32f79c2efb2a000000000000000000000000000000000000000000000005317df86e0a6c00000000000000000000000000000000000000000000000000000000000000000000",
          "blockHash": "0x4f11ebd415ec3d0de605f6b19f1b72b3c27a0c06cd45cff5189561142f54fe64",
          "blockNumber": "0x1486a08",
          "transactionHash": "0x815b953a835a0e25f15d31daeb245263093a5d17d58048d46fba45709571664e",
          "transactionIndex": "0x3d",
          "logIndex": "0xdb",
          "removed": false
        },
        {
          "address": "0xd0382d4b654474b531ef648e2303f87ecbbd1187",
          "topics": [
            "0x75ff54b34361a82532c89f24d71c8e91d70a10b35bfa45e8a6969cbc1970f326",
            "0x0000000000000000000000000000000000000000000000000000000000000000",
            "0x000000000000000000000000bb02a9d6a71a847d587ce4dbb92f32f79c2efb2a"
          ],
          "data": "0x000000000000000000000000000000000000000000000000000000000000008000000000000000000000000000000000000000000000000000000000000000c00000000000000000000000000000000000000000000000000000000000000100000000000000000000000000000000000000000000000005317df86e0a6c000000000000000000000000000000000000000000000000000000000000000000114a6f686e7320436f666665652053686f700000000000000000000000000000000000000000000000000000000000000000000000000000000000000000000011436865617020616e64205072656d69756d000000000000000000000000000000000000000000000000000000000000000000000000000000000000000000005268747470733a2f2f706c616365686f6c6465726164732e73332e61702d736f7574682d312e616d617a6f6e6177732e636f6d2f61642d696d616765732f313733383831333931323133342d3135312e706e670000000000000000000000000000",
          "blockHash": "0x4f11ebd415ec3d0de605f6b19f1b72b3c27a0c06cd45cff5189561142f54fe64",
          "blockNumber": "0x1486a08",
          "transactionHash": "0x815b953a835a0e25f15d31daeb245263093a5d17d58048d46fba45709571664e",
          "transactionIndex": "0x3d",
          "logIndex": "0xdc",
          "removed": false
        }
      ],
      "logsBloom": "0x00000000000000000008000000000000000000000000000000000000000000000000000000001000000000000000000000000020000000008000000000000200000000000000000000000008000000000002000000000000400000000000000000800000020000000000000100000800000000000000000100000010400000000000000080000000000000000000000000000000080000000000000000000000000000000000000000000000000000000000000000000000000000000020000000008002000000020000000000000000100000002000000000000000010020000000000000000000000000000000000000000000000000000000000200000020",
      "type": "0x2",
      "transactionHash": "0x815b953a835a0e25f15d31daeb245263093a5d17d58048d46fba45709571664e",
      "transactionIndex": "0x3d",
      "blockHash": "0x4f11ebd415ec3d0de605f6b19f1b72b3c27a0c06cd45cff5189561142f54fe64",
      "blockNumber": "0x1486a08",
      "gasUsed": "0x2b427",
      "effectiveGasPrice": "0x1eac7",
      "from": "0xbb02a9d6a71a847d587ce4dbb92f32f79c2efb2a",
      "to": "0xd0382d4b654474b531ef648e2303f87ecbbd1187",
      "contractAddress": null,
      "l1BaseFeeScalar": "0x44d",
      "l1BlobBaseFee": "0x5d45dc",
      "l1BlobBaseFeeScalar": "0xa118b",
      "l1Fee": "0xa1acb75d",
      "l1GasPrice": "0x4e213083",
      "l1GasUsed": "0x640"
    }
  ],
  "libraries": [],
  "pending": [],
  "returns": {},
  "timestamp": 1738814193,
  "chain": 84532,
  "commit": "e3ad21d"
}