{
  "transactions": [
    {
      "hash": "0x50332146a93156ee517e450186b48aa092d29a31750523d93c0ac8f92291205e",
      "transactionType": "CALL",
      "contractName": null,
      "contractAddress": "0x728a61c50bd3d63f864b370aeb1b2dc90e381181",
      "function": "approve(address,uint256)",
      "arguments": [
        "0xd0382d4B654474b531ef648E2303F87Ecbbd1187",
        "97000000000000000000"
      ],
      "transaction": {
        "from": "0xb47cfcf8181d36117142b83d31bbbf63b1b250fe",
        "to": "0x728a61c50bd3d63f864b370aeb1b2dc90e381181",
        "gas": "0x108f4",
        "value": "0x0",
        "input": "0x095ea7b3000000000000000000000000d0382d4b654474b531ef648e2303f87ecbbd118700000000000000000000000000000000000000000000000542253a126ce40000",
        "nonce": "0x70",
        "chainId": "0x14a34"
      },
      "additionalContracts": [],
      "isFixedGasLimit": false
    },
    {
      "hash": "0x38cbb6efb003d7f7c29a6cf7cd3a9f11b2890dea9ef735475b39842708394a18",
      "transactionType": "CALL",
      "contractName": null,
      "contractAddress": "0xd0382d4b654474b531ef648e2303f87ecbbd1187",
      "function": "placeBid(uint256,uint256)",
      "arguments": [
        "4",
        "97000000000000000000"
      ],
      "transaction": {
        "from": "0xb47cfcf8181d36117142b83d31bbbf63b1b250fe",
        "to": "0xd0382d4b654474b531ef648e2303f87ecbbd1187",
        "gas": "0x40455",
        "value": "0x0",
        "input": "0x57c90de5000000000000000000000000000000000000000000000000000000000000000400000000000000000000000000000000000000000000000542253a126ce40000",
        "nonce": "0x71",
        "chainId": "0x14a34"
      },
      "additionalContracts": [],
      "isFixedGasLimit": false
    }
  ],
  "receipts": [
    {
      "status": "0x1",
      "cumulativeGasUsed": "0x583bf7",
      "logs": [
        {
          "address": "0x728a61c50bd3d63f864b370aeb1b2dc90e381181",
          "topics": [
            "0x8c5be1e5ebec7d5bd14f71427d1e84f3dd0314c0f7b2291e5b200ac8c7c3b925",
            "0x000000000000000000000000b47cfcf8181d36117142b83d31bbbf63b1b250fe",
            "0x000000000000000000000000d0382d4b654474b531ef648e2303f87ecbbd1187"
          ],
          "data": "0x00000000000000000000000000000000000000000000000542253a126ce40000",
          "blockHash": "0x0b333597d8872206c2ea9f33d324a58d68cf60546ad204a9d17f8ca7d7e64aee",
          "blockNumber": "0x1486e5c",
          "transactionHash": "0x50332146a93156ee517e450186b48aa092d29a31750523d93c0ac8f92291205e",
          "transactionIndex": "0x34",
          "logIndex": "0x88",
          "removed": false
        }
      ],
      "logsBloom": "0x00000000000000000000000000000000000000000000000000000000000000000000000000000000080000000000000000000020000000000000000000200200000000000000000000000000000000000002000000800000000000000000000000000000000000000000000100000000000000000000000000000000400000000000000000000000000000000000000000000000000000000000000000000000020000000000000000000000000000000000000000000000000000000000000000000000000000000000000000000000100000000000000000000000000000000010000000000000000000000000000000000000000001000000000000000000",
      "type": "0x2",
      "transactionHash": "0x50332146a93156ee517e450186b48aa092d29a31750523d93c0ac8f92291205e",
      "transactionIndex": "0x34",
      "blockHash": "0x0b333597d8872206c2ea9f33d324a58d68cf60546ad204a9d17f8ca7d7e64aee",
      "blockNumber": "0x1486e5c",
      "gasUsed": "0xb52b",
      "effectiveGasPrice": "0x18882",
      "from": "0xb47cfcf8181d36117142b83d31bbbf63b1b250fe",
      "to": "0x728a61c50bd3d63f864b370aeb1b2dc90e381181",
      "contractAddress": null,
      "l1BaseFeeScalar": "0x44d",
      "l1BlobBaseFee": "0x221cff9",
      "l1BlobBaseFeeScalar": "0xa118b",
      "l1Fee": "0x10d796660",
      "l1GasPrice": "0x491be43d",
      "l1GasUsed": "0x640"
    },
    {
      "status": "0x1",
      "cumulativeGasUsed": "0x1495085",
      "logs": [
        {
          "address": "0x728a61c50bd3d63f864b370aeb1b2dc90e381181",
          "topics": [
            "0xddf252ad1be2c89b69c2b068fc378daa952ba7f163c4a11628f55a4df523b3ef",
            "0x000000000000000000000000b47cfcf8181d36117142b83d31bbbf63b1b250fe",
            "0x000000000000000000000000d0382d4b654474b531ef648e2303f87ecbbd1187"
          ],
          "data": "0x00000000000000000000000000000000000000000000000542253a126ce40000",
          "blockHash": "0xdb4d451094745c504f4f21c78f37f0c1d2579e4a9b4407665efe0d2fea6bf987",
          "blockNumber": "0x1486e5d",
          "transactionHash": "0x38cbb6efb003d7f7c29a6cf7cd3a9f11b2890dea9ef735475b39842708394a18",
          "transactionIndex": "0x27",
          "logIndex": "0x67",
          "removed": false
        },
        {
          "address": "0xd0382d4b654474b531ef648e2303f87ecbbd1187",
          "topics": [
            "0xdf8644c0a4c21ed214ce69f395675b3a5fcd1039083daea5058898de40ea3149"
          ],
          "data": "0x000000000000000000000000b47cfcf8181d36117142b83d31bbbf63b1b250fe00000000000000000000000000000000000000000000000542253a126ce400000000000000000000000000000000000000000000000000000000000000000004",
          "blockHash": "0xdb4d451094745c504f4f21c78f37f0c1d2579e4a9b4407665efe0d2fea6bf987",
          "blockNumber": "0x1486e5d",
          "transactionHash": "0x38cbb6efb003d7f7c29a6cf7cd3a9f11b2890dea9ef735475b39842708394a18",
          "transactionIndex": "0x27",
          "logIndex": "0x68",
          "removed": false
        },
        {
          "address": "0xd0382d4b654474b531ef648e2303f87ecbbd1187",
          "topics": [
            "0xc358e8e3f205b5e7453abd5cbac388ca4552b887b69001bc972b88610c749035"
          ],
          "data": "0x000000000000000000000000b47cfcf8181d36117142b83d31bbbf63b1b250fe00000000000000000000000000000000000000000000000542253a126ce400000000000000000000000000000000000000000000000000000000000000000004",
          "blockHash": "0xdb4d451094745c504f4f21c78f37f0c1d2579e4a9b4407665efe0d2fea6bf987",
          "blockNumber": "0x1486e5d",
          "transactionHash": "0x38cbb6efb003d7f7c29a6cf7cd3a9f11b2890dea9ef735475b39842708394a18",
          "transactionIndex": "0x27",
          "logIndex": "0x69",
          "removed": false
        },
        {
          "address": "0xd0382d4b654474b531ef648e2303f87ecbbd1187",
          "topics": [
            "0x75ff54b34361a82532c89f24d71c8e91d70a10b35bfa45e8a6969cbc1970f326",
            "0x0000000000000000000000000000000000000000000000000000000000000004",
            "0x000000000000000000000000b47cfcf8181d36117142b83d31bbbf63b1b250fe"
          ],
          "data": "0x000000000000000000000000000000000000000000000000000000000000008000000000000000000000000000000000000000000000000000000000000000c0000000000000000000000000000000000000000000000000000000000000010000000000000000000000000000000000000000000000000542253a126ce4000000000000000000000000000000000000000000000000000000000000000000124a6f686e277320436f666665652053686f7000000000000000000000000000000000000000000000000000000000000000000000000000000000000000000017566572792063686561702c20676f6f6420746173746521000000000000000000000000000000000000000000000000000000000000000000000000000000005268747470733a2f2f706c616365686f6c6465726164732e73332e61702d736f7574682d312e616d617a6f6e6177732e636f6d2f61642d696d616765732f313733383831363239323232352d3338372e706e670000000000000000000000000000",
          "blockHash": "0xdb4d451094745c504f4f21c78f37f0c1d2579e4a9b4407665efe0d2fea6bf987",
          "blockNumber": "0x1486e5d",
          "transactionHash": "0x38cbb6efb003d7f7c29a6cf7cd3a9f11b2890dea9ef735475b39842708394a18",
          "transactionIndex": "0x27",
          "logIndex": "0x6a",
          "removed": false
        }
      ],
      "logsBloom": "0x0000000000000000000800000000000000000000000000000000000000000000000000000000100008000000000000000000002000000000000000000000020000000000000000000000000800000000000200000080000040000000000000000880000000000000000000010000000000000000000000010000001040000000000000008000000000000000000000000000000008000000000000000000000000000000000000000000000000000000000000000000000000200000002000000000000200000000000000000000000010000000a000000000000000010000000000000000000000000000000000000000000000000001000000000200000020",
      "type": "0x2",
      "transactionHash": "0x38cbb6efb003d7f7c29a6cf7cd3a9f11b2890dea9ef735475b39842708394a18",
      "transactionIndex": "0x27",
      "blockHash": "0xdb4d451094745c504f4f21c78f37f0c1d2579e4a9b4407665efe0d2fea6bf987",
      "blockNumber": "0x1486e5d",
      "gasUsed": "0x2bf23",
      "effectiveGasPrice": "0x18883",
      "from": "0xb47cfcf8181d36117142b83d31bbbf63b1b250fe",
      "to": "0xd0382d4b654474b531ef648e2303f87ecbbd1187",
      "contractAddress": null,
      "l1BaseFeeScalar": "0x44d",
      "l1BlobBaseFee": "0x221cff9",
      "l1BlobBaseFeeScalar": "0xa118b",
      "l1Fee": "0x10d796660",
      "l1GasPrice": "0x491be43d",
      "l1GasUsed": "0x640"
    }
  ],
  "libraries": [],
  "pending": [],
  "returns": {},
  "timestamp": 1738816412,
  "chain": 84532,
  "commit": "e3ad21d"
}