{
  "transactions": [
    {
      "hash": "0xc824322e2b0ec8e84f854ae4d0ab34c2d7b44123f8a9ee806ee35235b63a2996",
      "transactionType": "CALL",
      "contractName": null,
      "contractAddress": "0x7f310442e1ddfa18a5f98410195d381d1cb8db1b",
      "function": "approve(address,uint256)",
      "arguments": [
        "0x94435a3A14A4cF73c55CD884A5DbbfAe41198cF6",
        "85600000000000000000"
      ],
      "transaction": {
        "from": "0xb47cfcf8181d36117142b83d31bbbf63b1b250fe",
        "to": "0x7f310442e1ddfa18a5f98410195d381d1cb8db1b",
        "gas": "0x108f4",
        "value": "0x0",
        "input": "0x095ea7b300000000000000000000000094435a3a14a4cf73c55cd884a5dbbfae41198cf6000000000000000000000000000000000000000000000004a3f04a78c5700000",
        "nonce": "0x7b",
        "chainId": "0x14a34"
      },
      "additionalContracts": [],
      "isFixedGasLimit": false
    },
    {
      "hash": "0x7c8715de86d04a8f58dac06bcefbdaa48f8fae4e5b6bf915dfc59f088e217636",
      "transactionType": "CALL",
      "contractName": null,
      "contractAddress": "0x94435a3a14a4cf73c55cd884a5dbbfae41198cf6",
      "function": "placeBid(uint256,uint256)",
      "arguments": [
        "3",
        "85600000000000000000"
      ],
      "transaction": {
        "from": "0xb47cfcf8181d36117142b83d31bbbf63b1b250fe",
        "to": "0x94435a3a14a4cf73c55cd884a5dbbfae41198cf6",
        "gas": "0x3e373",
        "value": "0x0",
        "input": "0x57c90de50000000000000000000000000000000000000000000000000000000000000003000000000000000000000000000000000000000000000004a3f04a78c5700000",
        "nonce": "0x7c",
        "chainId": "0x14a34"
      },
      "additionalContracts": [],
      "isFixedGasLimit": false
    }
  ],
  "receipts": [
    {
      "status": "0x1",
      "cumulativeGasUsed": "0x7cf78c",
      "logs": [
        {
          "address": "0x7f310442e1ddfa18a5f98410195d381d1cb8db1b",
          "topics": [
            "0x8c5be1e5ebec7d5bd14f71427d1e84f3dd0314c0f7b2291e5b200ac8c7c3b925",
            "0x000000000000000000000000b47cfcf8181d36117142b83d31bbbf63b1b250fe",
            "0x00000000000000000000000094435a3a14a4cf73c55cd884a5dbbfae41198cf6"
          ],
          "data": "0x000000000000000000000000000000000000000000000004a3f04a78c5700000",
          "blockHash": "0x6ef46bc763576953ef3d72b88a6287624d5cc0319fd0c406163324f30bdf15e5",
          "blockNumber": "0x1487ecd",
          "transactionHash": "0xc824322e2b0ec8e84f854ae4d0ab34c2d7b44123f8a9ee806ee35235b63a2996",
          "transactionIndex": "0x3b",
          "logIndex": "0xa2",
          "removed": false
        }
      ],
      "logsBloom": "0x00000000000000000000000000000000000000000000000000000000000000000000000000000000080000800000000000000000000000000000000000200000000000000000000000000000000000000000000000800004200000000000000000000000000000000000000000000000000000000000000000000000000000000000000000000010000000000000080000000000000000000000000000000000020000000000000000000000000000000000000000000000000000000000200000000000000000000000000000000000000000000000000000000000000000000010000000000000000000000000000000000000000001000000000000000000",
      "type": "0x2",
      "transactionHash": "0xc824322e2b0ec8e84f854ae4d0ab34c2d7b44123f8a9ee806ee35235b63a2996",
      "transactionIndex": "0x3b",
      "blockHash": "0x6ef46bc763576953ef3d72b88a6287624d5cc0319fd0c406163324f30bdf15e5",
      "blockNumber": "0x1487ecd",
      "gasUsed": "0xb52b",
      "effectiveGasPrice": "0x28d4",
      "from": "0xb47cfcf8181d36117142b83d31bbbf63b1b250fe",
      "to": "0x7f310442e1ddfa18a5f98410195d381d1cb8db1b",
      "contractAddress": null,
      "l1BaseFeeScalar": "0x44d",
      "l1BlobBaseFee": "0x9e9ba3d45d",
      "l1BlobBaseFeeScalar": "0xa118b",
      "l1Fee": "0x291913e7852b",
      "l1GasPrice": "0x1f6685c532",
      "l1GasUsed": "0x640"
    },
    {
      "status": "0x1",
      "cumulativeGasUsed": "0x7fc83c",
      "logs": [
        {
          "address": "0x7f310442e1ddfa18a5f98410195d381d1cb8db1b",
          "topics": [
            "0xddf252ad1be2c89b69c2b068fc378daa952ba7f163c4a11628f55a4df523b3ef",
            "0x000000000000000000000000b47cfcf8181d36117142b83d31bbbf63b1b250fe",
            "0x00000000000000000000000094435a3a14a4cf73c55cd884a5dbbfae41198cf6"
          ],
          "data": "0x000000000000000000000000000000000000000000000004a3f04a78c5700000",
          "blockHash": "0x6ef46bc763576953ef3d72b88a6287624d5cc0319fd0c406163324f30bdf15e5",
          "blockNumber": "0x1487ecd",
          "transactionHash": "0x7c8715de86d04a8f58dac06bcefbdaa48f8fae4e5b6bf915dfc59f088e217636",
          "transactionIndex": "0x3c",
          "logIndex": "0xa3",
          "removed": false
        },
        {
          "address": "0x94435a3a14a4cf73c55cd884a5dbbfae41198cf6",
          "topics": [
            "0xdf8644c0a4c21ed214ce69f395675b3a5fcd1039083daea5058898de40ea3149"
          ],
          "data": "0x000000000000000000000000b47cfcf8181d36117142b83d31bbbf63b1b250fe000000000000000000000000000000000000000000000004a3f04a78c57000000000000000000000000000000000000000000000000000000000000000000003",
          "blockHash": "0x6ef46bc763576953ef3d72b88a6287624d5cc0319fd0c406163324f30bdf15e5",
          "blockNumber": "0x1487ecd",
          "transactionHash": "0x7c8715de86d04a8f58dac06bcefbdaa48f8fae4e5b6bf915dfc59f088e217636",
          "transactionIndex": "0x3c",
          "logIndex": "0xa4",
          "removed": false
        },
        {
          "address": "0x94435a3a14a4cf73c55cd884a5dbbfae41198cf6",
          "topics": [
            "0xc358e8e3f205b5e7453abd5cbac388ca4552b887b69001bc972b88610c749035"
          ],
          "data": "0x000000000000000000000000b47cfcf8181d36117142b83d31bbbf63b1b250fe000000000000000000000000000000000000000000000004a3f04a78c57000000000000000000000000000000000000000000000000000000000000000000003",
          "blockHash": "0x6ef46bc763576953ef3d72b88a6287624d5cc0319fd0c406163324f30bdf15e5",
          "blockNumber": "0x1487ecd",
          "transactionHash": "0x7c8715de86d04a8f58dac06bcefbdaa48f8fae4e5b6bf915dfc59f088e217636",
          "transactionIndex": "0x3c",
          "logIndex": "0xa5",
          "removed": false
        },
        {
          "address": "0x94435a3a14a4cf73c55cd884a5dbbfae41198cf6",
          "topics": [
            "0x75ff54b34361a82532c89f24d71c8e91d70a10b35bfa45e8a6969cbc1970f326",
            "0x0000000000000000000000000000000000000000000000000000000000000003",
            "0x000000000000000000000000b47cfcf8181d36117142b83d31bbbf63b1b250fe"
          ],
          "data": "0x000000000000000000000000000000000000000000000000000000000000008000000000000000000000000000000000000000000000000000000000000000c00000000000000000000000000000000000000000000000000000000000000120000000000000000000000000000000000000000000000004a3f04a78c5700000000000000000000000000000000000000000000000000000000000000000001453616d706c65204164766572746973656d656e7400000000000000000000000000000000000000000000000000000000000000000000000000000000000000365468697320697320612074657374206164766572746973656d656e74206d696e7465642076696120466f756e6472792073637269707400000000000000000000000000000000000000000000000000000000000000000000000000000000005368747470733a2f2f706c616365686f6c6465726164732e73332e61702d736f7574682d312e616d617a6f6e6177732e636f6d2f61642d696d616765732f313733383537353338313335332d363931322e706e6700000000000000000000000000",
          "blockHash": "0x6ef46bc763576953ef3d72b88a6287624d5cc0319fd0c406163324f30bdf15e5",
          "blockNumber": "0x1487ecd",
          "transactionHash": "0x7c8715de86d04a8f58dac06bcefbdaa48f8fae4e5b6bf915dfc59f088e217636",
          "transactionIndex": "0x3c",
          "logIndex": "0xa6",
          "removed": false
        }
      ],
      "logsBloom": "0x00000000000000000008000000000000000000000000000000000000000000000000000000001000080000800000000000000000020000000000000000000000000000000000000000000008000000000000000000800004600000000000000000000000000000000000000000000000000000000000000100000010000000000000000080000010000000000000080000000000000000000000000000000000000000000000000000000000000000000000000000800000000000000020600000000002000000000000000000000000000000000000000000000000010000000004040000000000000000000000000000000000000001000000000201000020",
      "type": "0x2",
      "transactionHash": "0x7c8715de86d04a8f58dac06bcefbdaa48f8fae4e5b6bf915dfc59f088e217636",
      "transactionIndex": "0x3c",
      "blockHash": "0x6ef46bc763576953ef3d72b88a6287624d5cc0319fd0c406163324f30bdf15e5",
      "blockNumber": "0x1487ecd",
      "gasUsed": "0x2d0b0",
      "effectiveGasPrice": "0x28d4",
      "from": "0xb47cfcf8181d36117142b83d31bbbf63b1b250fe",
      "to": "0x94435a3a14a4cf73c55cd884a5dbbfae41198cf6",
      "contractAddress": null,
      "l1BaseFeeScalar": "0x44d",
      "l1BlobBaseFee": "0x9e9ba3d45d",
      "l1BlobBaseFeeScalar": "0xa118b",
      "l1Fee": "0x291913e7852b",
      "l1GasPrice": "0x1f6685c532",
      "l1GasUsed": "0x640"
    }
  ],
  "libraries": [],
  "pending": [],
  "returns": {},
  "timestamp": 1738824827,
  "chain": 84532,
  "commit": "270a582"
}