{
  "transactions": [
    {
      "hash": "0xbf198e4edffdc2fc608e3a99ad1fae529c90f8df2395666bbed89b7790d87fef",
      "transactionType": "CALL",
      "contractName": null,
      "contractAddress": "0x728a61c50bd3d63f864b370aeb1b2dc90e381181",
      "function": "approve(address,uint256)",
      "arguments": [
        "0xd0382d4B654474b531ef648E2303F87Ecbbd1187",
        "98200000000000000000"
      ],
      "transaction": {
        "from": "0xb47cfcf8181d36117142b83d31bbbf63b1b250fe",
        "to": "0x728a61c50bd3d63f864b370aeb1b2dc90e381181",
        "gas": "0x108f4",
        "value": "0x0",
        "input": "0x095ea7b3000000000000000000000000d0382d4b654474b531ef648e2303f87ecbbd118700000000000000000000000000000000000000000000000552cc7bb6cf5c0000",
        "nonce": "0x6e",
        "chainId": "0x14a34"
      },
      "additionalContracts": [],
      "isFixedGasLimit": false
    },
    {
      "hash": "0x26a418265a0a4d5269dbf2a22dbf037277f5760a00aacef7a98e38df7936dc0f",
      "transactionType": "CALL",
      "contractName": null,
      "contractAddress": "0xd0382d4b654474b531ef648e2303f87ecbbd1187",
      "function": "placeBid(uint256,uint256)",
      "arguments": [
        "3",
        "98200000000000000000"
      ],
      "transaction": {
        "from": "0xb47cfcf8181d36117142b83d31bbbf63b1b250fe",
        "to": "0xd0382d4b654474b531ef648e2303f87ecbbd1187",
        "gas": "0x3e373",
        "value": "0x0",
        "input": "0x57c90de5000000000000000000000000000000000000000000000000000000000000000300000000000000000000000000000000000000000000000552cc7bb6cf5c0000",
        "nonce": "0x6f",
        "chainId": "0x14a34"
      },
      "additionalContracts": [],
      "isFixedGasLimit": false
    }
  ],
  "receipts": [
    {
      "status": "0x1",
      "cumulativeGasUsed": "0x2f2827",
      "logs": [
        {
          "address": "0x728a61c50bd3d63f864b370aeb1b2dc90e381181",
          "topics": [
            "0x8c5be1e5ebec7d5bd14f71427d1e84f3dd0314c0f7b2291e5b200ac8c7c3b925",
            "0x000000000000000000000000b47cfcf8181d36117142b83d31bbbf63b1b250fe",
            "0x000000000000000000000000d0382d4b654474b531ef648e2303f87ecbbd1187"
          ],
          "data": "0x00000000000000000000000000000000000000000000000552cc7bb6cf5c0000",
          "blockHash": "0x32afbf96323d2a00bceb5e8316fe54d93c3e7f4af6c8e51002510d2aafc39dec",
          "blockNumber": "0x1486cf2",
          "transactionHash": "0xbf198e4edffdc2fc608e3a99ad1fae529c90f8df2395666bbed89b7790d87fef",
          "transactionIndex": "0x1c",
          "logIndex": "0x48",
          "removed": false
        }
      ],
      "logsBloom": "0x00000000000000000000000000000000000000000000000000000000000000000000000000000000080000000000000000000020000000000000000000200200000000000000000000000000000000000002000000800000000000000000000000000000000000000000000100000000000000000000000000000000400000000000000000000000000000000000000000000000000000000000000000000000020000000000000000000000000000000000000000000000000000000000000000000000000000000000000000000000100000000000000000000000000000000010000000000000000000000000000000000000000001000000000000000000",
      "type": "0x2",
      "transactionHash": "0xbf198e4edffdc2fc608e3a99ad1fae529c90f8df2395666bbed89b7790d87fef",
      "transactionIndex": "0x1c",
      "blockHash": "0x32afbf96323d2a00bceb5e8316fe54d93c3e7f4af6c8e51002510d2aafc39dec",
      "blockNumber": "0x1486cf2",
      "gasUsed": "0xb52b",
      "effectiveGasPrice": "0xe29b0",
      "from": "0xb47cfcf8181d36117142b83d31bbbf63b1b250fe",
      "to": "0x728a61c50bd3d63f864b370aeb1b2dc90e381181",
      "contractAddress": null,
      "l1BaseFeeScalar": "0x44d",
      "l1BlobBaseFee": "0xf8e6a4",
      "l1BlobBaseFeeScalar": "0xa118b",
      "l1Fee": "0xb12b0ef3",
      "l1GasPrice": "0x40274faa",
      "l1GasUsed": "0x640"
    },
    {
      "status": "0x1",
      "cumulativeGasUsed": "0x31f8d7",
      "logs": [
        {
          "address": "0x728a61c50bd3d63f864b370aeb1b2dc90e381181",
          "topics": [
            "0xddf252ad1be2c89b69c2b068fc378daa952ba7f163c4a11628f55a4df523b3ef",
            "0x000000000000000000000000b47cfcf8181d36117142b83d31bbbf63b1b250fe",
            "0x000000000000000000000000d0382d4b654474b531ef648e2303f87ecbbd1187"
          ],
          "data": "0x00000000000000000000000000000000000000000000000552cc7bb6cf5c0000",
          "blockHash": "0x32afbf96323d2a00bceb5e8316fe54d93c3e7f4af6c8e51002510d2aafc39dec",
          "blockNumber": "0x1486cf2",
          "transactionHash": "0x26a418265a0a4d5269dbf2a22dbf037277f5760a00aacef7a98e38df7936dc0f",
          "transactionIndex": "0x1d",
          "logIndex": "0x49",
          "removed": false
        },
        {
          "address": "0xd0382d4b654474b531ef648e2303f87ecbbd1187",
          "topics": [
            "0xdf8644c0a4c21ed214ce69f395675b3a5fcd1039083daea5058898de40ea3149"
          ],
          "data": "0x000000000000000000000000b47cfcf8181d36117142b83d31bbbf63b1b250fe00000000000000000000000000000000000000000000000552cc7bb6cf5c00000000000000000000000000000000000000000000000000000000000000000003",
          "blockHash": "0x32afbf96323d2a00bceb5e8316fe54d93c3e7f4af6c8e51002510d2aafc39dec",
          "blockNumber": "0x1486cf2",
          "transactionHash": "0x26a418265a0a4d5269dbf2a22dbf037277f5760a00aacef7a98e38df7936dc0f",
          "transactionIndex": "0x1d",
          "logIndex": "0x4a",
          "removed": false
        },
        {
          "address": "0xd0382d4b654474b531ef648e2303f87ecbbd1187",
          "topics": [
            "0xc358e8e3f205b5e7453abd5cbac388ca4552b887b69001bc972b88610c749035"
          ],
          "data": "0x000000000000000000000000b47cfcf8181d36117142b83d31bbbf63b1b250fe00000000000000000000000000000000000000000000000552cc7bb6cf5c00000000000000000000000000000000000000000000000000000000000000000003",
          "blockHash": "0x32afbf96323d2a00bceb5e8316fe54d93c3e7f4af6c8e51002510d2aafc39dec",
          "blockNumber": "0x1486cf2",
          "transactionHash": "0x26a418265a0a4d5269dbf2a22dbf037277f5760a00aacef7a98e38df7936dc0f",
          "transactionIndex": "0x1d",
          "logIndex": "0x4b",
          "removed": false
        },
        {
          "address": "0xd0382d4b654474b531ef648e2303f87ecbbd1187",
          "topics": [
            "0x75ff54b34361a82532c89f24d71c8e91d70a10b35bfa45e8a6969cbc1970f326",
            "0x0000000000000000000000000000000000000000000000000000000000000003",
            "0x000000000000000000000000b47cfcf8181d36117142b83d31bbbf63b1b250fe"
          ],
          "data": "0x000000000000000000000000000000000000000000000000000000000000008000000000000000000000000000000000000000000000000000000000000000c0000000000000000000000000000000000000000000000000000000000000012000000000000000000000000000000000000000000000000552cc7bb6cf5c0000000000000000000000000000000000000000000000000000000000000000001453616d706c65204164766572746973656d656e7400000000000000000000000000000000000000000000000000000000000000000000000000000000000000365468697320697320612074657374206164766572746973656d656e74206d696e7465642076696120466f756e6472792073637269707400000000000000000000000000000000000000000000000000000000000000000000000000000000005368747470733a2f2f706c616365686f6c6465726164732e73332e61702d736f7574682d312e616d617a6f6e6177732e636f6d2f61642d696d616765732f313733383537353338313335332d363931322e706e6700000000000000000000000000",
          "blockHash": "0x32afbf96323d2a00bceb5e8316fe54d93c3e7f4af6c8e51002510d2aafc39dec",
          "blockNumber": "0x1486cf2",
          "transactionHash": "0x26a418265a0a4d5269dbf2a22dbf037277f5760a00aacef7a98e38df7936dc0f",
          "transactionIndex": "0x1d",
          "logIndex": "0x4c",
          "removed": false
        }
      ],
      "logsBloom": "0x00000000000000000008000000000000000000000000000000000000000000000000000000001000080000000000000000000020020000000000000000000200000000000000000000000008000000000002000000800000400000000000000000800000000000000000000100000000000000000000000100000010400000000000000080000000000000000000000000000000080000000000000000000000000000000000000000000000000000000000000000800000000000000020400000000002000000000000000000000000100000002000000000000000010000000000000000000000000000000000000000000000000001000000000200000020",
      "type": "0x2",
      "transactionHash": "0x26a418265a0a4d5269dbf2a22dbf037277f5760a00aacef7a98e38df7936dc0f",
      "transactionIndex": "0x1d",
      "blockHash": "0x32afbf96323d2a00bceb5e8316fe54d93c3e7f4af6c8e51002510d2aafc39dec",
      "blockNumber": "0x1486cf2",
      "gasUsed": "0x2d0b0",
      "effectiveGasPrice": "0xe29b0",
      "from": "0xb47cfcf8181d36117142b83d31bbbf63b1b250fe",
      "to": "0xd0382d4b654474b531ef648e2303f87ecbbd1187",
      "contractAddress": null,
      "l1BaseFeeScalar": "0x44d",
      "l1BlobBaseFee": "0xf8e6a4",
      "l1BlobBaseFeeScalar": "0xa118b",
      "l1Fee": "0xb12b0ef3",
      "l1GasPrice": "0x40274faa",
      "l1GasUsed": "0x640"
    }
  ],
  "libraries": [],
  "pending": [],
  "returns": {},
  "timestamp": 1738815685,
  "chain": 84532,
  "commit": "e3ad21d"
}