{
  "transactions": [
    {
      "hash": "0xcd1708b69f4cf226036ee09e8c466998b0a893d9791a902a078f81973babd113",
      "transactionType": "CALL",
      "contractName": null,
      "contractAddress": "0x58817b59b1579652b2ae2ce420056e12fc62f0fa",
      "function": "approve(address,uint256)",
      "arguments": [
        "0x054ED3E0471774514f27e00066d012b74E00C950",
        "100000000000000000000"
      ],
      "transaction": {
        "from": "0xbb02a9d6a71a847d587ce4dbb92f32f79c2efb2a",
        "to": "0x58817b59b1579652b2ae2ce420056e12fc62f0fa",
        "gas": "0x9dd7",
        "value": "0x0",
        "input": "0x095ea7b3000000000000000000000000054ed3e0471774514f27e00066d012b74e00c9500000000000000000000000000000000000000000000000056bc75e2d63100000",
        "nonce": "0xd",
        "chainId": "0x14a34"
      },
      "additionalContracts": [],
      "isFixedGasLimit": false
    },
    {
      "hash": "0xa06d73e7f5183ee30431053ad92108c953b3e1031475964b54772ca890206044",
      "transactionType": "CALL",
      "contractName": null,
      "contractAddress": "0x054ed3e0471774514f27e00066d012b74e00c950",
      "function": "placeBid(uint256,uint256)",
      "arguments": [
        "0",
        "100000000000000000000"
      ],
      "transaction": {
        "from": "0xbb02a9d6a71a847d587ce4dbb92f32f79c2efb2a",
        "to": "0x054ed3e0471774514f27e00066d012b74e00c950",
        "gas": "0x37df4",
        "value": "0x0",
        "input": "0x57c90de500000000000000000000000000000000000000000000000000000000000000000000000000000000000000000000000000000000000000056bc75e2d63100000",
        "nonce": "0xe",
        "chainId": "0x14a34"
      },
      "additionalContracts": [],
      "isFixedGasLimit": false
    }
  ],
  "receipts": [
    {
      "status": "0x1",
      "cumulativeGasUsed": "0x53ee6e",
      "logs": [
        {
          "address": "0x58817b59b1579652b2ae2ce420056e12fc62f0fa",
          "topics": [
            "0x8c5be1e5ebec7d5bd14f71427d1e84f3dd0314c0f7b2291e5b200ac8c7c3b925",
            "0x000000000000000000000000bb02a9d6a71a847d587ce4dbb92f32f79c2efb2a",
            "0x000000000000000000000000054ed3e0471774514f27e00066d012b74e00c950"
          ],
          "data": "0x0000000000000000000000000000000000000000000000056bc75e2d63100000",
          "blockHash": "0xcff8b7275602432c342c9d076cbebe7d00cd0c2549f24f7a0eac470f614aee05",
          "blockNumber": "0x1485b07",
          "transactionHash": "0xcd1708b69f4cf226036ee09e8c466998b0a893d9791a902a078f81973babd113",
          "transactionIndex": "0x2b",
          "logIndex": "0x7d",
          "removed": false
        }
      ],
      "logsBloom": "0x00000000000000000000000000000000000000000000000000000000000000000000000000000000000000000000000000000000000000008000000000200000000000000000000000000000000000000000000000000000000000000000000000000000000000000000000000000000000000000000000000000000000000000000000000000000000200000000000000010000000000000000000000000000020000000000000000000000000000000000000000000000000000000000000000008000000000020000000000000000000080000000000000000000000000001010000000000000000000000204000000000000000000000000000000000000",
      "type": "0x2",
      "transactionHash": "0xcd1708b69f4cf226036ee09e8c466998b0a893d9791a902a078f81973babd113",
      "transactionIndex": "0x2b",
      "blockHash": "0xcff8b7275602432c342c9d076cbebe7d00cd0c2549f24f7a0eac470f614aee05",
      "blockNumber": "0x1485b07",
      "gasUsed": "0x7247",
      "effectiveGasPrice": "0xf4400",
      "from": "0xbb02a9d6a71a847d587ce4dbb92f32f79c2efb2a",
      "to": "0x58817b59b1579652b2ae2ce420056e12fc62f0fa",
      "contractAddress": null,
      "l1BaseFeeScalar": "0x44d",
      "l1BlobBaseFee": "0x1",
      "l1BlobBaseFeeScalar": "0xa118b",
      "l1Fee": "0x78834eba",
      "l1GasPrice": "0x44693af6",
      "l1GasUsed": "0x640"
    },
    {
      "status": "0x1",
      "cumulativeGasUsed": "0x5675a3",
      "logs": [
        {
          "address": "0x58817b59b1579652b2ae2ce420056e12fc62f0fa",
          "topics": [
            "0xddf252ad1be2c89b69c2b068fc378daa952ba7f163c4a11628f55a4df523b3ef",
            "0x000000000000000000000000bb02a9d6a71a847d587ce4dbb92f32f79c2efb2a",
            "0x000000000000000000000000054ed3e0471774514f27e00066d012b74e00c950"
          ],
          "data": "0x0000000000000000000000000000000000000000000000056bc75e2d63100000",
          "blockHash": "0xcff8b7275602432c342c9d076cbebe7d00cd0c2549f24f7a0eac470f614aee05",
          "blockNumber": "0x1485b07",
          "transactionHash": "0xa06d73e7f5183ee30431053ad92108c953b3e1031475964b54772ca890206044",
          "transactionIndex": "0x2c",
          "logIndex": "0x7e",
          "removed": false
        },
        {
          "address": "0x054ed3e0471774514f27e00066d012b74e00c950",
          "topics": [
            "0xdf8644c0a4c21ed214ce69f395675b3a5fcd1039083daea5058898de40ea3149"
          ],
          "data": "0x000000000000000000000000bb02a9d6a71a847d587ce4dbb92f32f79c2efb2a0000000000000000000000000000000000000000000000056bc75e2d631000000000000000000000000000000000000000000000000000000000000000000000",
          "blockHash": "0xcff8b7275602432c342c9d076cbebe7d00cd0c2549f24f7a0eac470f614aee05",
          "blockNumber": "0x1485b07",
          "transactionHash": "0xa06d73e7f5183ee30431053ad92108c953b3e1031475964b54772ca890206044",
          "transactionIndex": "0x2c",
          "logIndex": "0x7f",
          "removed": false
        },
        {
          "address": "0x054ed3e0471774514f27e00066d012b74e00c950",
          "topics": [
            "0xc358e8e3f205b5e7453abd5cbac388ca4552b887b69001bc972b88610c749035"
          ],
          "data": "0x000000000000000000000000bb02a9d6a71a847d587ce4dbb92f32f79c2efb2a0000000000000000000000000000000000000000000000056bc75e2d631000000000000000000000000000000000000000000000000000000000000000000000",
          "blockHash": "0xcff8b7275602432c342c9d076cbebe7d00cd0c2549f24f7a0eac470f614aee05",
          "blockNumber": "0x1485b07",
          "transactionHash": "0xa06d73e7f5183ee30431053ad92108c953b3e1031475964b54772ca890206044",
          "transactionIndex": "0x2c",
          "logIndex": "0x80",
          "removed": false
        },
        {
          "address": "0x054ed3e0471774514f27e00066d012b74e00c950",
          "topics": [
            "0x75ff54b34361a82532c89f24d71c8e91d70a10b35bfa45e8a6969cbc1970f326",
            "0x0000000000000000000000000000000000000000000000000000000000000000",
            "0x0000000000000000000000000000000000000000000000000000000000000000"
          ],
          "data": "0x000000000000000000000000000000000000000000000000000000000000008000000000000000000000000000000000000000000000000000000000000000a000000000000000000000000000000000000000000000000000000000000000c00000000000000000000000000000000000000000000000056bc75e2d63100000000000000000000000000000000000000000000000000000000000000000000000000000000000000000000000000000000000000000000000000000000000000000000000000000000000000000000000000000000000000000000000000000",
          "blockHash": "0xcff8b7275602432c342c9d076cbebe7d00cd0c2549f24f7a0eac470f614aee05",
          "blockNumber": "0x1485b07",
          "transactionHash": "0xa06d73e7f5183ee30431053ad92108c953b3e1031475964b54772ca890206044",
          "transactionIndex": "0x2c",
          "logIndex": "0x81",
          "removed": false
        }
      ],
      "logsBloom": "0x00000000000000000008000000000000000000000000000000000000000000000000000000001000000000000000000000000000000000008000000000000000000000000000000000000008000000000000000000000000400000000000000000000000020000000000000000020800000000000000000100000010000000000000000080000000000200000000000000010000000000000000000000000000000000000000000000000000000000000000000000000000000000000020000000028002000000022000000000000000000080000000000000000000010020001000000000000000000000000204000000000000000000000000000200000020",
      "type": "0x2",
      "transactionHash": "0xa06d73e7f5183ee30431053ad92108c953b3e1031475964b54772ca890206044",
      "transactionIndex": "0x2c",
      "blockHash": "0xcff8b7275602432c342c9d076cbebe7d00cd0c2549f24f7a0eac470f614aee05",
      "blockNumber": "0x1485b07",
      "gasUsed": "0x28735",
      "effectiveGasPrice": "0xf4400",
      "from": "0xbb02a9d6a71a847d587ce4dbb92f32f79c2efb2a",
      "to": "0x054ed3e0471774514f27e00066d012b74e00c950",
      "contractAddress": null,
      "l1BaseFeeScalar": "0x44d",
      "l1BlobBaseFee": "0x1",
      "l1BlobBaseFeeScalar": "0xa118b",
      "l1Fee": "0x78834eba",
      "l1GasPrice": "0x44693af6",
      "l1GasUsed": "0x640"
    }
  ],
  "libraries": [],
  "pending": [],
  "returns": {},
  "timestamp": 1738806511,
  "chain": 84532,
  "commit": "e3ad21d"
}