{
  "transactions": [
    {
      "hash": "0x4c520d983bca479d25c26a2728ccafdcf6b43623e0d2a5c37b4a9e9ba56d9591",
      "transactionType": "CALL",
      "contractName": "PlaceholderStableCoin",
      "contractAddress": "0xcfe2f7254692bbd99b67a4d7d429f46b7b5e6c92",
      "function": "approve(address,uint256)",
      "arguments": [
        "0x0765e09c95E7D3F43c5EC2DcCeFA46B2e4a12CA3",
        "76000000000000000000"
      ],
      "transaction": {
        "from": "0xbb02a9d6a71a847d587ce4dbb92f32f79c2efb2a",
        "to": "0xcfe2f7254692bbd99b67a4d7d429f46b7b5e6c92",
        "gas": "0x9df8",
        "value": "0x0",
        "input": "0x095ea7b30000000000000000000000000765e09c95e7d3f43c5ec2dccefa46b2e4a12ca30000000000000000000000000000000000000000000000041eb63d55b1b00000",
        "nonce": "0x42",
        "chainId": "0x14a34"
      },
      "additionalContracts": [],
      "isFixedGasLimit": false
    },
    {
      "hash": "0xb63f0cb298fec6dcbd7df3602fc5ab07822b20bdec9979f05422d6ba6bae61b9",
      "transactionType": "CALL",
      "contractName": "PlaceholderAdsMarketplace",
      "contractAddress": "0x0765e09c95e7d3f43c5ec2dccefa46b2e4a12ca3",
      "function": "placeBid(uint256,uint256)",
      "arguments": [
        "4",
        "76000000000000000000"
      ],
      "transaction": {
        "from": "0xbb02a9d6a71a847d587ce4dbb92f32f79c2efb2a",
        "to": "0x0765e09c95e7d3f43c5ec2dccefa46b2e4a12ca3",
        "gas": "0x44075",
        "value": "0x0",
        "input": "0x57c90de500000000000000000000000000000000000000000000000000000000000000040000000000000000000000000000000000000000000000041eb63d55b1b00000",
        "nonce": "0x43",
        "chainId": "0x14a34"
      },
      "additionalContracts": [],
      "isFixedGasLimit": false
    }
  ],
  "receipts": [
    {
      "status": "0x1",
      "cumulativeGasUsed": "0x7552be",
      "logs": [
        {
          "address": "0xcfe2f7254692bbd99b67a4d7d429f46b7b5e6c92",
          "topics": [
            "0x8c5be1e5ebec7d5bd14f71427d1e84f3dd0314c0f7b2291e5b200ac8c7c3b925",
            "0x000000000000000000000000bb02a9d6a71a847d587ce4dbb92f32f79c2efb2a",
            "0x0000000000000000000000000765e09c95e7d3f43c5ec2dccefa46b2e4a12ca3"
          ],
          "data": "0x0000000000000000000000000000000000000000000000041eb63d55b1b00000",
          "blockHash": "0xec881ab0c5f34d519a382c708f03ea0de1499fc3f60775a2fa89c09c0823d01f",
          "blockNumber": "0x1496080",
          "transactionHash": "0x4c520d983bca479d25c26a2728ccafdcf6b43623e0d2a5c37b4a9e9ba56d9591",
          "transactionIndex": "0x33",
          "logIndex": "0xa8",
          "removed": false
        }
      ],
      "logsBloom": "0x00000000000000000000000000000000000000000000080000000000000000000000000000000000000000000000000000000000000000008000000000200000000000000000000000000000000000000000000000000000000000000000000000000000004000000000000000000000000000000000000000000000000000000000000000000000000000000000000000000000000000000000000000000000020000000000010000000000000000000000000000000000000020000000000000008000000000020000000000000000000000000000000000000000000000000010080000000000000000000020000000000000000000000000000000000000",
      "type": "0x2",
      "transactionHash": "0x4c520d983bca479d25c26a2728ccafdcf6b43623e0d2a5c37b4a9e9ba56d9591",
      "transactionIndex": "0x33",
      "blockHash": "0xec881ab0c5f34d519a382c708f03ea0de1499fc3f60775a2fa89c09c0823d01f",
      "blockNumber": "0x1496080",
      "gasUsed": "0x725f",
      "effectiveGasPrice": "0x1885c",
      "from": "0xbb02a9d6a71a847d587ce4dbb92f32f79c2efb2a",
      "to": "0xcfe2f7254692bbd99b67a4d7d429f46b7b5e6c92",
      "contractAddress": null,
      "l1BaseFeeScalar": "0x44d",
      "l1BlobBaseFee": "0x1c",
      "l1BlobBaseFeeScalar": "0xa118b",
      "l1Fee": "0x20ebde94ee",
      "l1GasPrice": "0x12b0367d17",
      "l1GasUsed": "0x640"
    },
    {
      "status": "0x1",
      "cumulativeGasUsed": "0x7866c5",
      "logs": [
        {
          "address": "0xcfe2f7254692bbd99b67a4d7d429f46b7b5e6c92",
          "topics": [
            "0xddf252ad1be2c89b69c2b068fc378daa952ba7f163c4a11628f55a4df523b3ef",
            "0x000000000000000000000000bb02a9d6a71a847d587ce4dbb92f32f79c2efb2a",
            "0x0000000000000000000000000765e09c95e7d3f43c5ec2dccefa46b2e4a12ca3"
          ],
          "data": "0x0000000000000000000000000000000000000000000000041eb63d55b1b00000",
          "blockHash": "0xec881ab0c5f34d519a382c708f03ea0de1499fc3f60775a2fa89c09c0823d01f",
          "blockNumber": "0x1496080",
          "transactionHash": "0xb63f0cb298fec6dcbd7df3602fc5ab07822b20bdec9979f05422d6ba6bae61b9",
          "transactionIndex": "0x34",
          "logIndex": "0xa9",
          "removed": false
        },
        {
          "address": "0x0765e09c95e7d3f43c5ec2dccefa46b2e4a12ca3",
          "topics": [
            "0xdf8644c0a4c21ed214ce69f395675b3a5fcd1039083daea5058898de40ea3149"
          ],
          "data": "0x000000000000000000000000bb02a9d6a71a847d587ce4dbb92f32f79c2efb2a0000000000000000000000000000000000000000000000041eb63d55b1b000000000000000000000000000000000000000000000000000000000000000000004",
          "blockHash": "0xec881ab0c5f34d519a382c708f03ea0de1499fc3f60775a2fa89c09c0823d01f",
          "blockNumber": "0x1496080",
          "transactionHash": "0xb63f0cb298fec6dcbd7df3602fc5ab07822b20bdec9979f05422d6ba6bae61b9",
          "transactionIndex": "0x34",
          "logIndex": "0xaa",
          "removed": false
        },
        {
          "address": "0x0765e09c95e7d3f43c5ec2dccefa46b2e4a12ca3",
          "topics": [
            "0xc358e8e3f205b5e7453abd5cbac388ca4552b887b69001bc972b88610c749035"
          ],
          "data": "0x000000000000000000000000bb02a9d6a71a847d587ce4dbb92f32f79c2efb2a0000000000000000000000000000000000000000000000041eb63d55b1b000000000000000000000000000000000000000000000000000000000000000000004",
          "blockHash": "0xec881ab0c5f34d519a382c708f03ea0de1499fc3f60775a2fa89c09c0823d01f",
          "blockNumber": "0x1496080",
          "transactionHash": "0xb63f0cb298fec6dcbd7df3602fc5ab07822b20bdec9979f05422d6ba6bae61b9",
          "transactionIndex": "0x34",
          "logIndex": "0xab",
          "removed": false
        },
        {
          "address": "0x0765e09c95e7d3f43c5ec2dccefa46b2e4a12ca3",
          "topics": [
            "0x75ff54b34361a82532c89f24d71c8e91d70a10b35bfa45e8a6969cbc1970f326",
            "0x0000000000000000000000000000000000000000000000000000000000000004",
            "0x000000000000000000000000bb02a9d6a71a847d587ce4dbb92f32f79c2efb2a"
          ],
          "data": "0x000000000000000000000000000000000000000000000000000000000000008000000000000000000000000000000000000000000000000000000000000000c000000000000000000000000000000000000000000000000000000000000001200000000000000000000000000000000000000000000000041eb63d55b1b00000000000000000000000000000000000000000000000000000000000000000001453616d706c65204164766572746973656d656e7400000000000000000000000000000000000000000000000000000000000000000000000000000000000000365468697320697320612074657374206164766572746973656d656e74206d696e7465642076696120466f756e6472792073637269707400000000000000000000000000000000000000000000000000000000000000000000000000000000005368747470733a2f2f706c616365686f6c6465726164732e73332e61702d736f7574682d312e616d617a6f6e6177732e636f6d2f61642d696d616765732f313733383537353338313335332d363931322e706e6700000000000000000000000000",
          "blockHash": "0xec881ab0c5f34d519a382c708f03ea0de1499fc3f60775a2fa89c09c0823d01f",
          "blockNumber": "0x1496080",
          "transactionHash": "0xb63f0cb298fec6dcbd7df3602fc5ab07822b20bdec9979f05422d6ba6bae61b9",
          "transactionIndex": "0x34",
          "logIndex": "0xac",
          "removed": false
        }
      ],
      "logsBloom": "0x00000000000004000008000000000000000000000000080000000000000000000000000000001000000000000000000000000000000000008000000000000000000000000000000000000008000000000000001000000000400000000000000008000000004000000000000000000000000000000000000100000010000000000000000080000000000000000000000000000000000000000000000000000000000000000000010000000000000000000000000000000000002020000020000000008002000000020000000000000000000000008000000000000000010000000000080000000000008000000020000000000000000000000000000200000020",
      "type": "0x2",
      "transactionHash": "0xb63f0cb298fec6dcbd7df3602fc5ab07822b20bdec9979f05422d6ba6bae61b9",
      "transactionIndex": "0x34",
      "blockHash": "0xec881ab0c5f34d519a382c708f03ea0de1499fc3f60775a2fa89c09c0823d01f",
      "blockNumber": "0x1496080",
      "gasUsed": "0x31407",
      "effectiveGasPrice": "0x1885c",
      "from": "0xbb02a9d6a71a847d587ce4dbb92f32f79c2efb2a",
      "to": "0x0765e09c95e7d3f43c5ec2dccefa46b2e4a12ca3",
      "contractAddress": null,
      "l1BaseFeeScalar": "0x44d",
      "l1BlobBaseFee": "0x1c",
      "l1BlobBaseFeeScalar": "0xa118b",
      "l1Fee": "0x20ebde94ee",
      "l1GasPrice": "0x12b0367d17",
      "l1GasUsed": "0x640"
    }
  ],
  "libraries": [],
  "pending": [],
  "returns": {},
  "timestamp": 1738940384,
  "chain": 84532,
  "commit": "270a582"
}