{
  "transactions": [
    {
      "hash": "0x820ca9ac2f23b96d301f7d29e860b97b641dbfeb7f54246f90979c7ae1ff6809",
      "transactionType": "CALL",
      "contractName": null,
      "contractAddress": "0x7f310442e1ddfa18a5f98410195d381d1cb8db1b",
      "function": "approve(address,uint256)",
      "arguments": [
        "0x94435a3A14A4cF73c55CD884A5DbbfAe41198cF6",
        "97600000000000000000"
      ],
      "transaction": {
        "from": "0xb47cfcf8181d36117142b83d31bbbf63b1b250fe",
        "to": "0x7f310442e1ddfa18a5f98410195d381d1cb8db1b",
        "gas": "0x9df8",
        "value": "0x0",
        "input": "0x095ea7b300000000000000000000000094435a3a14a4cf73c55cd884a5dbbfae41198cf60000000000000000000000000000000000000000000000054a78dae49e200000",
        "nonce": "0x75",
        "chainId": "0x14a34"
      },
      "additionalContracts": [],
      "isFixedGasLimit": false
    },
    {
      "hash": "0x8814d92f450873cf8dc0e49bf8363cf852034cba4a2a2411246585866748daba",
      "transactionType": "CALL",
      "contractName": null,
      "contractAddress": "0x94435a3a14a4cf73c55cd884a5dbbfae41198cf6",
      "function": "placeBid(uint256,uint256)",
      "arguments": [
        "3",
        "97600000000000000000"
      ],
      "transaction": {
        "from": "0xb47cfcf8181d36117142b83d31bbbf63b1b250fe",
        "to": "0x94435a3a14a4cf73c55cd884a5dbbfae41198cf6",
        "gas": "0x3e373",
        "value": "0x0",
        "input": "0x57c90de500000000000000000000000000000000000000000000000000000000000000030000000000000000000000000000000000000000000000054a78dae49e200000",
        "nonce": "0x76",
        "chainId": "0x14a34"
      },
      "additionalContracts": [],
      "isFixedGasLimit": false
    }
  ],
  "receipts": [
    {
      "status": "0x1",
      "cumulativeGasUsed": "0x5aab78",
      "logs": [
        {
          "address": "0x7f310442e1ddfa18a5f98410195d381d1cb8db1b",
          "topics": [
            "0x8c5be1e5ebec7d5bd14f71427d1e84f3dd0314c0f7b2291e5b200ac8c7c3b925",
            "0x000000000000000000000000b47cfcf8181d36117142b83d31bbbf63b1b250fe",
            "0x00000000000000000000000094435a3a14a4cf73c55cd884a5dbbfae41198cf6"
          ],
          "data": "0x0000000000000000000000000000000000000000000000054a78dae49e200000",
          "blockHash": "0x6c43bc53db1207779cffdd757533b03a01d83476e596c83eeb30a7e6aa3ff1a7",
          "blockNumber": "0x1487912",
          "transactionHash": "0x820ca9ac2f23b96d301f7d29e860b97b641dbfeb7f54246f90979c7ae1ff6809",
          "transactionIndex": "0x2d",
          "logIndex": "0x8d",
          "removed": false
        }
      ],
      "logsBloom": "0x00000000000000000000000000000000000000000000000000000000000000000000000000000000080000800000000000000000000000000000000000200000000000000000000000000000000000000000000000800004200000000000000000000000000000000000000000000000000000000000000000000000000000000000000000000010000000000000080000000000000000000000000000000000020000000000000000000000000000000000000000000000000000000000200000000000000000000000000000000000000000000000000000000000000000000010000000000000000000000000000000000000000001000000000000000000",
      "type": "0x2",
      "transactionHash": "0x820ca9ac2f23b96d301f7d29e860b97b641dbfeb7f54246f90979c7ae1ff6809",
      "transactionIndex": "0x2d",
      "blockHash": "0x6c43bc53db1207779cffdd757533b03a01d83476e596c83eeb30a7e6aa3ff1a7",
      "blockNumber": "0x1487912",
      "gasUsed": "0x725f",
      "effectiveGasPrice": "0x1888b",
      "from": "0xb47cfcf8181d36117142b83d31bbbf63b1b250fe",
      "to": "0x7f310442e1ddfa18a5f98410195d381d1cb8db1b",
      "contractAddress": null,
      "l1BaseFeeScalar": "0x44d",
      "l1BlobBaseFee": "0x3b6fc4ce0f",
      "l1BlobBaseFeeScalar": "0xa118b",
      "l1Fee": "0xf59ea742329",
      "l1GasPrice": "0x4888d85a6",
      "l1GasUsed": "0x640"
    },
    {
      "status": "0x1",
      "cumulativeGasUsed": "0x5d7c28",
      "logs": [
        {
          "address": "0x7f310442e1ddfa18a5f98410195d381d1cb8db1b",
          "topics": [
            "0xddf252ad1be2c89b69c2b068fc378daa952ba7f163c4a11628f55a4df523b3ef",
            "0x000000000000000000000000b47cfcf8181d36117142b83d31bbbf63b1b250fe",
            "0x00000000000000000000000094435a3a14a4cf73c55cd884a5dbbfae41198cf6"
          ],
          "data": "0x0000000000000000000000000000000000000000000000054a78dae49e200000",
          "blockHash": "0x6c43bc53db1207779cffdd757533b03a01d83476e596c83eeb30a7e6aa3ff1a7",
          "blockNumber": "0x1487912",
          "transactionHash": "0x8814d92f450873cf8dc0e49bf8363cf852034cba4a2a2411246585866748daba",
          "transactionIndex": "0x2e",
          "logIndex": "0x8e",
          "removed": false
        },
        {
          "address": "0x94435a3a14a4cf73c55cd884a5dbbfae41198cf6",
          "topics": [
            "0xdf8644c0a4c21ed214ce69f395675b3a5fcd1039083daea5058898de40ea3149"
          ],
          "data": "0x000000000000000000000000b47cfcf8181d36117142b83d31bbbf63b1b250fe0000000000000000000000000000000000000000000000054a78dae49e2000000000000000000000000000000000000000000000000000000000000000000003",
          "blockHash": "0x6c43bc53db1207779cffdd757533b03a01d83476e596c83eeb30a7e6aa3ff1a7",
          "blockNumber": "0x1487912",
          "transactionHash": "0x8814d92f450873cf8dc0e49bf8363cf852034cba4a2a2411246585866748daba",
          "transactionIndex": "0x2e",
          "logIndex": "0x8f",
          "removed": false
        },
        {
          "address": "0x94435a3a14a4cf73c55cd884a5dbbfae41198cf6",
          "topics": [
            "0xc358e8e3f205b5e7453abd5cbac388ca4552b887b69001bc972b88610c749035"
          ],
          "data": "0x000000000000000000000000b47cfcf8181d36117142b83d31bbbf63b1b250fe0000000000000000000000000000000000000000000000054a78dae49e2000000000000000000000000000000000000000000000000000000000000000000003",
          "blockHash": "0x6c43bc53db1207779cffdd757533b03a01d83476e596c83eeb30a7e6aa3ff1a7",
          "blockNumber": "0x1487912",
          "transactionHash": "0x8814d92f450873cf8dc0e49bf8363cf852034cba4a2a2411246585866748daba",
          "transactionIndex": "0x2e",
          "logIndex": "0x90",
          "removed": false
        },
        {
          "address": "0x94435a3a14a4cf73c55cd884a5dbbfae41198cf6",
          "topics": [
            "0x75ff54b34361a82532c89f24d71c8e91d70a10b35bfa45e8a6969cbc1970f326",
            "0x0000000000000000000000000000000000000000000000000000000000000003",
            "0x000000000000000000000000b47cfcf8181d36117142b83d31bbbf63b1b250fe"
          ],
          "data": "0x000000000000000000000000000000000000000000000000000000000000008000000000000000000000000000000000000000000000000000000000000000c000000000000000000000000000000000000000000000000000000000000001200000000000000000000000000000000000000000000000054a78dae49e200000000000000000000000000000000000000000000000000000000000000000001453616d706c65204164766572746973656d656e7400000000000000000000000000000000000000000000000000000000000000000000000000000000000000365468697320697320612074657374206164766572746973656d656e74206d696e7465642076696120466f756e6472792073637269707400000000000000000000000000000000000000000000000000000000000000000000000000000000005368747470733a2f2f706c616365686f6c6465726164732e73332e61702d736f7574682d312e616d617a6f6e6177732e636f6d2f61642d696d616765732f313733383537353338313335332d363931322e706e6700000000000000000000000000",
          "blockHash": "0x6c43bc53db1207779cffdd757533b03a01d83476e596c83eeb30a7e6aa3ff1a7",
          "blockNumber": "0x1487912",
          "transactionHash": "0x8814d92f450873cf8dc0e49bf8363cf852034cba4a2a2411246585866748daba",
          "transactionIndex": "0x2e",
          "logIndex": "0x91",
          "removed": false
        }
      ],
      "logsBloom": "0x00000000000000000008000000000000000000000000000000000000000000000000000000001000080000800000000000000000020000000000000000000000000000000000000000000008000000000000000000800004600000000000000000000000000000000000000000000000000000000000000100000010000000000000000080000010000000000000080000000000000000000000000000000000000000000000000000000000000000000000000000800000000000000020600000000002000000000000000000000000000000000000000000000000010000000004040000000000000000000000000000000000000001000000000201000020",
      "type": "0x2",
      "transactionHash": "0x8814d92f450873cf8dc0e49bf8363cf852034cba4a2a2411246585866748daba",
      "transactionIndex": "0x2e",
      "blockHash": "0x6c43bc53db1207779cffdd757533b03a01d83476e596c83eeb30a7e6aa3ff1a7",
      "blockNumber": "0x1487912",
      "gasUsed": "0x2d0b0",
      "effectiveGasPrice": "0x1888b",
      "from": "0xb47cfcf8181d36117142b83d31bbbf63b1b250fe",
      "to": "0x94435a3a14a4cf73c55cd884a5dbbfae41198cf6",
      "contractAddress": null,
      "l1BaseFeeScalar": "0x44d",
      "l1BlobBaseFee": "0x3b6fc4ce0f",
      "l1BlobBaseFeeScalar": "0xa118b",
      "l1Fee": "0xf59ea742329",
      "l1GasPrice": "0x4888d85a6",
      "l1GasUsed": "0x640"
    }
  ],
  "libraries": [],
  "pending": [],
  "returns": {},
  "timestamp": 1738821893,
  "chain": 84532,
  "commit": "e3ad21d"
}