{
  "transactions": [
    {
      "hash": "0xace4adbb919c35bbc8638ab55c5aadd2d7e3eb9a03459140525b780c6ce6e616",
      "transactionType": "CALL",
      "contractName": null,
      "contractAddress": "0x50a016fb02f25fbb2c0143d1e49637bf1e1dd9ac",
      "function": "approve(address,uint256)",
      "arguments": [
        "0xDB943E63D3Bbf57f434E3e03482e42830f4533e8",
        "79000000000000000000"
      ],
      "transaction": {
        "from": "0xbb02a9d6a71a847d587ce4dbb92f32f79c2efb2a",
        "to": "0x50a016fb02f25fbb2c0143d1e49637bf1e1dd9ac",
        "gas": "0x9df8",
        "value": "0x0",
        "input": "0x095ea7b3000000000000000000000000db943e63d3bbf57f434e3e03482e42830f4533e800000000000000000000000000000000000000000000000448586170a7dc0000",
        "nonce": "0x14",
        "chainId": "0x14a34"
      },
      "additionalContracts": [],
      "isFixedGasLimit": false
    },
    {
      "hash": "0x3b7d5d0630400fcb8509dc5eb684140548135be3799c410cc9ad4f814799f541",
      "transactionType": "CALL",
      "contractName": null,
      "contractAddress": "0xdb943e63d3bbf57f434e3e03482e42830f4533e8",
      "function": "placeBid(uint256,uint256)",
      "arguments": [
        "0",
        "79000000000000000000"
      ],
      "transaction": {
        "from": "0xbb02a9d6a71a847d587ce4dbb92f32f79c2efb2a",
        "to": "0xdb943e63d3bbf57f434e3e03482e42830f4533e8",
        "gas": "0x3d446",
        "value": "0x0",
        "input": "0x57c90de5000000000000000000000000000000000000000000000000000000000000000000000000000000000000000000000000000000000000000448586170a7dc0000",
        "nonce": "0x15",
        "chainId": "0x14a34"
      },
      "additionalContracts": [],
      "isFixedGasLimit": false
    }
  ],
  "receipts": [
    {
      "status": "0x1",
      "cumulativeGasUsed": "0x935276",
      "logs": [
        {
          "address": "0x50a016fb02f25fbb2c0143d1e49637bf1e1dd9ac",
          "topics": [
            "0x8c5be1e5ebec7d5bd14f71427d1e84f3dd0314c0f7b2291e5b200ac8c7c3b925",
            "0x000000000000000000000000bb02a9d6a71a847d587ce4dbb92f32f79c2efb2a",
            "0x000000000000000000000000db943e63d3bbf57f434e3e03482e42830f4533e8"
          ],
          "data": "0x00000000000000000000000000000000000000000000000448586170a7dc0000",
          "blockHash": "0xd0a0d5befcd7e5caef452c934d6308cce313d314fde9b9fdd607e91d27498d73",
          "blockNumber": "0x1485f62",
          "transactionHash": "0xace4adbb919c35bbc8638ab55c5aadd2d7e3eb9a03459140525b780c6ce6e616",
          "transactionIndex": "0x3d",
          "logIndex": "0xe5",
          "removed": false
        }
      ],
      "logsBloom": "0x00000000000000000000000000000000000000000000000000040000000000000000000000000000000000000000000000000000000000008000000000200000000000000000000000000000000000000000000008000000000000000000000000000000000000000000000000000000800000000000000000000000000000000000000000000000000000000008000000000000000000000000000000000000020000000000000000000000000000200000000000000000000000000000000000008000000000020000000000000000000000000000000000000010000000000010000000000000000000000000000000000000000000000000000000000000",
      "type": "0x2",
      "transactionHash": "0xace4adbb919c35bbc8638ab55c5aadd2d7e3eb9a03459140525b780c6ce6e616",
      "transactionIndex": "0x3d",
      "blockHash": "0xd0a0d5befcd7e5caef452c934d6308cce313d314fde9b9fdd607e91d27498d73",
      "blockNumber": "0x1485f62",
      "gasUsed": "0x725f",
      "effectiveGasPrice": "0xf4484",
      "from": "0xbb02a9d6a71a847d587ce4dbb92f32f79c2efb2a",
      "to": "0x50a016fb02f25fbb2c0143d1e49637bf1e1dd9ac",
      "contractAddress": null,
      "l1BaseFeeScalar": "0x44d",
      "l1BlobBaseFee": "0xf",
      "l1BlobBaseFeeScalar": "0xa118b",
      "l1Fee": "0x6c26ff54",
      "l1GasPrice": "0x3d64f3a9",
      "l1GasUsed": "0x640"
    },
    {
      "status": "0x1",
      "cumulativeGasUsed": "0x96182a",
      "logs": [
        {
          "address": "0x50a016fb02f25fbb2c0143d1e49637bf1e1dd9ac",
          "topics": [
            "0xddf252ad1be2c89b69c2b068fc378daa952ba7f163c4a11628f55a4df523b3ef",
            "0x000000000000000000000000bb02a9d6a71a847d587ce4dbb92f32f79c2efb2a",
            "0x000000000000000000000000db943e63d3bbf57f434e3e03482e42830f4533e8"
          ],
          "data": "0x00000000000000000000000000000000000000000000000448586170a7dc0000",
          "blockHash": "0xd0a0d5befcd7e5caef452c934d6308cce313d314fde9b9fdd607e91d27498d73",
          "blockNumber": "0x1485f62",
          "transactionHash": "0x3b7d5d0630400fcb8509dc5eb684140548135be3799c410cc9ad4f814799f541",
          "transactionIndex": "0x3e",
          "logIndex": "0xe6",
          "removed": false
        },
        {
          "address": "0xdb943e63d3bbf57f434e3e03482e42830f4533e8",
          "topics": [
            "0xdf8644c0a4c21ed214ce69f395675b3a5fcd1039083daea5058898de40ea3149"
          ],
          "data": "0x000000000000000000000000bb02a9d6a71a847d587ce4dbb92f32f79c2efb2a00000000000000000000000000000000000000000000000448586170a7dc00000000000000000000000000000000000000000000000000000000000000000000",
          "blockHash": "0xd0a0d5befcd7e5caef452c934d6308cce313d314fde9b9fdd607e91d27498d73",
          "blockNumber": "0x1485f62",
          "transactionHash": "0x3b7d5d0630400fcb8509dc5eb684140548135be3799c410cc9ad4f814799f541",
          "transactionIndex": "0x3e",
          "logIndex": "0xe7",
          "removed": false
        },
        {
          "address": "0xdb943e63d3bbf57f434e3e03482e42830f4533e8",
          "topics": [
            "0xc358e8e3f205b5e7453abd5cbac388ca4552b887b69001bc972b88610c749035"
          ],
          "data": "0x000000000000000000000000bb02a9d6a71a847d587ce4dbb92f32f79c2efb2a00000000000000000000000000000000000000000000000448586170a7dc00000000000000000000000000000000000000000000000000000000000000000000",
          "blockHash": "0xd0a0d5befcd7e5caef452c934d6308cce313d314fde9b9fdd607e91d27498d73",
          "blockNumber": "0x1485f62",
          "transactionHash": "0x3b7d5d0630400fcb8509dc5eb684140548135be3799c410cc9ad4f814799f541",
          "transactionIndex": "0x3e",
          "logIndex": "0xe8",
          "removed": false
        },
        {
          "address": "0xdb943e63d3bbf57f434e3e03482e42830f4533e8",
          "topics": [
            "0x75ff54b34361a82532c89f24d71c8e91d70a10b35bfa45e8a6969cbc1970f326",
            "0x0000000000000000000000000000000000000000000000000000000000000000",
            "0x000000000000000000000000bb02a9d6a71a847d587ce4dbb92f32f79c2efb2a"
          ],
          "data": "0x000000000000000000000000000000000000000000000000000000000000008000000000000000000000000000000000000000000000000000000000000000c0000000000000000000000000000000000000000000000000000000000000012000000000000000000000000000000000000000000000000448586170a7dc0000000000000000000000000000000000000000000000000000000000000000001453616d706c65204164766572746973656d656e7400000000000000000000000000000000000000000000000000000000000000000000000000000000000000365468697320697320612074657374206164766572746973656d656e74206d696e7465642076696120466f756e6472792073637269707400000000000000000000000000000000000000000000000000000000000000000000000000000000005368747470733a2f2f706c616365686f6c6465726164732e73332e61702d736f7574682d312e616d617a6f6e6177732e636f6d2f61642d696d616765732f313733383537353338313335332d363931322e706e6700000000000000000000000000",
          "blockHash": "0xd0a0d5befcd7e5caef452c934d6308cce313d314fde9b9fdd607e91d27498d73",
          "blockNumber": "0x1485f62",
          "transactionHash": "0x3b7d5d0630400fcb8509dc5eb684140548135be3799c410cc9ad4f814799f541",
          "transactionIndex": "0x3e",
          "logIndex": "0xe9",
          "removed": false
        }
      ],
      "logsBloom": "0x000000000000000000080000000000000000000000000000000400000000000000000000000010000000000000000000000000000000000090000000000000000000000000000000000000080000000000000000080000004000000000000000000008000200000000000000000008008000000000000001000000100000000000000000c0000000000000000008000000000000000000000000000000000000000000000000000000000000000000200000000000000000000000000020000000008002000000020000000000000000000000000000000000000010010020000000000000000000000000000000000000000000000000000000000200000020",
      "type": "0x2",
      "transactionHash": "0x3b7d5d0630400fcb8509dc5eb684140548135be3799c410cc9ad4f814799f541",
      "transactionIndex": "0x3e",
      "blockHash": "0xd0a0d5befcd7e5caef452c934d6308cce313d314fde9b9fdd607e91d27498d73",
      "blockNumber": "0x1485f62",
      "gasUsed": "0x2c5b4",
      "effectiveGasPrice": "0xf4484",
      "from": "0xbb02a9d6a71a847d587ce4dbb92f32f79c2efb2a",
      "to": "0xdb943e63d3bbf57f434e3e03482e42830f4533e8",
      "contractAddress": null,
      "l1BaseFeeScalar": "0x44d",
      "l1BlobBaseFee": "0xf",
      "l1BlobBaseFeeScalar": "0xa118b",
      "l1Fee": "0x6c26ff54",
      "l1GasPrice": "0x3d64f3a9",
      "l1GasUsed": "0x640"
    }
  ],
  "libraries": [],
  "pending": [],
  "returns": {},
  "timestamp": 1738808741,
  "chain": 84532,
  "commit": "e3ad21d"
}