{
  "transactions": [
    {
      "hash": "0x1ab658d13af27b727a28278105bbfb57cf60b45ad7b7bc07b5e2efc853b495f9",
      "transactionType": "CALL",
      "contractName": null,
      "contractAddress": "0x7f310442e1ddfa18a5f98410195d381d1cb8db1b",
      "function": "approve(address,uint256)",
      "arguments": [
        "0x94435a3A14A4cF73c55CD884A5DbbfAe41198cF6",
        "84400000000000000000"
      ],
      "transaction": {
        "from": "0xbb02a9d6a71a847d587ce4dbb92f32f79c2efb2a",
        "to": "0x7f310442e1ddfa18a5f98410195d381d1cb8db1b",
        "gas": "0x9df8",
        "value": "0x0",
        "input": "0x095ea7b300000000000000000000000094435a3a14a4cf73c55cd884a5dbbfae41198cf6000000000000000000000000000000000000000000000004934908d462f80000",
        "nonce": "0x1d",
        "chainId": "0x14a34"
      },
      "additionalContracts": [],
      "isFixedGasLimit": false
    },
    {
      "hash": "0x98c955c806b50372e60342dea134e645ca3c77d0f46d3219e32b8f2570c5ddf8",
      "transactionType": "CALL",
      "contractName": null,
      "contractAddress": "0x94435a3a14a4cf73c55cd884a5dbbfae41198cf6",
      "function": "placeBid(uint256,uint256)",
      "arguments": [
        "1",
        "84400000000000000000"
      ],
      "transaction": {
        "from": "0xbb02a9d6a71a847d587ce4dbb92f32f79c2efb2a",
        "to": "0x94435a3a14a4cf73c55cd884a5dbbfae41198cf6",
        "gas": "0x43fb5",
        "value": "0x0",
        "input": "0x57c90de50000000000000000000000000000000000000000000000000000000000000001000000000000000000000000000000000000000000000004934908d462f80000",
        "nonce": "0x1e",
        "chainId": "0x14a34"
      },
      "additionalContracts": [],
      "isFixedGasLimit": false
    }
  ],
  "receipts": [
    {
      "status": "0x1",
      "cumulativeGasUsed": "0x8384ef",
      "logs": [
        {
          "address": "0x7f310442e1ddfa18a5f98410195d381d1cb8db1b",
          "topics": [
            "0x8c5be1e5ebec7d5bd14f71427d1e84f3dd0314c0f7b2291e5b200ac8c7c3b925",
            "0x000000000000000000000000bb02a9d6a71a847d587ce4dbb92f32f79c2efb2a",
            "0x00000000000000000000000094435a3a14a4cf73c55cd884a5dbbfae41198cf6"
          ],
          "data": "0x000000000000000000000000000000000000000000000004934908d462f80000",
          "blockHash": "0xc7daf39651b388bd4e1928ce931c2cbb0112136e9b95e0e33ff7cab9861c0e1c",
          "blockNumber": "0x14878dd",
          "transactionHash": "0x1ab658d13af27b727a28278105bbfb57cf60b45ad7b7bc07b5e2efc853b495f9",
          "transactionIndex": "0x39",
          "logIndex": "0x9e",
          "removed": false
        }
      ],
      "logsBloom": "0x00000000000000000000000000000000000000000000000000000000000000000000000000000000000000800000000000000000000000008000000000200000000000000000000000000000000000000000000000000004200000000000000000000000000000000000000000000000000000000000000000000000000000000000000000000010000000000000080000000000000000000000000000000000020000000000000000000000000000000000000000000000000000000000200000008000000000020000000000000000000000000000000000000000000000000010000000000000000000000000000000000000000000000000000000000000",
      "type": "0x2",
      "transactionHash": "0x1ab658d13af27b727a28278105bbfb57cf60b45ad7b7bc07b5e2efc853b495f9",
      "transactionIndex": "0x39",
      "blockHash": "0xc7daf39651b388bd4e1928ce931c2cbb0112136e9b95e0e33ff7cab9861c0e1c",
      "blockNumber": "0x14878dd",
      "gasUsed": "0x725f",
      "effectiveGasPrice": "0x7bbcf",
      "from": "0xbb02a9d6a71a847d587ce4dbb92f32f79c2efb2a",
      "to": "0x7f310442e1ddfa18a5f98410195d381d1cb8db1b",
      "contractAddress": null,
      "l1BaseFeeScalar": "0x44d",
      "l1BlobBaseFee": "0x54a0a3f064",
      "l1BlobBaseFeeScalar": "0xa118b",
      "l1Fee": "0x15d57212d248",
      "l1GasPrice": "0x300f7631c",
      "l1GasUsed": "0x640"
    },
    {
      "status": "0x1",
      "cumulativeGasUsed": "0x86986b",
      "logs": [
        {
          "address": "0x7f310442e1ddfa18a5f98410195d381d1cb8db1b",
          "topics": [
            "0xddf252ad1be2c89b69c2b068fc378daa952ba7f163c4a11628f55a4df523b3ef",
            "0x000000000000000000000000bb02a9d6a71a847d587ce4dbb92f32f79c2efb2a",
            "0x00000000000000000000000094435a3a14a4cf73c55cd884a5dbbfae41198cf6"
          ],
          "data": "0x000000000000000000000000000000000000000000000004934908d462f80000",
          "blockHash": "0xc7daf39651b388bd4e1928ce931c2cbb0112136e9b95e0e33ff7cab9861c0e1c",
          "blockNumber": "0x14878dd",
          "transactionHash": "0x98c955c806b50372e60342dea134e645ca3c77d0f46d3219e32b8f2570c5ddf8",
          "transactionIndex": "0x3a",
          "logIndex": "0x9f",
          "removed": false
        },
        {
          "address": "0x94435a3a14a4cf73c55cd884a5dbbfae41198cf6",
          "topics": [
            "0xdf8644c0a4c21ed214ce69f395675b3a5fcd1039083daea5058898de40ea3149"
          ],
          "data": "0x000000000000000000000000bb02a9d6a71a847d587ce4dbb92f32f79c2efb2a000000000000000000000000000000000000000000000004934908d462f800000000000000000000000000000000000000000000000000000000000000000001",
          "blockHash": "0xc7daf39651b388bd4e1928ce931c2cbb0112136e9b95e0e33ff7cab9861c0e1c",
          "blockNumber": "0x14878dd",
          "transactionHash": "0x98c955c806b50372e60342dea134e645ca3c77d0f46d3219e32b8f2570c5ddf8",
          "transactionIndex": "0x3a",
          "logIndex": "0xa0",
          "removed": false
        },
        {
          "address": "0x94435a3a14a4cf73c55cd884a5dbbfae41198cf6",
          "topics": [
            "0xc358e8e3f205b5e7453abd5cbac388ca4552b887b69001bc972b88610c749035"
          ],
          "data": "0x000000000000000000000000bb02a9d6a71a847d587ce4dbb92f32f79c2efb2a000000000000000000000000000000000000000000000004934908d462f800000000000000000000000000000000000000000000000000000000000000000001",
          "blockHash": "0xc7daf39651b388bd4e1928ce931c2cbb0112136e9b95e0e33ff7cab9861c0e1c",
          "blockNumber": "0x14878dd",
          "transactionHash": "0x98c955c806b50372e60342dea134e645ca3c77d0f46d3219e32b8f2570c5ddf8",
          "transactionIndex": "0x3a",
          "logIndex": "0xa1",
          "removed": false
        },
        {
          "address": "0x94435a3a14a4cf73c55cd884a5dbbfae41198cf6",
          "topics": [
            "0x75ff54b34361a82532c89f24d71c8e91d70a10b35bfa45e8a6969cbc1970f326",
            "0x0000000000000000000000000000000000000000000000000000000000000001",
            "0x000000000000000000000000bb02a9d6a71a847d587ce4dbb92f32f79c2efb2a"
          ],
          "data": "0x000000000000000000000000000000000000000000000000000000000000008000000000000000000000000000000000000000000000000000000000000000c00000000000000000000000000000000000000000000000000000000000000120000000000000000000000000000000000000000000000004934908d462f80000000000000000000000000000000000000000000000000000000000000000001453616d706c65204164766572746973656d656e7400000000000000000000000000000000000000000000000000000000000000000000000000000000000000365468697320697320612074657374206164766572746973656d656e74206d696e7465642076696120466f756e6472792073637269707400000000000000000000000000000000000000000000000000000000000000000000000000000000005368747470733a2f2f706c616365686f6c6465726164732e73332e61702d736f7574682d312e616d617a6f6e6177732e636f6d2f61642d696d616765732f313733383537353338313335332d363931322e706e6700000000000000000000000000",
          "blockHash": "0xc7daf39651b388bd4e1928ce931c2cbb0112136e9b95e0e33ff7cab9861c0e1c",
          "blockNumber": "0x14878dd",
          "transactionHash": "0x98c955c806b50372e60342dea134e645ca3c77d0f46d3219e32b8f2570c5ddf8",
          "transactionIndex": "0x3a",
          "logIndex": "0xa2",
          "removed": false
        }
      ],
      "logsBloom": "0x00000000000000000008000000000000000000000000000000000000000000000000000000001000000000800000000000000000000000008000000000040000000000000000000000000008000000000000000000040004600000000000000000000000000000000000000000000000000000000000000100000010000000000000000080000010000000000000080000000000000000000000000000000000000000000000000000000000000000000000000000000000000000000020200000008002000000020000000000000000000000000000000000000000010040000004040000000000000000000000000000000000000000000000000201000020",
      "type": "0x2",
      "transactionHash": "0x98c955c806b50372e60342dea134e645ca3c77d0f46d3219e32b8f2570c5ddf8",
      "transactionIndex": "0x3a",
      "blockHash": "0xc7daf39651b388bd4e1928ce931c2cbb0112136e9b95e0e33ff7cab9861c0e1c",
      "blockNumber": "0x14878dd",
      "gasUsed": "0x3137c",
      "effectiveGasPrice": "0x7bbcf",
      "from": "0xbb02a9d6a71a847d587ce4dbb92f32f79c2efb2a",
      "to": "0x94435a3a14a4cf73c55cd884a5dbbfae41198cf6",
      "contractAddress": null,
      "l1BaseFeeScalar": "0x44d",
      "l1BlobBaseFee": "0x54a0a3f064",
      "l1BlobBaseFeeScalar": "0xa118b",
      "l1Fee": "0x15d57212d248",
      "l1GasPrice": "0x300f7631c",
      "l1GasUsed": "0x640"
    }
  ],
  "libraries": [],
  "pending": [],
  "returns": {},
  "timestamp": 1738821788,
  "chain": 84532,
  "commit": "e3ad21d"
}