{
  "transactions": [
    {
      "hash": "0x59812306d298243921f320c58d7c2a47bf59112732a1817d8716b412bdabe830",
      "transactionType": "CALL",
      "contractName": null,
      "contractAddress": "0x67cb1114b0e1adb17fe03612f2b79f307ba4cf11",
      "function": "approve(address,uint256)",
      "arguments": [
        "0x57384C961445fb8951E27bd6d315FC80815B7d53",
        "92200000000000000000"
      ],
      "transaction": {
        "from": "0xbb02a9d6a71a847d587ce4dbb92f32f79c2efb2a",
        "to": "0x67cb1114b0e1adb17fe03612f2b79f307ba4cf11",
        "gas": "0x108f4",
        "value": "0x0",
        "input": "0x095ea7b300000000000000000000000057384c961445fb8951e27bd6d315fc80815b7d53000000000000000000000000000000000000000000000004ff883380e3040000",
        "nonce": "0x2b",
        "chainId": "0x14a34"
      },
      "additionalContracts": [],
      "isFixedGasLimit": false
    },
    {
      "hash": "0x0944ae8680a7499818613027b8e63104362f596dadf76dfc4f9e2678bf2481d8",
      "transactionType": "CALL",
      "contractName": null,
      "contractAddress": "0x57384c961445fb8951e27bd6d315fc80815b7d53",
      "function": "placeBid(uint256,uint256)",
      "arguments": [
        "1",
        "92200000000000000000"
      ],
      "transaction": {
        "from": "0xbb02a9d6a71a847d587ce4dbb92f32f79c2efb2a",
        "to": "0x57384c961445fb8951e27bd6d315fc80815b7d53",
        "gas": "0x4401a",
        "value": "0x0",
        "input": "0x57c90de50000000000000000000000000000000000000000000000000000000000000001000000000000000000000000000000000000000000000004ff883380e3040000",
        "nonce": "0x2c",
        "chainId": "0x14a34"
      },
      "additionalContracts": [],
      "isFixedGasLimit": false
    }
  ],
  "receipts": [
    {
      "status": "0x1",
      "cumulativeGasUsed": "0x3f8a1c",
      "logs": [
        {
          "address": "0x67cb1114b0e1adb17fe03612f2b79f307ba4cf11",
          "topics": [
            "0x8c5be1e5ebec7d5bd14f71427d1e84f3dd0314c0f7b2291e5b200ac8c7c3b925",
            "0x000000000000000000000000bb02a9d6a71a847d587ce4dbb92f32f79c2efb2a",
            "0x00000000000000000000000057384c961445fb8951e27bd6d315fc80815b7d53"
          ],
          "data": "0x000000000000000000000000000000000000000000000004ff883380e3040000",
          "blockHash": "0x8829c9b8cac948c5f3756588bd3420a6187b2fd2dd10ae0e04d5bcfda7b07abb",
          "blockNumber": "0x148ac2e",
          "transactionHash": "0x59812306d298243921f320c58d7c2a47bf59112732a1817d8716b412bdabe830",
          "transactionIndex": "0x22",
          "logIndex": "0x6e",
          "removed": false
        }
      ],
      "logsBloom": "0x00000000000000000000000000000000000000000000000000000000000000000000000000000000000000000000000000000000000000008000000004200000000000000000000000000000000000000000000000000000000000000000000000000000000000000000000000000020000000000000000000000001000000000000000000000000000000000000000000000000000000000000000000000000020000000000000000000000000000000000000000000080000000000000000000008000000000020000020000000000000000000000000000000000000000000010000000000080000000000000000000000000000000000000000000000000",
      "type": "0x2",
      "transactionHash": "0x59812306d298243921f320c58d7c2a47bf59112732a1817d8716b412bdabe830",
      "transactionIndex": "0x22",
      "blockHash": "0x8829c9b8cac948c5f3756588bd3420a6187b2fd2dd10ae0e04d5bcfda7b07abb",
      "blockNumber": "0x148ac2e",
      "gasUsed": "0xb52b",
      "effectiveGasPrice": "0xb6e73",
      "from": "0xbb02a9d6a71a847d587ce4dbb92f32f79c2efb2a",
      "to": "0x67cb1114b0e1adb17fe03612f2b79f307ba4cf11",
      "contractAddress": null,
      "l1BaseFeeScalar": "0x44d",
      "l1BlobBaseFee": "0x76b5324b4",
      "l1BlobBaseFeeScalar": "0xa118b",
      "l1Fee": "0x214f07de15c",
      "l1GasPrice": "0x18a0216754",
      "l1GasUsed": "0x640"
    },
    {
      "status": "0x1",
      "cumulativeGasUsed": "0x429de1",
      "logs": [
        {
          "address": "0x67cb1114b0e1adb17fe03612f2b79f307ba4cf11",
          "topics": [
            "0xddf252ad1be2c89b69c2b068fc378daa952ba7f163c4a11628f55a4df523b3ef",
            "0x000000000000000000000000bb02a9d6a71a847d587ce4dbb92f32f79c2efb2a",
            "0x00000000000000000000000057384c961445fb8951e27bd6d315fc80815b7d53"
          ],
          "data": "0x000000000000000000000000000000000000000000000004ff883380e3040000",
          "blockHash": "0x8829c9b8cac948c5f3756588bd3420a6187b2fd2dd10ae0e04d5bcfda7b07abb",
          "blockNumber": "0x148ac2e",
          "transactionHash": "0x0944ae8680a7499818613027b8e63104362f596dadf76dfc4f9e2678bf2481d8",
          "transactionIndex": "0x23",
          "logIndex": "0x6f",
          "removed": false
        },
        {
          "address": "0x57384c961445fb8951e27bd6d315fc80815b7d53",
          "topics": [
            "0xdf8644c0a4c21ed214ce69f395675b3a5fcd1039083daea5058898de40ea3149"
          ],
          "data": "0x000000000000000000000000bb02a9d6a71a847d587ce4dbb92f32f79c2efb2a000000000000000000000000000000000000000000000004ff883380e30400000000000000000000000000000000000000000000000000000000000000000001",
          "blockHash": "0x8829c9b8cac948c5f3756588bd3420a6187b2fd2dd10ae0e04d5bcfda7b07abb",
          "blockNumber": "0x148ac2e",
          "transactionHash": "0x0944ae8680a7499818613027b8e63104362f596dadf76dfc4f9e2678bf2481d8",
          "transactionIndex": "0x23",
          "logIndex": "0x70",
          "removed": false
        },
        {
          "address": "0x57384c961445fb8951e27bd6d315fc80815b7d53",
          "topics": [
            "0xc358e8e3f205b5e7453abd5cbac388ca4552b887b69001bc972b88610c749035"
          ],
          "data": "0x000000000000000000000000bb02a9d6a71a847d587ce4dbb92f32f79c2efb2a000000000000000000000000000000000000000000000004ff883380e30400000000000000000000000000000000000000000000000000000000000000000001",
          "blockHash": "0x8829c9b8cac948c5f3756588bd3420a6187b2fd2dd10ae0e04d5bcfda7b07abb",
          "blockNumber": "0x148ac2e",
          "transactionHash": "0x0944ae8680a7499818613027b8e63104362f596dadf76dfc4f9e2678bf2481d8",
          "transactionIndex": "0x23",
          "logIndex": "0x71",
          "removed": false
        },
        {
          "address": "0x57384c961445fb8951e27bd6d315fc80815b7d53",
          "topics": [
            "0x75ff54b34361a82532c89f24d71c8e91d70a10b35bfa45e8a6969cbc1970f326",
            "0x0000000000000000000000000000000000000000000000000000000000000001",
            "0x000000000000000000000000bb02a9d6a71a847d587ce4dbb92f32f79c2efb2a"
          ],
          "data": "0x000000000000000000000000000000000000000000000000000000000000008000000000000000000000000000000000000000000000000000000000000000c00000000000000000000000000000000000000000000000000000000000000120000000000000000000000000000000000000000000000004ff883380e3040000000000000000000000000000000000000000000000000000000000000000001453616d706c65204164766572746973656d656e7400000000000000000000000000000000000000000000000000000000000000000000000000000000000000365468697320697320612074657374206164766572746973656d656e74206d696e7465642076696120466f756e6472792073637269707400000000000000000000000000000000000000000000000000000000000000000000000000000000005368747470733a2f2f706c616365686f6c6465726164732e73332e61702d736f7574682d312e616d617a6f6e6177732e636f6d2f61642d696d616765732f313733383537353338313335332d363931322e706e6700000000000000000000000000",
          "blockHash": "0x8829c9b8cac948c5f3756588bd3420a6187b2fd2dd10ae0e04d5bcfda7b07abb",
          "blockNumber": "0x148ac2e",
          "transactionHash": "0x0944ae8680a7499818613027b8e63104362f596dadf76dfc4f9e2678bf2481d8",
          "transactionIndex": "0x23",
          "logIndex": "0x72",
          "removed": false
        }
      ],
      "logsBloom": "0x00000000000000000008000000000000000000000000000000000000000000000000000800001000000000000000000000000000000000008000000004040000000000000000000000000008000000000000000000040000400000000000000000000000000100000000000000000020000000000000000100000011000000000000000080000000000000000000000000000000000000000000000000000000000000000000000000000000000000000000000000000080000000000020000000008002000000020000020000000000000000000000000000000000010040000000000000000080000000000000000000000000000000000000000200000020",
      "type": "0x2",
      "transactionHash": "0x0944ae8680a7499818613027b8e63104362f596dadf76dfc4f9e2678bf2481d8",
      "transactionIndex": "0x23",
      "blockHash": "0x8829c9b8cac948c5f3756588bd3420a6187b2fd2dd10ae0e04d5bcfda7b07abb",
      "blockNumber": "0x148ac2e",
      "gasUsed": "0x313c5",
      "effectiveGasPrice": "0xb6e73",
      "from": "0xbb02a9d6a71a847d587ce4dbb92f32f79c2efb2a",
      "to": "0x57384c961445fb8951e27bd6d315fc80815b7d53",
      "contractAddress": null,
      "l1BaseFeeScalar": "0x44d",
      "l1BlobBaseFee": "0x76b5324b4",
      "l1BlobBaseFeeScalar": "0xa118b",
      "l1Fee": "0x214f07de15c",
      "l1GasPrice": "0x18a0216754",
      "l1GasUsed": "0x640"
    }
  ],
  "libraries": [],
  "pending": [],
  "returns": {},
  "timestamp": 1738848061,
  "chain": 84532,
  "commit": "270a582"
}