{
  "transactions": [
    {
      "hash": "0x0ee5510f1c82c13c849f5a8d528f8b63737ac58e3758c8372458deb07b26dfc6",
      "transactionType": "CALL",
      "contractName": null,
      "contractAddress": "0x58817b59b1579652b2ae2ce420056e12fc62f0fa",
      "function": "approve(address,uint256)",
      "arguments": [
        "0x054ED3E0471774514f27e00066d012b74E00C950",
        "100000000000000000000"
      ],
      "transaction": {
        "from": "0xb47cfcf8181d36117142b83d31bbbf63b1b250fe",
        "to": "0x58817b59b1579652b2ae2ce420056e12fc62f0fa",
        "gas": "0x9dd7",
        "value": "0x0",
        "input": "0x095ea7b3000000000000000000000000054ed3e0471774514f27e00066d012b74e00c9500000000000000000000000000000000000000000000000056bc75e2d63100000",
        "nonce": "0x61",
        "chainId": "0x14a34"
      },
      "additionalContracts": [],
      "isFixedGasLimit": false
    },
    {
      "hash": "0xd1b8eb2b13d178b179e02a2b087c36167243e779a4de47704bc2c3762d8d9ca3",
      "transactionType": "CALL",
      "contractName": null,
      "contractAddress": "0x054ed3e0471774514f27e00066d012b74e00c950",
      "function": "placeBid(uint256,uint256)",
      "arguments": [
        "0",
        "100000000000000000000"
      ],
      "transaction": {
        "from": "0xb47cfcf8181d36117142b83d31bbbf63b1b250fe",
        "to": "0x054ed3e0471774514f27e00066d012b74e00c950",
        "gas": "0x366a7",
        "value": "0x0",
        "input": "0x57c90de500000000000000000000000000000000000000000000000000000000000000000000000000000000000000000000000000000000000000056bc75e2d63100000",
        "nonce": "0x62",
        "chainId": "0x14a34"
      },
      "additionalContracts": [],
      "isFixedGasLimit": false
    }
  ],
  "receipts": [
    {
      "status": "0x1",
      "cumulativeGasUsed": "0x8d9393",
      "logs": [
        {
          "address": "0x58817b59b1579652b2ae2ce420056e12fc62f0fa",
          "topics": [
            "0x8c5be1e5ebec7d5bd14f71427d1e84f3dd0314c0f7b2291e5b200ac8c7c3b925",
            "0x000000000000000000000000b47cfcf8181d36117142b83d31bbbf63b1b250fe",
            "0x000000000000000000000000054ed3e0471774514f27e00066d012b74e00c950"
          ],
          "data": "0x0000000000000000000000000000000000000000000000056bc75e2d63100000",
          "blockHash": "0x6f5aa2ad6dc96846260cccbd3bee41acdc6633337ace186a148c22d0c1865197",
          "blockNumber": "0x1485b92",
          "transactionHash": "0x0ee5510f1c82c13c849f5a8d528f8b63737ac58e3758c8372458deb07b26dfc6",
          "transactionIndex": "0x39",
          "logIndex": "0xf4",
          "removed": false
        }
      ],
      "logsBloom": "0x00000000000000000000000000000000000000000000000000000000000000000000000000000000080000000000000000000000000000000000000000200000000000000000000000000000000000000000000000800000000000000000000000000000000000000000000000000000000000000000000000000000000000000000000000000000000200000000000000010000000000000000000000000000020000000000000000000000000000000000000000000000000000000000000000000000000000000000000000000000000080000000000000000000000000001010000000000000000000000204000000000000000001000000000000000000",
      "type": "0x2",
      "transactionHash": "0x0ee5510f1c82c13c849f5a8d528f8b63737ac58e3758c8372458deb07b26dfc6",
      "transactionIndex": "0x39",
      "blockHash": "0x6f5aa2ad6dc96846260cccbd3bee41acdc6633337ace186a148c22d0c1865197",
      "blockNumber": "0x1485b92",
      "gasUsed": "0x7247",
      "effectiveGasPrice": "0xd83fd",
      "from": "0xb47cfcf8181d36117142b83d31bbbf63b1b250fe",
      "to": "0x58817b59b1579652b2ae2ce420056e12fc62f0fa",
      "contractAddress": null,
      "l1BaseFeeScalar": "0x44d",
      "l1BlobBaseFee": "0x1",
      "l1BlobBaseFeeScalar": "0xa118b",
      "l1Fee": "0x6e2c2559",
      "l1GasPrice": "0x3e8a86fd",
      "l1GasUsed": "0x640"
    },
    {
      "status": "0x1",
      "cumulativeGasUsed": "0x9009ea",
      "logs": [
        {
          "address": "0x58817b59b1579652b2ae2ce420056e12fc62f0fa",
          "topics": [
            "0xddf252ad1be2c89b69c2b068fc378daa952ba7f163c4a11628f55a4df523b3ef",
            "0x000000000000000000000000b47cfcf8181d36117142b83d31bbbf63b1b250fe",
            "0x000000000000000000000000054ed3e0471774514f27e00066d012b74e00c950"
          ],
          "data": "0x0000000000000000000000000000000000000000000000056bc75e2d63100000",
          "blockHash": "0x6f5aa2ad6dc96846260cccbd3bee41acdc6633337ace186a148c22d0c1865197",
          "blockNumber": "0x1485b92",
          "transactionHash": "0xd1b8eb2b13d178b179e02a2b087c36167243e779a4de47704bc2c3762d8d9ca3",
          "transactionIndex": "0x3a",
          "logIndex": "0xf5",
          "removed": false
        },
        {
          "address": "0x054ed3e0471774514f27e00066d012b74e00c950",
          "topics": [
            "0xdf8644c0a4c21ed214ce69f395675b3a5fcd1039083daea5058898de40ea3149"
          ],
          "data": "0x000000000000000000000000b47cfcf8181d36117142b83d31bbbf63b1b250fe0000000000000000000000000000000000000000000000056bc75e2d631000000000000000000000000000000000000000000000000000000000000000000000",
          "blockHash": "0x6f5aa2ad6dc96846260cccbd3bee41acdc6633337ace186a148c22d0c1865197",
          "blockNumber": "0x1485b92",
          "transactionHash": "0xd1b8eb2b13d178b179e02a2b087c36167243e779a4de47704bc2c3762d8d9ca3",
          "transactionIndex": "0x3a",
          "logIndex": "0xf6",
          "removed": false
        },
        {
          "address": "0x054ed3e0471774514f27e00066d012b74e00c950",
          "topics": [
            "0xc358e8e3f205b5e7453abd5cbac388ca4552b887b69001bc972b88610c749035"
          ],
          "data": "0x000000000000000000000000b47cfcf8181d36117142b83d31bbbf63b1b250fe0000000000000000000000000000000000000000000000056bc75e2d631000000000000000000000000000000000000000000000000000000000000000000000",
          "blockHash": "0x6f5aa2ad6dc96846260cccbd3bee41acdc6633337ace186a148c22d0c1865197",
          "blockNumber": "0x1485b92",
          "transactionHash": "0xd1b8eb2b13d178b179e02a2b087c36167243e779a4de47704bc2c3762d8d9ca3",
          "transactionIndex": "0x3a",
          "logIndex": "0xf7",
          "removed": false
        },
        {
          "address": "0x054ed3e0471774514f27e00066d012b74e00c950",
          "topics": [
            "0x75ff54b34361a82532c89f24d71c8e91d70a10b35bfa45e8a6969cbc1970f326",
            "0x0000000000000000000000000000000000000000000000000000000000000000",
            "0x000000000000000000000000bb02a9d6a71a847d587ce4dbb92f32f79c2efb2a"
          ],
          "data": "0x000000000000000000000000000000000000000000000000000000000000008000000000000000000000000000000000000000000000000000000000000000c000000000000000000000000000000000000000000000000000000000000001200000000000000000000000000000000000000000000000056bc75e2d63100000000000000000000000000000000000000000000000000000000000000000001453616d706c65204164766572746973656d656e7400000000000000000000000000000000000000000000000000000000000000000000000000000000000000365468697320697320612074657374206164766572746973656d656e74206d696e7465642076696120466f756e6472792073637269707400000000000000000000000000000000000000000000000000000000000000000000000000000000005368747470733a2f2f706c616365686f6c6465726164732e73332e61702d736f7574682d312e616d617a6f6e6177732e636f6d2f61642d696d616765732f313733383537353338313335332d363931322e706e6700000000000000000000000000",
          "blockHash": "0x6f5aa2ad6dc96846260cccbd3bee41acdc6633337ace186a148c22d0c1865197",
          "blockNumber": "0x1485b92",
          "transactionHash": "0xd1b8eb2b13d178b179e02a2b087c36167243e779a4de47704bc2c3762d8d9ca3",
          "transactionIndex": "0x3a",
          "logIndex": "0xf8",
          "removed": false
        }
      ],
      "logsBloom": "0x00000000000000000008000000000000000000000000000000000000000000000000000000001000080000000000000000000000000000008000000000000000000000000000000000000008000000000000000000800000400000000000000000000000020000000000000000020800000000000000000100000010000000000000000080000000000200000000000000010000000000000000000000000000000000000000000000000000000000000000000000000000000000000020000000028002000000022000000000000000000080000000000000000000010020001000000000000000000000000204000000000000000001000000000200000020",
      "type": "0x2",
      "transactionHash": "0xd1b8eb2b13d178b179e02a2b087c36167243e779a4de47704bc2c3762d8d9ca3",
      "transactionIndex": "0x3a",
      "blockHash": "0x6f5aa2ad6dc96846260cccbd3bee41acdc6633337ace186a148c22d0c1865197",
      "blockNumber": "0x1485b92",
      "gasUsed": "0x27657",
      "effectiveGasPrice": "0xd83fd",
      "from": "0xb47cfcf8181d36117142b83d31bbbf63b1b250fe",
      "to": "0x054ed3e0471774514f27e00066d012b74e00c950",
      "contractAddress": null,
      "l1BaseFeeScalar": "0x44d",
      "l1BlobBaseFee": "0x1",
      "l1BlobBaseFeeScalar": "0xa118b",
      "l1Fee": "0x6e2c2559",
      "l1GasPrice": "0x3e8a86fd",
      "l1GasUsed": "0x640"
    }
  ],
  "libraries": [],
  "pending": [],
  "returns": {},
  "timestamp": 1738806789,
  "chain": 84532,
  "commit": "e3ad21d"
}