{
  "transactions": [
    {
      "hash": "0x61450b2ec2acad47645574fea6bc936a03966ac32d141ddb577432df47f677f3",
      "transactionType": "CALL",
      "contractName": null,
      "contractAddress": "0xdad6e3d08af425004c1dbf5a777a9906346eed9f",
      "function": "createAd(address,string,string,string)",
      "arguments": [
        "0xbb02a9D6A71A847D587cE4Dbb92F32f79c2EfB2a",
        "Sample Advertisement",
        "This is a test advertisement minted via Foundry script",
        "https://placeholderads.s3.ap-south-1.amazonaws.com/ad-images/1738575381353-6912.png"
      ],
      "transaction": {
        "from": "0xbb02a9d6a71a847d587ce4dbb92f32f79c2efb2a",
        "to": "0xdad6e3d08af425004c1dbf5a777a9906346eed9f",
        "gas": "0x6c9ec",
        "value": "0x0",
        "input": "0x260e8f9e000000000000000000000000bb02a9d6a71a847d587ce4dbb92f32f79c2efb2a000000000000000000000000000000000000000000000000000000000000008000000000000000000000000000000000000000000000000000000000000000c00000000000000000000000000000000000000000000000000000000000000120000000000000000000000000000000000000000000000000000000000000001453616d706c65204164766572746973656d656e7400000000000000000000000000000000000000000000000000000000000000000000000000000000000000365468697320697320612074657374206164766572746973656d656e74206d696e7465642076696120466f756e6472792073637269707400000000000000000000000000000000000000000000000000000000000000000000000000000000005368747470733a2f2f706c616365686f6c6465726164732e73332e61702d736f7574682d312e616d617a6f6e6177732e636f6d2f61642d696d616765732f313733383537353338313335332d363931322e706e6700000000000000000000000000",
        "nonce": "0x50",
        "chainId": "0x14a34"
      },
      "additionalContracts": [],
      "isFixedGasLimit": false
    }
  ],
  "receipts": [
    {
      "status": "0x1",
      "cumulativeGasUsed": "0x4de0a1",
      "logs": [
        {
          "address": "0xdad6e3d08af425004c1dbf5a777a9906346eed9f",
          "topics": [
            "0xddf252ad1be2c89b69c2b068fc378daa952ba7f163c4a11628f55a4df523b3ef",
            "0x0000000000000000000000000000000000000000000000000000000000000000",
            "0x000000000000000000000000bb02a9d6a71a847d587ce4dbb92f32f79c2efb2a",
            "0x0000000000000000000000000000000000000000000000000000000000000000"
          ],
          "data": "0x",
          "blockHash": "0xc76d91bb79274effd08fb9406ec089df4b6557d5da3ac15ef1e52569e8ccd318",
          "blockNumber": "0x1497dd6",
          "transactionHash": "0x61450b2ec2acad47645574fea6bc936a03966ac32d141ddb577432df47f677f3",
          "transactionIndex": "0x2b",
          "logIndex": "0x6c",
          "removed": false
        },
        {
          "address": "0xdad6e3d08af425004c1dbf5a777a9906346eed9f",
          "topics": [
            "0xc9cda8d5c27f1129a21a5fb5ae4b40835f43e317ad44f4f1fef899d62afdb33d"
          ],
          "data": "0x000000000000000000000000bb02a9d6a71a847d587ce4dbb92f32f79c2efb2a00000000000000000000000000000000000000000000000000000000000000000000000000000000000000000000000000000000000000000000000000000060000000000000000000000000000000000000000000000000000000000000008000000000000000000000000000000000000000000000000000000000000000c00000000000000000000000000000000000000000000000000000000000000120000000000000000000000000bb02a9d6a71a847d587ce4dbb92f32f79c2efb2a000000000000000000000000000000000000000000000000000000000000001453616d706c65204164766572746973656d656e7400000000000000000000000000000000000000000000000000000000000000000000000000000000000000365468697320697320612074657374206164766572746973656d656e74206d696e7465642076696120466f756e6472792073637269707400000000000000000000000000000000000000000000000000000000000000000000000000000000005368747470733a2f2f706c616365686f6c6465726164732e73332e61702d736f7574682d312e616d617a6f6e6177732e636f6d2f61642d696d616765732f313733383537353338313335332d363931322e706e6700000000000000000000000000",
          "blockHash": "0xc76d91bb79274effd08fb9406ec089df4b6557d5da3ac15ef1e52569e8ccd318",
          "blockNumber": "0x1497dd6",
          "transactionHash": "0x61450b2ec2acad47645574fea6bc936a03966ac32d141ddb577432df47f677f3",
          "transactionIndex": "0x2b",
          "logIndex": "0x6d",
          "removed": false
        }
      ],
      "logsBloom": "0x00000000000000000000000000000001020000000000000000000000000000002000000000000000000000000000000000000000000000008000000000000000000000000000000000000008000000000010000000000000000000000000000000000000020000000000000000000800000000000000000000000010000000000000000000000000000000000000000000000000000000000000000000000000000000000000000000000000000000000000000000000000000000000000000000008002000000021000000000000000000000000000000000000000000028000000000000000000000000000000000000000000000000000000000000000000",
      "type": "0x2",
      "transactionHash": "0x61450b2ec2acad47645574fea6bc936a03966ac32d141ddb577432df47f677f3",
      "transactionIndex": "0x2b",
      "blockHash": "0xc76d91bb79274effd08fb9406ec089df4b6557d5da3ac15ef1e52569e8ccd318",
      "blockNumber": "0x1497dd6",
      "gasUsed": "0x4a453",
      "effectiveGasPrice": "0xd3ed",
      "from": "0xbb02a9d6a71a847d587ce4dbb92f32f79c2efb2a",
      "to": "0xdad6e3d08af425004c1dbf5a777a9906346eed9f",
      "contractAddress": null,
      "l1BaseFeeScalar": "0x44d",
      "l1BlobBaseFee": "0x1",
      "l1BlobBaseFeeScalar": "0xa118b",
      "l1Fee": "0x70144a8f8",
      "l1GasPrice": "0x19dccd760",
      "l1GasUsed": "0xf60"
    }
  ],
  "libraries": [],
  "pending": [],
  "returns": {},
  "timestamp": 1738955405,
  "chain": 84532,
  "commit": "744412f"
}