{
  "transactions": [
    {
      "hash": "0x662b06ff06c6fb024a0ae142dc73af515246c36097aa571964d080173d3e2709",
      "transactionType": "CALL",
      "contractName": null,
      "contractAddress": "0x09ba65e75e660ad96927385ee5c69e1a289a3a7c",
      "function": "createAd(address,string,string,string)",
      "arguments": [
        "0xbb02a9D6A71A847D587cE4Dbb92F32f79c2EfB2a",
        "Sample Advertisement",
        "This is a test advertisement minted via Foundry script",
        "https://placeholderads.s3.ap-south-1.amazonaws.com/ad-images/1738575381353-6912.png"
      ],
      "transaction": {
        "from": "0xbb02a9d6a71a847d587ce4dbb92f32f79c2efb2a",
        "to": "0x09ba65e75e660ad96927385ee5c69e1a289a3a7c",
        "gas": "0x6068a",
        "value": "0x0",
        "input": "0x260e8f9e000000000000000000000000bb02a9d6a71a847d587ce4dbb92f32f79c2efb2a000000000000000000000000000000000000000000000000000000000000008000000000000000000000000000000000000000000000000000000000000000c00000000000000000000000000000000000000000000000000000000000000120000000000000000000000000000000000000000000000000000000000000001453616d706c65204164766572746973656d656e7400000000000000000000000000000000000000000000000000000000000000000000000000000000000000365468697320697320612074657374206164766572746973656d656e74206d696e7465642076696120466f756e6472792073637269707400000000000000000000000000000000000000000000000000000000000000000000000000000000005368747470733a2f2f706c616365686f6c6465726164732e73332e61702d736f7574682d312e616d617a6f6e6177732e636f6d2f61642d696d616765732f313733383537353338313335332d363931322e706e6700000000000000000000000000",
        "nonce": "0x33",
        "chainId": "0x14a34"
      },
      "additionalContracts": [],
      "isFixedGasLimit": false
    }
  ],
  "receipts": [
    {
      "status": "0x1",
      "cumulativeGasUsed": "0x8ae537",
      "logs": [
        {
          "address": "0x09ba65e75e660ad96927385ee5c69e1a289a3a7c",
          "topics": [
            "0xddf252ad1be2c89b69c2b068fc378daa952ba7f163c4a11628f55a4df523b3ef",
            "0x0000000000000000000000000000000000000000000000000000000000000000",
            "0x000000000000000000000000bb02a9d6a71a847d587ce4dbb92f32f79c2efb2a",
            "0x0000000000000000000000000000000000000000000000000000000000000003"
          ],
          "data": "0x",
          "blockHash": "0x5574fbdda5745ac289c6f2cd80a6f17e348318d0b2711bf1a6b3790fb63888e3",
          "blockNumber": "0x1495c0b",
          "transactionHash": "0x662b06ff06c6fb024a0ae142dc73af515246c36097aa571964d080173d3e2709",
          "transactionIndex": "0x38",
          "logIndex": "0xbc",
          "removed": false
        },
        {
          "address": "0x09ba65e75e660ad96927385ee5c69e1a289a3a7c",
          "topics": [
            "0xc9cda8d5c27f1129a21a5fb5ae4b40835f43e317ad44f4f1fef899d62afdb33d"
          ],
          "data": "0x000000000000000000000000bb02a9d6a71a847d587ce4dbb92f32f79c2efb2a00000000000000000000000000000000000000000000000000000000000000030000000000000000000000000000000000000000000000000000000000000060000000000000000000000000000000000000000000000000000000000000008000000000000000000000000000000000000000000000000000000000000000c00000000000000000000000000000000000000000000000000000000000000120000000000000000000000000bb02a9d6a71a847d587ce4dbb92f32f79c2efb2a000000000000000000000000000000000000000000000000000000000000001453616d706c65204164766572746973656d656e7400000000000000000000000000000000000000000000000000000000000000000000000000000000000000365468697320697320612074657374206164766572746973656d656e74206d696e7465642076696120466f756e6472792073637269707400000000000000000000000000000000000000000000000000000000000000000000000000000000005368747470733a2f2f706c616365686f6c6465726164732e73332e61702d736f7574682d312e616d617a6f6e6177732e636f6d2f61642d696d616765732f313733383537353338313335332d363931322e706e6700000000000000000000000000",
          "blockHash": "0x5574fbdda5745ac289c6f2cd80a6f17e348318d0b2711bf1a6b3790fb63888e3",
          "blockNumber": "0x1495c0b",
          "transactionHash": "0x662b06ff06c6fb024a0ae142dc73af515246c36097aa571964d080173d3e2709",
          "transactionIndex": "0x38",
          "logIndex": "0xbd",
          "removed": false
        }
      ],
      "logsBloom": "0x00000000000000000000000000000001020000000000000000000000000000000000000000000000000000000000000000000000020000008000000000000000000000000004000000000008000000000000000000000000000000000000000000000000020000000000000000000800000000000000000000000010000000000000000000000000000000000000000000000000000000000000000000000000000000000000000000000000000000000000000000800000000000000000400000008002000000021000000000000000000000000000000000000000000020400000000000000000000000000000000000000000000000000000002000000000",
      "type": "0x2",
      "transactionHash": "0x662b06ff06c6fb024a0ae142dc73af515246c36097aa571964d080173d3e2709",
      "transactionIndex": "0x38",
      "blockHash": "0x5574fbdda5745ac289c6f2cd80a6f17e348318d0b2711bf1a6b3790fb63888e3",
      "blockNumber": "0x1495c0b",
      "gasUsed": "0x41ebb",
      "effectiveGasPrice": "0x14cab",
      "from": "0xbb02a9d6a71a847d587ce4dbb92f32f79c2efb2a",
      "to": "0x09ba65e75e660ad96927385ee5c69e1a289a3a7c",
      "contractAddress": null,
      "l1BaseFeeScalar": "0x44d",
      "l1BlobBaseFee": "0x37a",
      "l1BlobBaseFeeScalar": "0xa118b",
      "l1Fee": "0x483e667b4c",
      "l1GasPrice": "0x108eca731d",
      "l1GasUsed": "0xf7a"
    }
  ],
  "libraries": [],
  "pending": [],
  "returns": {},
  "timestamp": 1738938103,
  "chain": 84532,
  "commit": "270a582"
}