{
  "transactions": [
    {
      "hash": "0x910200e6a06087e67333ed41dbf0691023b6ebc085ad86793e2fd14b4592d5df",
      "transactionType": "CALL",
      "contractName": null,
      "contractAddress": "0x299b77b22fc5b65a49d96673f8adb4e32a8eddfe",
      "function": "createAd(address,string,string,string)",
      "arguments": [
        "0xb1AfD5179ac5D755C2da5bd2F961F5520647aEB2",
        "Sample Advertisement",
        "This is a test advertisement minted via Foundry script",
        "https://placeholderads.s3.ap-south-1.amazonaws.com/ad-images/1738575381353-6912.png"
      ],
      "transaction": {
        "from": "0xb1afd5179ac5d755c2da5bd2f961f5520647aeb2",
        "to": "0x299b77b22fc5b65a49d96673f8adb4e32a8eddfe",
        "gas": "0x6c9ec",
        "value": "0x0",
        "input": "0x260e8f9e000000000000000000000000b1afd5179ac5d755c2da5bd2f961f5520647aeb2000000000000000000000000000000000000000000000000000000000000008000000000000000000000000000000000000000000000000000000000000000c00000000000000000000000000000000000000000000000000000000000000120000000000000000000000000000000000000000000000000000000000000001453616d706c65204164766572746973656d656e7400000000000000000000000000000000000000000000000000000000000000000000000000000000000000365468697320697320612074657374206164766572746973656d656e74206d696e7465642076696120466f756e6472792073637269707400000000000000000000000000000000000000000000000000000000000000000000000000000000005368747470733a2f2f706c616365686f6c6465726164732e73332e61702d736f7574682d312e616d617a6f6e6177732e636f6d2f61642d696d616765732f313733383537353338313335332d363931322e706e6700000000000000000000000000",
        "nonce": "0xe",
        "chainId": "0x14a34"
      },
      "additionalContracts": [],
      "isFixedGasLimit": false
    }
  ],
  "receipts": [
    {
      "status": "0x1",
      "cumulativeGasUsed": "0xa2926c",
      "logs": [
        {
          "address": "0x299b77b22fc5b65a49d96673f8adb4e32a8eddfe",
          "topics": [
            "0xddf252ad1be2c89b69c2b068fc378daa952ba7f163c4a11628f55a4df523b3ef",
            "0x0000000000000000000000000000000000000000000000000000000000000000",
            "0x000000000000000000000000b1afd5179ac5d755c2da5bd2f961f5520647aeb2",
            "0x0000000000000000000000000000000000000000000000000000000000000000"
          ],
          "data": "0x",
          "blockHash": "0x4bf5c2f64c23d1c20fbde03610a64f7fed1dc6effbe6c067f956974125e04c2e",
          "blockNumber": "0x14868a3",
          "transactionHash": "0x910200e6a06087e67333ed41dbf0691023b6ebc085ad86793e2fd14b4592d5df",
          "transactionIndex": "0x46",
          "logIndex": "0xec",
          "removed": false
        },
        {
          "address": "0x299b77b22fc5b65a49d96673f8adb4e32a8eddfe",
          "topics": [
            "0xc9cda8d5c27f1129a21a5fb5ae4b40835f43e317ad44f4f1fef899d62afdb33d"
          ],
          "data": "0x000000000000000000000000b1afd5179ac5d755c2da5bd2f961f5520647aeb200000000000000000000000000000000000000000000000000000000000000000000000000000000000000000000000000000000000000000000000000000060000000000000000000000000000000000000000000000000000000000000008000000000000000000000000000000000000000000000000000000000000000c00000000000000000000000000000000000000000000000000000000000000120000000000000000000000000b1afd5179ac5d755c2da5bd2f961f5520647aeb2000000000000000000000000000000000000000000000000000000000000001453616d706c65204164766572746973656d656e7400000000000000000000000000000000000000000000000000000000000000000000000000000000000000365468697320697320612074657374206164766572746973656d656e74206d696e7465642076696120466f756e6472792073637269707400000000000000000000000000000000000000000000000000000000000000000000000000000000005368747470733a2f2f706c616365686f6c6465726164732e73332e61702d736f7574682d312e616d617a6f6e6177732e636f6d2f61642d696d616765732f313733383537353338313335332d363931322e706e6700000000000000000000000000",
          "blockHash": "0x4bf5c2f64c23d1c20fbde03610a64f7fed1dc6effbe6c067f956974125e04c2e",
          "blockNumber": "0x14868a3",
          "transactionHash": "0x910200e6a06087e67333ed41dbf0691023b6ebc085ad86793e2fd14b4592d5df",
          "transactionIndex": "0x46",
          "logIndex": "0xed",
          "removed": false
        }
      ],
      "logsBloom": "0x00000100000000000000000000000001020000000000000000020000000000000000000000400000000000000000000000000000000000000000000000000000000002000000000000000008000000000000000000000000000000000000000000000000020000000000000000000800000000000000000000000010000000000000000000000000000000000000000000000000000000000000000000000000000000000000000000000000000200000040000000000000000000000000000000000002000000001000000000000000000000000000000000000000000020000000000000000000000000000000000000000000000000000000000000000000",
      "type": "0x2",
      "transactionHash": "0x910200e6a06087e67333ed41dbf0691023b6ebc085ad86793e2fd14b4592d5df",
      "transactionIndex": "0x46",
      "blockHash": "0x4bf5c2f64c23d1c20fbde03610a64f7fed1dc6effbe6c067f956974125e04c2e",
      "blockNumber": "0x14868a3",
      "gasUsed": "0x4a453",
      "effectiveGasPrice": "0x1889e",
      "from": "0xb1afd5179ac5d755c2da5bd2f961f5520647aeb2",
      "to": "0x299b77b22fc5b65a49d96673f8adb4e32a8eddfe",
      "contractAddress": null,
      "l1BaseFeeScalar": "0x44d",
      "l1BlobBaseFee": "0x3a3ad4",
      "l1BlobBaseFeeScalar": "0xa118b",
      "l1Fee": "0x16c99b8d0",
      "l1GasPrice": "0x4b0b3d61",
      "l1GasUsed": "0xf7a"
    }
  ],
  "libraries": [],
  "pending": [],
  "returns": {},
  "timestamp": 1738813479,
  "chain": 84532,
  "commit": "e3ad21d"
}