{
  "transactions": [
    {
      "hash": "0x555100431bed2b32018826734492c392f063290834ee716c004bc20e229b883f",
      "transactionType": "CALL",
      "contractName": null,
      "contractAddress": "0x272034208f39db82fd379e0c8da23d86468e8222",
      "function": "createAd(address,string,string,string)",
      "arguments": [
        "0xbb02a9D6A71A847D587cE4Dbb92F32f79c2EfB2a",
        "Sample Advertisement",
        "This is a test advertisement minted via Foundry script",
        "https://placeholderads.s3.ap-south-1.amazonaws.com/ad-images/1738575381353-6912.png"
      ],
      "transaction": {
        "from": "0xb1afd5179ac5d755c2da5bd2f961f5520647aeb2",
        "to": "0x272034208f39db82fd379e0c8da23d86468e8222",
        "gas": "0x5be54",
        "value": "0x0",
        "input": "0x260e8f9e000000000000000000000000bb02a9d6a71a847d587ce4dbb92f32f79c2efb2a000000000000000000000000000000000000000000000000000000000000008000000000000000000000000000000000000000000000000000000000000000c00000000000000000000000000000000000000000000000000000000000000120000000000000000000000000000000000000000000000000000000000000001453616d706c65204164766572746973656d656e7400000000000000000000000000000000000000000000000000000000000000000000000000000000000000365468697320697320612074657374206164766572746973656d656e74206d696e7465642076696120466f756e6472792073637269707400000000000000000000000000000000000000000000000000000000000000000000000000000000005368747470733a2f2f706c616365686f6c6465726164732e73332e61702d736f7574682d312e616d617a6f6e6177732e636f6d2f61642d696d616765732f313733383537353338313335332d363931322e706e6700000000000000000000000000",
        "nonce": "0xc",
        "chainId": "0x14a34"
      },
      "additionalContracts": [],
      "isFixedGasLimit": false
    }
  ],
  "receipts": [
    {
      "status": "0x1",
      "cumulativeGasUsed": "0x7a684b",
      "logs": [
        {
          "address": "0x272034208f39db82fd379e0c8da23d86468e8222",
          "topics": [
            "0xddf252ad1be2c89b69c2b068fc378daa952ba7f163c4a11628f55a4df523b3ef",
            "0x0000000000000000000000000000000000000000000000000000000000000000",
            "0x000000000000000000000000bb02a9d6a71a847d587ce4dbb92f32f79c2efb2a",
            "0x0000000000000000000000000000000000000000000000000000000000000002"
          ],
          "data": "0x",
          "blockHash": "0xc966d6bd092ded1958b3371dd375ed210f600c44379a1b95fed28bb4f9e47478",
          "blockNumber": "0x14860aa",
          "transactionHash": "0x555100431bed2b32018826734492c392f063290834ee716c004bc20e229b883f",
          "transactionIndex": "0x35",
          "logIndex": "0xcb",
          "removed": false
        },
        {
          "address": "0x272034208f39db82fd379e0c8da23d86468e8222",
          "topics": [
            "0xc9cda8d5c27f1129a21a5fb5ae4b40835f43e317ad44f4f1fef899d62afdb33d"
          ],
          "data": "0x000000000000000000000000bb02a9d6a71a847d587ce4dbb92f32f79c2efb2a00000000000000000000000000000000000000000000000000000000000000020000000000000000000000000000000000000000000000000000000000000060000000000000000000000000000000000000000000000000000000000000008000000000000000000000000000000000000000000000000000000000000000c00000000000000000000000000000000000000000000000000000000000000120000000000000000000000000bb02a9d6a71a847d587ce4dbb92f32f79c2efb2a000000000000000000000000000000000000000000000000000000000000001453616d706c65204164766572746973656d656e7400000000000000000000000000000000000000000000000000000000000000000000000000000000000000365468697320697320612074657374206164766572746973656d656e74206d696e7465642076696120466f756e6472792073637269707400000000000000000000000000000000000000000000000000000000000000000000000000000000005368747470733a2f2f706c616365686f6c6465726164732e73332e61702d736f7574682d312e616d617a6f6e6177732e636f6d2f61642d696d616765732f313733383537353338313335332d363931322e706e6700000000000000000000000000",
          "blockHash": "0xc966d6bd092ded1958b3371dd375ed210f600c44379a1b95fed28bb4f9e47478",
          "blockNumber": "0x14860aa",
          "transactionHash": "0x555100431bed2b32018826734492c392f063290834ee716c004bc20e229b883f",
          "transactionIndex": "0x35",
          "logIndex": "0xcc",
          "removed": false
        }
      ],
      "logsBloom": "0x04000000000000000000000000000001020000000000000000000000000000000000000000000000000000000000002000000000000000008000000000000000000000000000000000000008000000000000000000000000000000000000000000000000020000000000000000000800000000000000000000000010000000000000000000000000000000000000000000000000000000000000000000000000000000000000000000000100000000000000000000000000000040000000000000008002000000021000000000000000000000000000000000000000000020000000000000000000000000000000000000000000008020000000000000000000",
      "type": "0x2",
      "transactionHash": "0x555100431bed2b32018826734492c392f063290834ee716c004bc20e229b883f",
      "transactionIndex": "0x35",
      "blockHash": "0xc966d6bd092ded1958b3371dd375ed210f600c44379a1b95fed28bb4f9e47478",
      "blockNumber": "0x14860aa",
      "gasUsed": "0x4287f",
      "effectiveGasPrice": "0xf0a0c",
      "from": "0xb1afd5179ac5d755c2da5bd2f961f5520647aeb2",
      "to": "0x272034208f39db82fd379e0c8da23d86468e8222",
      "contractAddress": null,
      "l1BaseFeeScalar": "0x44d",
      "l1BlobBaseFee": "0x4e",
      "l1BlobBaseFeeScalar": "0xa118b",
      "l1Fee": "0x228252f8b",
      "l1GasPrice": "0x7e8c3e36",
      "l1GasUsed": "0xf7a"
    }
  ],
  "libraries": [],
  "pending": [],
  "returns": {},
  "timestamp": 1738809398,
  "chain": 84532,
  "commit": "e3ad21d"
}