{
  "transactions": [
    {
      "hash": "0x402f0f3136afd99fcee4736e781e6f1ffb54132755e8a2e9b20aa349e2b997b0",
      "transactionType": "CALL",
      "contractName": null,
      "contractAddress": "0x7c4cc48b56c1cc695d488709f0045ddb8816e569",
      "function": "createAd(address,string,string,string)",
      "arguments": [
        "0xbb02a9D6A71A847D587cE4Dbb92F32f79c2EfB2a",
        "Sample Advertisement",
        "This is a test advertisement minted via Foundry script",
        "https://placeholderads.s3.ap-south-1.amazonaws.com/ad-images/1738575381353-6912.png"
      ],
      "transaction": {
        "from": "0xbb02a9d6a71a847d587ce4dbb92f32f79c2efb2a",
        "to": "0x7c4cc48b56c1cc695d488709f0045ddb8816e569",
        "gas": "0x6068a",
        "value": "0x0",
        "input": "0x260e8f9e000000000000000000000000bb02a9d6a71a847d587ce4dbb92f32f79c2efb2a000000000000000000000000000000000000000000000000000000000000008000000000000000000000000000000000000000000000000000000000000000c00000000000000000000000000000000000000000000000000000000000000120000000000000000000000000000000000000000000000000000000000000001453616d706c65204164766572746973656d656e7400000000000000000000000000000000000000000000000000000000000000000000000000000000000000365468697320697320612074657374206164766572746973656d656e74206d696e7465642076696120466f756e6472792073637269707400000000000000000000000000000000000000000000000000000000000000000000000000000000005368747470733a2f2f706c616365686f6c6465726164732e73332e61702d736f7574682d312e616d617a6f6e6177732e636f6d2f61642d696d616765732f313733383537353338313335332d363931322e706e6700000000000000000000000000",
        "nonce": "0x25",
        "chainId": "0x14a34"
      },
      "additionalContracts": [],
      "isFixedGasLimit": false
    }
  ],
  "receipts": [
    {
      "status": "0x1",
      "cumulativeGasUsed": "0x9787f3",
      "logs": [
        {
          "address": "0x7c4cc48b56c1cc695d488709f0045ddb8816e569",
          "topics": [
            "0xddf252ad1be2c89b69c2b068fc378daa952ba7f163c4a11628f55a4df523b3ef",
            "0x0000000000000000000000000000000000000000000000000000000000000000",
            "0x000000000000000000000000bb02a9d6a71a847d587ce4dbb92f32f79c2efb2a",
            "0x0000000000000000000000000000000000000000000000000000000000000003"
          ],
          "data": "0x",
          "blockHash": "0xc60dde8e82f6d8d2b6cbdf534eebace05300952d69555498b39256a773b0b2ca",
          "blockNumber": "0x1488e87",
          "transactionHash": "0x402f0f3136afd99fcee4736e781e6f1ffb54132755e8a2e9b20aa349e2b997b0",
          "transactionIndex": "0x41",
          "logIndex": "0xd3",
          "removed": false
        },
        {
          "address": "0x7c4cc48b56c1cc695d488709f0045ddb8816e569",
          "topics": [
            "0xc9cda8d5c27f1129a21a5fb5ae4b40835f43e317ad44f4f1fef899d62afdb33d"
          ],
          "data": "0x000000000000000000000000bb02a9d6a71a847d587ce4dbb92f32f79c2efb2a00000000000000000000000000000000000000000000000000000000000000030000000000000000000000000000000000000000000000000000000000000060000000000000000000000000000000000000000000000000000000000000008000000000000000000000000000000000000000000000000000000000000000c00000000000000000000000000000000000000000000000000000000000000120000000000000000000000000bb02a9d6a71a847d587ce4dbb92f32f79c2efb2a000000000000000000000000000000000000000000000000000000000000001453616d706c65204164766572746973656d656e7400000000000000000000000000000000000000000000000000000000000000000000000000000000000000365468697320697320612074657374206164766572746973656d656e74206d696e7465642076696120466f756e6472792073637269707400000000000000000000000000000000000000000000000000000000000000000000000000000000005368747470733a2f2f706c616365686f6c6465726164732e73332e61702d736f7574682d312e616d617a6f6e6177732e636f6d2f61642d696d616765732f313733383537353338313335332d363931322e706e6700000000000000000000000000",
          "blockHash": "0xc60dde8e82f6d8d2b6cbdf534eebace05300952d69555498b39256a773b0b2ca",
          "blockNumber": "0x1488e87",
          "transactionHash": "0x402f0f3136afd99fcee4736e781e6f1ffb54132755e8a2e9b20aa349e2b997b0",
          "transactionIndex": "0x41",
          "logIndex": "0xd4",
          "removed": false
        }
      ],
      "logsBloom": "0x00000000000000000000000000000001020000000000000000000000000000000000000000000000000000000000000000000000020000008000000000001000000000000000000000000008000000000000000000000000000000000000000000000000020000000000000000000800000000000000000000000010000000010000000000000000000000000000000000000040000000000000000000000000000000000000000000000000000000000000000000800000000000000000400000008002000000021000000000000000000000000000000000000000000020000000000000000000000000000000000000000000000000000000000000000000",
      "type": "0x2",
      "transactionHash": "0x402f0f3136afd99fcee4736e781e6f1ffb54132755e8a2e9b20aa349e2b997b0",
      "transactionIndex": "0x41",
      "blockHash": "0xc60dde8e82f6d8d2b6cbdf534eebace05300952d69555498b39256a773b0b2ca",
      "blockNumber": "0x1488e87",
      "gasUsed": "0x41ebb",
      "effectiveGasPrice": "0x28df",
      "from": "0xbb02a9d6a71a847d587ce4dbb92f32f79c2efb2a",
      "to": "0x7c4cc48b56c1cc695d488709f0045ddb8816e569",
      "contractAddress": null,
      "l1BaseFeeScalar": "0x44d",
      "l1BlobBaseFee": "0x878e91113d",
      "l1BlobBaseFeeScalar": "0xa118b",
      "l1Fee": "0x5652f449a141",
      "l1GasPrice": "0x15c1c993a4",
      "l1GasUsed": "0xf60"
    }
  ],
  "libraries": [],
  "pending": [],
  "returns": {},
  "timestamp": 1738832878,
  "chain": 84532,
  "commit": "270a582"
}