{
  "transactions": [
    {
      "hash": "0x3e265fb8e7cd21df0bab40f7833898064727afa8529458a6fc5c5905a30586ac",
      "transactionType": "CALL",
      "contractName": null,
      "contractAddress": "0x7c4cc48b56c1cc695d488709f0045ddb8816e569",
      "function": "createAd(address,string,string,string)",
      "arguments": [
        "0xb1AfD5179ac5D755C2da5bd2F961F5520647aEB2",
        "Sample Advertisement",
        "This is a test advertisement minted via Foundry script",
        "https://placeholderads.s3.ap-south-1.amazonaws.com/ad-images/1738575381353-6912.png"
      ],
      "transaction": {
        "from": "0xb1afd5179ac5d755c2da5bd2f961f5520647aeb2",
        "to": "0x7c4cc48b56c1cc695d488709f0045ddb8816e569",
        "gas": "0x60d1b",
        "value": "0x0",
        "input": "0x260e8f9e000000000000000000000000b1afd5179ac5d755c2da5bd2f961f5520647aeb2000000000000000000000000000000000000000000000000000000000000008000000000000000000000000000000000000000000000000000000000000000c00000000000000000000000000000000000000000000000000000000000000120000000000000000000000000000000000000000000000000000000000000001453616d706c65204164766572746973656d656e7400000000000000000000000000000000000000000000000000000000000000000000000000000000000000365468697320697320612074657374206164766572746973656d656e74206d696e7465642076696120466f756e6472792073637269707400000000000000000000000000000000000000000000000000000000000000000000000000000000005368747470733a2f2f706c616365686f6c6465726164732e73332e61702d736f7574682d312e616d617a6f6e6177732e636f6d2f61642d696d616765732f313733383537353338313335332d363931322e706e6700000000000000000000000000",
        "nonce": "0x12",
        "chainId": "0x14a34"
      },
      "additionalContracts": [],
      "isFixedGasLimit": false
    }
  ],
  "receipts": [
    {
      "status": "0x1",
      "cumulativeGasUsed": "0xbb7f44",
      "logs": [
        {
          "address": "0x7c4cc48b56c1cc695d488709f0045ddb8816e569",
          "topics": [
            "0xddf252ad1be2c89b69c2b068fc378daa952ba7f163c4a11628f55a4df523b3ef",
            "0x0000000000000000000000000000000000000000000000000000000000000000",
            "0x000000000000000000000000b1afd5179ac5d755c2da5bd2f961f5520647aeb2",
            "0x0000000000000000000000000000000000000000000000000000000000000004"
          ],
          "data": "0x",
          "blockHash": "0x10b5c24e15866d0fe1d7e71ff875c2d5b4061c935450e0082b85a46c2f12ecfa",
          "blockNumber": "0x1489373",
          "transactionHash": "0x3e265fb8e7cd21df0bab40f7833898064727afa8529458a6fc5c5905a30586ac",
          "transactionIndex": "0x3b",
          "logIndex": "0x112",
          "removed": false
        },
        {
          "address": "0x7c4cc48b56c1cc695d488709f0045ddb8816e569",
          "topics": [
            "0xc9cda8d5c27f1129a21a5fb5ae4b40835f43e317ad44f4f1fef899d62afdb33d"
          ],
          "data": "0x000000000000000000000000b1afd5179ac5d755c2da5bd2f961f5520647aeb200000000000000000000000000000000000000000000000000000000000000040000000000000000000000000000000000000000000000000000000000000060000000000000000000000000000000000000000000000000000000000000008000000000000000000000000000000000000000000000000000000000000000c00000000000000000000000000000000000000000000000000000000000000120000000000000000000000000b1afd5179ac5d755c2da5bd2f961f5520647aeb2000000000000000000000000000000000000000000000000000000000000001453616d706c65204164766572746973656d656e7400000000000000000000000000000000000000000000000000000000000000000000000000000000000000365468697320697320612074657374206164766572746973656d656e74206d696e7465642076696120466f756e6472792073637269707400000000000000000000000000000000000000000000000000000000000000000000000000000000005368747470733a2f2f706c616365686f6c6465726164732e73332e61702d736f7574682d312e616d617a6f6e6177732e636f6d2f61642d696d616765732f313733383537353338313335332d363931322e706e6700000000000000000000000000",
          "blockHash": "0x10b5c24e15866d0fe1d7e71ff875c2d5b4061c935450e0082b85a46c2f12ecfa",
          "blockNumber": "0x1489373",
          "transactionHash": "0x3e265fb8e7cd21df0bab40f7833898064727afa8529458a6fc5c5905a30586ac",
          "transactionIndex": "0x3b",
          "logIndex": "0x113",
          "removed": false
        }
      ],
      "logsBloom": "0x00000100000000000000000000000001020000000000000000000000000000000000000000000000000000000000000000000000000000000000000000001000000000000000000000000008000000000000000000000000000000000000000008000000020000000000000000000800000000000000000000000010000000010000000000000000000000000000000000000040000000000000000000000000000000000000000000000000000200000040000000000000002000000000000000000002000000001000000000000000000000008000000000000000000020000000000000000000000000000000000000000000000000000000000000000000",
      "type": "0x2",
      "transactionHash": "0x3e265fb8e7cd21df0bab40f7833898064727afa8529458a6fc5c5905a30586ac",
      "transactionIndex": "0x3b",
      "blockHash": "0x10b5c24e15866d0fe1d7e71ff875c2d5b4061c935450e0082b85a46c2f12ecfa",
      "blockNumber": "0x1489373",
      "gasUsed": "0x46187",
      "effectiveGasPrice": "0x2913",
      "from": "0xb1afd5179ac5d755c2da5bd2f961f5520647aeb2",
      "to": "0x7c4cc48b56c1cc695d488709f0045ddb8816e569",
      "contractAddress": null,
      "l1BaseFeeScalar": "0x44d",
      "l1BlobBaseFee": "0xd0c6b252ef",
      "l1BlobBaseFeeScalar": "0xa118b",
      "l1Fee": "0x84a8e44deb60",
      "l1GasPrice": "0x10503a5c5f",
      "l1GasUsed": "0xf60"
    }
  ],
  "libraries": [],
  "pending": [],
  "returns": {},
  "timestamp": 1738835399,
  "chain": 84532,
  "commit": "270a582"
}