{
  "transactions": [
    {
      "hash": "0x8060e0b4e3ede997b9c5b42f7451f265f977a77647e88d3bedaaa7c9f4d2d8f2",
      "transactionType": "CALL",
      "contractName": null,
      "contractAddress": "0xfc649ced224b14e53626b30148ff6eaafa0a4b77",
      "function": "createAd(address,string,string,string)",
      "arguments": [
        "0xb47CFCf8181D36117142b83D31BBBF63B1b250fE",
        "Sample Advertisement",
        "This is a test advertisement minted via Foundry script",
        "https://placeholderads.s3.ap-south-1.amazonaws.com/ad-images/1738575381353-6912.png"
      ],
      "transaction": {
        "from": "0xb47cfcf8181d36117142b83d31bbbf63b1b250fe",
        "to": "0xfc649ced224b14e53626b30148ff6eaafa0a4b77",
        "gas": "0x6068a",
        "value": "0x0",
        "input": "0x260e8f9e000000000000000000000000b47cfcf8181d36117142b83d31bbbf63b1b250fe000000000000000000000000000000000000000000000000000000000000008000000000000000000000000000000000000000000000000000000000000000c00000000000000000000000000000000000000000000000000000000000000120000000000000000000000000000000000000000000000000000000000000001453616d706c65204164766572746973656d656e7400000000000000000000000000000000000000000000000000000000000000000000000000000000000000365468697320697320612074657374206164766572746973656d656e74206d696e7465642076696120466f756e6472792073637269707400000000000000000000000000000000000000000000000000000000000000000000000000000000005368747470733a2f2f706c616365686f6c6465726164732e73332e61702d736f7574682d312e616d617a6f6e6177732e636f6d2f61642d696d616765732f313733383537353338313335332d363931322e706e6700000000000000000000000000",
        "nonce": "0x6d",
        "chainId": "0x14a34"
      },
      "additionalContracts": [],
      "isFixedGasLimit": false
    }
  ],
  "receipts": [
    {
      "status": "0x1",
      "cumulativeGasUsed": "0xa18c99",
      "logs": [
        {
          "address": "0xfc649ced224b14e53626b30148ff6eaafa0a4b77",
          "topics": [
            "0xddf252ad1be2c89b69c2b068fc378daa952ba7f163c4a11628f55a4df523b3ef",
            "0x0000000000000000000000000000000000000000000000000000000000000000",
            "0x000000000000000000000000b47cfcf8181d36117142b83d31bbbf63b1b250fe",
            "0x0000000000000000000000000000000000000000000000000000000000000003"
          ],
          "data": "0x",
          "blockHash": "0x5e1ce79f716c2abf1be96d3158b8ed9e26947279b727e7ff8bff0fe86af75d3e",
          "blockNumber": "0x1486cd9",
          "transactionHash": "0x8060e0b4e3ede997b9c5b42f7451f265f977a77647e88d3bedaaa7c9f4d2d8f2",
          "transactionIndex": "0x41",
          "logIndex": "0xc7",
          "removed": false
        },
        {
          "address": "0xfc649ced224b14e53626b30148ff6eaafa0a4b77",
          "topics": [
            "0xc9cda8d5c27f1129a21a5fb5ae4b40835f43e317ad44f4f1fef899d62afdb33d"
          ],
          "data": "0x000000000000000000000000b47cfcf8181d36117142b83d31bbbf63b1b250fe00000000000000000000000000000000000000000000000000000000000000030000000000000000000000000000000000000000000000000000000000000060000000000000000000000000000000000000000000000000000000000000008000000000000000000000000000000000000000000000000000000000000000c00000000000000000000000000000000000000000000000000000000000000120000000000000000000000000b47cfcf8181d36117142b83d31bbbf63b1b250fe000000000000000000000000000000000000000000000000000000000000001453616d706c65204164766572746973656d656e7400000000000000000000000000000000000000000000000000000000000000000000000000000000000000365468697320697320612074657374206164766572746973656d656e74206d696e7465642076696120466f756e6472792073637269707400000000000000000000000000000000000000000000000000000000000000000000000000000000005368747470733a2f2f706c616365686f6c6465726164732e73332e61702d736f7574682d312e616d617a6f6e6177732e636f6d2f61642d696d616765732f313733383537353338313335332d363931322e706e6700000000000000000000000000",
          "blockHash": "0x5e1ce79f716c2abf1be96d3158b8ed9e26947279b727e7ff8bff0fe86af75d3e",
          "blockNumber": "0x1486cd9",
          "transactionHash": "0x8060e0b4e3ede997b9c5b42f7451f265f977a77647e88d3bedaaa7c9f4d2d8f2",
          "transactionIndex": "0x41",
          "logIndex": "0xc8",
          "removed": false
        }
      ],
      "logsBloom": "0x00000000000010000000000000000001020000000000000000000000000000000000000000000000080000000000000000000008020000000000000000000000000000000000000000000008000000000000000000800000000020000000000000000000020000000000000000000800000000000000000000000010000000000000000000000000000000000000000000000000000000000000000000000000000000000000000000000000000000000000000000800000000000000000400000000002000000001000000000000000000000000000000000000000000020000000000000000000000000000000000000000000000001000000000000000000",
      "type": "0x2",
      "transactionHash": "0x8060e0b4e3ede997b9c5b42f7451f265f977a77647e88d3bedaaa7c9f4d2d8f2",
      "transactionIndex": "0x41",
      "blockHash": "0x5e1ce79f716c2abf1be96d3158b8ed9e26947279b727e7ff8bff0fe86af75d3e",
      "blockNumber": "0x1486cd9",
      "gasUsed": "0x41ebb",
      "effectiveGasPrice": "0x75294",
      "from": "0xb47cfcf8181d36117142b83d31bbbf63b1b250fe",
      "to": "0xfc649ced224b14e53626b30148ff6eaafa0a4b77",
      "contractAddress": null,
      "l1BaseFeeScalar": "0x44d",
      "l1BlobBaseFee": "0xf8e6a4",
      "l1BlobBaseFeeScalar": "0xa118b",
      "l1Fee": "0x1c4e4d6eb",
      "l1GasPrice": "0x4361a987",
      "l1GasUsed": "0xf7a"
    }
  ],
  "libraries": [],
  "pending": [],
  "returns": {},
  "timestamp": 1738815636,
  "chain": 84532,
  "commit": "e3ad21d"
}