{
  "transactions": [
    {
      "hash": "0x57d20f54c0a7c26270e3475d47df3b12cef89b06243b27eeee1242537de1705d",
      "transactionType": "CALL",
      "contractName": null,
      "contractAddress": "0x2ef9b1ac7e775a202b245aee678336d143c967be",
      "function": "createAd(address,string,string,string)",
      "arguments": [
        "0xb47CFCf8181D36117142b83D31BBBF63B1b250fE",
        "Sample Advertisement",
        "This is a test advertisement minted via Foundry script",
        "https://placeholderads.s3.ap-south-1.amazonaws.com/ad-images/1738575381353-6912.png"
      ],
      "transaction": {
        "from": "0xb47cfcf8181d36117142b83d31bbbf63b1b250fe",
        "to": "0x2ef9b1ac7e775a202b245aee678336d143c967be",
        "gas": "0x6068a",
        "value": "0x0",
        "input": "0x260e8f9e000000000000000000000000b47cfcf8181d36117142b83d31bbbf63b1b250fe000000000000000000000000000000000000000000000000000000000000008000000000000000000000000000000000000000000000000000000000000000c00000000000000000000000000000000000000000000000000000000000000120000000000000000000000000000000000000000000000000000000000000001453616d706c65204164766572746973656d656e7400000000000000000000000000000000000000000000000000000000000000000000000000000000000000365468697320697320612074657374206164766572746973656d656e74206d696e7465642076696120466f756e6472792073637269707400000000000000000000000000000000000000000000000000000000000000000000000000000000005368747470733a2f2f706c616365686f6c6465726164732e73332e61702d736f7574682d312e616d617a6f6e6177732e636f6d2f61642d696d616765732f313733383537353338313335332d363931322e706e6700000000000000000000000000",
        "nonce": "0x74",
        "chainId": "0x14a34"
      },
      "additionalContracts": [],
      "isFixedGasLimit": false
    }
  ],
  "receipts": [
    {
      "status": "0x1",
      "cumulativeGasUsed": "0x90f1de",
      "logs": [
        {
          "address": "0x2ef9b1ac7e775a202b245aee678336d143c967be",
          "topics": [
            "0xddf252ad1be2c89b69c2b068fc378daa952ba7f163c4a11628f55a4df523b3ef",
            "0x0000000000000000000000000000000000000000000000000000000000000000",
            "0x000000000000000000000000b47cfcf8181d36117142b83d31bbbf63b1b250fe",
            "0x0000000000000000000000000000000000000000000000000000000000000003"
          ],
          "data": "0x",
          "blockHash": "0x7e26863e75f4e9f8f282803ff90cb64750943519ed5badfa3efbdf0354133a32",
          "blockNumber": "0x14878fc",
          "transactionHash": "0x57d20f54c0a7c26270e3475d47df3b12cef89b06243b27eeee1242537de1705d",
          "transactionIndex": "0x41",
          "logIndex": "0xcb",
          "removed": false
        },
        {
          "address": "0x2ef9b1ac7e775a202b245aee678336d143c967be",
          "topics": [
            "0xc9cda8d5c27f1129a21a5fb5ae4b40835f43e317ad44f4f1fef899d62afdb33d"
          ],
          "data": "0x000000000000000000000000b47cfcf8181d36117142b83d31bbbf63b1b250fe00000000000000000000000000000000000000000000000000000000000000030000000000000000000000000000000000000000000000000000000000000060000000000000000000000000000000000000000000000000000000000000008000000000000000000000000000000000000000000000000000000000000000c00000000000000000000000000000000000000000000000000000000000000120000000000000000000000000b47cfcf8181d36117142b83d31bbbf63b1b250fe000000000000000000000000000000000000000000000000000000000000001453616d706c65204164766572746973656d656e7400000000000000000000000000000000000000000000000000000000000000000000000000000000000000365468697320697320612074657374206164766572746973656d656e74206d696e7465642076696120466f756e6472792073637269707400000000000000000000000000000000000000000000000000000000000000000000000000000000005368747470733a2f2f706c616365686f6c6465726164732e73332e61702d736f7574682d312e616d617a6f6e6177732e636f6d2f61642d696d616765732f313733383537353338313335332d363931322e706e6700000000000000000000000000",
          "blockHash": "0x7e26863e75f4e9f8f282803ff90cb64750943519ed5badfa3efbdf0354133a32",
          "blockNumber": "0x14878fc",
          "transactionHash": "0x57d20f54c0a7c26270e3475d47df3b12cef89b06243b27eeee1242537de1705d",
          "transactionIndex": "0x41",
          "logIndex": "0xcc",
          "removed": false
        }
      ],
      "logsBloom": "0x00000000000000000000000000000001020000000000000000000000000000000000000000000000080000000000000000000000020000000000000000000000000000000000000000000008000000000200000000800000000000000000000000000000020000000000000000000840000000000000000000000010000000000000000000000000000000000001000000000000000000000000000000000000000000000000000000000000000000000000000000800000000000000000400000000002000000001000000000000000000000000000000000000000000020000000000000000000000000000000000000000000000001000000000000000000",
      "type": "0x2",
      "transactionHash": "0x57d20f54c0a7c26270e3475d47df3b12cef89b06243b27eeee1242537de1705d",
      "transactionIndex": "0x41",
      "blockHash": "0x7e26863e75f4e9f8f282803ff90cb64750943519ed5badfa3efbdf0354133a32",
      "blockNumber": "0x14878fc",
      "gasUsed": "0x41ebb",
      "effectiveGasPrice": "0x1888c",
      "from": "0xb47cfcf8181d36117142b83d31bbbf63b1b250fe",
      "to": "0x2ef9b1ac7e775a202b245aee678336d143c967be",
      "contractAddress": null,
      "l1BaseFeeScalar": "0x44d",
      "l1BlobBaseFee": "0x42ddbd76a6",
      "l1BlobBaseFeeScalar": "0xa118b",
      "l1Fee": "0x2abeff12ed0a",
      "l1GasPrice": "0x36c51854f",
      "l1GasUsed": "0xf7a"
    }
  ],
  "libraries": [],
  "pending": [],
  "returns": {},
  "timestamp": 1738821849,
  "chain": 84532,
  "commit": "e3ad21d"
}