{
  "transactions": [
    {
      "hash": "0xcc0470af2bdbd9fd525428d329c0cc73490ff0b2eed0764ad283922c2c304afb",
      "transactionType": "CALL",
      "contractName": null,
      "contractAddress": "0x7c4cc48b56c1cc695d488709f0045ddb8816e569",
      "function": "createAd(address,string,string,string)",
      "arguments": [
        "0xbb02a9D6A71A847D587cE4Dbb92F32f79c2EfB2a",
        "Sample Advertisement",
        "This is a test advertisement minted via Foundry script",
        "https://placeholderads.s3.ap-south-1.amazonaws.com/ad-images/1738575381353-6912.png"
      ],
      "transaction": {
        "from": "0xbb02a9d6a71a847d587ce4dbb92f32f79c2efb2a",
        "to": "0x7c4cc48b56c1cc695d488709f0045ddb8816e569",
        "gas": "0x6c9ec",
        "value": "0x0",
        "input": "0x260e8f9e000000000000000000000000bb02a9d6a71a847d587ce4dbb92f32f79c2efb2a000000000000000000000000000000000000000000000000000000000000008000000000000000000000000000000000000000000000000000000000000000c00000000000000000000000000000000000000000000000000000000000000120000000000000000000000000000000000000000000000000000000000000001453616d706c65204164766572746973656d656e7400000000000000000000000000000000000000000000000000000000000000000000000000000000000000365468697320697320612074657374206164766572746973656d656e74206d696e7465642076696120466f756e6472792073637269707400000000000000000000000000000000000000000000000000000000000000000000000000000000005368747470733a2f2f706c616365686f6c6465726164732e73332e61702d736f7574682d312e616d617a6f6e6177732e636f6d2f61642d696d616765732f313733383537353338313335332d363931322e706e6700000000000000000000000000",
        "nonce": "0x20",
        "chainId": "0x14a34"
      },
      "additionalContracts": [],
      "isFixedGasLimit": false
    }
  ],
  "receipts": [
    {
      "status": "0x1",
      "cumulativeGasUsed": "0xb54fb7",
      "logs": [
        {
          "address": "0x7c4cc48b56c1cc695d488709f0045ddb8816e569",
          "topics": [
            "0xddf252ad1be2c89b69c2b068fc378daa952ba7f163c4a11628f55a4df523b3ef",
            "0x0000000000000000000000000000000000000000000000000000000000000000",
            "0x000000000000000000000000bb02a9d6a71a847d587ce4dbb92f32f79c2efb2a",
            "0x0000000000000000000000000000000000000000000000000000000000000000"
          ],
          "data": "0x",
          "blockHash": "0xdf588537f53144d254f57e834aa67955d8775b33af45bd05a6093e5abb12e21e",
          "blockNumber": "0x1488e58",
          "transactionHash": "0xcc0470af2bdbd9fd525428d329c0cc73490ff0b2eed0764ad283922c2c304afb",
          "transactionIndex": "0x27",
          "logIndex": "0x118",
          "removed": false
        },
        {
          "address": "0x7c4cc48b56c1cc695d488709f0045ddb8816e569",
          "topics": [
            "0xc9cda8d5c27f1129a21a5fb5ae4b40835f43e317ad44f4f1fef899d62afdb33d"
          ],
          "data": "0x000000000000000000000000bb02a9d6a71a847d587ce4dbb92f32f79c2efb2a00000000000000000000000000000000000000000000000000000000000000000000000000000000000000000000000000000000000000000000000000000060000000000000000000000000000000000000000000000000000000000000008000000000000000000000000000000000000000000000000000000000000000c00000000000000000000000000000000000000000000000000000000000000120000000000000000000000000bb02a9d6a71a847d587ce4dbb92f32f79c2efb2a000000000000000000000000000000000000000000000000000000000000001453616d706c65204164766572746973656d656e7400000000000000000000000000000000000000000000000000000000000000000000000000000000000000365468697320697320612074657374206164766572746973656d656e74206d696e7465642076696120466f756e6472792073637269707400000000000000000000000000000000000000000000000000000000000000000000000000000000005368747470733a2f2f706c616365686f6c6465726164732e73332e61702d736f7574682d312e616d617a6f6e6177732e636f6d2f61642d696d616765732f313733383537353338313335332d363931322e706e6700000000000000000000000000",
          "blockHash": "0xdf588537f53144d254f57e834aa67955d8775b33af45bd05a6093e5abb12e21e",
          "blockNumber": "0x1488e58",
          "transactionHash": "0xcc0470af2bdbd9fd525428d329c0cc73490ff0b2eed0764ad283922c2c304afb",
          "transactionIndex": "0x27",
          "logIndex": "0x119",
          "removed": false
        }
      ],
      "logsBloom": "0x00000000000000000000000000000001020000000000000000000000000000000000000000000000000000000000000000000000000000008000000000001000000000000000000000000008000000000000000000000000000000000000000000000000020000000000000000000800000000000000000000000010000000010000000000000000000000000000000000000040000000000000000000000000000000000000000000000000000000000000000000000000000000000000000000008002000000021000000000000000000000000000000000000000000020000000000000000000000000000000000000000000000000000000000000000000",
      "type": "0x2",
      "transactionHash": "0xcc0470af2bdbd9fd525428d329c0cc73490ff0b2eed0764ad283922c2c304afb",
      "transactionIndex": "0x27",
      "blockHash": "0xdf588537f53144d254f57e834aa67955d8775b33af45bd05a6093e5abb12e21e",
      "blockNumber": "0x1488e58",
      "gasUsed": "0x4a453",
      "effectiveGasPrice": "0x18861",
      "from": "0xbb02a9d6a71a847d587ce4dbb92f32f79c2efb2a",
      "to": "0x7c4cc48b56c1cc695d488709f0045ddb8816e569",
      "contractAddress": null,
      "l1BaseFeeScalar": "0x44d",
      "l1BlobBaseFee": "0x787eb9bbc3",
      "l1BlobBaseFeeScalar": "0xa118b",
      "l1Fee": "0x4d517682c718",
      "l1GasPrice": "0x1716d4bbde",
      "l1GasUsed": "0xf7a"
    }
  ],
  "libraries": [],
  "pending": [],
  "returns": {},
  "timestamp": 1738832786,
  "chain": 84532,
  "commit": "270a582"
}