{
  "transactions": [
    {
      "hash": "0x1bc459d851ae35224e641cc924283c2feb4edafc335431ec6b718ca281e13244",
      "transactionType": "CALL",
      "contractName": null,
      "contractAddress": "0x2ef9b1ac7e775a202b245aee678336d143c967be",
      "function": "createAd(address,string,string,string)",
      "arguments": [
        "0xb47CFCf8181D36117142b83D31BBBF63B1b250fE",
        "Sample Advertisement",
        "This is a test advertisement minted via Foundry script",
        "https://placeholderads.s3.ap-south-1.amazonaws.com/ad-images/1738575381353-6912.png"
      ],
      "transaction": {
        "from": "0xb47cfcf8181d36117142b83d31bbbf63b1b250fe",
        "to": "0x2ef9b1ac7e775a202b245aee678336d143c967be",
        "gas": "0x60d1b",
        "value": "0x0",
        "input": "0x260e8f9e000000000000000000000000b47cfcf8181d36117142b83d31bbbf63b1b250fe000000000000000000000000000000000000000000000000000000000000008000000000000000000000000000000000000000000000000000000000000000c00000000000000000000000000000000000000000000000000000000000000120000000000000000000000000000000000000000000000000000000000000001453616d706c65204164766572746973656d656e7400000000000000000000000000000000000000000000000000000000000000000000000000000000000000365468697320697320612074657374206164766572746973656d656e74206d696e7465642076696120466f756e6472792073637269707400000000000000000000000000000000000000000000000000000000000000000000000000000000005368747470733a2f2f706c616365686f6c6465726164732e73332e61702d736f7574682d312e616d617a6f6e6177732e636f6d2f61642d696d616765732f313733383537353338313335332d363931322e706e6700000000000000000000000000",
        "nonce": "0x73",
        "chainId": "0x14a34"
      },
      "additionalContracts": [],
      "isFixedGasLimit": false
    }
  ],
  "receipts": [
    {
      "status": "0x1",
      "cumulativeGasUsed": "0x7b98cb",
      "logs": [
        {
          "address": "0x2ef9b1ac7e775a202b245aee678336d143c967be",
          "topics": [
            "0xddf252ad1be2c89b69c2b068fc378daa952ba7f163c4a11628f55a4df523b3ef",
            "0x0000000000000000000000000000000000000000000000000000000000000000",
            "0x000000000000000000000000b47cfcf8181d36117142b83d31bbbf63b1b250fe",
            "0x0000000000000000000000000000000000000000000000000000000000000002"
          ],
          "data": "0x",
          "blockHash": "0x52578cb06d298135939c205da0a420a70b10f7f9cb124a7eebf85c6ecf59ecf4",
          "blockNumber": "0x14878ec",
          "transactionHash": "0x1bc459d851ae35224e641cc924283c2feb4edafc335431ec6b718ca281e13244",
          "transactionIndex": "0x37",
          "logIndex": "0xb5",
          "removed": false
        },
        {
          "address": "0x2ef9b1ac7e775a202b245aee678336d143c967be",
          "topics": [
            "0xc9cda8d5c27f1129a21a5fb5ae4b40835f43e317ad44f4f1fef899d62afdb33d"
          ],
          "data": "0x000000000000000000000000b47cfcf8181d36117142b83d31bbbf63b1b250fe00000000000000000000000000000000000000000000000000000000000000020000000000000000000000000000000000000000000000000000000000000060000000000000000000000000000000000000000000000000000000000000008000000000000000000000000000000000000000000000000000000000000000c00000000000000000000000000000000000000000000000000000000000000120000000000000000000000000b47cfcf8181d36117142b83d31bbbf63b1b250fe000000000000000000000000000000000000000000000000000000000000001453616d706c65204164766572746973656d656e7400000000000000000000000000000000000000000000000000000000000000000000000000000000000000365468697320697320612074657374206164766572746973656d656e74206d696e7465642076696120466f756e6472792073637269707400000000000000000000000000000000000000000000000000000000000000000000000000000000005368747470733a2f2f706c616365686f6c6465726164732e73332e61702d736f7574682d312e616d617a6f6e6177732e636f6d2f61642d696d616765732f313733383537353338313335332d363931322e706e6700000000000000000000000000",
          "blockHash": "0x52578cb06d298135939c205da0a420a70b10f7f9cb124a7eebf85c6ecf59ecf4",
          "blockNumber": "0x14878ec",
          "transactionHash": "0x1bc459d851ae35224e641cc924283c2feb4edafc335431ec6b718ca281e13244",
          "transactionIndex": "0x37",
          "logIndex": "0xb6",
          "removed": false
        }
      ],
      "logsBloom": "0x04000000000000000000000000000001020000000000000000000000000000000000000000000000080000000000000000000000000000000000000000000000000000000000000000000008000000000200000000800000000000000000000000000000020000000000000000000840000000000000000000000010000000000000000000000000000000000001000000000000000000000000000000000000000000000000000000000100000000000000000000000000000000000000000000000002000000001000000000000000000000000000000000000000000020000000000000000000000000000000000000000000008001000000000000000000",
      "type": "0x2",
      "transactionHash": "0x1bc459d851ae35224e641cc924283c2feb4edafc335431ec6b718ca281e13244",
      "transactionIndex": "0x37",
      "blockHash": "0x52578cb06d298135939c205da0a420a70b10f7f9cb124a7eebf85c6ecf59ecf4",
      "blockNumber": "0x14878ec",
      "gasUsed": "0x46187",
      "effectiveGasPrice": "0x1888d",
      "from": "0xb47cfcf8181d36117142b83d31bbbf63b1b250fe",
      "to": "0x2ef9b1ac7e775a202b245aee678336d143c967be",
      "contractAddress": null,
      "l1BaseFeeScalar": "0x44d",
      "l1BlobBaseFee": "0x515e8ba0ee",
      "l1BlobBaseFeeScalar": "0xa118b",
      "l1Fee": "0x33ffbd605f53",
      "l1GasPrice": "0x31269e3b5",
      "l1GasUsed": "0xf7a"
    }
  ],
  "libraries": [],
  "pending": [],
  "returns": {},
  "timestamp": 1738821818,
  "chain": 84532,
  "commit": "e3ad21d"
}